S02200004C61622033202D204F62737461636C652041766F6964616E63652E737265635C
S11300000C940B030C9428030C9428030C942803DD
S11300100C948D0C0C94B60C0C94DF0C0C94080D01
S11300200C9428030C946E0B0C94970B0C94C00B3B
S11300300C943B0C0C94E90B0C94120C0C94640C73
S11300400C94F30A0C941C0B0C94450B0C9428038D
S11300500C9428030C9428030C9428030C94280370
S11300600C9428030C9428030C9428030C94280360
S11300700C9428030C9428030C9428030763423639
S1130080B79BD8A71A39685618AEBAAB558C1D3C25
S1130090B7CC5763BD6DEDFD753EF6177231BF00E9
S11300A00000803F08000000BE922449123EABAA23
S11300B0AA2ABECDCCCC4C3E00000080BEABAAAA7E
S11300C0AA3E00000000BF000000803F00000000C6
S11300D000084178D3BB4387D1133D190E3CC3BDFF
S11300E04282AD2B3E68EC8276BED98FE1A93E4CAC
S11300F080EFFFBE01C4FF7F3F00000000006E617F
S11301006E00696E660000407A10F35A00A0724EC9
S113011018090010A5D4E80000E87648170000E4A8
S11301200B54020000CA9A3B000000E1F5050000F0
S113013080969800000040420F000000A086010055
S11301400000102700000000E80300000000640025
S1130150000000000A000000000001000000000090
S11301602C76D888DC674F0823DFC1DFAE59E1B1B4
S1130170B796E5E3E453C63AE651997696E8E6C2C3
S11301808426EB898C9B62ED407C6FFCEFBC9C9FCA
S113019040F2BAA56FA5F490055A2AF75C936B6CEC
S11301A0F9676DC11BFCE0E40D47FEF520E6B500E0
S11301B0D0ED902E0300943577050080841E08004E
S11301C000204E0A000000C80C333333330F986EFE
S11301D012831141EF8D2114893BE65516CFFEE6BB
S11301E0DB18D1844B381BF77C1D901DA4BBE42481
S11301F0203284725E228100C9F124ECA1E53D27FE
S113020016050100000000000000FA000000E000F4
S1130210E00028FE28FE282454FE5448C4C81026B2
S1130220466C92AA44A000A0C0000000384482009A
S1130230008244380028107C102810107C10100014
S11302400A0C00001010101010000606000004082C
S11302501020407C8A92A27C0042FE020042868AE0
S113026092628482A2D28C182848FE08E4A2A2A238
S11302709C3C5292920C808E90A0C06C9292926C94
S11302806092929478006C6C0000006A6C0000101C
S113029028448200282828282800824428104080E6
S11302A08A90604C929E827C7E8888887EFE9292A0
S11302B0926C7C82828244FE82824438FE929292C4
S11302C082FE909090807C8292925EFE101010FECE
S11302D00082FE8200040282FC80FE10284482FE1A
S11302E002020202FE403040FEFE201008FE7C8224
S11302F082827CFE909090607C828A847AFE9098C0
S11303009462629292928C8080FE8080FC0202024F
S1130310FCF8040204F8FC021C02FCC6281028C6DF
S1130320E0100E10E0868A92A2C200FE8282004093
S113033020100804008282FE002040804020020237
S11303400202020080402000042A2A2A1EFE1222F1
S1130350221C1C222222041C222212FE1C2A2A2ACB
S113036018107E908040304A4A4A7CFE1020201E9D
S11303700022BE0200040222BC00FE081422000077
S113038082FE02003E2018201E3E1020201E1C2249
S113039022221C3E28282810102828183E3E10200F
S11303A02010122A2A2A0420FC2202043C020204FD
S11303B03E38040204383C020C023C221408142285
S11303C0300A0A0A3C22262A322200106C820000DB
S11303D000FE000000826C100008101008100000DD
S11303E00000007F8181817F7F8383837F7F878774
S11303F0877F7F8F8F8F7F7F9F9F9F7F7FBFBFBFB1
S11304007F7FFFFFFF7F2040FF40206215171565A7
S113041000FBFB00000000000000C0FF0300E0FF41
S11304200700F0FF0F00F8FF1F0078001E0078009F
S11304301E0078001E0078001E0078001E00780060
S11304401E0078001E0078001E0078001E000000C8
S113045000000000000080FF0300E0FF0700F0FF41
S11304600F00F8FF1F00F83C1F00783C1E00783C8A
S11304701E00783C1E00783C1E00783C1E00783C30
S11304801E00783C1E00783C1E00783C1E00783C20
S11304901E000000000000000000E0FF0300F0FF69
S11304A00700F8FF0F00F8FF1F00783C1E00783C9F
S11304B01E00783C1E00783C1E00783C1E00783CF0
S11304C01E00783C1E00783C1E00783C1E00783CE0
S11304D01E000000000000000000F8FF0300F8FF09
S11304E00F00F8FF1F00F8FF1F0000001E000000AF
S11304F01E0000801F0000F01F0000FF0F00E0FF3F
S11305000700F0FF0000F80F0000F800000078007A
S1130510000078000000F8FF1F00F8FF1F00F0FF44
S11305201F00E0FF1F000000000000000000F8FFB3
S11305301F00F8FF1F00F8FF1F00F8FF1F007800DE
S11305401E00783C1E00783C1E00783C1E00783C5F
S11305501E00783C1E00783C1E00F87E1F00F8FF49
S11305601F00F0FF0F00E0E70300000000000000A0
S11305703800EEFF6C002A8045003A0047FC03FF78
S11305806CFC83FF3900DEFF0B7CD0810BFCD08137
S11305900BC0D0810BFCD0810B7CDEFF0B0082FFF3
S11305A0397002FF6CF83A0047DC2A8045CCEEFF34
S11305B06CCC000038000000000C00001E0C000091
S11305C01E0000001E0000001E0000001E00F8FFB8
S11305D01F00F8FF1F00F8FF1F00F8FF1F000000B6
S11305E01E0000001E0000001E0000001E0000008F
S11305F05E000000400000007C000000400000009D
S1130600400000007C0000003000000010000000EA
S1130610300000007C0011241FBECFEFD8E0DEBF05
S1130620CDBF11E0A0E0B1E0E6EBF2E402C005903A
S11306300D92A636B107D9F722E0A6E6B1E001C0D3
S11306401D92AB35B207E1F70E942A030C9459219D
S11306500C9400000E94F10A0E94E30A0E94F5161D
S113066080E090E008950F931F9385E00E9438097D
S11306708823C1F080E460E00E94300400E0802F11
S113068060E00E94DB0310E080E061E00E9430043F
S11306901F5F1038C9F70F5F043089F783E060E00B
S11306A00E941E041F910F9108950F931F9385E0DC
S11306B00E942B09882311F082E07AC00E944D0425
S11306C0182F0E94AA091150123008F06DC08150F1
S11306D0823008F069C00E944B048EEA60E00E94F8
S11306E0300482EA60E00E94300480EA60E00E9404
S11306F0300400E513ECC8010197F1F780EC60E0E9
S11307000E9430048FE260E00E94300481E860E0DF
S11307100E94300486E160E00E94300482E260E0DE
S11307200E943004C8010197F1F78FEA60E00E944B
S1130730300486EA60E00E94300485EA60E00E94AA
S1130740300480E090E028E833E1F9013197F1F7D3
S1130750019643E0883E9407C1F783EB60E00E9472
S1130760300480E460E00E94300483E060E00E9492
S1130770DB0383E060E00E941E041092F3011092F8
S1130780F5011092F40184E091E090935802809373
S1130790570288E10E94FD030E94330384EA60E06B
S11307A00E94300481E004C085E00E941B0987E0B8
S11307B01F910F910895FF920F931F93082FF62E08
S11307C085E00E9438098823A1F01F2D1F7703704C
S11307D0802F806B60E00E94300412951F70812F7F
S11307E0806160E00E9430048F2D8F7060E00E9471
S11307F030041F910F91FF9008951F93182F85E0E7
S11308000E9438098823C1F087E00E948F0482E0A7
S11308106AE00E94E00482E061EB0E94E004612F40
S1130820113208F060E282E00E94E00489EE8A95C9
S1130830F1F787E00E948F041F9108950F931F938F
S1130840082F162F85E00E943809882331F00370A1
S11308501F771093F1010093F2011F910F910895F6
S11308600F931F93082F162F85E00E9438098823C1
S113087079F0112319F0113021F402C02B9801C032
S11308802B9A86E08A95F1F780E0602F0E94E004BD
S11308901F910F910895239A089582E00E942B09D5
S11308A0882311F082E008950E94EF0480E065E659
S11308B07EE00E94860481E06DE57EE00E9486046D
S11308C082E065E57EE00E94860486E06DE67EE0D7
S11308D00E94860483E06DE47EE00E94860484E046
S11308E06DE47EE00E94860485E06DE47EE00E9473
S11308F0860487E06DE47EE00E9486048FEF809397
S1130900F60187E00E948F0481E00895E82FF0E06B
S1130910EE0FFF1FEB54FE4F7183608308951F9306
S1130920182F82E00E943809882309F447C0912FC8
S113093097708091F601981709F440C09093F601DE
S113094085B1887F892B85B9933011F1943028F4CF
S1130950913051F0923090F40CC0953019F19530EB
S1130960E0F0963021F50FC0E091B701F091B801A5
S113097022C0E091B501F091B6011DC0E091B9012A
S1130980F091BA0118C0E091C101F091C20113C005
S1130990E091BB01F091BC010EC0E091BD01F0916A
S11309A0BE0109C0E091BF01F091C00104C0E09113
S11309B0C301F091C401309709F009951F9108957E
S11309C01F93162F0E948F0482E00E943809882307
S11309D021F01EBD0DB407FEFDCF1F910895259A89
S11309E02698279A209A219A229A08952F923F9224
S11309F04F925F926F927F928F929F92AF92BF922B
S1130A00CF92DF92EF92FF920F931F93DF93CF93D6
S1130A100F92CDB7DEB7582E962E442E3901C982D7
S1130A201501CE88DF88A88CB98C6A8D7B8D81E016
S1130A30981619F1981628F092E0991609F070C0EA
S1130A403EC080E0B7010E94E60680E0642DA30169
S1130A5098010981EE24E3947EE2C72E72E0D72E3A
S1130A600E94A607552009F05BC000D00F92EDB795
S1130A70FEB71182338222821CC081E00E94E60606
S1130A8081E0682DA60195010C8DEE24E3949EE28D
S1130A90C92E92E0D92E0E94A607552009F040C025
S1130AA000D00F92EDB7FEB791828D8D9E8D93830A
S1130AB082830E94BE080F900F900F9031C0C7012F
S1130AC00E94080700D08EE292E0EDB7FEB7928351
S1130AD08183842DB301A8012981082D7601650144
S1130AE0AC8C882483940E9439080F900F90552071
S1130AF0B9F400D000D00F92ADB7BEB71196EDB7E0
S1130B00FEB79182FD01328221828D8D9E8D948368
S1130B1083830E94BE080F900F900F900F900F9048
S1130B200F90CF91DF911F910F91FF90EF90DF9085
S1130B30CF90BF90AF909F908F907F906F905F9079
S1130B404F903F902F9008954F925F927F928F9293
S1130B509F92AF92BF92CF92DF92EF92FF920F9348
S1130B601F93DF93CF93CDB7DEB7562F942E7C2CF3
S1130B70AA89BB89CC88DD886E897F89988D81306C
S1130B8009F445C0813030F1823009F066C051303B
S1130B9071F0513020F0523009F05FC011C080E094
S1130BA0B7010E94E60680E0692DA80106C081E035
S1130BB00E94E60681E0682DA6010E94B2064DC09F
S1130BC0C7010E940807892DB801482D96010E948B
S1130BD0C90643C0EDB7FEB739970FB6F894FEBF08
S1130BE00FBEEDBF4DB65EB60894411C511CB283D6
S1130BF0A183F201D382C282758364839683898D33
S1130C009A8D9087878380E0652FC72C1CC0EDB731
S1130C10FEB739970FB6F894FEBF0FBEEDBFADB661
S1130C20BEB60894A11CB11CB283A183F501D38282
S1130C30C2827583648396831086178281E0652F50
S1130C40C72CAA24BB240E94F6048DB79EB709962C
S1130C500FB6F8949EBF0FBE8DBFCF91DF911F9149
S1130C600F91FF90EF90DF90CF90BF90AF909F9047
S1130C708F907F905F904F90089587E00E942B099A
S1130C80882311F082E008950E94110981E0809385
S1130C902D021092F7011092F8011092FA011092AD
S1130CA0F9011092FC011092FB011092FE011092C6
S1130CB0FD01109200021092FF01109202021092A4
S1130CC00102109204021092030210920602109282
S1130CD00502109208021092070210920A02109262
S1130CE0090210920C0210920B0210920E02109242
S1130CF00D021092100210920F021092150210921F
S1130D001602109217021092180210921A021092F0
S1130D101B0210921C0210921D0210921E021092CD
S1130D201F021092200210922202109221021092AD
S1130D30240210922302109226021092250210928D
S1130D40280210922702109212021092110210929D
S1130D5014021092130210922C0210922B02109281
S1130D602D020895EF92FF920F931F93182F062FD1
S1130D707A0160E00E944507812F602F0E942607B8
S1130D80812FB7010E945A071F910F91FF90EF9096
S1130D900895CF92DF92EF92FF920F931F93C82E84
S1130DA07B01D42E890182E060E00E9445078C2DEE
S1130DB06D2D0E943B07C701B8010E9487071F9150
S1130DC00F91FF90EF90DF90CF900895482F81E02E
S1130DD080932D02CB0123E0693E720710F088EE68
S1130DE093E0413071F0413018F0423071F405C0A5
S1130DF0909302028093010208C0909302028093B0
S1130E000102909304028093030210922D0208952C
S1130E1021E020932D02AC0183E0493E580710F0F5
S1130E2048EE53E09B0183E0693E780710F028EE1A
S1130E3033E0F89450930202409301023093040289
S1130E4020930302789410922D020895982F81E044
S1130E5080932D02913051F0913018F0923041F48A
S1130E6003C060931A0204C060931A0260931B02C9
S1130E7010922D02089591E090932D02EAE1F2E0A0
S1130E808193608310922D020895982F81E08093BE
S1130E902D02913051F0913018F0923041F403C09A
S1130EA06093F70104C06093F7016093F801109216
S1130EB02D020895482F81E080932D02CB0121E07B
S1130EC06139720710F080E991E0413061F04130FE
S1130ED018F04230C9F40EC0F8949093FA0180934C
S1130EE0F901789411C0F8949093FC018093FB016C
S1130EF078940AC0F8949093FA018093F90190933E
S1130F00FC018093FB01789410922D020895AC01AA
S1130F1081E080932D02F894CB0121E061397207BE
S1130F2010F080E991E09093FC018093FB019A0119
S1130F3081E04139580710F020E931E03093FA019B
S1130F402093F901789410922D0208958F929F9224
S1130F50AF92BF92CF92DF92EF92FF920F931F93C3
S1130F60CF93DF93182FF62E4A015901E60187E04B
S1130F700E943809882309F46FC0812F61E00E9420
S1130F804507812FB401A5010E944710812F6F2DC1
S1130F900E942607812F602F0E943210812FB401F6
S1130FA00E940A10C114D10499F0113049F0113093
S1130FB018F0123069F406C018821092290208C091
S1130FC0198204C0188219821092290210922A02EE
S1130FD0D0932C02C0932B02EE20B9F586E691E063
S1130FE090932C0280932B02812FB5010E945A0703
S1130FF0812F0E94F50F113071F0113018F012306A
S113100059F512C01092660110922902809166016E
S11310108823E1F321C01092670110922A02809183
S113102067018823E1F318C01092660110926701EA
S11310301092290210922A02809166018823E1F31A
S1131040809167018823C1F307C0812FB5010E94F5
S11310505A07812F0E94F50FDF91CF911F910F91B5
S1131060FF90EF90DF90CF90BF90AF909F908F90C4
S113107008953F924F925F926F927F928F929F92C8
S1131080AF92BF92CF92DF92EF92FF920F931F9392
S1131090DF93CF93CDB7DEB7982E2B013A01322ED2
S11310A0B02E0C891D8987E00E943809882309F431
S11310B053C082E061E00E94450780E0B201A301D1
S11310C00E94471081E0B701A6010E944710892DB4
S11310D06B2D0E943B0780E0632D0E94321081E05B
S11310E06A2D0E943210C201B7010E942510011519
S11310F0110539F0F8011082118210922902109220
S11311002A0210932C0200932B028820F1F488E623
S113111091E090932C0280932B02C301B6010E94AC
S1131120870782E00E94F50F10926801109269010E
S11311301092290210922A02809168018823E1F317
S1131140809169018823C1F307C0C301B6010E94DD
S1131150870782E00E94F50FCF91DF911F910F91D5
S1131160FF90EF90DF90CF90BF90AF909F908F90C3
S11311707F906F905F904F903F900895CF92DF9251
S1131180EF92FF920F931F93DF93CF93CDB7DEB708
S11311901B8587E00E9438098823D1F1113061F062
S11311A0113018F01230A1F511C0EC85FD85809145
S11311B02E028823E1F306C0EC85FD8580912F0281
S11311C08823E1F3309721F1099522C0CC84DD8492
S11311D0EE84FF8400E010E0002351F480912E029D
S11311E0882331F0C114D10411F0F601099501E00E
S11311F0112351F480912F02882331F0E114F1047A
S113120011F0F701099511E0002331F3112321F3C3
S1131210CF91DF911F910F91FF90EF90DF90CF90CE
S113122008953A9A3B9A3C9A3D9A3E9A3F9A88B1DD
S1131230837088B90895853160F4E82FF0E0E452B2
S1131240FE4F8081882329F08081815080838081B2
S113125008958FEF0895853110F080E00895E82F08
S1131260F0E0E452FE4F80818F5F808381500895C7
S1131270853110F080E00895E82FF0E0E452FE4F4D
S11312808081811181E008951F93182F80916B0153
S1131290882341F080917201882399F010926B01A8
S11312A0109272010E94790980936A018CE691E0A0
S11312B061E040E028E230E00E943C0A81E0809353
S11312C06B0190916A01133018F0133079F409C05E
S11312D0E12FF0E0E050FF4F8081892341F081E06D
S11312E006C091FF03C0892F817001C080E01F9167
S11312F008950F931F9381E00E943809882311F405
S113130000E024C087E00E948F0482E06AE00E942B
S1131310E00482E062EB0E94E00418EC812F8A95DD
S1131320F1F782E060E00E94760E082F812F8A9503
S1131330F1F782E060E00E94760E1A95F1F787E0FB
S11313400E948F0488E893E10197F1F7802F1F91A1
S11313500F910895DF93CF9300D00F92CDB7DEB7EE
S113136081E00E942B09882311F082E011C00E94C1
S11313704D048150823040F40E94CE09CE01019682
S11313800E949B1081E004C081E00E941B0987E059
S11313900F900F900F90CF91DF9108951092450216
S11313A0109244021092470210924602109249028F
S11313B01092480210924B0210924A0210924D026F
S11313C010924C0280E991E09093310280933002B4
S11313D090933302809332029093350280933402C7
S11313E090933702809336029093390280933802A7
S11313F084E398E090933B0280933A0290933D02F9
S113140080933C0290933F0280933E02909341026A
S113141080934002909343028093420208950F9375
S11314201F93DF93CF93CDB7DEB729970FB6F89408
S1131430DEBF0FBECDBF8C0188E00E94380988232F
S113144011F491E00DC0CE01019661E040E09801F5
S11314500E943C0A982F882319F48F818823E9F38A
S1131460892F29960FB6F894DEBF0FBECDBFCF915A
S1131470DF911F910F910895EF92FF920F931F93A5
S1131480CF93DF93EC01F62EE42E890188E00E94CD
S11314903809882311F481E026C084E090E00E949A
S11314A09A1EFC01009711F482E01DC0F982F0FC41
S11314B01E8281E0E81619F4898184608983898118
S11314C0886089831B830A831D830C83D183C08333
S11314D01382128281E08093D501CF010E947A0A9F
S11314E01092D50180E0DF91CF911F910F91FF9071
S11314F0EF900895CF92DF92EF92FF920F931F9394
S1131500CF93DF93EC0180914E02882339F4D0937A
S11315105002C0934F020E94F41047C0C0904F0283
S1131520D090500200E010E0EE24FF2437C0A881E0
S1131530B981FD0164817581F60140815181FA010F
S1131540848195819B01281B390B37FF0FC0861BB3
S1131550970B95838483DB82CA82012B29F4D09371
S11315605002C0934F0221C0F7010CC0F6018281E2
S113157093812115310549F4FD01158214829B8361
S11315808A83F601D383C28310C0FD01358324838B
S11315900097B9F30F5F1F4F76016C0180914E02E3
S11315A090E00817190718F2ECCF80914E028F5F74
S11315B080934E02DF91CF911F910F91FF90EF9096
S11315C0DF90CF9008950E9484100E94EF0D0E9436
S11315D0310D0E94D8100E944D040E94AA097894EB
S11315E00895000008951F920F920FB60F921124D0
S11315F02F933F934F935F936F937F938F939F9317
S1131600AF93BF93EF93FF93E0919501F09196010F
S1131610309709F00995FF91EF91BF91AF919F9198
S11316208F917F916F915F914F913F912F910F9087
S11316300FBE0F901F9018951F920F920FB60F9226
S113164011242F933F934F935F936F937F938F93C3
S11316509F93AF93BF93EF93FF93E0919701F09122
S11316609801309709F00995FF91EF91BF91AF91DF
S11316709F918F917F916F915F914F913F912F91A6
S11316800F900FBE0F901F9018951F920F920FB6D8
S11316900F9211242F933F934F935F936F937F93F4
S11316A08F939F93AF93BF93EF93FF93E09199012F
S11316B0F0919A01309709F00995FF91EF91BF914C
S11316C0AF919F918F917F916F915F914F913F91D6
S11316D02F910F900FBE0F901F9018951F920F928D
S11316E00FB60F9211242F933F934F935F936F93F1
S11316F07F938F939F93AF93BF93EF93FF93E09167
S11317008701F0918801309709F00995FF91EF91D5
S1131710BF91AF919F918F917F916F915F914F9105
S11317203F912F910F900FBE0F901F9018951F920D
S11317300F920FB60F9211242F933F934F935F9301
S11317406F937F938F939F93AF93BF93EF93FF9385
S1131750E0918901F0918A01309709F00995FF9190
S1131760EF91BF91AF919F918F917F916F915F9115
S11317704F913F912F910F900FBE0F901F9018958E
S11317801F920F920FB60F9211242F933F934F93F2
S11317905F936F937F938F939F93AF93BF93EF93D5
S11317A0FF93E0918B01F0918C01309709F009953A
S11317B0FF91EF91BF91AF919F918F917F916F9125
S11317C05F914F913F912F910F900FBE0F901F90FB
S11317D018951F920F920FB60F9211242F933F93D7
S11317E04F935F936F937F938F939F93AF93BF9325
S11317F0EF93FF93E0918F01F0919001309709F0FE
S11318000995FF91EF91BF91AF919F918F917F9136
S11318106F915F914F913F912F910F900FBE0F9059
S11318201F9018951F920F920FB60F9211242F93A9
S11318303F934F935F936F937F938F939F93AF9354
S1131840BF93EF93FF93E0919101F0919201309750
S113185009F00995FF91EF91BF91AF919F918F91FD
S11318607F916F915F914F913F912F910F900FBE98
S11318700F901F9018951F920F920FB60F9211247C
S11318802F933F934F935F936F937F938F939F9384
S1131890AF93BF93EF93FF93E0918D01F0918E018D
S11318A0309709F00995FF91EF91BF91AF919F9106
S11318B08F917F916F915F914F913F912F910F90F5
S11318C00FBE0F901F9018951F920F920FB60F9294
S11318D011242F933F934F935F936F937F938F9331
S11318E09F93AF93BF93EF93FF93E0919301F09194
S11318F09401309709F00995FF91EF91BF91AF9151
S11319009F918F917F916F915F914F913F912F9113
S11319100F900FBE0F901F9018951F920F920FB645
S11319200F9211242F933F934F935F936F937F9361
S11319308F939F93AF93BF93EF93FF93E0917D01B8
S1131940F0917E01309709F00995FF91EF91BF91D5
S1131950AF919F918F917F916F915F914F913F9143
S11319602F910F900FBE0F901F9018951F920F92FA
S11319700FB60F9211242F933F934F935F936F935E
S11319807F938F939F93AF93BF93EF93FF93E091D4
S11319907F01F0918001309709F00995FF91EF9153
S11319A0BF91AF919F918F917F916F915F914F9173
S11319B03F912F910F900FBE0F901F9018951F927B
S11319C00F920FB60F9211242F933F934F935F936F
S11319D06F937F938F939F93AF93BF93EF93FF93F3
S11319E0E0918101F0918201309709F00995FF910E
S11319F0EF91BF91AF919F918F917F916F915F9183
S1131A004F913F912F910F900FBE0F901F901895FB
S1131A101F920F920FB60F9211242F933F934F935F
S1131A205F936F937F938F939F93AF93BF93EF9342
S1131A30FF93E0918301F0918401309709F00995B7
S1131A40FF91EF91BF91AF919F918F917F916F9192
S1131A505F914F913F912F910F900FBE0F901F9068
S1131A60189580E10E942B09882311F082E00895E3
S1131A70E5E7F1E01192119281E0E53BF807D1F737
S1131A8081E00895FF920F931F93CF93DF93F82E75
S1131A908AE0F816B1F08F1548F0E8E0FE16B9F1C7
S1131AA0EF1538F1F7E0FF1651F43BC08DE0F8165E
S1131AB059F0EBE1FE1689F0FCE0FF1641F001E07D
S1131AC041C01092F10103C01092F1013AC080911B
S1131AD0F20181508093F20134C00E94330314C098
S1131AE080E061E00E9430048091F1018F5F809377
S1131AF0F1018091F10187FFF3CF1092F101809100
S1131B00F20181508093F20100E011E01CC0809149
S1131B10F1018823B1F08091F10186508093F101A5
S1131B2010C081E00E94470F64EF71E080E090E014
S1131B304DE750E024E630E00E94530F81E00E941C
S1131B40AE0E00E010E08091F2016091F1010E947C
S1131B50DB03002351F185E0F89EC0011124EC0160
S1131B60CD59DE4F8C0108591E4FFE01849161E06E
S1131B700E9430042196C017D107B9F780E061E0D4
S1131B800E9430048091F1018A5F8093F101809179
S1131B90F10190E08C3791053CF01092F1018091B5
S1131BA0F20181508093F20111E08091F20183707F
S1131BB08093F201113059F48091F301813039F4AA
S1131BC0E091F401F091F501309709F0099580E076
S1131BD090E0DF91CF911F910F91FF900895F894B9
S1131BE00E944A0E81E00E94F70D81E00895813041
S1131BF049F0F894813020F18230B1F0833009F05B
S1131C0045C017C02C9A80E880936100109261004F
S1131C1080E090E00000019688329105D9F7109297
S1131C20680010926B00089580E88093610083E05F
S1131C3004C080E88093610088E08093610028C03C
S1131C4080E090E0000001962DE680369207D1F7FF
S1131C502C9880E090E0000001962DE680369207F3
S1131C60D1F710927A008FEF80936400809168001E
S1131C7081608093680080916B00846080936B0026
S1131C80789483B7816083BF88950895823008F083
S1131C9078940895249A2C9A089583E58CBD81E064
S1131CA08DBD8DE08A95F1F7089583E58CBD1DBC4B
S1131CB084EF91E00197F1F708958FE78CBD1DBC87
S1131CC084EF91E00197F1F7089583E58CBD81E0FD
S1131CD08DBD8DE08A95F1F7089583E58CBD81E093
S1131CE08DBD84EF91E00197F1F708951F93162FAE
S1131CF00E948F0482E00E943809882329F01EBDC7
S1131D000DB407FEFDCF8EB51F9108958AE00E94A1
S1131D101B09882329F481E00E94A90F1092C601AF
S1131D20089589E00E941B098823B9F48091C501B4
S1131D30882311F00E94EF0F82E00E94A90F809186
S1131D40D3019091D401009731F00E94321F109278
S1131D50D4011092D3011092C5010895813029F065
S1131D60823029F40E94910E08950E94860E0895EF
S1131D700F931F93CF93DF9380E291E00E949A1E0A
S1131D809C019093D4018093D301892B11F480E0BA
S1131D9039C08901C0E0D0E0BE0180E090E00E943B
S1131DA0ED1A20E030E040EA51E40E947B1A27EF6C
S1131DB035E740E05FE30E94B81B9B01AC0160E0A3
S1131DC070E080E291E40E94251C9B01AC01CA01F1
S1131DD0B9012DEC3CEC42E851E40E94B81B0E948E
S1131DE07B1B2AE030E040E050E00E94171EF8011F
S1131DF061937193819391938F012196C834D10596
S1131E0059F681E0DF91CF911F910F9108958AE0F7
S1131E100E942B09882311F082E008951092D001CA
S1131E201092CF0181E00E94C50F81E08093C6012A
S1131E3008951F9389E00E942B09882311F082E002
S1131E4024C08BE00E9438098823D9F40E94B80E7C
S1131E50182F813011F086E018C01092C70110923B
S1131E60C8011092C9011092CA018DE06CE271E1BF
S1131E700E94071182E00E94C50F1093C50181E002
S1131E8004C089E00E941B0987E01F9108958130F6
S1131E9021F0823029F084E008950E94070F08950C
S1131EA00E94190F08956F927F928F929F92AF9222
S1131EB0BF92CF92DF92EF92FF920F931F93CF9333
S1131EC0DF933B014C015A01E9018AE00E94380981
S1131ED0882381F1209741F19501442737FD4095EE
S1131EE0542FBE01C536D10510F064E670E080E0E1
S1131EF090E00E94171E24E630E040E050E00E948B
S1131F00271E79018A01C401B3010E942F11C70160
S1131F100E940F0A60E070E080E090E00E942F11C0
S1131F20C5018E199F0904C0A114B10419F0C5019B
S1131F300E940F0ADF91CF911F910F91FF90EF90B4
S1131F40DF90CF90BF90AF909F908F907F906F90D5
S1131F500895823029F4809181008E7F80938100DE
S1131F608091C501813031F48091C601813011F432
S1131F70000008958091C501813021F08091C6014F
S1131F80813011F45F9857980895982F8091C50176
S1131F90882331F48091C601882311F4579A5F98FD
S1131FA08091C5018823D1F49230C1F4109280004D
S1131FB010928100809181008860809381008091DB
S1131FC081008160809381001092850010928400CA
S1131FD081E08093890080E9809388000895EFE68A
S1131FE0F0E080818D7F80830895982F81E0809335
S1131FF02D02913051F0913018F0923041F403C029
S11320001092150204C0109215021092160210923A
S11320102D020895982F81E080932D02913071F064
S1132020913018F0923071F405C070930A026093F5
S1132030090208C070930A026093090270930C02AB
S113204060930B0210922D02089521E020932D023B
S1132050E9E0F2E091838083329671836083109289
S11320602D020895982F81E080932D02913051F034
S1132070913018F0923041F403C06093170204C009
S1132080609317026093180210922D0208950F9323
S11320901F93CF93DF93EB018A01813001F18130EB
S11320A018F0823061F50DC0809101029091020216
S11320B0892B11F080E01AC010920E0210920D02CA
S11320C01EC08091010290910202892B21F080E0D0
S11320D00E94941104C010920E0210920D0280917D
S11320E0030290910402892B31F081E0BE01A80122
S11320F00E94941104C01092100210920F02DF91FA
S1132100CF911F910F910895CF93DF93C0E0D0E05A
S11321108C2F60E00E9493102196C531D105C1F740
S1132120DF91CF910895853128F4E82FF0E0E4524F
S1132130FE4F608308951F93CF93DF93EC010097C4
S113214099F181E00E943809882351F187E00E94C7
S11321508F0418EC812F8A95F1F782E06AE00E94DF
S1132160E00482E064EB0E94E004812F8A95F1F799
S113217082E060E00E94760E8883812F8A95F1F7D1
S113218082E060E00E94760E89831A95F1F782E07E
S113219060E00E94760E8A8387E00E948F0404C068
S11321A0188219828DE28A83DF91CF911F9108955D
S11321B088E00E942B09882311F082E00895109290
S11321C04E021092500210924F021092D5011092BA
S11321D0D60180E161E072E10E941B110E94F810B7
S11321E00E94011181E0089581E08093D601089551
S11321F084B5826084BD85B5846085BD8EE487BD69
S11322000895EEE6F0E08081826080830895E82FEF
S1132210803268F48051833050F0F0E0EE0FFF1FFD
S1132220EB58FE4F208131817183608302C020E02E
S113223030E0C9010895803218F020E030E00AC08F
S1132240E82FF0E0EE0FFF1FEB58FE4F20813181A5
S113225071836083C90108950E9453110895EF9218
S1132260FF920F931F937B018C018AE00E9438092F
S11322708823A1F08091C601882381F0D801C70189
S1132280880F991FAA1FBB1F9093D2018093D1017D
S1132290E114F1040105110509F45F981F910F91F0
S11322A0FF90EF9008958091C7019091C801A0918B
S11322B0C901B091CA012091CB013091CC01409168
S11322C0CD015091CE01280F391F4A1F5B1F209367
S11322D0C7013093C8014093C9015093CA0180914A
S11322E0C7019091C801A091C901B091CA01885158
S11322F0964FA040B040BCF08BB180588BB9809110
S1132300C7019091C801A091C901B091CA01885137
S1132310964FA040B0408093C7019093C801A0930A
S1132320C901B093CA010895EF92FF920F931F93CE
S1132330CF93DF93EB01882321F0813009F05AC059
S11323402DC09A0140E050E0CA01B9010E94171E55
S11323502091010230910202220F331F40E050E02D
S11323600E94271E79018A01A8019701220F331FB9
S1132370441F551FCE01A0E0B0E082179307A407C5
S1132380B50728F0F0920E02E0920D0233C0D69504
S1132390C795D0930E02C0930D022CC09A0140E061
S11323A050E0CA01B9010E94171E20910302309126
S11323B00402220F331F40E050E00E94271E7901DF
S11323C08A01A8019701220F331F441F551FCE0114
S11323D0A0E0B0E082179307A407B50728F0F092B5
S11323E01002E0920F0206C0D695C795D093100252
S11323F0C0930F02DF91CF911F910F91FF90EF9047
S113240008950E9408120E9448120E942112089501
S113241088E00E943809882311F484E008958091AB
S1132420D601882311F483E008958091D50188238F
S113243011F082E008950E94BA148130E1F380E043
S113244008958091C601813011F58091CF0190915A
S1132450D0012091D1013091D201280F391F30933E
S1132460D0012093CF018091CF019091D001885E5B
S113247093406CF08BB180588BB98091CF019091CF
S1132480D001885E93409093D0018093CF0108954A
S113249087E00E943809882309F4AAC080910102C8
S11324A090910202892B09F18091250290912602D4
S11324B02091010230910202820F931F9093260211
S11324C0809325028091250290912602885E934094
S11324D0A4F08091250290912602885E9340909307
S11324E026028093250241E009C08091F901909170
S11324F0FA019093FE018093FD0140E08091030274
S113250090910402892B09F180912702909128026D
S11325102091030230910402820F931F90932802AA
S1132520809327028091270290912802885E93402D
S1132530A4F08091270290912802885E93409093A2
S113254028028093270261E009C08091FB019091E9
S1132550FC01909300028093FF0160E0842F0E94AD
S1132560F91280912102909122022091FD01309173
S1132570FE01280F391F30932202209321028091FB
S1132580210290912202885E934014F440E00BC033
S11325908091210290912202885E934090932202BE
S11325A08093210241E080912302909124022091A2
S11325B0FF0130910002280F391F30932402209329
S11325C023028091230290912402885E934014F4A4
S11325D060E00BC08091230290912402885E9340B6
S11325E0909324028093230261E0842F0E943E137F
S11325F008958823F1F02091F9013091FA01809136
S1132600FD019091FE01281B390B1216130634F4B8
S11326108091FD019091FE01019607C0232B49F0A2
S11326208091FD019091FE0101979093FE018093AA
S1132630FD01662311F12091FB013091FC01809191
S1132640FF0190910002281B390B1216130654F453
S11326508091FF0190910002019690930002809373
S1132660FF010895232B49F08091FF01909100020E
S11326700197909300028093FF0108950F931F9395
S1132680182F062F80912D02882309F0E7C080912E
S11326901502882309F05AC08091FD019091FE0132
S11326A0892BE9F48091D701837E8093D70110921E
S11326B01E0280912902882309F45DC060911702EB
S11326C080E00E949514E0912B02F0912C02309747
S11326D009F451C081E08083109229024CC080919A
S11326E0F701813041F48091090290910A02019727
S11326F011F411E002C01123F1F1E0911C02F0E0A9
S1132700EE5EFE4F9091D701937E8081892B80935A
S1132710D70180911A02882321F480911C028F5FD3
S113272003C080911C02815080931C0280911C0282
S1132730837080931C0281E080931E028091F701D4
S11327408130C9F480E00E94411415C09091D701F2
S1132750937E9093D701E0911C02F0E0EE5EFE4F71
S11327608081892B8093D70182E080931E0210928E
S1132770FE011092FD0180911602882309F059C0D0
S11327808091FF0190910002892BE9F48091D70197
S11327908F718093D70110921F0280912A0288239F
S11327A009F45CC06091180281E00E949514E091E4
S11327B02B02F0912C02309709F450C081E0818300
S11327C010922A024BC08091F801813041F480912B
S11327D00B0290910C02019711F401E002C0002356
S11327E0E9F1E0911D02F0E0EA5EFE4F9091D7011D
S11327F09F718081892B8093D70180911B0288234C
S113280021F480911D028F5F03C080911D028150CD
S113281080931D0280911D02837080931D0281E0CC
S113282080931F028091F8018130C1F40E94411409
S113283015C09091D7019F719093D701E0911D022B
S1132840F0E0EA5EFE4F8081892B8093D70182E01D
S113285080931F02109200021092FF0180912002C7
S1132860882331F487ED91E0612F402F0E942815D1
S113287088B183709091D701892B88B91F910F91EA
S11328800895882321F0813009F04EC027C080913B
S1132890090290910A02892B49F0809109029091D2
S11328A00A02019790930A028093090280912902F7
S11328B08823D1F52091090230910A0280910D02FA
S11328C090910E022817390779F580E060E070E0F6
S11328D00E945A0781E080932902089580910B0297
S11328E090910C02892B49F080910B0290910C027B
S11328F0019790930C0280930B0280912A02882303
S113290099F420910B0230910C0280910F02909166
S113291010022817390741F481E060E070E00E945A
S11329205A0781E080932A0208950F931F93182F6A
S1132930062F662349F460E070E00E945A07812F55
S113294060E070E00E940A1081E080932D02113053
S113295051F0113018F0123041F403C00093150205
S113296004C0009315020093160210922D021F91C9
S11329700F910895FF920F931F93CF93DF9380914C
S11329804E02882309F459C000914F02109150025D
S1132990F801C081D1818C819D8101979D838C83B5
S11329A0181619060CF449C0898180FF05C08E8170
S11329B0882311F481E08E83898181FF03C0EF8134
S11329C0F885099580914E028230A8F0F801828141
S11329D093819093500280934F0213821282E0916C
S11329E00000F091010084819581181619063CF0CD
S11329F0FF24F39405C01092500210924F02FF245A
S1132A0080914E02815080934E0280914E02882321
S1132A1011F40E942515898182FF08C08A819B8157
S1132A209D838C83C8010E947A0A08C0C8010E9451
S1132A30321F89818F7E898301C0FF248F2DDF910E
S1132A40CF911F910F91FF9008951092D601089590
S1132A50FC0180911E02823069F48091DB0191E0D7
S1132A6089278093DB01882309F03EC08081837E1F
S1132A7080833AC08091FD019091FE01C397A4F533
S1132A806623D1F02091FD013091FE0180E690E0B3
S1132A90BC01269FC001279F900D369F900D1124E5
S1132AA0880F892F881F990B90931202809311022B
S1132AB081E08093D90118C08091D9018823A1F0C5
S1132AC080911102909112020197909312028093C7
S1132AD011028091110290911202892B29F48081B4
S1132AE0837E80831092D90180911F02823069F421
S1132AF08091DA0191E089278093DA01882309F033
S1132B003EC080818F71808308958091FF019091F0
S1132B100002C397A4F54423D1F02091FF01309122
S1132B20000280E690E0AC01249FC001259F900D37
S1132B30349F900D1124880F892F881F990B90932F
S1132B4014028093130281E08093D8010895809148
S1132B50D8018823A1F08091130290911402019767
S1132B6090931402809313028091130290911402A3
S1132B70892B29F480818F7180831092D801089564
S1132B808F92AF92BF92CF92EF92FF920F931F93C7
S1132B901F921F921F9281E08F9382EC8F931F925A
S1132BA088EC8F9383E18F9388E88F93812CA12CF9
S1132BB0B12CC12C82ECE82EFF24F39408EC10E035
S1132BC028E833E140E062E081E00E94A4058DB78B
S1132BD09EB709960FB6F8949EBF0FBE8DBF1F9186
S1132BE00F91FF90EF90CF90BF90AF908F9008958A
S1132BF08F92AF92BF92CF92EF92FF920F931F9357
S1132C00CF93DF930E94330383E00E944409882317
S1132C10F1F11F921F921F92C1E0CF9387E78F9328
S1132C20CF938CE28F931F92D8ECDF938824839404
S1132C30A12CB12CC12C20E9E22EFF24F3940CE248
S1132C4011E028EC30E041E062E080E00E94A4055D
S1132C501F921F921F921F92DF931F92DF93CF93B5
S1132C6084E08F9338ECE32EF12C08EC10E024E0A0
S1132C7031E040E062E080E00E94A4058DB79EB799
S1132C8042960FB6F8949EBF0FBE8DBFA3C080E0DE
S1132C900E944409882309F442C081E00E94440947
S1132CA081113DC01F921F921F92C1E0CF9387E70D
S1132CB08F93CF938CE28F931F92D8ECDF93882469
S1132CC08394A12CB12CC12C90E9E92EFF24F39418
S1132CD00CE211E028EC30E041E062E080E00E9488
S1132CE0A4051F921F921F92CF9380E98F931F9286
S1132CF0DF931F9286E98F93812C08EC10E026E97C
S1132D0030E041E062E080E00E94A4058DB79EB708
S1132D1042960FB6F8949EBF0FBE8DBF5BC081E094
S1132D200E944409882309F441C080E00E944409B8
S1132D3081113CC01F921F921F92C1E0CF9387E77D
S1132D408F93CF938CE28F931F92D8ECDF938824D8
S1132D508394A12CB12CC12C80E9E82EFF24F39498
S1132D600CE211E028EC30E041E062E080E00E94F7
S1132D70A4051F921F921F92CF9380E98F931F92F5
S1132D80DF931F9286E98F9308EC10E026E930E088
S1132D9040E062E080E00E94A4058DB79EB74296B1
S1132DA00FB6F8949EBF0FBE8DBF14C089E591E0A5
S1132DB09F938F930E94E5200F900F90DF91CF9106
S1132DC01F910F91FF90EF90CF90BF90AF908F9095
S1132DD00C94C015DF91CF911F910F91FF90EF904C
S1132DE0CF90BF90AF908F9008950E94AA090E943F
S1132DF055030E943D060E94F815FDCFA0E1B0E006
S1132E00E4E0F7E10C94541E7C011B016A01FC010F
S1132E1017821682838181FF44C39E012F5F3F4F37
S1132E203901F7019381F10193FD859193FF81911C
S1132E301F01882309F431C3853239F493FD859148
S1132E4093FF81911F01853239F4B70190E00E940C
S1132E50A92056016501E5CF10E0512C912CFFE12A
S1132E60F915D8F08B3279F038F4803279F0833266
S1132E70A1F4F92DF0612EC08D3261F0803369F434
S1132E80292D21602DC0392D3260932E892D846027
S1132E90982E2AC0E92DE86015C097FC2DC020EDBE
S1132EA0280F2A3088F496FE06C03AE0139F200DBE
S1132EB01124122F19C08AE0589E200D1124522E7D
S1132EC0E92DE0629E2E10C08E3231F496FCE5C2EC
S1132ED0F92DF0649F2E08C08C3621F4292D20682A
S1132EE0922E02C0883641F4F10193FD859193FF3F
S1132EF081911F018111B3CF9BEB980F933020F484
S1132F00992D9061805E07C09BE9980F933008F07B
S1132F1066C1992D9F7E96FF16E09F73992E853684
S1132F2019F49064992E08C0863621F4392F30683C
S1132F30932E02C01111115097FE07C01C3350F498
S1132F4044244394410E27E00BC0183038F027E0A6
S1132F5017E005C027E09CE3492E02C0212F412C35
S1132F60560184E0A80EB11CF60160817181828152
S1132F709381042DA3010E94BB1F6C01F981FC877E
S1132F80F0FF02C0F3FF06C091FC06C092FE06C02B
S1132F9000E205C00DE203C00BE201C000E08C8535
S1132FA08C7019F001115AC29BC297FE10C04C0CD0
S1132FB0FC85F4FF04C08A81813309F44A94141413
S1132FC074F528E0241578F588E0482E2CC096FC8A
S1132FD02AC0812F90E08C159D059CF03CEFC31610
S1132FE03FEFD30674F0892D8068982E0AC0E2E082
S1132FF0F0E0EC0FFD1FE10FF11D8081803319F427
S113300011501111F4CF97FE0EC044244394410E85
S1133010812F90E0C816D9062CF41C1904C044244E
S1133020439401C010E097FE06C01C141D0434F440
S1133030C601019605C085E090E002C081E090E001
S113304001110196112331F0212F30E02F5F3F4F02
S1133050820F931F252D30E08217930714F4581A1A
S113306001C0512C892D897049F4552039F0B701DC
S113307080E290E00E94A9205A94F7CF002329F01F
S1133080B701802F90E00E94A92093FC09C055202D
S113309039F0B70180E390E00E94A9205A94F7CF59
S11330A097FE4CC04601D7FE02C0812C912CC6016C
S11330B088199909F301E80FF91FFE87ED87960136
S11330C024193109388B2F87012F10E011950195B0
S11330D011093FEF8316930629F4B7018EE290E0BD
S11330E00E94A920C814D9044CF08F8598898815AA
S11330F0990524F4ED85FE85818101C080E3F1E02A
S11331008F1A91082D853E852F5F3F4F3E872D876F
S1133110801691062CF0B70190E00E94A920D9CF27
S1133120C814D90441F49A81963320F4953319F4E0
S11331303C8534FF81E3B70190E04EC08A8181333E
S113314019F09C859F7E9C87B70190E00E94A9207E
S1133150111105C094FC18C085E690E017C0B701B2
S11331608EE290E00E94A9201E5F82E001E0080F39
S1133170F301E80FF11D8081B70190E00E94A920BE
S1133180802F0113F3CFE6CF85E490E0B7010E94CE
S1133190A920D7FC06C0C114D10441F4EC85E4FF96
S11331A005C0D194C194D1088DE201C08BE2B7016E
S11331B090E00E94A92080E32AE0C216D1042CF0FA
S11331C08F5FFAE0CF1AD108F7CFB70190E00E94E1
S11331D0A920B701C601C0960E94A92054C1833614
S11331E031F0833779F0833509F056C020C0560199
S11331F032E0A30EB11CF6018081898301E010E066
S1133200630112C05601F2E0AF0EB11CF601C0809A
S1133210D18096FE03C0612F70E002C06FEF7FEF94
S1133220C6010E949E208C01F92DFF7714C056011F
S113323022E0A20EB11CF601C080D18096FE03C02C
S1133240612F70E002C06FEF7FEFC6010E949320F0
S11332508C01F92DF0689F2EF3FD1AC0852D90E0A6
S113326008171907A8F4B70180E290E00E94A9208A
S11332705A94F4CFF60197FC859197FE81916F01E2
S1133280B70190E00E94A92051105A9401501109ED
S11332900115110579F7F7C0843611F0893661F507
S11332A0560197FE09C024E0A20EB11CF60160810C
S11332B07181828193810AC0F2E0AF0EB11CF601E4
S11332C060817181072E000C880B990BF92DFF7614
S11332D09F2E97FF09C090958095709561957F4FBB
S11332E08F4F9F4FF0689F2E2AE030E0A3010E9489
S11332F0FB20C82EC6183FC0092D853721F40F7E48
S11333002AE030E01DC0097F8F3691F018F488352B
S113331059F0C3C0803719F0883711F0BEC000617E
S113332004FF09C0046007C094FE08C0066006C01C
S113333028E030E005C020E130E002C020E132E0C6
S1133340560107FF09C084E0A80EB11CF601608194
S113335071818281938108C0F2E0AF0EB11CF60145
S11333606081718180E090E0A3010E94FB20C82E5F
S1133370C6180F77902E96FE0BC0092D0E7FC1162E
S113338050F494FE0AC092FC08C0092D0E7E05C0BC
S1133390DC2C092D03C0DC2C01C0D12E04FF0DC090
S11333A0FE01EC0DF11D8081803311F4097E09C00A
S11333B002FF06C0D394D39404C0802F867809F00A
S11333C0D39403FD11C000FF06C01C2DD51480F456
S11333D0150D1D190DC0D51458F4B70180E290E005
S11333E00E94A920D394F7CFD51410F45D1801C01E
S11333F0512C04FF10C0B70180E390E00E94A92083
S113340002FF17C001FD03C088E790E002C088E511
S113341090E0B7010CC0802F867859F001FF02C0FC
S11334208BE201C080E207FD8DE2B70190E00E94CB
S1133430A920C11638F4B70180E390E00E94A920C6
S11334401150F7CFCA94F301EC0DF11D8081B7013F
S113345090E00E94A920C110F5CF15C0F4E0F51545
S113346060F584E0581A93FE1FC0011127C02C8513
S113347023FF2AC00EEF10E0392D3071932EF8018E
S11334808491811124C0552009F4E4CCB70180E271
S113349090E00E94A9205A94F6CFF7018681978183
S11334A026C08FEF9FEF23C0B70180E290E00E9417
S11334B0A9205A945110F8CFD8CF512CB701802F9E
S11334C090E00E94A920D3CF02E011E0D5CF911063
S11334D08052B70190E00E94A9200F5F1F4FCFCF09
S11334E023E0251510F483E0BDCF512CC0CF6096A6
S11334F0E2E10C94701E0E948F1A0C94411B0E94EE
S11335003A1B58F00E94331B40F029F45F3F29F026
S11335100C942A1B51110C94751B0C94301B0E94A3
S1133520521B68F39923B1F3552391F3951B550B63
S1133530BB27AA2762177307840738F09F5F5F4F82
S1133540220F331F441FAA1FA9F335D00E2E3AF0C1
S1133550E0E832D091505040E695001CCAF72BD0D9
S1133560FE2F29D0660F771F881FBB1F261737072A
S11335704807AB07B0E809F0BB0B802DBF01FF275C
S113358093585F4F3AF09E3F510578F00C942A1BF4
S11335900C94751B5F3FE4F3983ED4F386957795BE
S11335A06795B795F7959F5FC9F7880F911D969515
S11335B0879597F90895E1E0660F771F881FBB1F71
S11335C0621773078407BA0720F0621B730B840B1E
S11335D0BA0BEE1F88F7E0950895E89409C097FBAD
S11335E03EF490958095709561957F4F8F4F9F4FD6
S11335F09923A9F0F92F96E9BB279395F69587951A
S113360077956795B795F111F8CFFAF4BB0F11F4DC
S113361060FF1BC06F5F7F4F8F4F9F4F16C0882383
S113362011F096E911C0772321F09EE8872F762FB9
S113363005C0662371F096E8862F70E060E02AF0FA
S11336409A95660F771F881FDAF7880F96958795E6
S113365097F9089597F99F6780E870E060E008950E
S11336609FEF80EC089500240A9416161706180696
S11336700906089500240A94121613061406050672
S11336800895092E0394000C11F4882352F0BB0F03
S113369040F4BF2B11F460FF04C06F5F7F4F8F4F66
S11336A09F4F089557FD9058440F551F59F05F3FA1
S11336B071F04795880F97FB991F61F09F3F79F050
S11336C087950895121613061406551FF2CF4695D2
S11336D0F1DF08C0161617061806991FF1CF869554
S11336E07105610508940895E894BB276627772738
S11336F0CB0197F908950E945A1BA8F19E57B0F187
S1133700985160F039F1983070F5092E9927660FB9
S1133710771F881F991F0A94D1F71CC0BB27993FB4
S11337204CF4B111B1E0B62B672F782F8827985F3E
S1133730B1F708C0869577956795B79508F4B16099
S11337409395C1F7BB0F30F411F460FF03C06F5FB2
S11337507F4F8F4F3EF490958095709561957F4F84
S11337608F4F9F4F089568940C94751B0C94741B91
S11337700E94CB1B0C94411B0E94331B38F00E9407
S11337803A1B20F0952311F00C942A1B0C94301B47
S113379011240C94751B0E94521B70F3959FC1F366
S11337A0950F50E0551F629FF001729FBB27F00DEB
S11337B0B11D639FAA27F00DB11DAA1F649F662740
S11337C0B00DA11D661F829F2227B00DA11D621F8F
S11337D0739FB00DA11D621F839FA00D611D221F49
S11337E0749F3327A00D611D231F849F600D211D2D
S11337F0822F762F6A2F11249F5750409AF0F1F0B0
S113380088234AF0EE0FFF1FBB1F661F771F881F18
S113381091505040A9F79E3F510580F00C942A1B0B
S11338200C94751B5F3FE4F3983ED4F3869577952B
S11338306795B795F795E7959F5FC1F7FE2B880FBE
S1133840911D9695879597F90895FA01EE0FFF1F3C
S1133850309621053105A1F16115710561F48038B7
S1133860BFE39B0749F168949038810561F0803883
S1133870BFEF9B0741F099234AF5FF3FE10531056E
S1133880210519F1E8940894E795D901AA2329F4AC
S1133890AB2FBE2FF85FD0F310C0FF5F70F4A69576
S11338A0E0F7F73950F019F0FF3A38F49F779F9317
S11338B00DD00F9007FC9058089546F00C94301BDF
S11338C060E070E080E89FE308954FE79F775F939F
S11338D04F933F932F930E94201D2F913F914F911F
S11338E05F910E94B81B0C947D1C29F416F00C9473
S11338F02A1B0C94741B0C94301B0E945A1BA8F3B3
S11339009638A0F707F80F92E8942BE33AEA48EBCD
S11339105FE70E94CE1B0F920F920F924DB75EB7D6
S11339200F920E94681DECE7F0E00E94AF1C4F91DB
S11339305F91EF91FF91E595EE1FFF1F49F0FE5750
S1133940E0684427EE0F441FFA95E1F74195550BC3
S11339500E94E21C0F9007FE0C94D61C0895DF937E
S1133960CF931F930F93FF92EF92DF927B018C0111
S1133970689406C0DA2EEF010E94CB1BFE01E89486
S1133980A5912591359145915591A6F3EF010E949A
S1133990B41DFE019701A801DA9469F7DF90EF9056
S11339A0FF900F911F91CF91DF9108959B01AC017E
S11339B060E070E080E89FE30C947B1A0C942A1B6F
S11339C00C94091E0E945A1BD8F39923C9F3940F2F
S11339D0511DA3F39150504094F059F0882332F0D4
S11339E0660F771F881F91505040C1F79E3F5105C5
S11339F02CF7880F911D9695879597F908955F3F49
S1133A00ACF0983E9CF0BB27869577956795B79563
S1133A1008F4B1609395C1F7BB0F58F711F460FF38
S1133A20E8CF6F5F7F4F8F4F9F4FE3CF0C94751B91
S1133A3016F00C94091E0C94301B68940C942A1BE9
S1133A400E945A1BA8F39923C1F3AEF3DF93CF93DB
S1133A501F930F93FF92C92FDD2788232AF0219704
S1133A60660F771F881FDAF720E030E040E85FEB4D
S1133A709FE3883920F0803E38F021968F770E94AA
S1133A809D1DE4EAF0E004C00E949D1DE1EDF0E01C
S1133A900E94AF1C8B01BE01EC01FB2E6F57710914
S1133AA07595771F880B990B0E94EF1A28E132E76E
S1133AB041E35FE30E94CB1BAF2D9801AE01FF9061
S1133AC00F911F91CF91DF910E94B41D0C94411B63
S1133AD0FA01DC01AA0FBB1F9B01AC01BF5728F4FC
S1133AE0222733274427507820C0B75190F4AB2FB6
S1133AF00024469537952795011CA395D2F3002001
S1133B0071F0220F331F441FB395DAF30ED00C94D7
S1133B109C1D61307105A0E88A07B94630F49B0109
S1133B20AC016627772788279078309621F0208388
S1133B3031834283538308955058BB27AA270E9498
S1133B40B41D0C94411B0E94331B38F00E943A1B95
S1133B5020F039F49F3F19F426F40C94301B0EF432
S1133B60E095E7FB0C942A1BE92F0E94521B58F3A3
S1133B70BA17620773078407950720F079F4A6F54E
S1133B800C94741B0EF4E0950B2EBA2FA02D0B0190
S1133B90B90190010C01CA01A0011124FF27591B8E
S1133BA099F0593F50F4503E68F11A16F040A22F94
S1133BB0232F342F4427585FF3CF46953795279505
S1133BC0A795F0405395C9F77EF41F16BA0B620B04
S1133BD0730B840BBAF09150A1F0FF0FBB1F661F4B
S1133BE0771F881FC2F70EC0BA0F621F731F841F8E
S1133BF048F4879577956795B795F7959E3F08F0B4
S1133C00B0CF9395880F08F09927EE0F9795879575
S1133C1008959F3F31F0915020F4879577956795EB
S1133C20B795880F911D9695879597F90895DB01AF
S1133C308F939F930E94491EBF91AF91A29F800DC5
S1133C40911DA39F900DB29F900D11240895A1E2A0
S1133C501A2EAA1BBB1BFD010DC0AA1FBB1FEE1F02
S1133C60FF1FA217B307E407F50720F0A21BB30B4D
S1133C70E40BF50B661F771F881F991F1A9469F7C9
S1133C8060957095809590959B01AC01BD01CF0125
S1133C9008950E948B1EA59F900DB49F900DA49F24
S1133CA0800D911D112408952F923F924F925F929F
S1133CB06F927F928F929F92AF92BF92CF92DF9238
S1133CC0EF92FF920F931F93CF93DF93CDB7DEB79D
S1133CD0CA1BDB0B0FB6F894DEBF0FBECDBF099431
S1133CE02A88398848885F846E847D848C849B8488
S1133CF0AA84B984C884DF80EE80FD800C811B8196
S1133D00AA81B981CE0FD11D0FB6F894DEBF0FBEC4
S1133D10CDBFED010895A29FB001B39FC001A39F41
S1133D20700D811D1124911DB29F700D811D1124F0
S1133D30911D08950F931F93CF93DF9382309105C4
S1133D4010F482E090E0E0915302F091540220E0FC
S1133D5030E0A0E0B0E0309719F140815181028158
S1133D60138148175907C8F08417950769F4109709
S1133D7031F012960C93129713961C9327C000935C
S1133D8053021093540222C02115310519F0421731
S1133D90530718F49A01BD01EF01DF01F801DBCFED
S1133DA021153105F9F0281B390B2430310580F435
S1133DB08A819B816115710521F0FB0193838283C4
S1133DC004C09093540280935302FE01329644C07F
S1133DD0FE01E20FF31F819391932250310939833D
S1133DE028833AC02091510230915202232B41F48E
S1133DF020911C0130911D013093520220935102F5
S1133E0020911A0130911B012115310541F42DB780
S1133E103EB740911E0150911F01241B350BE091C8
S1133E205102F0915202E217F307A0F42E1B3F0B4C
S1133E302817390778F0AC014E5F5F4F2417350718
S1133E4048F04E0F5F1F50935202409351028193EA
S1133E50919302C0E0E0F0E0CF01DF91CF911F9198
S1133E600F910895CF93DF93009709F481C0FC016B
S1133E70329713821282A0915302B0915402109788
S1133E8081F420813181820F931F2091510230915E
S1133E9052022817390751F5F0935202E093510268
S1133EA067C0ED0120E030E0CE17DF0740F44A811F
S1133EB05B819E0141155105F1F0EA01F5CFD383F1
S1133EC0C28340815181840F951FC817D90759F4C3
S1133ED088819981840F951F0296918380838A81BA
S1133EE09B81938382832115310529F4F093540235
S1133EF0E09353023DC0E901FB83EA834991599160
S1133F00C40FD51FEC17FD0761F480819181840FE4
S1133F10951F0296E90199838883828193819B830B
S1133F208A83E0E0F0E012968D919C9113970097BC
S1133F3019F0FD01DC01F7CF8D919C9111979D0142
S1133F402E5F3F4F820F931F2091510230915202F6
S1133F502817390769F4309729F410925402109203
S1133F60530202C013821282B0935202A0935102F0
S1133F70DF91CF910895283008F027E03327DA0144
S1133F80990F311D87FD916000966105710539F423
S1133F9032602E5F3D9330E32A95E1F708959F3F09
S1133FA030F080387105610509F03C5F3C5F3D935A
S1133FB0913008F08068911DDF93CF931F930F9386
S1133FC0FF92EF92192F987F9695E92F96959695E3
S1133FD0E90FFF27E05AFE4F99273327EE24FF24E9
S1133FE0A701E70105900894079428F4360FE71E0B
S1133FF0F81E491F511D660F771F881F991F0694CD
S1134000A1F70590079428F4E70EF81E491F561FE0
S1134010C11D770F881F991F661F0694A1F705908D
S1134020079428F4F80E491F561FC71FD11D880F87
S1134030991F661F771F0694A1F70590079420F433
S1134040490F561FC71FD81F990F661F771F881F58
S11340500694A9F784911095177041F0D695C795E9
S113406057954795F794E7941A95C1F7E6E0F1E080
S113407068941590159135916591959105907FE21D
S11340807395E118F10A430B560BC90BD009C0F71D
S1134090E10CF11E431F561FC91FD01D7EF470335F
S11340A011F48A95E6CFE894015030F0080F0AF431
S11340B00027021708F4202F2395022F7A3328F0C3
S11340C079E37D932A95E9F710C07D932A9589F6C3
S11340D0069497956795379517951794E118F10A03
S11340E0430B560BC90BD00998F023957E91739519
S11340F07A3308F070E37C932013B8F77E917061F3
S11341007D9330F0839571E37D9370E32A95E1F715
S11341101124EF90FF900F911F91CF91DF91992778
S113412087FD90950895FC01059061507040011041
S1134130D8F7809590958E0F9F1F0895FC016150CC
S1134140704001900110D8F7809590958E0F9F1FB5
S113415008950F931F93CF93DF93FB01238121FDD8
S113416003C08FEF9FEF2CC022FF16C046815781FA
S1134170248135814217530744F4A081B1819D0104
S11341802F5F3F4F318320838C93268137812F5FAC
S11341903F4F3783268314C08B01EC01FB0100845D
S11341A0F185E02D0995892BE1F6D80116968D91BC
S11341B09C911797019617969C938E931697CE0110
S11341C0DF91CF911F910F910895A0E0B0E0EBEE45
S11341D0F0E20C94641EAE014B5F5F4FFA016191F3
S11341E07191AF0180915702909158020E94FE167E
S11341F0E2E00C94801EFA01AA27283051F1203104
S113420081F1E8946F936E7F6E5F7F4F8F4F9F4F66
S1134210AF4FB1E03ED0B4E03CD0670F781F891FA8
S11342209A1FA11D680F791F8A1F911DA11D6A0F76
S1134230711D811D911DA11D20D009F468943F9129
S11342402AE0269F11243019305D3193DEF6CF0128
S11342500895462F4770405D4193B3E00FD0C9F7EE
S1134260F6CF462F4F70405D4A3318F0495D31FD5B
S11342704052419302D0A9F7EACFB4E0A6959795AE
S1134280879577956795BA95C9F700976105710584
S113429008959B01AC010A2E0694579547953795CE
S11342A02795BA95C9F7620F731F841F951FA01D28
S10942B00895F894FFCF0D
S11342B6020103030000000200000000420D00009A
S11342C60000180C041060C0802000005B0220006F
S11342D64D6F76696E6720256420696E6368657321
S11342E6004261636B696E20757020256420696ED7
S11342F66368657300546861742773206E6F742055
S11343066677642F6261636B004E6F2073656E730C
S10943166F727321000028
S9030000FC
