:100000000C940B030C9428030C9428030C942803E1
:100010000C94390E0C94620E0C948B0E0C94B40E4E
:100020000C9428030C941A0D0C94430D0C946C0D35
:100030000C94E70D0C94950D0C94BE0D0C94100EC1
:100040000C949F0C0C94C80C0C94F10C0C94280389
:100050000C9428030C9428030C9428030C94280374
:100060000C9428030C9428030C9428030C94280364
:100070000C9428030C9428030C942803076342363D
:10008000B79BD8A71A39685618AEBAAB558C1D3C29
:10009000B7CC5763BD6DEDFD753EF6177231BF00ED
:1000A0000000803F08000000BE922449123EABAA27
:1000B000AA2ABECDCCCC4C3E00000080BEABAAAA82
:1000C000AA3E00000000BF000000803F00000000CA
:1000D00000084178D3BB4387D1133D190E3CC3BD03
:1000E0004282AD2B3E68EC8276BED98FE1A93E4CB0
:1000F00080EFFFBE01C4FF7F3F00000000006E6183
:100100006E00696E660000407A10F35A00A0724ECD
:1001100018090010A5D4E80000E87648170000E4AC
:100120000B54020000CA9A3B000000E1F5050000F4
:1001300080969800000040420F000000A086010059
:100140000000102700000000E80300000000640029
:10015000000000000A000000000001000000000094
:100160002C76D888DC674F0823DFC1DFAE59E1B1B8
:10017000B796E5E3E453C63AE651997696E8E6C2C7
:100180008426EB898C9B62ED407C6FFCEFBC9C9FCE
:1001900040F2BAA56FA5F490055A2AF75C936B6CF0
:1001A000F9676DC11BFCE0E40D47FEF520E6B500E4
:1001B000D0ED902E0300943577050080841E080052
:1001C00000204E0A000000C80C333333330F986E02
:1001D00012831141EF8D2114893BE65516CFFEE6BF
:1001E000DB18D1844B381BF77C1D901DA4BBE42485
:1001F000203284725E228100C9F124ECA1E53D2702
:1002000016050100000000000000FA000000E000F8
:10021000E00028FE28FE282454FE5448C4C81026B6
:10022000466C92AA44A000A0C0000000384482009E
:10023000008244380028107C102810107C10100018
:100240000A0C000010101010100006060000040830
:100250001020407C8A92A27C0042FE020042868AE4
:1002600092628482A2D28C182848FE08E4A2A2A23C
:100270009C3C5292920C808E90A0C06C9292926C98
:100280006092929478006C6C0000006A6C00001020
:1002900028448200282828282800824428104080EA
:1002A0008A90604C929E827C7E8888887EFE9292A4
:1002B000926C7C82828244FE82824438FE929292C8
:1002C00082FE909090807C8292925EFE101010FED2
:1002D0000082FE8200040282FC80FE10284482FE1E
:1002E00002020202FE403040FEFE201008FE7C8228
:1002F00082827CFE909090607C828A847AFE9098C4
:100300009462629292928C8080FE8080FC02020253
:10031000FCF8040204F8FC021C02FCC6281028C6E3
:10032000E0100E10E0868A92A2C200FE8282004097
:1003300020100804008282FE00204080402002023B
:100340000202020080402000042A2A2A1EFE1222F5
:10035000221C1C222222041C222212FE1C2A2A2ACF
:1003600018107E908040304A4A4A7CFE1020201EA1
:100370000022BE0200040222BC00FE08142200007B
:1003800082FE02003E2018201E3E1020201E1C224D
:1003900022221C3E28282810102828183E3E102013
:1003A0002010122A2A2A0420FC2202043C02020401
:1003B0003E38040204383C020C023C221408142289
:1003C000300A0A0A3C22262A322200106C820000DF
:1003D00000FE000000826C100008101008100000E1
:1003E0000000007F8181817F7F8383837F7F878778
:1003F000877F7F8F8F8F7F7F9F9F9F7F7FBFBFBFB5
:100400007F7FFFFFFF7F2040FF40206215171565AB
:1004100000FBFB00000000000000C0FF0300E0FF45
:100420000700F0FF0F00F8FF1F0078001E007800A3
:100430001E0078001E0078001E0078001E00780064
:100440001E0078001E0078001E0078001E000000CC
:1004500000000000000080FF0300E0FF0700F0FF45
:100460000F00F8FF1F00F83C1F00783C1E00783C8E
:100470001E00783C1E00783C1E00783C1E00783C34
:100480001E00783C1E00783C1E00783C1E00783C24
:100490001E000000000000000000E0FF0300F0FF6D
:1004A0000700F8FF0F00F8FF1F00783C1E00783CA3
:1004B0001E00783C1E00783C1E00783C1E00783CF4
:1004C0001E00783C1E00783C1E00783C1E00783CE4
:1004D0001E000000000000000000F8FF0300F8FF0D
:1004E0000F00F8FF1F00F8FF1F0000001E000000B3
:1004F0001E0000801F0000F01F0000FF0F00E0FF43
:100500000700F0FF0000F80F0000F800000078007E
:10051000000078000000F8FF1F00F8FF1F00F0FF48
:100520001F00E0FF1F000000000000000000F8FFB7
:100530001F00F8FF1F00F8FF1F00F8FF1F007800E2
:100540001E00783C1E00783C1E00783C1E00783C63
:100550001E00783C1E00783C1E00F87E1F00F8FF4D
:100560001F00F0FF0F00E0E70300000000000000A4
:100570003800EEFF6C002A8045003A0047FC03FF7C
:100580006CFC83FF3900DEFF0B7CD0810BFCD0813B
:100590000BC0D0810BFCD0810B7CDEFF0B0082FFF7
:1005A000397002FF6CF83A0047DC2A8045CCEEFF38
:1005B0006CCC000038000000000C00001E0C000095
:1005C0001E0000001E0000001E0000001E00F8FFBC
:1005D0001F00F8FF1F00F8FF1F00F8FF1F000000BA
:1005E0001E0000001E0000001E0000001E00000093
:1005F0005E000000400000007C00000040000000A1
:10060000400000007C0000003000000010000000EE
:10061000300000007C0011241FBECFEFD8E0DEBF09
:10062000CDBF11E0A0E0B1E0E2E5FDE402C005903D
:100630000D92A63AB107D9F722E0A6EAB1E001C0CF
:100640001D92AE3CB207E1F70E949F030C94A726CF
:100650000C9400008FE00E944B0A882311F082E086
:1006600008950E94940381E008958FE00E94580A43
:10067000882319F420E030E013C080917A00806470
:1006800080937A0080917A0086FDFCCF30917800CB
:1006900020917900922F80E0232F30E0282B392BF6
:1006A000C9010895ECE7F0E090818295880F880FEA
:1006B000807C9F73982B90830895582F8091000120
:1006C0008830D8F440917E0021E030E0B90102C0CA
:1006D000660F771F8A95E2F7CB018095842380937C
:1006E0007E0080917E00052E02C0220F331F0A94E7
:1006F000E2F7822B80937E000DC020917E0081E086
:1007000090E0052E02C0880F991F0A94E2F7282B6B
:1007100020937E005093000180917C005F71807E69
:10072000852B80937C0008958FE180937C00EAE71D
:10073000F0E087E0808380818068808308950E9454
:100740009D0C0E948F0C0E944E1B80E090E008954B
:100750000F931F9385E00E94580A8823C1F080E41C
:1007600060E00E94BC0400E0802F60E00E94500422
:1007700010E080E061E00E94BC041F5F1038C9F700
:100780000F5F043089F783E060E00E94AA041F91A4
:100790000F9108950F931F9385E00E944B0A8823C1
:1007A00011F082E07AC00E940705182F0E94CA0A41
:1007B0001150123008F06DC08150823008F069C0CD
:1007C0000E94D7048EEA60E00E94BC0482EA60E0E6
:1007D0000E94BC0480EA60E00E94BC0400E513ECC7
:1007E000C8010197F1F780EC60E00E94BC048FE241
:1007F00060E00E94BC0481E860E00E94BC0486E1E5
:1008000060E00E94BC0482E260E00E94BC04C80177
:100810000197F1F78FEA60E00E94BC0486EA60E08D
:100820000E94BC0485EA60E00E94BC0480E090E085
:1008300028E833E1F9013197F1F7019643E0883E6A
:100840009407C1F783EB60E00E94BC0480E460E0A1
:100850000E94BC0483E060E00E94500483E060E0FA
:100860000E94AA041092640210926602109265021D
:1008700085E091E09093CB028093CA0288E10E94C8
:1008800089040E94A80384EA60E00E94BC0481E01D
:1008900004C085E00E943B0A87E01F910F910895F4
:1008A000FF920F931F93082FF62E85E00E94580A9F
:1008B0008823A1F01F2D1F770370802F806B60E0CD
:1008C0000E94BC0412951F70812F806160E00E941D
:1008D000BC048F2D8F7060E00E94BC041F910F91AB
:1008E000FF9008950F931F93082F162F85E00E9405
:1008F000580A882359F0812F153108F084E166E009
:10090000869FB0011124802F0E94AA041F910F918D
:1009100008951F93182F85E00E94580A8823C1F07C
:1009200087E00E94490582E06AE00E949A0582E021
:1009300061EB0E949A05612F113208F060E282E0BB
:100940000E949A0589EE8A95F1F787E00E94490591
:100950001F9108950F931F93082F162F85E00E9473
:10096000580A882331F003701F77109362020093B6
:1009700063021F910F9108950F931F93082F162F55
:1009800085E00E94580A882379F0112319F011306C
:1009900021F402C02B9801C02B9A86E08A95F1F7CA
:1009A00080E0602F0E949A051F910F910895239A6D
:1009B000089586E00E944B0A882311F082E0089592
:1009C0000E94F00481E008951F93182F86E00E9492
:1009D000580A882319F0812F0E94F9041F91089565
:1009E000559A569A80E20E949B0F80E40E949B0FCA
:1009F0000895282F85FF04C08BB190E289278BB919
:100A000026FF04C08BB190E489278BB9089582E05A
:100A10000E944B0A882311F082E008950E94A905E4
:100A200080E062E270E10E94400581E06AE170E1ED
:100A30000E94400582E062E170E10E94400586E08C
:100A40006AE270E10E94400583E06AE070E10E9482
:100A5000400584E06AE070E10E94400585E06AE0BC
:100A600070E10E94400587E06AE070E10E94400565
:100A70008FEF8093670287E00E94490581E0089527
:100A8000E82FF0E0EE0FFF1FEB50FE4F7183608305
:100A900008951F93182F82E00E94580A882309F4B2
:100AA00047C0912F977080916702981709F440C052
:100AB0009093670285B1887F892B85B9933011F1B6
:100AC000943028F4913051F0923090F40CC095306D
:100AD00019F19530E0F0963021F50FC0E091F70163
:100AE000F091F80122C0E091F501F091F6011DC0EE
:100AF000E091F901F091FA0118C0E0910102F09142
:100B0000020213C0E091FB01F091FC010EC0E091E4
:100B1000FD01F091FE0109C0E091FF01F09100029A
:100B200004C0E0910302F0910402309709F00995A6
:100B30001F9108951F93162F0E94490582E00E947D
:100B4000580A882321F01EBD0DB407FEFDCF1F916A
:100B50000895259A2698279A209A219A229A0895EC
:100B60002F923F924F925F926F927F928F929F92BD
:100B7000AF92BF92CF92DF92EF92FF920F931F93AB
:100B8000DF93CF930F92CDB7DEB7582E962E442E1B
:100B90003901C9821501CE88DF88A88CB98C6A8D8D
:100BA0007B8D81E0981619F1981628F092E099163D
:100BB00009F070C03EC080E0B7010E94E10780E00C
:100BC000642DA30198010981EE24E3947FE9C72EE7
:100BD00072E0D72E0E94A108552009F05BC000D01A
:100BE0000F92EDB7FEB71182338222821CC081E0E2
:100BF0000E94E10781E0682DA60195010C8DEE248D
:100C0000E3949FE9C92E92E0D92E0E94A1085520B5
:100C100009F040C000D00F92EDB7FEB791828D8DE4
:100C20009E8D938382830E94DE090F900F900F9018
:100C300031C0C7010E94030800D08FE992E0EDB7F0
:100C4000FEB792838183842DB301A8012981082DE9
:100C500076016501AC8C882483940E9434090F903E
:100C60000F905520B9F400D000D00F92ADB7BEB7A9
:100C70001196EDB7FEB79182FD01328221828D8DF2
:100C80009E8D948383830E94DE090F900F900F90B6
:100C90000F900F900F90CF91DF911F910F91FF90C8
:100CA000EF90DF90CF90BF90AF909F908F907F900C
:100CB0006F905F904F903F902F9008954F925F926A
:100CC0007F928F929F92AF92BF92CF92DF92EF92DC
:100CD000FF920F931F93DF93CF93CDB7DEB7562FBD
:100CE000942E7C2CAA89BB89CC88DD886E897F896B
:100CF000988D813009F445C0813030F1823009F09F
:100D000066C0513071F0513020F0523009F05FC0B0
:100D100011C080E0B7010E94E10780E0692DA801C1
:100D200006C081E00E94E10781E0682DA6010E94D3
:100D30006C074DC0C7010E940308892DB801482DDA
:100D400096010E94830743C0EDB7FEB739970FB6EF
:100D5000F894FEBF0FBEEDBF4DB65EB60894411CC1
:100D6000511CB283A183F201D382C2827583648352
:100D70009683898D9A8D9087878380E0652FC72C15
:100D80001CC0EDB7FEB739970FB6F894FEBF0FBE83
:100D9000EDBFADB6BEB60894A11CB11CB283A18351
:100DA000F501D382C282758364839683108617828D
:100DB00081E0652FC72CAA24BB240E94B0058DB703
:100DC0009EB709960FB6F8949EBF0FBE8DBFCF9108
:100DD000DF911F910F91FF90EF90DF90CF90BF9028
:100DE000AF909F908F907F905F904F90089587E095
:100DF0000E944B0A882311F082E008950E94310A74
:100E000081E080939E021092680210926902109213
:100E10006B0210926A0210926D0210926C02109294
:100E20006F0210926E021092710210927002109274
:100E30007302109272021092750210927402109254
:100E40007702109276021092790210927802109234
:100E50007B0210927A0210927D0210927C02109214
:100E60007F0210927E0210928102109280021092F4
:100E700086021092870210928802109289021092C4
:100E80008B0210928C0210928D0210928E021092A0
:100E90008F0210929002109291021092930210927F
:100EA0009202109295021092940210929702109260
:100EB0009602109299021092980210928302109258
:100EC0008202109285021092840210929D0210926A
:100ED0009C0210929E020895EF92FF920F931F932F
:100EE000182F062F7A0160E00E944008812F602FA2
:100EF0000E942108812FB7010E9455081F910F9170
:100F0000FF90EF900895CF92DF92EF92FF920F93B0
:100F10001F93C82E7B01D42E890182E060E00E94DD
:100F200040088C2D6D2D0E943608C701B8010E9423
:100F300082081F910F91FF90EF90DF90CF9008955E
:100F40002EEF8037920714F480E79EEFFC0181E0DA
:100F5000E139F80714F0E0E9F1E09B018EEF60372A
:100F6000780714F420E73EEFA90121E04139520748
:100F700014F040E951E08F2F881F8827881F252F04
:100F8000221F2227221F91E090939E0280938B02C2
:100F900020938C02CF01F7FF03C0909581959F4F5E
:100FA0009A0157FF03C0309521953F4F90936B02F4
:100FB00080936A0230936D0220936C0210929E021D
:100FC0000895482F81E080939E02CB0123E0693E83
:100FD000720710F088EE93E0413071F0413018F064
:100FE000423071F405C0909373028093720208C07E
:100FF00090937302809372029093750280937402AF
:1010000010929E02089521E020939E02AC0183E09D
:10101000493E580710F048EE53E09B0183E0693EDB
:10102000780710F028EE33E0F89450937302409361
:1010300072023093750220937402789410929E028B
:101040000895982F81E080939E02913051F0913065
:1010500018F0923041F403C060938B0204C0609397
:101060008B0260938C0210929E02089591E09093FF
:101070009E02EBE8F2E08193608310929E02089555
:10108000982F81E080939E02913051F0913018F0BA
:10109000923041F403C06093680204C06093680218
:1010A0006093690210929E020895482F81E0809318
:1010B0009E02CB0121E06139720710F080E991E0D6
:1010C000413061F0413018F04230C9F40EC0F8945C
:1010D00090936B0280936A02789411C0F894909375
:1010E0006D0280936C0278940AC0F89490936B021E
:1010F00080936A0290936D0280936C0278941092B0
:101100009E020895AC0181E080939E02F894CB0189
:1011100021E06139720710F080E991E090936D024F
:1011200080936C029A0181E04139580710F020E960
:1011300031E030936B0220936A02789410929E0201
:1011400008958F929F92AF92BF92CF92DF92EF92CB
:10115000FF920F931F93CF93DF93182FF62E4A0120
:101160005901E60187E00E94580A882309F46FC0FC
:10117000812F61E00E944008812FB401A5010E94E7
:101180000412812F6F2D0E942108812F602F0E9451
:10119000EF11812FB4010E94C711C114D10499F03D
:1011A000113049F0113018F0123069F406C018827D
:1011B00010929A0208C0198204C0188219821092F3
:1011C0009A0210929B02D0939D02C0939C02EE2043
:1011D000B9F586EA91E090939D0280939C02812F5D
:1011E000B5010E945508812F0E94B211113071F093
:1011F000113018F0123059F512C01092A601109259
:101200009A028091A6018823E1F321C01092A701E0
:1012100010929B028091A7018823E1F318C01092DD
:10122000A6011092A70110929A0210929B0280913F
:10123000A6018823E1F38091A7018823C1F307C0A9
:10124000812FB5010E945508812F0E94B211DF91B4
:10125000CF911F910F91FF90EF90DF90CF90BF90B3
:10126000AF909F908F9008953F924F925F926F92B0
:101270007F928F929F92AF92BF92CF92DF92EF9226
:10128000FF920F931F93DF93CF93CDB7DEB7982EC6
:101290002B013A01322EB02E0C891D8987E00E9465
:1012A000580A882309F453C082E061E00E94400894
:1012B00080E0B201A3010E94041281E0B701A601FF
:1012C0000E940412892D6B2D0E94360880E0632D48
:1012D0000E94EF1181E06A2D0E94EF11C201B70157
:1012E0000E94E2110115110539F0F80110821182F6
:1012F00010929A0210929B0210939D0200939C02FE
:101300008820F1F488EA91E090939D0280939C02FA
:10131000C301B6010E94820882E00E94B2111092BD
:10132000A8011092A90110929A0210929B0280913A
:10133000A8018823E1F38091A9018823C1F307C0A4
:10134000C301B6010E94820882E00E94B211CF91CF
:10135000DF911F910F91FF90EF90DF90CF90BF90A2
:10136000AF909F908F907F906F905F904F903F9045
:1013700008950F931F93182F062F662349F460E0FA
:1013800070E00E945508812F60E070E00E94C71154
:1013900081E080939E02113051F0113018F012302C
:1013A00041F403C00093860204C0009386020093B8
:1013B000870210929E021F910F910895CF92DF92A3
:1013C000EF92FF920F931F93DF93CF93CDB7DEB7CA
:1013D0001B8587E00E94580A8823D1F1113061F003
:1013E000113018F01230A1F511C0EC85FD85809107
:1013F0009F028823E1F306C0EC85FD858091A00261
:101400008823E1F3309721F1099522C0CC84DD8453
:10141000EE84FF8400E010E0002351F480919F02ED
:10142000882331F0C114D10411F0F601099501E0CF
:10143000112351F48091A002882331F0E114F104CA
:1014400011F0F701099511E0002331F3112321F385
:10145000CF91DF911F910F91FF90EF90DF90CF9090
:1014600008953A9A3B9A3C9A3D9A3E9A3F9A88B19F
:10147000837088B90895853160F4E82FF0E0E35B6C
:10148000FD4F8081882329F0808181508083808175
:1014900008958FEF0895853110F080E00895E82FCA
:1014A000F0E0E35BFD4F80818F5F80838150089582
:1014B000853110F080E00895E82FF0E0E35BFD4F08
:1014C0008081811181E008951F93182F8091AB01D5
:1014D000882341F08091B201882399F01092AB01EA
:1014E0001092B2010E94990A8093AA018CEA91E0BD
:1014F00061E040E028E230E00E945C0B81E08093F4
:10150000AB019091AA01133018F0133079F409C09F
:10151000E12FF0E0EF5FFE4F8081892341F081E011
:1015200006C091FF03C0892F817001C080E01F9128
:1015300008950F931F9381E00E94580A882311F4A5
:1015400000E024C087E00E94490582E06AE00E9432
:101550009A0582E062EB0E949A0518EC812F8A9529
:10156000F1F782E060E00E943310082F812F8A9506
:10157000F1F782E060E00E9433101A95F1F787E0FE
:101580000E94490588E893E10197F1F7802F1F91A8
:101590000F910895DF93CF9300D00F92CDB7DEB7B0
:1015A00081E00E944B0A882311F082E011C00E9462
:1015B00007058150823040F40E94EE0ACE01019668
:1015C0000E94BC1281E004C081E00E943B0A87E0D7
:1015D0000F900F900F90CF91DF9108951092B80265
:1015E0001092B7021092BA021092B9021092BC0285
:1015F0001092BB021092BE021092BD021092C00265
:101600001092BF0280E991E09093A4028093A3021C
:101610009093A6028093A5029093A8028093A702BC
:101620009093AA028093A9029093AC028093AB029C
:1016300084E398E09093AE028093AD029093B00261
:101640008093AF029093B2028093B1029093B40260
:101650008093B3029093B6028093B50208950F93DE
:101660001F93DF93CF93CDB7DEB729970FB6F894CA
:10167000DEBF0FBECDBF8C0188E00E94580A8823D0
:1016800011F491E00DC0CE01019661E040E09801B7
:101690000E945C0B982F882319F48F818823E9F32B
:1016A000892F29960FB6F894DEBF0FBECDBFCF911C
:1016B000DF911F910F910895EF92FF920F931F9367
:1016C000CF93DF93EC01F62EE42E890188E00E948F
:1016D000580A882311F481E026C084E090E00E943B
:1016E000B823FC01009711F482E01DC0F982F0FCE0
:1016F0001E8281E0E81619F48981846089838981DA
:10170000886089831B830A831D830C83D183C083F4
:101710001382128281E080931502CF010E949A0BFE
:101720001092150280E0DF91CF911F910F91FF90F1
:10173000EF900895CF92DF92EF92FF920F931F9355
:10174000CF93DF93EC018091C102882339F4D093C9
:10175000C302C093C2020E94361347C0C090C202A7
:10176000D090C30200E010E0EE24FF2437C0A8812F
:10177000B981FD0164817581F60140815181FA01D1
:10178000848195819B01281B390B37FF0FC0861B75
:10179000970B95838483DB82CA82012B29F4D09333
:1017A000C302C093C20221C0F7010CC0F6018281BE
:1017B00093812115310549F4FD01158214829B8323
:1017C0008A83F601D383C28310C0FD01358324834D
:1017D0000097B9F30F5F1F4F76016C018091C10232
:1017E00090E00817190718F2ECCF8091C1028F5FC3
:1017F0008093C102DF91CF911F910F91FF90EF90E5
:10180000DF90CF9008958CE00E944B0A882311F05E
:1018100082E008958BE00E94580A8823A1F40E9478
:101820004712813081F480E00E94F91288EE93E043
:1018300024EF31E0F9013197F1F70197D9F70E94D0
:101840008C0C81E008958CE00E943B0A87E00895AB
:10185000EF92FF920F931F938CE00E94580A882307
:1018600009F452C00E946512139A81E28A95F1F739
:1018700013980B98EE24FF2487010CC0039B0AC029
:1018800082E48A95F1F780B186958695869580FFEA
:1018900026C00FC00894E11CF11C011D111D80E23F
:1018A000E81681EAF80687E0080780E0180731F7B4
:1018B00022C00E946F12EE24FF24870102C0039B06
:1018C0000EC00894E11CF11C011D111D90E2E916E7
:1018D00091EAF90697E0090790E0190781F70E945D
:1018E000771280E090E2E91691EAF90697E009079D
:1018F00090E0190708F081E00B9A1398813021F0ED
:101900000E9441129C0102C020E030E0C9011F91F9
:101910000F91FF90EF9008950B9A139808950E94ED
:10192000A5120E94AC0F0E94DD0E0E941A130E94A5
:1019300007050E94CA0A78940895000008951F922E
:101940000F920FB60F9211242F933F934F935F93F3
:101950006F937F938F939F93AF93BF93EF93FF9377
:10196000E091D501F091D601309709F00995FF91EA
:10197000EF91BF91AF919F918F917F916F915F9107
:101980004F913F912F910F900FBE0F901F90189580
:101990001F920F920FB60F9211242F933F934F93E4
:1019A0005F936F937F938F939F93AF93BF93EF93C7
:1019B000FF93E091D701F091D801309709F0099594
:1019C000FF91EF91BF91AF919F918F917F916F9117
:1019D0005F914F913F912F910F900FBE0F901F90ED
:1019E00018951F920F920FB60F9211242F933F93C9
:1019F0004F935F936F937F938F939F93AF93BF9317
:101A0000EF93FF93E091D901F091DA01309709F05B
:101A10000995FF91EF91BF91AF919F918F917F9128
:101A20006F915F914F913F912F910F900FBE0F904B
:101A30001F9018951F920F920FB60F9211242F939B
:101A40003F934F935F936F937F938F939F93AF9346
:101A5000BF93EF93FF93E091C701F091C8013097D6
:101A600009F00995FF91EF91BF91AF919F918F91EF
:101A70007F916F915F914F913F912F910F900FBE8A
:101A80000F901F9018951F920F920FB60F9211246E
:101A90002F933F934F935F936F937F938F939F9376
:101AA000AF93BF93EF93FF93E091C901F091CA0107
:101AB000309709F00995FF91EF91BF91AF919F91F8
:101AC0008F917F916F915F914F913F912F910F90E7
:101AD0000FBE0F901F9018951F920F920FB60F9286
:101AE00011242F933F934F935F936F937F938F9323
:101AF0009F93AF93BF93EF93FF93E091CB01F0914E
:101B0000CC01309709F00995FF91EF91BF91AF910A
:101B10009F918F917F916F915F914F913F912F9105
:101B20000F900FBE0F901F9018951F920F920FB637
:101B30000F9211242F933F934F935F936F937F9353
:101B40008F939F93AF93BF93EF93FF93E091CF0158
:101B5000F091D001309709F00995FF91EF91BF9175
:101B6000AF919F918F917F916F915F914F913F9135
:101B70002F910F900FBE0F901F9018951F920F92EC
:101B80000FB60F9211242F933F934F935F936F9350
:101B90007F938F939F93AF93BF93EF93FF93E091C6
:101BA000D101F091D201309709F00995FF91EF91A1
:101BB000BF91AF919F918F917F916F915F914F9165
:101BC0003F912F910F900FBE0F901F9018951F926D
:101BD0000F920FB60F9211242F933F934F935F9361
:101BE0006F937F938F939F93AF93BF93EF93FF93E5
:101BF000E091CD01F091CE01309709F00995FF9168
:101C0000EF91BF91AF919F918F917F916F915F9174
:101C10004F913F912F910F900FBE0F901F901895ED
:101C20001F920F920FB60F9211242F933F934F9351
:101C30005F936F937F938F939F93AF93BF93EF9334
:101C4000FF93E091D301F091D401309709F0099509
:101C5000FF91EF91BF91AF919F918F917F916F9184
:101C60005F914F913F912F910F900FBE0F901F905A
:101C700018951F920F920FB60F9211242F933F9336
:101C80004F935F936F937F938F939F93AF93BF9384
:101C9000EF93FF93E091BD01F091BE01309709F001
:101CA0000995FF91EF91BF91AF919F918F917F9196
:101CB0006F915F914F913F912F910F900FBE0F90B9
:101CC0001F9018951F920F920FB60F9211242F9309
:101CD0003F934F935F936F937F938F939F93AF93B4
:101CE000BF93EF93FF93E091BF01F091C001309754
:101CF00009F00995FF91EF91BF91AF919F918F915D
:101D00007F916F915F914F913F912F910F900FBEF7
:101D10000F901F9018951F920F920FB60F921124DB
:101D20002F933F934F935F936F937F938F939F93E3
:101D3000AF93BF93EF93FF93E091C101F091C20184
:101D4000309709F00995FF91EF91BF91AF919F9165
:101D50008F917F916F915F914F913F912F910F9054
:101D60000FBE0F901F9018951F920F920FB60F92F3
:101D700011242F933F934F935F936F937F938F9390
:101D80009F93AF93BF93EF93FF93E091C301F091C3
:101D9000C401309709F00995FF91EF91BF91AF9180
:101DA0009F918F917F916F915F914F913F912F9173
:101DB0000F900FBE0F901F90189580E10E944B0A64
:101DC000882311F082E00895E5EBF1E01192119281
:101DD00081E0E53FF807D1F781E00895FF920F9386
:101DE0001F93CF93DF93F82E8AE0F816B1F08F158A
:101DF00048F0E8E0FE16B9F1EF1538F1F7E0FF160C
:101E000051F43BC08DE0F81659F0EBE1FE1689F075
:101E1000FCE0FF1641F001E041C01092620203C0F5
:101E2000109262023AC080916302815080936302F3
:101E300034C00E94A80314C080E061E00E94BC048A
:101E4000809162028F5F809362028091620287FFBD
:101E5000F3CF1092620280916302815080936302FB
:101E600000E011E01CC0809162028823B1F08091F3
:101E7000620286508093620210C081E00E940411C9
:101E800064EF71E080E090E04DE750E024E630E060
:101E90000E94101181E00E946B1000E010E0809120
:101EA0006302609162020E945004002351F185E0B8
:101EB000F89EC0011124EC01CD59DE4F8C01085968
:101EC0001E4FFE01849161E00E94BC042196C01760
:101ED000D107B9F780E061E00E94BC048091620202
:101EE0008A5F809362028091620290E08C37910554
:101EF0003CF01092620280916302815080936302F1
:101F000011E080916302837080936302113059F471
:101F100080916402813039F4E0916502F0916602AB
:101F2000309709F0099580E090E0DF91CF911F9103
:101F30000F91FF9008951F93182F86E00E94580A72
:101F4000882319F0812F0E94A70F1F91089585FD06
:101F50005D9886FD5E980895F8940E94071081E0D0
:101F60000E94B40F81E00895813049F0F8948130E7
:101F700020F18230B1F0833009F045C017C02C9AAF
:101F800080E8809361001092610080E090E00000A2
:101F9000019688329105D9F71092680010926B0073
:101FA000089580E88093610083E004C080E8809316
:101FB000610088E08093610028C080E090E000002C
:101FC00001962DE680369207D1F72C9880E090E0BC
:101FD000000001962DE680369207D1F710927A0024
:101FE0008FEF809364008091680081608093680027
:101FF00080916B00846080936B00789483B78160DC
:1020000083BF88950895823008F078940895249AC3
:102010002C9A089583E58CBD81E08DBD8DE08A9575
:10202000F1F7089583E58CBD1DBC84EF91E0019725
:10203000F1F708958FE78CBD1DBC84EF91E0019707
:10204000F1F7089583E58CBD81E08DBD8DE08A9523
:10205000F1F7089583E58CBD81E08DBD84EF91E0BB
:102060000197F1F708951F93162F0E94490582E00A
:102070000E94580A882329F01EBD0DB407FEFDCF2B
:102080008EB51F9108958AE00E943B0A882329F4A7
:1020900081E00E94661110920602089589E00E9474
:1020A0003B0A8823B9F480910502882311F00E942D
:1020B000AC1182E00E94661180911302909114028B
:1020C000009731F00E9450241092140210921302D3
:1020D000109205020895813029F0823029F40E947F
:1020E0004E1008950E94431008950F931F93CF93AD
:1020F000DF9380E291E00E94B8239C019093140248
:1021000080931302892B11F480E039C08901C0E06B
:10211000D0E0BE0180E090E00E944F2020E030E05F
:1021200040EA51E40E94A71F27EF35E740E05FE354
:102130000E9443219B01AC0160E070E080E291E4E9
:102140000E94B0219B01AC01CA01B9012DEC3CEC0D
:1021500042E851E40E9443210E9406212AE030E037
:1021600040E050E00E943523F80161937193819320
:1021700091938F012196C834D10559F681E0DF9102
:10218000CF911F910F9108958AE00E944B0A8823F6
:1021900011F082E008951092100210920F0281E077
:1021A0000E94821181E08093060208951F9389E0C6
:1021B0000E944B0A882311F082E024C08BE00E9429
:1021C000580A8823D9F40E947510182F813011F015
:1021D00086E018C0109207021092080210920902BD
:1021E00010920A028DE06EE673E10E94491382E0CC
:1021F0000E9482111093050281E004C089E00E94D0
:102200003B0A87E01F910895813021F0823029F048
:1022100084E008950E94C41008950E94D610089585
:102220006F927F928F929F92AF92BF92CF92DF92E6
:10223000EF92FF920F931F93CF93DF933B014C01DB
:102240005A01E9018AE00E94580A882381F1209707
:1022500041F19501442737FD4095542FBE01C53605
:10226000D10510F064E670E080E090E00E94352334
:1022700024E630E040E050E00E94452379018A01E5
:10228000C401B3010E947113C7010E942F0B60E0CB
:1022900070E080E090E00E947113C5018E199F09E3
:1022A00004C0A114B10419F0C5010E942F0BDF91E5
:1022B000CF911F910F91FF90EF90DF90CF90BF9043
:1022C000AF909F908F907F906F900895823029F407
:1022D000809181008E7F8093810080910502813002
:1022E00031F480910602813011F40000089580914C
:1022F0000502813021F080910602813011F45F984F
:1023000057980895982F80910502882331F4809181
:102310000602882311F4579A5F988091050288235A
:10232000D1F49230C1F4109280001092810080911B
:10233000810088608093810080918100816080931A
:102340008100109285001092840081E080938900C2
:1023500080E9809388000895EFE6F0E080818D7F2A
:1023600080830895982F81E080939E02913051F0F0
:10237000913018F0923041F403C01092860204C0EC
:10238000109286021092870210929E020895982F52
:1023900081E080939E02913071F0913018F092307C
:1023A00071F405C070937B0260937A0208C0709349
:1023B0007B0260937A0270937D0260937C0210929C
:1023C0009E02089521E020939E02EAE7F2E09183C5
:1023D000808332967183608310929E020895982FB5
:1023E00081E080939E02913051F0913018F092304C
:1023F00041F403C06093880204C060938802609334
:10240000890210929E0208950F931F93CF93DF933A
:10241000EB018A01813001F1813018F0823061F5E1
:102420000DC08091720290917302892B11F080E0AF
:102430001AC010927F0210927E021EC0809172021A
:1024400090917302892B21F080E00E94D61304C082
:1024500010927F0210927E02809174029091750218
:10246000892B31F081E0BE01A8010E94D61304C07F
:102470001092810210928002DF91CF911F910F91F3
:1024800008952091A1023091A202C90108958BE024
:102490000E944B0A882311F082E0089589E00E948F
:1024A000580A882369F41092A2021092A1028DE0CA
:1024B00063E474E10E9449130E94841281E008954C
:1024C0008BE00E943B0A82E008952091A1023091A6
:1024D000A2021092A2021092A102C90108958BE0FB
:1024E0000E94580A882311F00E94991208958BE0E7
:1024F0000E94580A882311F00E949F122091A10285
:102500003091A202C901089510928000E1E8F0E044
:1025100010828081886080838081816080831092B6
:102520008500109284001092890088EC80938800C6
:102530000895EFE6F0E08081826080830895EFE601
:10254000F0E080818D7F80830895CF93DF93C0E09A
:10255000D0E08C2F60E00E94B4122196C531D105E5
:10256000C1F7DF91CF910895853128F4E82FF0E08D
:10257000E35BFD4F608308951F93CF93DF93EC01DE
:10258000009799F181E00E94580A882351F187E071
:102590000E94490518EC812F8A95F1F782E06AE0E4
:1025A0000E949A0582E064EB0E949A05812F8A9529
:1025B000F1F782E060E00E9433108883812F8A95D2
:1025C000F1F782E060E00E94331089831A95F1F7F9
:1025D00082E060E00E9433108A8387E00E94490510
:1025E00004C0188219828DE28A83DF91CF911F91F6
:1025F00008951F93182F81E00E94580A8823C1F084
:1026000087E00E94490588EC8A95F1F782E06AE04C
:102610000E949A0582E065EB0E949A0582E0612F94
:102620000E949A0589EE8A95F1F787E00E94490594
:102630001F91089588E00E944B0A882311F082E0E0
:1026400008951092C1021092C3021092C202109219
:1026500015021092160280E166E474E10E945D1397
:102660000E943A130E94431381E0089581E0809311
:102670001602089584B5826084BD85B5846085BDE9
:102680008EE487BD0895EEE6F0E08081826080836D
:102690000895E82F803268F48051833050F0F0E0E4
:1026A000EE0FFF1FEB54FE4F208131817183608359
:1026B00002C020E030E0C9010895803218F020E027
:1026C00030E00AC0E82FF0E0EE0FFF1FEB54FE4FA2
:1026D0002081318171836083C90108950E9495131F
:1026E0000895EF92FF920F931F937B018C018AE074
:1026F0000E94580A8823A1F080910602882381F065
:10270000D801C701880F991FAA1FBB1F90931202FF
:1027100080931102E114F1040105110509F45F9899
:102720001F910F91FF90EF90089580910702909173
:102730000802A0910902B0910A0220910B02309187
:102740000C0240910D0250910E02280F391F4A1FB2
:102750005B1F2093070230930802409309025093B5
:102760000A028091070290910802A0910902B0919B
:102770000A028851964FA040B040BCF08BB18058FF
:102780008BB98091070290910802A0910902B09143
:102790000A028851964FA040B04080930702909360
:1027A0000802A0930902B0930A020895EF92FF92E3
:1027B0000F931F93CF93DF93EB01882321F0813098
:1027C00009F05AC02DC09A0140E050E0CA01B90199
:1027D0000E9435232091720230917302220F331F21
:1027E00040E050E00E94452379018A01A801970149
:1027F000220F331F441F551FCE01A0E0B0E0821707
:102800009307A407B50728F0F0927F02E0927E02BA
:1028100033C0D695C795D0937F02C0937E022CC05B
:102820009A0140E050E0CA01B9010E94352320918D
:10283000740230917502220F331F40E050E00E9475
:10284000452379018A01A8019701220F331F441FF4
:10285000551FCE01A0E0B0E082179307A407B5078B
:1028600028F0F0928102E092800206C0D695C795CA
:10287000D0938102C0938002DF91CF911F910F917D
:10288000FF90EF9008950E94661408950E944D14E1
:102890000E9499140E947214089588E00E94580AB8
:1028A000882311F484E0089580911602882311F49E
:1028B00083E0089580911502882311F082E0089545
:1028C0000E94E6168130E1F380E00895CF93DF9314
:1028D000C1EAD2E088819981019688839983DF914A
:1028E000CF91089580910602813011F580910F02F9
:1028F000909110022091110230911202280F391F7D
:102900003093100220930F0280910F0290911002D9
:10291000885E93406CF08BB180588BB980910F0228
:1029200090911002885E93409093100280930F0262
:10293000089587E00E94580A882309F4AAC080916C
:10294000720290917302892B09F180919602909105
:1029500097022091720230917302820F931F90931D
:102960009702809396028091960290919702885EDA
:102970009340A4F08091960290919702885E9340D4
:10298000909397028093960241E009C080916A0279
:1029900090916B0290936F0280936E0240E0809161
:1029A000740290917502892B09F18091980290919F
:1029B00099022091740230917502820F931F9093B7
:1029C0009902809398028091980290919902885E72
:1029D0009340A4F08091980290919902885E934070
:1029E000909399028093980261E009C080916C02F3
:1029F00090916D02909371028093700260E0842F39
:102A00000E944A15809192029091930220916E0249
:102A100030916F02280F391F309393022093920256
:102A20008091920290919302885E934014F440E06A
:102A30000BC08091920290919302885E9340909394
:102A400093028093920241E08091940290919502CA
:102A50002091700230917102280F391F3093950236
:102A6000209394028091940290919502885E934005
:102A700014F460E00BC08091940290919502885EFE
:102A80009340909395028093940261E0842F0E947A
:102A90008F1508958823F1F020916A0230916B021E
:102AA00080916E0290916F02281B390B121613064B
:102AB00034F480916E0290916F02019607C0232B2F
:102AC00049F080916E0290916F02019790936F028E
:102AD00080936E02662311F120916C0230916D0299
:102AE0008091700290917102281B390B1216130607
:102AF00054F480917002909171020196909371024A
:102B0000809370020895232B49F080917002909178
:102B100071020197909371028093700208950F9350
:102B20001F93182F062F80919E02882309F0E7C07B
:102B300080918602882309F05AC080916E0290919C
:102B40006F02892BE9F480911702837E809317022C
:102B500010928F0280919A02882309F45DC06091DF
:102B6000880280E00E94B909E0919C02F0919D02E8
:102B7000309709F451C081E0808310929A024CC0D2
:102B800080916802813041F480917A0290917B02B9
:102B9000019711F411E002C01123F1F1E0918D02CF
:102BA000F0E0ED5EFE4F90911702937E8081892BBD
:102BB0008093170280918B02882321F480918D02EB
:102BC0008F5F03C080918D02815080938D02809130
:102BD0008D02837080938D0281E080938F028091BB
:102BE00068028130C9F480E00E94921615C090916D
:102BF0001702937E90931702E0918D02F0E0ED5E54
:102C0000FE4F8081892B8093170282E080938F0290
:102C100010926F0210926E0280918702882309F051
:102C200059C08091700290917102892BE9F48091D2
:102C300017028F71809317021092900280919B026D
:102C4000882309F45CC06091890281E00E94B9097F
:102C5000E0919C02F0919D02309709F450C081E010
:102C6000818310929B024BC080916902813041F4B4
:102C700080917C0290917D02019711F401E002C0E5
:102C80000023E9F1E0918E02F0E0E95EFE4F9091C1
:102C900017029F718081892B8093170280918C028B
:102CA000882321F480918E028F5F03C080918E0271
:102CB000815080938E0280918E02837080938E0269
:102CC00081E080939002809169028130C1F40E947A
:102CD000921615C0909117029F7190931702E09180
:102CE0008E02F0E0E95EFE4F8081892B809317020F
:102CF00082E0809390021092710210927002809193
:102D00009102882331F487E192E0612F402F0E94E5
:102D1000541788B1837090911702892B88B91F913D
:102D20000F910895882321F0813009F04EC027C00B
:102D300080917A0290917B02892B49F080917A02EE
:102D400090917B02019790937B0280937A0280910D
:102D50009A028823D1F520917A0230917B028091EA
:102D60007E0290917F022817390779F580E060E0B4
:102D700070E00E94550881E080939A020895809146
:102D80007C0290917D02892B49F080917C02909188
:102D90007D02019790937D0280937C0280919B023B
:102DA000882399F420917C0230917D0280918002E9
:102DB000909181022817390741F481E060E070E0CA
:102DC0000E94550881E080939B020895FF920F9323
:102DD0001F93CF93DF938091C102882309F459C0D8
:102DE0000091C2021091C302F801C081D1818C818F
:102DF0009D8101979D838C83181619060CF449C098
:102E0000898180FF05C08E81882311F481E08E8343
:102E1000898181FF03C0EF81F88509958091C10206
:102E20008230A8F0F801828193819093C30280934D
:102E3000C20213821282E0910000F09101008481AD
:102E40009581181619063CF0FF24F39405C01092E2
:102E5000C3021092C202FF248091C102815080936C
:102E6000C1028091C102882311F40E945117898107
:102E700082FF08C08A819B819D838C83C8010E9448
:102E80009A0B08C0C8010E94502489818F7E8983D3
:102E900001C0FF248F2DDF91CF911F910F91FF90E3
:102EA0000895109216020895FC0180918F028230DD
:102EB00069F480911B0291E0892780931B0288238B
:102EC00009F03EC08081837E80833AC080916E028B
:102ED00090916F02C397A4F56623D1F020916E0202
:102EE00030916F0280E690E0BC01269FC001279FD1
:102EF000900D369F900D1124880F892F881F990BF4
:102F0000909383028093820281E08093190218C01B
:102F1000809119028823A1F080918202909183020E
:102F20000197909383028093820280918202909114
:102F30008302892B29F48081837E80831092190279
:102F400080919002823069F480911A0291E0892781
:102F500080931A02882309F03EC080818F7180839C
:102F600008958091700290917102C397A4F5442353
:102F7000D1F0209170023091710280E690E0AC01B6
:102F8000249FC001259F900D349F900D1124880F20
:102F9000892F881F990B909385028093840281E08A
:102FA000809318020895809118028823A1F08091DF
:102FB0008402909185020197909385028093840208
:102FC0008091840290918502892B29F480818F71F0
:102FD0008083109218020895CF93DF93FC01308113
:102FE00020914302321303C0208121112FC0EC0134
:102FF0000E94A80398819230B9F058F4992319F1EE
:103000009130E9F460E083E00E94720481E291E093
:1030100018C0943031F058F0953089F48EE291E088
:1030200010C08BE391E00DC08BE491E00AC086E50F
:1030300091E09F938F930E9403260F900F9083E659
:1030400091E00E941926888180934302DF91CF91FD
:103050000895DC01FB019C918081981325C0119695
:103060002D913C9112978181928128173907E1F4C3
:1030700013962D913C9114978381948128173907D9
:1030800099F415962D913C91169785819681281774
:10309000390751F417964D915C9118972781308527
:1030A00081E04217530709F080E00895CF93DF9342
:1030B000EC019B018091420281110AC041E061E074
:1030C00089E392E00E945C0B81E08093420211C090
:1030D00080913F02882369F080E40E94E40480E04C
:1030E0000E94640A888381E00E94640A89831092A6
:1030F0003F02DF91CF910895CF93DF93EC019B01C5
:103100008091380281110AC041E061E08FE292E0D3
:103110000E945C0B81E08093380241C080913502AF
:103120008823E9F180E40E94E40484E00E945D03C6
:103130000E943503BC0180E090E00E944F2020E017
:1031400030E040EA50E40E94432120E030E040E8D3
:103150005AE30E9443216F83788789879A8782E3A5
:1031600090E00E942F0B85E00E945D030E943503D2
:10317000BC0180E090E00E944F2020E030E040EA77
:1031800050E40E94432120E030E040E85AE30E94EE
:1031900043216B837C838D839E8310923502DF9164
:1031A000CF910895FC0181E0808388EC90E09283C8
:1031B00081839483838380E991E0968385839087DC
:1031C000878308958F929F92AF92BF92CF92DF92A2
:1031D000EF92FF920F931F93CF93DF93EC018B013C
:1031E000FB0187809084A184B284C380D480E58071
:1031F000F68060E082E00E947204FF92EF92DF921C
:10320000CF9282E791E09F938F930E94032660E024
:1032100081E00E947204BF92AF929F928F928FE7DB
:1032200091E09F938F930E940326F801638174813C
:103230008581968127813085418552850E94361F80
:1032400020E030E040E05FE30E9443212DB73EB72D
:10325000245F3F4F0FB6F8943EBF0FBE2DBF20E056
:1032600030E040E85FE30E940121181614F482E088
:1032700088838881823031F5A5019401C701B601A8
:103280000E94351F20E030E048EC52E40E944321C8
:103290006B017C019B01AC0160E070E088E493E489
:1032A0000E94351F0E9419207A83698320E030E054
:1032B00048E453E4C701B6010E94361F0E9419205A
:1032C0007C836B83DF91CF911F910F91FF90EF90E3
:1032D000DF90CF90BF90AF909F908F900895CF9345
:1032E000DF93EC019B0180912E0281110AC041E025
:1032F00061E085E292E00E945C0B81E080932E0207
:103300003FC080912B028823D9F180E40E94E4041D
:103310000E94280C988B8F872F853889AAE0B0E00F
:103320000E9467236B877C878D879E876B857C8552
:103330008D859E850E944F2027EE3AE34DE85CE3A1
:103340000E944321698B7A8B8B8B9C8B60E080E0A1
:103350000E94720489899A89AB89BC89BF93AF9313
:103360009F938F938DE891E09F938F930E94032604
:1033700010922B020F900F900F900F900F900F90C4
:10338000DF91CF9108950F931F93CF93DF938C011B
:10339000EB0169897A898B899C8920E030E046E9D4
:1033A00052E40E94A21F87FF03C084E0F8018083DB
:1033B000F8018081843089F58A81811116C02989BC
:1033C0003A894B895C8960E070E48CE995E40E945D
:1033D000A71F20E030E048E453E40E94361F0E941B
:1033E0001920F8017283618318C08A818823A9F0AB
:1033F00029893A894B895C8960E070E48CE995E41D
:103400000E94A71F20E030E048E453E40E94361FEA
:103410000E941920F80174836383DF91CF911F917B
:103420000F9108955F926F927F928F929F92AF92C9
:10343000BF92CF92DF92EF92FF920F931F93CF93A1
:10344000DF93EC01FB018181813009F053C0D08012
:10345000D81250C085E0888360E082E00E94B909FC
:103460001F921F921F92DF928CE78F93DF928CE264
:103470008F931F92F8EC9F2E9F9288248394A12C07
:10348000B12CC12CA0E9EA2EFF24F3940CE211E048
:1034900028EC30E041E062E080E00E945E061F928E
:1034A0001F921F921F929F921F929F92DF9284E021
:1034B0008F93B8ECEB2EF12C08EC10E024E031E017
:1034C00040E062E080E00E945E0688EC90E09A8333
:1034D00089839C838B8380E991E09E838D83988789
:1034E0008F838DB79EB742960FB6F8949EBF0FBEDE
:1034F0008DBFA4C0D08091E0D9124DC085E08883F3
:10350000D28260E082E00E94B9091F921F921F924E
:10351000DF9250E9652E6F921F9268EC762E7F92B3
:103520001F9276E9972E9F9288248394A12CB12C28
:10353000C12CE0E9EE2EFF24F39408EC10E026E91C
:1035400030E041E062E080E00E945E061F921F9240
:103550001F92DF926F921F927F921F929F9226E995
:1035600030E040E062E080E00E945E0688EC90E09F
:103570009A8389839C838B8380E991E09E838D83EA
:1035800098878F838DB79EB742960FB6F8949EBFEB
:103590000FBE8DBF53C0D18091E0D9124FC085E0DE
:1035A000982E9882128260E082E00E94B9091F92F0
:1035B0001F921F92DF9290E9592E5F921F9228EC82
:1035C000622E6F921F9236E9732E7F928824839425
:1035D000A12CB12CC12C40E9E42EFF24F39408EC7B
:1035E00010E026E930E041E062E080E00E945E0603
:1035F0001F921F921F92DF925F921F926F921F92F3
:103600007F92812C26E930E041E062E080E00E9478
:103610005E06988288EC90E09A8389839C838B83F2
:1036200080E991E09E838D8398878F838DB79EB7C5
:1036300042960FB6F8949EBF0FBE8DBFDF91CF911B
:103640001F910F91FF90EF90DF90CF90BF90AF90C0
:103650009F908F907F906F905F900895CF93DF93AE
:10366000EC016CE172E00E942918811114C06F8195
:1036700078858D819E810E9403086B817C81898180
:103680009A810E94A00789E0FE01ACE1B2E00190BE
:103690000D928A95E1F7DF91CF910895CF93DF9353
:1036A000CDB7DEB765970FB6F894DEBF0FBECDBFBE
:1036B0000E942A0381E00E9452030E94D9040E94C2
:1036C000CA030E94030C0E94F70610924602109251
:1036D0004502109248021092470210924A0210923C
:1036E000490210924C0210924B02109244028AE955
:1036F00091E00E94192688EB9BE00E942F0B0E940C
:10370000A8036DE770E0CE0101960E94561864E6AA
:1037100070E0CE0101960E946F196BE470E0CE015B
:1037200001960E947C1884E492E00E94D218BE01A7
:103730006F5F7F4F84E492E00E94E218BE016F5FEA
:103740007F4F84E492E00E94C319BE016F5F7F4FF8
:1037500084E492E00E94121A84E492E00E942E1BFC
:10376000BE016F5F7F4F84E492E00E94EC17C9CFE7
:10377000A0E1B0E0EEEBFBE10C9481237C011B01A6
:103780006A01FC0117821682838181FF44C39E0176
:103790002F5F3F4F3901F7019381F10193FD85912F
:1037A00093FF81911F01882309F431C3853239F4D5
:1037B00093FD859193FF81911F01853239F4B70103
:1037C00090E00E94C72556016501E5CF10E0512C1D
:1037D000912CFFE1F915D8F08B3279F038F4803272
:1037E00079F08332A1F4F92DF0612EC08D3261F0B1
:1037F000803369F4292D21602DC0392D3260932E3C
:10380000892D8460982E2AC0E92DE86015C097FCA8
:103810002DC020ED280F2A3088F496FE06C03AE02D
:10382000139F200D1124122F19C08AE0589E200DDD
:103830001124522EE92DE0629E2E10C08E3231F4FA
:1038400096FCE5C2F92DF0649F2E08C08C3621F459
:10385000292D2068922E02C0883641F4F10193FD93
:10386000859193FF81911F018111B3CF9BEB980F3D
:10387000933020F4992D9061805E07C09BE9980FEA
:10388000933008F066C1992D9F7E96FF16E09F73D6
:10389000992E853619F49064992E08C0863621F445
:1038A000392F3068932E02C01111115097FE07C0B6
:1038B0001C3350F444244394410E27E00BC01830CD
:1038C00038F027E017E005C027E09CE3492E02C04E
:1038D000212F412C560184E0A80EB11CF601608115
:1038E000718182819381042DA3010E94D9246C01EE
:1038F000F981FC87F0FF02C0F3FF06C091FC06C00F
:1039000092FE06C000E205C00DE203C00BE201C05A
:1039100000E08C858C7019F001115AC29BC297FE91
:1039200010C04C0CFC85F4FF04C08A81813309F47B
:103930004A94141474F528E0241578F588E0482E8C
:103940002CC096FC2AC0812F90E08C159D059CF020
:103950003CEFC3163FEFD30674F0892D8068982E94
:103960000AC0E2E0F0E0EC0FFD1FE10FF11D8081E5
:10397000803319F411501111F4CF97FE0EC0442476
:103980004394410E812F90E0C816D9062CF41C19DF
:1039900004C04424439401C010E097FE06C01C14E8
:1039A0001D0434F4C601019605C085E090E002C014
:1039B00081E090E001110196112331F0212F30E0D8
:1039C0002F5F3F4F820F931F252D30E08217930703
:1039D00014F4581A01C0512C892D897049F45520CE
:1039E00039F0B70180E290E00E94C7255A94F7CFE2
:1039F000002329F0B701802F90E00E94C72593FC97
:103A000009C0552039F0B70180E390E00E94C72536
:103A10005A94F7CF97FE4CC04601D7FE02C0812CC6
:103A2000912CC60188199909F301E80FF91FFE8747
:103A3000ED87960124193109388B2F87012F10E06B
:103A40001195019511093FEF8316930629F4B701EB
:103A50008EE290E00E94C725C814D9044CF08F85EF
:103A600098898815990524F4ED85FE85818101C02A
:103A700080E3F1E08F1A91082D853E852F5F3F4F3F
:103A80003E872D87801691062CF0B70190E00E94AA
:103A9000C725D9CFC814D90441F49A81963320F4AC
:103AA000953319F43C8534FF81E3B70190E04EC0B3
:103AB0008A81813319F09C859F7E9C87B70190E0B5
:103AC0000E94C725111105C094FC18C085E690E03E
:103AD00017C0B7018EE290E00E94C7251E5F82E00A
:103AE00001E0080FF301E80FF11D8081B70190E0BC
:103AF0000E94C725802F0113F3CFE6CF85E490E025
:103B0000B7010E94C725D7FC06C0C114D10441F4F7
:103B1000EC85E4FF05C0D194C194D1088DE201C0C9
:103B20008BE2B70190E00E94C72580E32AE0C2162D
:103B3000D1042CF08F5FFAE0CF1AD108F7CFB7018C
:103B400090E00E94C725B701C601C0960E94C72514
:103B500054C1833631F0833779F0833509F056C08C
:103B600020C0560132E0A30EB11CF601808189838A
:103B700001E010E0630112C05601F2E0AF0EB11C8B
:103B8000F601C080D18096FE03C0612F70E002C0B4
:103B90006FEF7FEFC6010E94BC258C01F92DFF77E6
:103BA00014C0560122E0A20EB11CF601C080D180E3
:103BB00096FE03C0612F70E002C06FEF7FEFC60179
:103BC0000E94B1258C01F92DF0689F2EF3FD1AC0DB
:103BD000852D90E008171907A8F4B70180E290E05E
:103BE0000E94C7255A94F4CFF60197FC859197FE61
:103BF00081916F01B70190E00E94C72551105A943E
:103C0000015011090115110579F7F7C0843611F03B
:103C1000893661F5560197FE09C024E0A20EB11C59
:103C2000F60160817181828193810AC0F2E0AF0E5A
:103C3000B11CF60160817181072E000C880B990B75
:103C4000F92DFF769F2E97FF09C09095809570956E
:103C500061957F4F8F4F9F4FF0689F2E2AE030E095
:103C6000A3010E944926C82EC6183FC0092D8537DA
:103C700021F40F7E2AE030E01DC0097F8F3691F0DD
:103C800018F4883559F0C3C0803719F0883711F01F
:103C9000BEC0006104FF09C0046007C094FE08C0F4
:103CA000066006C028E030E005C020E130E002C038
:103CB00020E132E0560107FF09C084E0A80EB11CE4
:103CC000F601608171818281938108C0F2E0AF0EBC
:103CD000B11CF6016081718180E090E0A3010E9437
:103CE0004926C82EC6180F77902E96FE0BC0092DB8
:103CF0000E7FC11650F494FE0AC092FC08C0092D34
:103D00000E7E05C0DC2C092D03C0DC2C01C0D12E99
:103D100004FF0DC0FE01EC0DF11D8081803311F414
:103D2000097E09C002FF06C0D394D39404C0802F3B
:103D3000867809F0D39403FD11C000FF06C01C2D46
:103D4000D51480F4150D1D190DC0D51458F4B70104
:103D500080E290E00E94C725D394F7CFD51410F4E9
:103D60005D1801C0512C04FF10C0B70180E390E042
:103D70000E94C72502FF17C001FD03C088E790E03D
:103D800002C088E590E0B7010CC0802F867859F01A
:103D900001FF02C08BE201C080E207FD8DE2B701A6
:103DA00090E00E94C725C11638F4B70180E390E087
:103DB0000E94C7251150F7CFCA94F301EC0DF11DF5
:103DC0008081B70190E00E94C725C110F5CF15C0D2
:103DD000F4E0F51560F584E0581A93FE1FC0011158
:103DE00027C02C8523FF2AC00EEF10E0392D30713B
:103DF000932EF8018491811124C0552009F4E4CC5C
:103E0000B70180E290E00E94C7255A94F6CFF701EF
:103E10008681978126C08FEF9FEF23C0B70180E294
:103E200090E00E94C7255A945110F8CFD8CF512C5A
:103E3000B701802F90E00E94C725D3CF02E011E0A8
:103E4000D5CF91108052B70190E00E94C7250F5F37
:103E50001F4FCFCF23E0251510F483E0BDCF512CA9
:103E6000C0CF6096E2E10C949D235058BB27AA274F
:103E70000E944D1F0C94C7200E94B92038F00E9468
:103E8000C02020F039F49F3F19F426F40C94B6209A
:103E90000EF4E095E7FB0C94B020E92F0E94D820A7
:103EA00058F3BA17620773078407950720F079F46F
:103EB000A6F50C94FA200EF4E0950B2EBA2FA02D47
:103EC0000B01B90190010C01CA01A0011124FF27C7
:103ED000591B99F0593F50F4503E68F11A16F040C2
:103EE000A22F232F342F4427585FF3CF46953795C1
:103EF0002795A795F0405395C9F77EF41F16BA0B86
:103F0000620B730B840BBAF09150A1F0FF0FBB1F33
:103F1000661F771F881FC2F70EC0BA0F621F731F7C
:103F2000841F48F4879577956795B795F7959E3FD9
:103F300008F0B0CF9395880F08F09927EE0F97956A
:103F4000879508950E948C2008F481E008950E94CE
:103F5000BB1F0C94C7200E94C02058F00E94B920BB
:103F600040F029F45F3F29F00C94B02051110C94DB
:103F7000FB200C94B6200E94D82068F39923B1F35B
:103F8000552391F3951B550BBB27AA27621773077F
:103F9000840738F09F5F5F4F220F331F441FAA1F13
:103FA000A9F335D00E2E3AF0E0E832D091505040CF
:103FB000E695001CCAF72BD0FE2F29D0660F771F7D
:103FC000881FBB1F261737074807AB07B0E809F063
:103FD000BB0B802DBF01FF2793585F4F3AF09E3FE8
:103FE000510578F00C94B0200C94FB205F3FE4F373
:103FF000983ED4F3869577956795B795F7959F5F2B
:10400000C9F7880F911D9695879597F90895E1E076
:10401000660F771F881FBB1F621773078407BA07D5
:1040200020F0621B730B840BBA0BEE1F88F7E09530
:1040300008950E9420206894B1110C94FB200895EB
:104040000E94E02088F09F5798F0B92F9927B75128
:10405000B0F0E1F0660F771F881F991F1AF0BA952C
:10406000C9F714C0B13091F00E94FA20B1E0089570
:104070000C94FA20672F782F8827B85F39F0B93F62
:10408000CCF3869577956795B395D9F73EF49095DF
:104090008095709561957F4F8F4F9F4F0895E8945D
:1040A00009C097FB3EF490958095709561957F4F80
:1040B0008F4F9F4F9923A9F0F92F96E9BB2793952E
:1040C000F695879577956795B795F111F8CFFAF43E
:1040D000BB0F11F460FF1BC06F5F7F4F8F4F9F4F6F
:1040E00016C0882311F096E911C0772321F09EE8CD
:1040F000872F762F05C0662371F096E8862F70E033
:1041000060E02AF09A95660F771F881FDAF7880F0C
:104110009695879597F90895990F0008550FAA0B62
:10412000E0E8FEEF16161706E807F907C0F01216CA
:104130001306E407F50798F0621B730B840B950BCD
:1041400039F40A2661F0232B242B252B21F4089522
:104150000A2609F4A140A6958FEF811D811D0895BF
:1041600097F99F6780E870E060E008959FEF80EC2A
:10417000089500240A9416161706180609060895CD
:1041800000240A9412161306140605060895092E33
:104190000394000C11F4882352F0BB0F40F4BF2BA2
:1041A00011F460FF04C06F5F7F4F8F4F9F4F0895E2
:1041B00057FD9058440F551F59F05F3F71F04795D8
:1041C000880F97FB991F61F09F3F79F087950895BD
:1041D000121613061406551FF2CF4695F1DF08C0DC
:1041E000161617061806991FF1CF869571056105F9
:1041F00008940895E894BB2766277727CB0197F9A1
:1042000008950E948C2008F48FEF08950E94E0200A
:10421000A8F19E57B0F1985160F039F1983070F5DF
:10422000092E9927660F771F881F991F0A94D1F7C7
:104230001CC0BB27993F4CF4B111B1E0B62B672FDE
:10424000782F8827985FB1F708C08695779567958E
:10425000B79508F4B1609395C1F7BB0F30F411F432
:1042600060FF03C06F5F7F4F8F4F3EF49095809546
:10427000709561957F4F8F4F9F4F089568940C9470
:10428000FB200C94FA200E9456210C94C7200E9417
:10429000B92038F00E94C02020F0952311F00C9432
:1042A000B0200C94B62011240C94FB200E94D8203E
:1042B00070F3959FC1F3950F50E0551F629FF00179
:1042C000729FBB27F00DB11D639FAA27F00DB11D92
:1042D000AA1F649F6627B00DA11D661F829F22271B
:1042E000B00DA11D621F739FB00DA11D621F839FA2
:1042F000A00D611D221F749F3327A00D611D231F78
:10430000849F600D211D822F762F6A2F11249F57C5
:1043100050409AF0F1F088234AF0EE0FFF1FBB1FC8
:10432000661F771F881F91505040A9F79E3F510587
:1043300080F00C94B0200C94FB205F3FE4F3983E97
:10434000D4F3869577956795B795F795E7959F5F31
:10435000C1F7FE2B880F911D9695879597F90895C3
:10436000FA01EE0FFF1F309621053105A1F161150D
:10437000710561F48038BFE39B0749F16894903878
:10438000810561F08038BFEF9B0741F099234AF522
:10439000FF3FE1053105210519F1E8940894E795FF
:1043A000D901AA2329F4AB2FBE2FF85FD0F310C098
:1043B000FF5F70F4A695E0F7F73950F019F0FF3A77
:1043C00038F49F779F930DD00F9007FC9058089575
:1043D00046F00C94B62060E070E080E89FE308951A
:1043E0004FE79F775F934F933F932F930E94AB22AA
:1043F0002F913F914F915F910E9443210C9408228D
:1044000029F416F00C94B0200C94FA200C94B620E9
:104410000E94E020A8F39638A0F707F80F92E894DE
:104420002BE33AEA48EB5FE70E9459210F920F9283
:104430000F924DB75EB70F920E94F322ECE7F0E0C7
:104440000E943A224F915F91EF91FF91E595EE1F07
:10445000FF1F49F0FE57E0684427EE0F441FFA950E
:10446000E1F74195550B0E946D220F9007FE0C94C9
:1044700061220895DF93CF931F930F93FF92EF92E2
:10448000DF927B018C01689406C0DA2EEF010E9456
:104490005621FE01E894A5912591359145915591BC
:1044A000A6F3EF010E944D1FFE019701A801DA94C7
:1044B00069F7DF90EF90FF900F911F91CF91DF91FF
:1044C00008959B01AC0160E070E080E89FE30C94EC
:1044D000A71F0C94B0200C9427230E94E020D8F34F
:1044E0009923C9F3940F511DA3F39150504094F0B8
:1044F00059F0882332F0660F771F881F9150504083
:10450000C1F79E3F51052CF7880F911D9695879511
:1045100097F908955F3FACF0983E9CF0BB278695D5
:1045200077956795B79508F4B1609395C1F7BB0F80
:1045300058F711F460FFE8CF6F5F7F4F8F4F9F4FA9
:10454000E3CF0C94FB2016F00C9427230C94B62098
:1045500068940C94B0200E94E020A8F39923C1F342
:10456000AEF3DF93CF931F930F93FF92C92FDD27F5
:1045700088232AF02197660F771F881FDAF720E03B
:1045800030E040E85FEB9FE3883920F0803E38F070
:1045900021968F770E94361FE4EAF0E004C00E9463
:1045A000361FE1EDF0E00E943A228B01BE01EC01E2
:1045B000FB2E6F5771097595771F880B990B0E9419
:1045C000512028E132E741E35FE30E945621AF2DFD
:1045D0009801AE01FF900F911F91CF91DF910E9442
:1045E0004D1F0C94C720FA01DC01AA0FBB1F9B01D1
:1045F000AC01BF5728F4222733274427507820C026
:10460000B75190F4AB2F0024469537952795011CA0
:10461000A395D2F3002071F0220F331F441FB395EE
:10462000DAF30ED00C94351F61307105A0E88A07CB
:10463000B94630F49B01AC0166277727882790782C
:10464000309621F0208331834283538308959F3F26
:1046500031F0915020F4879577956795B795880F3D
:10466000911D9695879597F90895DB018F939F93F8
:104670000E947623BF91AF91A29F800D911DA39FB1
:10468000900DB29F900D11240895A1E21A2EAA1B3D
:10469000BB1BFD010DC0AA1FBB1FEE1FFF1FA217F2
:1046A000B307E407F50720F0A21BB30BE40BF50BEF
:1046B000661F771F881F991F1A9469F76095709578
:1046C000809590959B01AC01BD01CF010895A29FFB
:1046D000B001B39FC001A39F700D811D1124911DD6
:1046E000B29F700D811D1124911D08950E946723B2
:1046F000A59F900DB49F900DA49F800D911D112436
:1047000008952F923F924F925F926F927F928F9275
:104710009F92AF92BF92CF92DF92EF92FF920F9350
:104720001F93CF93DF93CDB7DEB7CA1BDB0B0FB65A
:10473000F894DEBF0FBECDBF09942A883988488817
:104740005F846E847D848C849B84AA84B984C884AD
:10475000DF80EE80FD800C811B81AA81B981CE0FA4
:10476000D11D0FB6F894DEBF0FBECDBFED01089589
:104770000F931F93CF93DF938230910510F482E063
:1047800090E0E091C602F091C70220E030E0A0E0A6
:10479000B0E0309719F140815181028113814817AF
:1047A0005907C8F08417950769F4109731F01296ED
:1047B0000C93129713961C9327C00093C602109374
:1047C000C70222C02115310519F04217530718F40A
:1047D0009A01BD01EF01DF01F801DBCF21153105A1
:1047E000F9F0281B390B2430310580F48A819B8134
:1047F0006115710521F0FB019383828304C09093BE
:10480000C7028093C602FE01329644C0FE01E20F49
:10481000F31F8193919322503109398328833AC041
:104820002091C4023091C502232B41F420911D0137
:1048300030911E013093C5022093C40220911B01C8
:1048400030911C012115310541F42DB73EB740913F
:104850001F0150912001241B350BE091C402F091FF
:10486000C502E217F307A0F42E1B3F0B28173907E8
:1048700078F0AC014E5F5F4F2417350748F04E0FBC
:104880005F1F5093C5024093C4028193919302C06D
:10489000E0E0F0E0CF01DF91CF911F910F910895FB
:1048A000CF93DF93009709F481C0FC013297138204
:1048B0001282A091C602B091C702109781F42081A4
:1048C0003181820F931F2091C4023091C5022817B5
:1048D000390751F5F093C502E093C40267C0ED01BA
:1048E00020E030E0CE17DF0740F44A815B819E0173
:1048F00041155105F1F0EA01F5CFD383C283408120
:104900005181840F951FC817D90759F4888199815F
:10491000840F951F0296918380838A819B81938364
:1049200082832115310529F4F093C702E093C60272
:104930003DC0E901FB83EA8349915991C40FD51F1A
:10494000EC17FD0761F480819181840F951F029619
:10495000E90199838883828193819B838A83E0E044
:10496000F0E012968D919C911397009719F0FD013C
:10497000DC01F7CF8D919C9111979D012E5F3F4FE8
:10498000820F931F2091C4023091C5022817390766
:1049900069F4309729F41092C7021092C60202C03F
:1049A00013821282B093C502A093C402DF91CF910B
:1049B0000895283008F027E03327DA01990F311DD8
:1049C00087FD916000966105710539F432602E5FB4
:1049D0003D9330E32A95E1F708959F3F30F080380A
:1049E0007105610509F03C5F3C5F3D93913008F033
:1049F0008068911DDF93CF931F930F93FF92EF92E7
:104A0000192F987F9695E92F96959695E90FFF2790
:104A1000E05AFE4F99273327EE24FF24A701E70130
:104A200005900894079428F4360FE71EF81E491FD6
:104A3000511D660F771F881F991F0694A1F70590D7
:104A4000079428F4E70EF81E491F561FC11D770F63
:104A5000881F991F661F0694A1F70590079428F4F4
:104A6000F80E491F561FC71FD11D880F991F661FBB
:104A7000771F0694A1F70590079420F4490F561F5D
:104A8000C71FD81F990F661F771F881F0694A9F7A5
:104A900084911095177041F0D695C7955795479515
:104AA000F794E7941A95C1F7E6E0F1E06894159061
:104AB000159135916591959105907FE27395E11877
:104AC000F10A430B560BC90BD009C0F7E10CF11EDC
:104AD000431F561FC91FD01D7EF4703311F48A95F1
:104AE000E6CFE894015030F0080F0AF400270217CF
:104AF00008F4202F2395022F7A3328F079E37D9351
:104B00002A95E9F710C07D932A9589F60694979522
:104B10006795379517951794E118F10A430B560BD3
:104B2000C90BD00998F023957E9173957A3308F0DC
:104B300070E37C932013B8F77E9170617D9330F021
:104B4000839571E37D9370E32A95E1F71124EF904B
:104B5000FF900F911F91CF91DF91992787FD90953D
:104B60000895FC010590615070400110D8F78095C0
:104B700090958E0F9F1F0895FC0161507040019029
:104B80000110D8F7809590958E0F9F1F08950F9371
:104B90001F93CF93DF93FB01238121FD03C08FEF90
:104BA0009FEF2CC022FF16C046815781248135819A
:104BB0004217530744F4A081B1819D012F5F3F4FFD
:104BC000318320838C93268137812F5F3F4F37833A
:104BD000268314C08B01EC01FB010084F185E02DDC
:104BE0000995892BE1F6D80116968D919C9117971E
:104BF000019617969C938E931697CE01DF91CF91D5
:104C00001F910F910895A0E0B0E0E9E0F6E20C9466
:104C10009123AE014B5F5F4FFA0161917191AF013A
:104C20008091CA029091CB020E94B81BE2E00C94E2
:104C3000AD230F931F93CF93DF93E091CA02F091BE
:104C4000CB02238121FF1BC08C01D0E0C0E0F80122
:104C500081918F016091CA027091CB02DB0118969D
:104C6000ED91FC911997882331F00995892B79F3FF
:104C7000DFEFCFEFECCF8AE00995892B19F08FEFAA
:104C80009FEF02C08D2F9C2FDF91CF911F910F912D
:104C90000895FA01AA27283051F1203181F1E894D2
:104CA0006F936E7F6E5F7F4F8F4F9F4FAF4FB1E01F
:104CB0003ED0B4E03CD0670F781F891F9A1FA11D1A
:104CC000680F791F8A1F911DA11D6A0F711D811D1B
:104CD000911DA11D20D009F468943F912AE0269FE0
:104CE00011243019305D3193DEF6CF010895462F3F
:104CF0004770405D4193B3E00FD0C9F7F6CF462F20
:104D00004F70405D4A3318F0495D31FD4052419388
:104D100002D0A9F7EACFB4E0A69597958795779545
:104D20006795BA95C9F700976105710508959B01CC
:104D3000AC010A2E06945795479537952795BA9555
:104D4000C9F7620F731F841F951FA01D0895F89463
:024D5000FFCF93
:104D52001F020103030000000200000000EE0E002B
:104D6200000000180C041060C080200000CE022059
:104D7200004578706C6F72696E672E2E2E00495254
:104D82002041766F6964696E672100536F6E6172AC
:104D92002041766F6964696E672100466F6C6C6FA3
:104DA20077696E6721004C6967687420666F756E5B
:104DB200642E00556E6B6E6F776E2073746174652E
:104DC20021006C6566743A20252E3032660A007224
:104DD200696768743A20252E3032660A0044697386
:104DE20074203D20252E33660A0053746172746963
:064DF2006E672E2E2E005C
:00000001FF
