S00C00004C6162342E73726563D5
S11300000C940B030C9428030C9428030C942803DD
S11300100C9451090C947A090C94A3090C94CC09FE
S11300200C9428030C9432080C945B080C948408F8
S11300300C94FF080C94AD080C94D6080C94280971
S11300400C94B7070C94E0070C9409080C9428034B
S11300500C9428030C9428030C9428030C94280370
S11300600C9428030C9428030C9428030C94280360
S11300700C9428030C9428030C9428030763423639
S1130080B79BD8A71A39685618AEBAAB558C1D3C25
S1130090B7CC5763BD6DEDFD753EF6177231BF00E9
S11300A00000803F08000000BE922449123EABAA23
S11300B0AA2ABECDCCCC4C3E00000080BEABAAAA7E
S11300C0AA3E00000000BF000000803F00000000C6
S11300D000084178D3BB4387D1133D190E3CC3BDFF
S11300E04282AD2B3E68EC8276BED98FE1A93E4CAC
S11300F080EFFFBE01C4FF7F3F00000000006E617F
S11301006E00696E660000407A10F35A00A0724EC9
S113011018090010A5D4E80000E87648170000E4A8
S11301200B54020000CA9A3B000000E1F5050000F0
S113013080969800000040420F000000A086010055
S11301400000102700000000E80300000000640025
S1130150000000000A000000000001000000000090
S11301602C76D888DC674F0823DFC1DFAE59E1B1B4
S1130170B796E5E3E453C63AE651997696E8E6C2C3
S11301808426EB898C9B62ED407C6FFCEFBC9C9FCA
S113019040F2BAA56FA5F490055A2AF75C936B6CEC
S11301A0F9676DC11BFCE0E40D47FEF520E6B500E0
S11301B0D0ED902E0300943577050080841E08004E
S11301C000204E0A000000C80C333333330F986EFE
S11301D012831141EF8D2114893BE65516CFFEE6BB
S11301E0DB18D1844B381BF77C1D901DA4BBE42481
S11301F0203284725E228100C9F124ECA1E53D27FE
S113020016050100000000000000FA000000E000F4
S1130210E00028FE28FE282454FE5448C4C81026B2
S1130220466C92AA44A000A0C0000000384482009A
S1130230008244380028107C102810107C10100014
S11302400A0C00001010101010000606000004082C
S11302501020407C8A92A27C0042FE020042868AE0
S113026092628482A2D28C182848FE08E4A2A2A238
S11302709C3C5292920C808E90A0C06C9292926C94
S11302806092929478006C6C0000006A6C0000101C
S113029028448200282828282800824428104080E6
S11302A08A90604C929E827C7E8888887EFE9292A0
S11302B0926C7C82828244FE82824438FE929292C4
S11302C082FE909090807C8292925EFE101010FECE
S11302D00082FE8200040282FC80FE10284482FE1A
S11302E002020202FE403040FEFE201008FE7C8224
S11302F082827CFE909090607C828A847AFE9098C0
S11303009462629292928C8080FE8080FC0202024F
S1130310FCF8040204F8FC021C02FCC6281028C6DF
S1130320E0100E10E0868A92A2C200FE8282004093
S113033020100804008282FE002040804020020237
S11303400202020080402000042A2A2A1EFE1222F1
S1130350221C1C222222041C222212FE1C2A2A2ACB
S113036018107E908040304A4A4A7CFE1020201E9D
S11303700022BE0200040222BC00FE081422000077
S113038082FE02003E2018201E3E1020201E1C2249
S113039022221C3E28282810102828183E3E10200F
S11303A02010122A2A2A0420FC2202043C020204FD
S11303B03E38040204383C020C023C221408142285
S11303C0300A0A0A3C22262A322200106C820000DB
S11303D000FE000000826C100008101008100000DD
S11303E00000007F8181817F7F8383837F7F878774
S11303F0877F7F8F8F8F7F7F9F9F9F7F7FBFBFBFB1
S11304007F7FFFFFFF7F2040FF40206215171565A7
S113041000FBFB00000000000000C0FF0300E0FF41
S11304200700F0FF0F00F8FF1F0078001E0078009F
S11304301E0078001E0078001E0078001E00780060
S11304401E0078001E0078001E0078001E000000C8
S113045000000000000080FF0300E0FF0700F0FF41
S11304600F00F8FF1F00F83C1F00783C1E00783C8A
S11304701E00783C1E00783C1E00783C1E00783C30
S11304801E00783C1E00783C1E00783C1E00783C20
S11304901E000000000000000000E0FF0300F0FF69
S11304A00700F8FF0F00F8FF1F00783C1E00783C9F
S11304B01E00783C1E00783C1E00783C1E00783CF0
S11304C01E00783C1E00783C1E00783C1E00783CE0
S11304D01E000000000000000000F8FF0300F8FF09
S11304E00F00F8FF1F00F8FF1F0000001E000000AF
S11304F01E0000801F0000F01F0000FF0F00E0FF3F
S11305000700F0FF0000F80F0000F800000078007A
S1130510000078000000F8FF1F00F8FF1F00F0FF44
S11305201F00E0FF1F000000000000000000F8FFB3
S11305301F00F8FF1F00F8FF1F00F8FF1F007800DE
S11305401E00783C1E00783C1E00783C1E00783C5F
S11305501E00783C1E00783C1E00F87E1F00F8FF49
S11305601F00F0FF0F00E0E70300000000000000A0
S11305703800EEFF6C002A8045003A0047FC03FF78
S11305806CFC83FF3900DEFF0B7CD0810BFCD08137
S11305900BC0D0810BFCD0810B7CDEFF0B0082FFF3
S11305A0397002FF6CF83A0047DC2A8045CCEEFF34
S11305B06CCC000038000000000C00001E0C000091
S11305C01E0000001E0000001E0000001E00F8FFB8
S11305D01F00F8FF1F00F8FF1F00F8FF1F000000B6
S11305E01E0000001E0000001E0000001E0000008F
S11305F05E000000400000007C000000400000009D
S1130600400000007C0000003000000010000000EA
S1130610300000007C0011241FBECFEFD8E0DEBF05
S1130620CDBF11E0A0E0B1E0E6E1FAE302C005903D
S11306300D92A833B107D9F722E0A8E3B1E001C0D5
S11306401D92AE31B207E1F70E949F030C94091D7D
S11306500C9400008FE00E945506882311F082E07C
S113066008950E94940381E008958FE00E94620639
S1130670882319F420E030E013C080917A0080646C
S113068080937A0080917A0086FDFCCF30917800C7
S113069020917900922F80E0232F30E0282B392BF2
S11306A0C9010895ECE7F0E090818295880F880FE6
S11306B0807C9F73982B90830895582F809100011C
S11306C08830D8F440917E0021E030E0B90102C0C6
S11306D0660F771F8A95E2F7CB0180958423809378
S11306E07E0080917E00052E02C0220F331F0A94E3
S11306F0E2F7822B80937E000DC020917E0081E082
S113070090E0052E02C0880F991F0A94E2F7282B67
S113071020937E005093000180917C005F71807E65
S1130720852B80937C0008958FE180937C00EAE719
S1130730F0E087E0808380818068808308950E9450
S1130740B5070E94A7070E94171280E090E0089561
S11307500F931F9385E00E9462068823C1F080E412
S113076060E00E94A50400E0802F60E00E94500435
S113077010E080E061E00E94A5041F5F1038C9F713
S11307800F5F043089F783E060E00E9493041F91B7
S11307900F9108950F931F9385E00E9455068823B7
S11307A011F082E07AC00E94C204182F0E946E06E3
S11307B01150123008F06DC08150823008F069C0C9
S11307C00E94C0048EEA60E00E94A50482EA60E010
S11307D00E94A50480EA60E00E94A50400E513ECF1
S11307E0C8010197F1F780EC60E00E94A5048FE254
S11307F060E00E94A50481E860E00E94A50486E10F
S113080060E00E94A50482E260E00E94A504C801A1
S11308100197F1F78FEA60E00E94A50486EA60E0A0
S11308200E94A50485EA60E00E94A50480E090E0AF
S113083028E833E1F9013197F1F7019643E0883E66
S11308409407C1F783EB60E00E94A50480E460E0B4
S11308500E94A50483E060E00E94500483E060E00D
S11308600E9493041092B6011092B8011092B7013D
S113087081E091E090931B0280931A0288E10E9428
S113088072040E94A80384EA60E00E94A50481E047
S113089004C085E00E94450687E01F910F910895EA
S11308A0FF920F931F93082FF62E85E00E94620695
S11308B08823A1F01F2D1F770370802F806B60E0C9
S11308C00E94A50412951F70812F806160E00E9430
S11308D0A5048F2D8F7060E00E94A5041F910F91D5
S11308E0FF9008951F93182F85E00E9462068823C5
S11308F0C1F087E00E94040582E06AE00E94550589
S113090082E061EB0E945505612F113208F060E22C
S113091082E00E94550589EE8A95F1F787E00E94EE
S113092004051F9108950F931F93082F162F85E038
S11309300E946206882331F003701F771093B4017C
S11309400093B5011F910F9108950F931F93082FE2
S1130950162F85E00E946206882379F0112319F08E
S1130960113021F402C02B9801C02B9A86E08A959D
S1130970F1F780E0602F0E9455051F910F910895B3
S1130980239A089582E00E945506882311F082E09C
S113099008950E94640580E069E27BE00E94FB0404
S11309A081E061E27BE00E94FB0482E069E17BE09C
S11309B00E94FB0486E061E37BE00E94FB0483E089
S11309C061E17BE00E94FB0484E061E17BE00E9442
S11309D0FB0485E061E17BE00E94FB0487E061E1C8
S11309E07BE00E94FB048FEF8093B90187E00E94B3
S11309F0040581E00895E82FF0E0EE0FFF1FE858AA
S1130A00FE4F7183608308951F93182F82E00E9424
S1130A106206882309F447C0912F97708091B90129
S1130A20981709F440C09093B90185B1887F892B48
S1130A3085B9933011F1943028F4913051F092300B
S1130A4090F40CC0953019F19530E0F0963021F512
S1130A500FC0E0917A01F0917B0122C0E09178010E
S1130A60F09179011DC0E0917C01F0917D0118C0E5
S1130A70E0918401F091850113C0E0917E01F09131
S1130A807F010EC0E0918001F091810109C0E091E5
S1130A908201F091830104C0E0918601F091870105
S1130AA0309709F009951F9108951F93162F0E94FE
S1130AB0040582E00E946206882321F01EBD0DB465
S1130AC007FEFDCF1F910895259A2698279A209A0C
S1130AD0219A229A089587E00E945506882311F0EE
S1130AE082E008950E943B0681E08093F001109219
S1130AF0BA011092BB011092BD011092BC01109278
S1130B00BF011092BE011092C1011092C001109257
S1130B10C3011092C2011092C5011092C401109237
S1130B20C7011092C6011092C9011092C801109217
S1130B30CB011092CA011092CD011092CC011092F7
S1130B40CF011092CE011092D1011092D0011092D7
S1130B50D3011092D2011092D8011092D9011092AF
S1130B60DA011092DB011092DD011092DE01109285
S1130B70DF011092E0011092E1011092E201109263
S1130B80E3011092E5011092E4011092E701109242
S1130B90E6011092E9011092E8011092EB01109223
S1130BA0EA011092D5011092D4011092D70110924B
S1130BB0D6011092EF011092EE011092F001089507
S1130BC0CF92DF92EF92FF920F931F93C82E7B0177
S1130BD0D42E890182E060E00E9407068C2D6D2DE1
S1130BE00E94FD05C701B8010E941C061F910F91C8
S1130BF0FF90EF90DF90CF90089591E09093F001F3
S1130C00EDEDF1E0819360831092F0010895982F47
S1130C1081E08093F001913051F0913018F09230DE
S1130C2041F403C06093BA0104C06093BA016093B5
S1130C30BB011092F0010895AC0181E08093F001B2
S1130C40F894CB0121E06139720710F080E991E05A
S1130C509093BF018093BE019A0181E04139580706
S1130C6010F020E931E03093BD012093BC01789469
S1130C701092F00108953A9A3B9A3C9A3D9A3E9A12
S1130C803F9A88B1837088B90895853160F4E82F5C
S1130C90F0E0E156FE4F8081882329F08081815065
S1130CA08083808108958FEF0895853110F080E06E
S1130CB00895E82FF0E0E156FE4F80818F5F808336
S1130CC081500895853110F080E00895E82FF0E018
S1130CD0E156FE4F8081811181E00895DF93CF9327
S1130CE000D00F92CDB7DEB781E00E94550688236D
S1130CF011F082E011C00E94C2048150823040F49D
S1130D000E949206CE0101960E94C00C81E004C0AC
S1130D1081E00E94450687E00F900F900F90CF91DD
S1130D20DF910895109208021092070210920A02AD
S1130D301092090210920C0210920B0210920E02F1
S1130D4010920D021092100210920F0280E991E0AD
S1130D509093F4018093F3019093F6018093F5014D
S1130D609093F8018093F7019093FA018093F9012D
S1130D709093FC018093FB0184E398E09093FE013F
S1130D808093FD01909300028093FF0190930202EF
S1130D9080930102909304028093030290930602CD
S1130DA08093050208950F931F93DF93CF93CDB7DC
S1130DB0DEB729970FB6F894DEBF0FBECDBF8C0106
S1130DC088E00E946206882311F491E00DC0CE01F0
S1130DD0019661E040E098010E940007982F882363
S1130DE019F48F818823E9F3892F29960FB6F89493
S1130DF0DEBF0FBECDBFCF91DF911F910F9108953C
S1130E00EF92FF920F931F93CF93DF93EC01F62E93
S1130E10E42E890188E00E946206882311F481E0AF
S1130E2026C084E090E00E944A1AFC01009711F465
S1130E3082E01DC0F982F0FC1E8281E0E81619F4FC
S1130E408981846089838981886089831B830A837B
S1130E501D830C83D183C0831382128281E080932B
S1130E609801CF010E943E071092980180E0DF9123
S1130E70CF911F910F91FF90EF900895CF92DF9241
S1130E80EF92FF920F931F93CF93DF93EC01809126
S1130E901102882339F4D0931302C09312020E94E2
S1130EA0190D47C0C0901202D090130200E010E068
S1130EB0EE24FF2437C0A881B981FD0164817581C6
S1130EC0F60140815181FA01848195819B01281B9F
S1130ED0390B37FF0FC0861B970B95838483DB8206
S1130EE0CA82012B29F4D0931302C093120221C0A9
S1130EF0F7010CC0F601828193812115310549F473
S1130F00FD01158214829B838A83F601D383C283F5
S1130F1010C0FD01358324830097B9F30F5F1F4F81
S1130F2076016C018091110290E00817190718F2FC
S1130F30ECCF809111028F5F80931102DF91CF91EA
S1130F401F910F91FF90EF90DF90CF9008950E9432
S1130F50A90C0E94B30A0E94F5090E94FD0C0E948C
S1130F60C2040E946E0678940895000008951F92AA
S1130F700F920FB60F9211242F933F934F935F93C9
S1130F806F937F938F939F93AF93BF93EF93FF934D
S1130F90E0915801F0915901309709F00995FF91BA
S1130FA0EF91BF91AF919F918F917F916F915F91DD
S1130FB04F913F912F910F900FBE0F901F90189556
S1130FC01F920F920FB60F9211242F933F934F93BA
S1130FD05F936F937F938F939F93AF93BF93EF939D
S1130FE0FF93E0915A01F0915B01309709F0099564
S1130FF0FF91EF91BF91AF919F918F917F916F91ED
S11310005F914F913F912F910F900FBE0F901F90C2
S113101018951F920F920FB60F9211242F933F939E
S11310204F935F936F937F938F939F93AF93BF93EC
S1131030EF93FF93E0915C01F0915D01309709F02B
S11310400995FF91EF91BF91AF919F918F917F91FE
S11310506F915F914F913F912F910F900FBE0F9021
S11310601F9018951F920F920FB60F9211242F9371
S11310703F934F935F936F937F938F939F93AF931C
S1131080BF93EF93FF93E0914A01F0914B013097A6
S113109009F00995FF91EF91BF91AF919F918F91C5
S11310A07F916F915F914F913F912F910F900FBE60
S11310B00F901F9018951F920F920FB60F92112444
S11310C02F933F934F935F936F937F938F939F934C
S11310D0AF93BF93EF93FF93E0914C01F0914D01D7
S11310E0309709F00995FF91EF91BF91AF919F91CE
S11310F08F917F916F915F914F913F912F910F90BD
S11311000FBE0F901F9018951F920F920FB60F925B
S113111011242F933F934F935F936F937F938F93F8
S11311209F93AF93BF93EF93FF93E0914E01F091A0
S11311304F01309709F00995FF91EF91BF91AF915D
S11311409F918F917F916F915F914F913F912F91DB
S11311500F900FBE0F901F9018951F920F920FB60D
S11311600F9211242F933F934F935F936F937F9329
S11311708F939F93AF93BF93EF93FF93E0915201AB
S1131180F0915301309709F00995FF91EF91BF91C8
S1131190AF919F918F917F916F915F914F913F910B
S11311A02F910F900FBE0F901F9018951F920F92C2
S11311B00FB60F9211242F933F934F935F936F9326
S11311C07F938F939F93AF93BF93EF93FF93E0919C
S11311D05401F0915501309709F00995FF91EF9171
S11311E0BF91AF919F918F917F916F915F914F913B
S11311F03F912F910F900FBE0F901F9018951F9243
S11312000F920FB60F9211242F933F934F935F9336
S11312106F937F938F939F93AF93BF93EF93FF93BA
S1131220E0915001F0915101309709F00995FF9137
S1131230EF91BF91AF919F918F917F916F915F914A
S11312404F913F912F910F900FBE0F901F901895C3
S11312501F920F920FB60F9211242F933F934F9327
S11312605F936F937F938F939F93AF93BF93EF930A
S1131270FF93E0915601F0915701309709F00995D9
S1131280FF91EF91BF91AF919F918F917F916F915A
S11312905F914F913F912F910F900FBE0F901F9030
S11312A018951F920F920FB60F9211242F933F930C
S11312B04F935F936F937F938F939F93AF93BF935A
S11312C0EF93FF93E0914001F0914101309709F0D1
S11312D00995FF91EF91BF91AF919F918F917F916C
S11312E06F915F914F913F912F910F900FBE0F908F
S11312F01F9018951F920F920FB60F9211242F93DF
S11313003F934F935F936F937F938F939F93AF9389
S1131310BF93EF93FF93E0914201F0914301309723
S113132009F00995FF91EF91BF91AF919F918F9132
S11313307F916F915F914F913F912F910F900FBECD
S11313400F901F9018951F920F920FB60F921124B1
S11313502F933F934F935F936F937F938F939F93B9
S1131360AF93BF93EF93FF93E0914401F091450154
S1131370309709F00995FF91EF91BF91AF919F913B
S11313808F917F916F915F914F913F912F910F902A
S11313900FBE0F901F9018951F920F920FB60F92C9
S11313A011242F933F934F935F936F937F938F9366
S11313B09F93AF93BF93EF93FF93E0914601F09116
S11313C04701309709F00995FF91EF91BF91AF91D3
S11313D09F918F917F916F915F914F913F912F9149
S11313E00F900FBE0F901F90189580E10E94550634
S11313F0882311F082E00895E8E3F1E0119211925C
S113140081E0E837F807D1F781E00895FF920F9360
S11314101F93CF93DF93F82E8AE0F816B1F08F155F
S113142048F0E8E0FE16B9F1EF1538F1F7E0FF16E1
S113143051F43BC08DE0F81659F0EBE1FE1689F04B
S1131440FCE0FF1641F001E041C01092B40103C07A
S11314501092B4013AC08091B50181508093B501D6
S113146034C00E94A80314C080E061E00E94A50477
S11314708091B4018F5F8093B4018091B40187FFA0
S1131480F3CF1092B4018091B50181508093B501DE
S113149000E011E01CC08091B4018823B1F0809178
S11314A0B40186508093B40110C081E00E94FB0B0C
S11314B064EF71E080E090E04DE750E024E630E036
S11314C00E94070C81E00E94620B00E010E0809112
S11314D0B5016091B4010E945004002351F185E0EC
S11314E0F89EC0011124EC01CD59DE4F8C0108593E
S11314F01E4FFE01849161E00E94A5042196C0174D
S1131500D107B9F780E061E00E94A5048091B4019D
S11315108A5F8093B4018091B40190E08C37910587
S11315203CF01092B4018091B50181508093B501D3
S113153011E08091B50183708093B501113059F4A5
S11315408091B601813039F4E091B701F091B8018E
S1131550309709F0099580E090E0DF91CF911F91D9
S11315600F91FF900895F8940E940E0B81E00E9461
S1131570BB0A81E00895813049F0F894813020F16C
S11315808230B1F0833009F045C017C02C9A80E84E
S1131590809361001092610080E090E00000019669
S11315A088329105D9F71092680010926B00089563
S11315B080E88093610083E004C080E88093610048
S11315C088E08093610028C080E090E000000196EC
S11315D02DE680369207D1F72C9880E090E0000049
S11315E001962DE680369207D1F710927A008FEF9C
S11315F0809364008091680081608093680080918A
S11316006B00846080936B00789483B7816083BFA0
S113161088950895823008F078940895249A2C9A35
S1131620089583E58CBD81E08DBD8DE08A95F1F749
S1131630089583E58CBD1DBC84EF91E00197F1F71B
S113164008958FE78CBD1DBC84EF91E00197F1F7FD
S1131650089583E58CBD81E08DBD8DE08A95F1F719
S1131660089583E58CBD81E08DBD84EF91E0019701
S1131670F1F708958AE00E944506882329F481E061
S11316800E945D0C10928901089589E00E9445062C
S11316908823B9F480918801882311F00E94A30C57
S11316A082E00E945D0C80919601909197010097D1
S11316B031F00E94E21A1092970110929601109252
S11316C088010895813029F0823029F40E94450B65
S11316D008950E943A0B08950F931F93CF93DF93BD
S11316E080E291E00E944A1A9C01909397018093B2
S11316F09601892B11F480E039C08901C0E0D0E063
S1131700BE0180E090E00E940A1720E030E040EA49
S113171051E40E94691627EF35E740E05FE30E9439
S1131720D5179B01AC0160E070E080E291E40E9477
S113173042189B01AC01CA01B9012DEC3CEC42E812
S113174051E40E94D5170E9498172AE030E040E047
S113175050E00E94C719F8016193719381939193AA
S11317608F012196C834D10559F681E0DF91CF91DC
S11317701F910F9108958AE00E945506882311F065
S113178082E00895109293011092920181E00E94E8
S1131790790C81E08093890108951F9389E00E9468
S11317A05506882311F082E024C08BE00E94620673
S11317B08823D9F40E946C0B182F813011F086E035
S11317C018C010928A0110928B0110928C01109211
S11317D08D018DE061E67DE00E942C0D82E00E9487
S11317E0790C1093880181E004C089E00E944506C9
S11317F087E01F910895813021F0823029F084E040
S113180008950E94BB0B08950E94CD0B08956F921A
S11318107F928F929F92AF92BF92CF92DF92EF927C
S1131820FF920F931F93CF93DF933B014C015A0117
S1131830E9018AE00E946206882381F1209741F140
S11318409501442737FD4095542FBE01C536D10577
S113185010F064E670E080E090E00E94C71924E68E
S113186030E040E050E00E94D71979018A01C401B8
S1131870B3010E94640DC7010E94D30660E070E0CA
S113188080E090E00E94640DC5018E199F0904C098
S1131890A114B10419F0C5010E94D306DF91CF91C0
S11318A01F910F91FF90EF90DF90CF90BF90AF907A
S11318B09F908F907F906F900895823029F480914B
S11318C081008E7F8093810080918801813031F482
S11318D080918901813011F400000895809188017C
S11318E0813021F080918901813011F45F985798FB
S11318F00895982F80918801882331F4809189017B
S1131900882311F4579A5F98809188018823D1F431
S11319109230C1F410928000109281008091810075
S11319208860809381008091810081608093810030
S1131930109285001092840081E08093890080E9F0
S1131940809388000895EFE6F0E080818D7F8083A6
S11319500895CF93DF93C0E0D0E08C2F60E00E9425
S1131960B80C2196C531D105C1F7DF91CF91089507
S1131970853128F4E82FF0E0E156FE4F60830895A6
S11319801F93CF93DF93EC01009799F181E00E94BC
S11319906206882351F187E00E94040518EC812F28
S11319A08A95F1F782E06AE00E94550582E064EBD3
S11319B00E945505812F8A95F1F782E060E00E942C
S11319C0510D8883812F8A95F1F782E060E00E94AF
S11319D0510D89831A95F1F782E060E00E94510D60
S11319E08A8387E00E94040504C0188219828DE26C
S11319F08A83DF91CF911F91089588E00E94550654
S1131A00882311F082E008951092110210921302BB
S1131A1010921202109298011092990180E169ECDF
S1131A207DE00E94400D0E941D0D0E94260D81E064
S1131A30089581E080939901089584B5826084BDFE
S1131A4085B5846085BD8EE487BD0895EEE6F0E03B
S1131A508081826080830895E82F803268F4805109
S1131A60833050F0F0E0EE0FFF1FE85CFE4F208162
S1131A7031817183608302C020E030E0C9010895A0
S1131A80803218F020E030E00AC0E82FF0E0EE0FDA
S1131A90FF1FE85CFE4F2081318171836083C9019F
S1131AA008951F93162F0E94040582E00E94620687
S1131AB0882329F01EBD0DB407FEFDCF8EB51F91FE
S1131AC008950E94880D0895EF92FF920F931F933B
S1131AD07B018C018AE00E9462068823A1F0809138
S1131AE08901882381F0D801C701880F991FAA1F93
S1131AF0BB1F9093950180939401E114F1040105B7
S1131B00110509F45F981F910F91FF90EF900895CC
S1131B1080918A0190918B01A0918C01B0918D01EB
S1131B2020918E0130918F0140919001509191014B
S1131B30280F391F4A1F5B1F20938A0130938B01A2
S1131B4040938C0150938D0180918A0190918B0177
S1131B50A0918C01B0918D018851964FA040B04066
S1131B60BCF08BB180588BB980918A0190918B0124
S1131B70A0918C01B0918D018851964FA040B04046
S1131B8080938A0190938B01A0938C01B0938D0173
S1131B9008950E94D00D0E94100E0E94E90D089530
S1131BA088E00E946206882311F484E008958091FD
S1131BB09901882311F483E0089580919801882382
S1131BC011F082E008950E94AF108130E1F380E0CB
S1131BD0089580918901813011F58091920190914D
S1131BE093012091940130919501280F391F30936E
S1131BF09301209392018091920190919301885EC8
S1131C0093406CF08BB180588BB980919201909184
S1131C109301885E93409093930180939201089579
S1131C2087E00E946206882309F4AAC08091C40157
S1131C309091C501892B09F18091E8019091E90106
S1131C402091C4013091C501820F931F9093E90143
S1131C508093E8018091E8019091E901885E9340C6
S1131C60A4F08091E8019091E901885E93409093FB
S1131C70E9018093E80141E009C08091BC019091A1
S1131C80BD019093C1018093C00140E08091C601E1
S1131C909091C701892B09F18091EA019091EB01A0
S1131CA02091C6013091C701820F931F9093EB01DD
S1131CB08093EA018091EA019091EB01885E934060
S1131CC0A4F08091EA019091EB01885E9340909397
S1131CD0EB018093EA0161E009C08091BE0190911B
S1131CE0BF019093C3018093C20160E0842F0E94DE
S1131CF0C10E8091E4019091E5012091C0013091E1
S1131D00C101280F391F3093E5012093E40180912C
S1131D10E4019091E501885E934014F440E00BC027
S1131D208091E4019091E501885E93409093E501F0
S1131D308093E40141E08091E6019091E7012091D4
S1131D40C2013091C301280F391F3093E70120935A
S1131D50E6018091E6019091E701885E934014F4D6
S1131D6060E00BC08091E6019091E701885E9340AA
S1131D709093E7018093E60161E0842F0E94060FAF
S1131D8008958823F1F02091BC013091BD01809128
S1131D90C0019091C101281B390B1216130634F4AB
S1131DA08091C0019091C101019607C0232B49F095
S1131DB08091C0019091C10101979093C1018093DA
S1131DC0C001662311F12091BE013091BF018091C1
S1131DD0C2019091C301281B390B1216130654F447
S1131DE08091C2019091C30101969093C3018093A5
S1131DF0C2010895232B49F08091C2019091C3013F
S1131E0001979093C3018093C20108950F931F9388
S1131E10182F062F8091F001882309F0E7C08091E4
S1131E20D801882309F05AC08091C0019091C10162
S1131E30892BE9F480919A01837E80939A01109210
S1131E40E1018091EC01882309F45DC06091DA011D
S1131E5080E00E948A10E091EE01F091EF0130974A
S1131E6009F451C081E080831092EC014CC0809150
S1131E70BA01813041F48091CC019091CD01019758
S1131E8011F411E002C01123F1F1E091DF01F0E05F
S1131E90E15FFE4F90919A01937E8081892B80931C
S1131EA09A018091DD01882321F48091DF018F5F05
S1131EB003C08091DF0181508093DF018091DF01B5
S1131EC083708093DF0181E08093E1018091BA0106
S1131ED08130C9F480E00E94091015C090919A01E4
S1131EE0937E90939A01E091DF01F0E0E15FFE4F71
S1131EF08081892B80939A0182E08093E101109282
S1131F00C1011092C0018091D901882309F059C000
S1131F108091C2019091C301892BE9F480919A01C7
S1131F208F7180939A011092E2018091ED018823D0
S1131F3009F45CC06091DB0181E00E948A10E091A9
S1131F40EE01F091EF01309709F450C081E08183F4
S1131F501092ED014BC08091BB01813041F480911E
S1131F60CE019091CF01019711F401E002C000234A
S1131F70E9F1E091E001F0E0ED5EFE4F90919A010D
S1131F809F718081892B80939A018091DE0188233F
S1131F9021F48091E0018F5F03C08091E0018150C2
S1131FA08093E0018091E00183708093E00181E0FF
S1131FB08093E2018091BB018130C1F40E94091039
S1131FC015C090919A019F7190939A01E091E0015C
S1131FD0F0E0ED5EFE4F8081892B80939A0182E0D0
S1131FE08093E2011092C3011092C2018091E30137
S1131FF0882331F48AE991E0612F402F0E941D115A
S113200088B1837090919A01892B88B91F910F919F
S11320100895882321F0813009F04EC027C08091B3
S1132020CC019091CD01892B49F08091CC01909104
S1132030CD0101979093CD018093CC018091EC0167
S11320408823D1F52091CC013091CD018091D0012C
S11320509091D1012817390779F580E060E070E0AC
S11320600E945D1081E08093EC0108958091CE017F
S11320709091CF01892B49F08091CE019091CF01AD
S113208001979093CF018093CE018091ED01882335
S113209099F42091CE013091CF018091D201909199
S11320A0D3012817390741F481E060E070E00E9411
S11320B05D1081E08093ED010895482F81E08093C5
S11320C0F001CB0121E06139720710F080E991E061
S11320D0413061F0413018F04230C9F40EC0F89438
S11320E09093BD018093BC01789411C0F8949093AF
S11320F0BF018093BE0178940AC0F8949093BD0107
S11321008093BC019093BF018093BE017894109298
S1132110F00108950F931F93182F062F662349F497
S113212060E070E00E945D10812F60E070E00E942A
S1132130B51181E08093F001113051F0113018F0A5
S1132140123041F403C00093D80104C00093D801B5
S11321500093D9011092F0011F910F910895FF92FD
S11321600F931F93CF93DF9380911102882309F477
S113217059C00091120210911302F801C081D1815B
S11321808C819D8101979D838C83181619060CF40C
S113219049C0898180FF05C08E81882311F481E0C4
S11321A08E83898181FF03C0EF81F8850995809131
S11321B011028230A8F0F801828193819093130276
S11321C08093120213821282E0910000F0910100C8
S11321D084819581181619063CF0FF24F39405C0F8
S11321E01092130210921202FF2480911102815066
S11321F08093110280911102882311F40E941A1114
S1132200898182FF08C08A819B819D838C83C80158
S11322100E943E0708C0C8010E94E21A89818F7E8D
S1132220898301C0FF248F2DDF91CF911F910F91DE
S1132230FF900895109299010895FC018091E101A5
S1132240823069F480919E0191E0892780939E01F8
S1132250882309F03EC08081837E80833AC08091C8
S1132260C0019091C101C397A4F56623D1F02091D8
S1132270C0013091C10180E690E0BC01269FC001FD
S1132280279F900D369F900D1124880F892F881F4A
S1132290990B9093D5018093D40181E080939C01A4
S11322A018C080919C018823A1F08091D401909161
S11322B0D50101979093D5018093D4018091D401E5
S11322C09091D501892B29F48081837E808310929B
S11322D09C018091E201823069F480919D0191E03A
S11322E0892780939D01882309F03EC080818F71E6
S11322F0808308958091C2019091C301C397A4F58E
S11323004423D1F02091C2013091C30180E690E0D2
S1132310AC01249FC001259F900D349F900D112482
S1132320880F892F881F990B9093D7018093D6012A
S113233081E080939B01089580919B018823A1F003
S11323408091D6019091D70101979093D701809302
S1132350D6018091D6019091D701892B29F48081EF
S11323608F71808310929B010895982F81E0809350
S1132370F001913071F0913018F0923071F405C091
S11323807093CD016093CC0108C07093CD0160932C
S1132390CC017093CF016093CE011092F0010895A7
S11323A08F929F92AF92BF92CF92DF92EF92FF9261
S11323B049015A0120E030E040EC50E40E946916E3
S11323C020E030E046E153E40E94D5179B01AC01C4
S11323D060E070E086E193E40E94FC150E94DB1645
S11323E06B017C0120E030E040EC50E4C501B40115
S11323F00E94691620E030E046E153E40E94D517BC
S11324009B01AC0160E070E086E193E40E94FC155E
S11324100E94DB16960140E080E0FF90EF90DF9091
S1132420CF90BF90AF909F908F900C94E0050E9446
S1132430CA030E942A030E946B050E946E0681E073
S11324400E9452030DE111E0CAE2D1E08DE790E071
S11324500E94D3060E94A80383E00E945D030E94A9
S11324603503BC0180E090E00E940A1720E030E0D0
S113247040EA50E40E94D51720E030E040E85AE3F7
S11324800E94D5176B017C0184E00E945D030E94C9
S11324903503BC0180E090E00E940A1720E030E0A0
S11324A040EA50E40E94D51720E030E040E85AE3C7
S11324B00E94D5174B015C01FF92EF92DF92CF92FD
S11324C01F930F930E94951CBF92AF929F928F927D
S11324D0DF93CF930E94951C282D392D4A2D5B2D17
S11324E06C2D7D2D8E2D9F2D0E94D0118DB79EB702
S11324F00C960FB6F8949EBF0FBE8DBFA7CFA0E178
S1132500B0E0E5E8F2E10C94041A7C011B016A01D5
S1132510FC0117821682838181FF44C39E012F5FD1
S11325203F4F3901F7019381F10193FD859193FFA9
S113253081911F01882309F431C3853239F493FD55
S1132540859193FF81911F01853239F4B70190E0A1
S11325500E94591C56016501E5CF10E0512C912CC5
S1132560FFE1F915D8F08B3279F038F4803279F044
S11325708332A1F4F92DF0612EC08D3261F08033E5
S113258069F4292D21602DC0392D3260932E892DB7
S11325908460982E2AC0E92DE86015C097FC2DC0F0
S11325A020ED280F2A3088F496FE06C03AE0139FE7
S11325B0200D1124122F19C08AE0589E200D1124D9
S11325C0522EE92DE0629E2E10C08E3231F496FC1C
S11325D0E5C2F92DF0649F2E08C08C3621F4292D14
S11325E02068922E02C0883641F4F10193FD859152
S11325F093FF81911F018111B3CF9BEB980F93300F
S113260020F4992D9061805E07C09BE9980F933068
S113261008F066C1992D9F7E96FF16E09F73992E50
S1132620853619F49064992E08C0863621F4392F22
S11326303068932E02C01111115097FE07C01C334D
S113264050F444244394410E27E00BC0183038F072
S113265027E017E005C027E09CE3492E02C0212FA4
S1132660412C560184E0A80EB11CF60160817181F1
S113267082819381042DA3010E946B1B6C01F9815B
S1132680FC87F0FF02C0F3FF06C091FC06C092FE77
S113269006C000E205C00DE203C00BE201C000E089
S11326A08C858C7019F001115AC29BC297FE10C020
S11326B04C0CFC85F4FF04C08A81813309F44A94EC
S11326C0141474F528E0241578F588E0482E2CC0FD
S11326D096FC2AC0812F90E08C159D059CF03CEF60
S11326E0C3163FEFD30674F0892D8068982E0AC074
S11326F0E2E0F0E0EC0FFD1FE10FF11D808180337B
S113270019F411501111F4CF97FE0EC044244394D0
S1132710410E812F90E0C816D9062CF41C1904C070
S11327204424439401C010E097FE06C01C141D0409
S113273034F4C601019605C085E090E002C081E052
S113274090E001110196112331F0212F30E02F5F29
S11327503F4F820F931F252D30E08217930714F407
S1132760581A01C0512C892D897049F4552039F02B
S1132770B70180E290E00E94591C5A94F7CF0023DD
S113278029F0B701802F90E00E94591C93FC09C0E6
S1132790552039F0B70180E390E00E94591C5A9407
S11327A0F7CF97FE4CC04601D7FE02C0812C912C76
S11327B0C60188199909F301E80FF91FFE87ED870F
S11327C0960124193109388B2F87012F10E01195B8
S11327D0019511093FEF8316930629F4B7018EE2A0
S11327E090E00E94591CC814D9044CF08F85988934
S11327F08815990524F4ED85FE85818101C080E367
S1132800F1E08F1A91082D853E852F5F3F4F3E875B
S11328102D87801691062CF0B70190E00E94591C78
S1132820D9CFC814D90441F49A81963320F495334E
S113283019F43C8534FF81E3B70190E04EC08A81EE
S1132840813319F09C859F7E9C87B70190E00E949C
S1132850591C111105C094FC18C085E690E017C0FE
S1132860B7018EE290E00E94591C1E5F82E001E0F5
S1132870080FF301E80FF11D8081B70190E00E9479
S1132880591C802F0113F3CFE6CF85E490E0B70104
S11328900E94591CD7FC06C0C114D10441F4EC8534
S11328A0E4FF05C0D194C194D1088DE201C08BE24C
S11328B0B70190E00E94591C80E32AE0C216D104BB
S11328C02CF08F5FFAE0CF1AD108F7CFB70190E070
S11328D00E94591CB701C601C0960E94591C54C1DC
S11328E0833631F0833779F0833509F056C020C040
S11328F0560132E0A30EB11CF6018081898301E008
S113290010E0630112C05601F2E0AF0EB11CF601F3
S1132910C080D18096FE03C0612F70E002C06FEFCB
S11329207FEFC6010E944E1C8C01F92DFF7714C065
S1132930560122E0A20EB11CF601C080D18096FEA1
S113294003C0612F70E002C06FEF7FEFC6010E94E9
S1132950431C8C01F92DF0689F2EF3FD1AC0852DC0
S113296090E008171907A8F4B70180E290E00E94EC
S1132970591C5A94F4CFF60197FC859197FE8191E6
S11329806F01B70190E00E94591C51105A940150F4
S113299011090115110579F7F7C0843611F089364C
S11329A061F5560197FE09C024E0A20EB11CF601A0
S11329B060817181828193810AC0F2E0AF0EB11C03
S11329C0F60160817181072E000C880B990BF92D9B
S11329D0FF769F2E97FF09C090958095709561951D
S11329E07F4F8F4F9F4FF0689F2E2AE030E0A30166
S11329F00E94AB1CC82EC6183FC0092D853721F490
S1132A000F7E2AE030E01DC0097F8F3691F018F464
S1132A10883559F0C3C0803719F0883711F0BEC02B
S1132A20006104FF09C0046007C094FE08C006608A
S1132A3006C028E030E005C020E130E002C020E11B
S1132A4032E0560107FF09C084E0A80EB11CF6016C
S1132A50608171818281938108C0F2E0AF0EB11C64
S1132A60F6016081718180E090E0A3010E94AB1CBB
S1132A70C82EC6180F77902E96FE0BC0092D0E7F18
S1132A80C11650F494FE0AC092FC08C0092D0E7EB3
S1132A9005C0DC2C092D03C0DC2C01C0D12E04FFA1
S1132AA00DC0FE01EC0DF11D8081803311F4097E0F
S1132AB009C002FF06C0D394D39404C0802F867843
S1132AC009F0D39403FD11C000FF06C01C2DD514DA
S1132AD080F4150D1D190DC0D51458F4B70180E20A
S1132AE090E00E94591CD394F7CFD51410F45D18CC
S1132AF001C0512C04FF10C0B70180E390E00E9494
S1132B00591C02FF17C001FD03C088E790E002C012
S1132B1088E590E0B7010CC0802F867859F001FF5A
S1132B2002C08BE201C080E207FD8DE2B70190E0B4
S1132B300E94591CC11638F4B70180E390E00E944A
S1132B40591C1150F7CFCA94F301EC0DF11D80818B
S1132B50B70190E00E94591CC110F5CF15C0F4E0F4
S1132B60F51560F584E0581A93FE1FC0011127C0C3
S1132B702C8523FF2AC00EEF10E0392D3071932EDF
S1132B80F8018491811124C0552009F4E4CCB701E3
S1132B9080E290E00E94591C5A94F6CFF701868196
S1132BA0978126C08FEF9FEF23C0B70180E290E0AA
S1132BB00E94591C5A945110F8CFD8CF512CB70108
S1132BC0802F90E00E94591CD3CF02E011E0D5CFB2
S1132BD091108052B70190E00E94591C0F5F1F4F63
S1132BE0CFCF23E0251510F483E0BDCF512CC0CF07
S1132BF06096E2E10C94201A5058BB27AA270E9441
S1132C0014160C945E170E94501738F00E94571740
S1132C1020F039F49F3F19F426F40C944D170EF468
S1132C20E095E7FB0C944717E92F0E946F1758F3C0
S1132C30BA17620773078407950720F079F4A6F59D
S1132C400C9491170EF4E0950B2EBA2FA02D0B01C6
S1132C50B90190010C01CA01A0011124FF27591BDD
S1132C6099F0593F50F4503E68F11A16F040A22FE3
S1132C70232F342F4427585FF3CF46953795279554
S1132C80A795F0405395C9F77EF41F16BA0B620B53
S1132C90730B840BBAF09150A1F0FF0FBB1F661F9A
S1132CA0771F881FC2F70EC0BA0F621F731F841FDD
S1132CB048F4879577956795B795F7959E3F08F003
S1132CC0B0CF9395880F08F09927EE0F97958795C5
S1132CD008950E947D160C945E170E94571758F0B1
S1132CE00E94501740F029F45F3F29F00C944717D5
S1132CF051110C9492170C944D170E946F1768F39E
S1132D009923B1F3552391F3951B550BBB27AA27A0
S1132D1062177307840738F09F5F5F4F220F331FDA
S1132D20441FAA1FA9F335D00E2E3AF0E0E832D0A2
S1132D3091505040E695001CCAF72BD0FE2F29D0A5
S1132D40660F771F881FBB1F261737074807AB0777
S1132D50B0E809F0BB0B802DBF01FF2793585F4FEC
S1132D603AF09E3F510578F00C9447170C94921753
S1132D705F3FE4F3983ED4F3869577956795B795CE
S1132D80F7959F5FC9F7880F911D9695879597F9D9
S1132D900895E1E0660F771F881FBB1F6217730752
S1132DA08407BA0720F0621B730B840BBA0BEE1F67
S1132DB088F7E09508950E94771788F09F5798F058
S1132DC0B92F9927B751B0F0E1F0660F771F881F2C
S1132DD0991F1AF0BA95C9F714C0B13091F00E9446
S1132DE09117B1E008950C949117672F782F8827D5
S1132DF0B85F39F0B93FCCF3869577956795B3956D
S1132E00D9F73EF490958095709561957F4F8F4FDB
S1132E109F4F0895E89409C097FB3EF490958095E0
S1132E20709561957F4F8F4F9F4F9923A9F0F92F8C
S1132E3096E9BB279395F695879577956795B7950A
S1132E40F111F8CFFAF4BB0F11F460FF1BC06F5FF0
S1132E507F4F8F4F9F4F16C0882311F096E911C002
S1132E60772321F09EE8872F762F05C0662371F023
S1132E7096E8862F70E060E02AF09A95660F771F37
S1132E80881FDAF7880F9695879597F9089597F92B
S1132E909F6780E870E060E008959FEF80EC0895FC
S1132EA000240A9416161706180609060895002425
S1132EB00A9412161306140605060895092E03949F
S1132EC0000C11F4882352F0BB0F40F4BF2B11F413
S1132ED060FF04C06F5F7F4F8F4F9F4F089557FD72
S1132EE09058440F551F59F05F3F71F04795880F74
S1132EF097FB991F61F09F3F79F08795089512160B
S1132F0013061406551FF2CF4695F1DF08C01616B6
S1132F1017061806991FF1CF869571056105089467
S1132F200895E894BB2766277727CB0197F908957E
S1132F300E947717A8F19E57B0F1985160F039F1CB
S1132F40983070F5092E9927660F771F881F991FEF
S1132F500A94D1F71CC0BB27993F4CF4B111B1E0DE
S1132F60B62B672F782F8827985FB1F708C086950E
S1132F7077956795B79508F4B1609395C1F7BB0F42
S1132F8030F411F460FF03C06F5F7F4F8F4F3EF446
S1132F9090958095709561957F4F8F4F9F4F0895C1
S1132FA068940C9492170C9491170E94E8170C944F
S1132FB05E170E94501738F00E94571720F095238F
S1132FC011F00C9447170C944D1711240C9492177C
S1132FD00E946F1770F3959FC1F3950F50E0551F32
S1132FE0629FF001729FBB27F00DB11D639FAA275A
S1132FF0F00DB11DAA1F649F6627B00DA11D661FA9
S1133000829F2227B00DA11D621F739FB00DA11DC9
S1133010621F839FA00D611D221F749F3327A00D83
S1133020611D231F849F600D211D822F762F6A2F1F
S113303011249F5750409AF0F1F088234AF0EE0F84
S1133040FF1FBB1F661F771F881F91505040A9F7B1
S11330509E3F510580F00C9447170C9492175F3FE4
S1133060E4F3983ED4F3869577956795B795F795ED
S1133070E7959F5FC1F7FE2B880F911D9695879565
S113308097F90895FA01EE0FFF1F309621053105D7
S1133090A1F16115710561F48038BFE39B0749F123
S11330A068949038810561F08038BFEF9B0741F048
S11330B099234AF5FF3FE1053105210519F1E8940B
S11330C00894E795D901AA2329F4AB2FBE2FF85F02
S11330D0D0F310C0FF5F70F4A695E0F7F73950F015
S11330E019F0FF3A38F49F779F930DD00F9007FCA7
S11330F09058089546F00C944D1760E070E080E815
S11331009FE308954FE79F775F934F933F932F93E8
S11331100E943D192F913F914F915F910E94D517C5
S11331200C949A1829F416F00C9447170C949117E0
S11331300C944D170E947717A8F39638A0F707F858
S11331400F92E8942BE33AEA48EB5FE70E94EB170F
S11331500F920F920F924DB75EB70F920E9485198E
S1133160ECE7F0E00E94CC184F915F91EF91FF9152
S1133170E595EE1FFF1F49F0FE57E0684427EE0F68
S1133180441FFA95E1F74195550B0E94FF180F90E3
S113319007FE0C94F3180895DF93CF931F930F93B6
S11331A0FF92EF92DF927B018C01689406C0DA2EC5
S11331B0EF010E94E817FE01E894A591259135914D
S11331C045915591A6F3EF010E941416FE01970153
S11331D0A801DA9469F7DF90EF90FF900F911F91A7
S11331E0CF91DF9108959B01AC0160E070E080E82D
S11331F09FE30C9469160C9447170C94B9190E9418
S11332007717D8F39923C9F3940F511DA3F3915061
S1133210504094F059F0882332F0660F771F881FCE
S113322091505040C1F79E3F51052CF7880F911DD6
S11332309695879597F908955F3FACF0983E9CF07A
S1133240BB27869577956795B79508F4B1609395F4
S1133250C1F7BB0F58F711F460FFE8CF6F5F7F4FE2
S11332608F4F9F4FE3CF0C94921716F00C94B9191B
S11332700C944D1768940C9447170E947717A8F381
S11332809923C1F3AEF3DF93CF931F930F93FF9270
S1133290C92FDD2788232AF02197660F771F881FFF
S11332A0DAF720E030E040E85FEB9FE3883920F074
S11332B0803E38F021968F770E94FD15E4EAF0E015
S11332C004C00E94FD15E1EDF0E00E94CC188B01D2
S11332D0BE01EC01FB2E6F5771097595771F880BA2
S11332E0990B0E940C1728E132E741E35FE30E9447
S11332F0E817AF2D9801AE01FF900F911F91CF9168
S1133300DF910E9414160C945E17FA01DC01AA0FD7
S1133310BB1F9B01AC01BF5728F422273327442746
S1133320507820C0B75190F4AB2F002446953795C0
S11333302795011CA395D2F3002071F0220F331FAF
S1133340441FB395DAF30ED00C94FC15613071056B
S1133350A0E88A07B94630F49B01AC0166277727B9
S113336088279078309621F02083318342835383D9
S113337008959F3F31F0915020F487957795679594
S1133380B795880F911D9695879597F90895DB0158
S11333908F939F930E94F919BF91AF91A29F800DC3
S11333A0911DA39F900DB29F900D11240895A1E249
S11333B01A2EAA1BBB1BFD010DC0AA1FBB1FEE1FAB
S11333C0FF1FA217B307E407F50720F0A21BB30BF6
S11333D0E40BF50B661F771F881F991F1A9469F772
S11333E060957095809590959B01AC01BD01CF01CE
S11333F008950E943B1AA59F900DB49F900DA49F21
S1133400800D911D112408952F923F924F925F9247
S11334106F927F928F929F92AF92BF92CF92DF92E0
S1133420EF92FF920F931F93CF93DF93CDB7DEB745
S1133430CA1BDB0B0FB6F894DEBF0FBECDBF0994D9
S11334402A88398848885F846E847D848C849B8430
S1133450AA84B984C884DF80EE80FD800C811B813E
S1133460AA81B981CE0FD11D0FB6F894DEBF0FBE6D
S1133470CDBFED010895A29FB001B39FC001A39FEA
S1133480700D811D1124911DB29F700D811D112499
S1133490911D08950F931F93CF93DF93823091056D
S11334A010F482E090E0E0911602F091170220E01F
S11334B030E0A0E0B0E0309719F140815181028101
S11334C0138148175907C8F08417950769F41097B2
S11334D031F012960C93129713961C9327C0009305
S11334E016021093170222C02115310519F0421754
S11334F0530718F49A01BD01EF01DF01F801DBCF96
S113350021153105F9F0281B390B2430310580F4DD
S11335108A819B816115710521F0FB01938382836C
S113352004C09093170280931602FE01329644C0A1
S1133530FE01E20FF31F81939193225031093983E5
S113354028833AC02091140230911502232B41F4B0
S11335502091190130911A0130931502209314021D
S113356020911701309118012115310541F42DB72F
S11335703EB740911B0150911C01241B350BE09177
S11335801402F0911502E217F307A0F42E1B3F0B6F
S11335902817390778F0AC014E5F5F4F24173507C1
S11335A048F04E0F5F1F509315024093140281930D
S11335B0919302C0E0E0F0E0CF01DF91CF911F9141
S11335C00F910895CF93DF93009709F481C0FC0114
S11335D0329713821282A0911602B09117021097AB
S11335E081F420813181820F931F20911402309144
S11335F015022817390751F5F0931502E0931402C8
S113360067C0ED0120E030E0CE17DF0740F44A81C7
S11336105B819E0141155105F1F0EA01F5CFD38399
S1133620C28340815181840F951FC817D90759F46B
S113363088819981840F951F0296918380838A8162
S11336409B81938382832115310529F4F09317021A
S1133650E09316023DC0E901FB83EA834991599145
S1133660C40FD51FEC17FD0761F480819181840F8D
S1133670951F0296E90199838883828193819B83B4
S11336808A83E0E0F0E012968D919C911397009765
S113369019F0FD01DC01F7CF8D919C9111979D01EB
S11336A02E5F3F4F820F931F209114023091150219
S11336B02817390769F4309729F4109217021092E9
S11336C0160202C013821282B0931502A093140250
S11336D0DF91CF910895283008F027E03327DA01ED
S11336E0990F311D87FD916000966105710539F4CC
S11336F032602E5F3D9330E32A95E1F708959F3FB2
S113370030F080387105610509F03C5F3C5F3D9302
S1133710913008F08068911DDF93CF931F930F932E
S1133720FF92EF92192F987F9695E92F969596958B
S1133730E90FFF27E05AFE4F99273327EE24FF2491
S1133740A701E70105900894079428F4360FE71EB3
S1133750F81E491F511D660F771F881F991F069475
S1133760A1F70590079428F4E70EF81E491F561F89
S1133770C11D770F881F991F661F0694A1F7059036
S1133780079428F4F80E491F561FC71FD11D880F30
S1133790991F661F771F0694A1F70590079420F4DC
S11337A0490F561FC71FD81F990F661F771F881F01
S11337B00694A9F784911095177041F0D695C79592
S11337C057954795F794E7941A95C1F7E6E0F1E029
S11337D068941590159135916591959105907FE2C6
S11337E07395E118F10A430B560BC90BD009C0F7C6
S11337F0E10CF11E431F561FC91FD01D7EF4703308
S113380011F48A95E6CFE894015030F0080F0AF4D9
S11338100027021708F4202F2395022F7A3328F06B
S113382079E37D932A95E9F710C07D932A9589F66B
S1133830069497956795379517951794E118F10AAB
S1133840430B560BC90BD00998F023957E917395C1
S11338507A3308F070E37C932013B8F77E9170619B
S11338607D9330F0839571E37D9370E32A95E1F7BE
S11338701124EF90FF900F911F91CF91DF91992721
S113388087FD90950895FC010590615070400110EA
S1133890D8F7809590958E0F9F1F0895FC01615075
S11338A0704001900110D8F7809590958E0F9F1F5E
S11338B008950F931F93CF93DF93FB01238121FD81
S11338C003C08FEF9FEF2CC022FF16C046815781A3
S11338D0248135814217530744F4A081B1819D01AD
S11338E02F5F3F4F318320838C93268137812F5F55
S11338F03F4F3783268314C08B01EC01FB01008406
S1133900F185E02D0995892BE1F6D80116968D9164
S11339109C911797019617969C938E931697CE01B8
S1133920DF91CF911F910F910895A0E0B0E0EBE9F2
S1133930FCE10C94141AAE014B5F5F4FFA016191E4
S11339407191AF0180911A0290911B020E947F1223
S1133950E2E00C94301AFA01AA27283051F1203100
S113396081F1E8946F936E7F6E5F7F4F8F4F9F4F0F
S1133970AF4FB1E03ED0B4E03CD0670F781F891F51
S11339809A1FA11D680F791F8A1F911DA11D6A0F1F
S1133990711D811D911DA11D20D009F468943F91D2
S11339A02AE0269F11243019305D3193DEF6CF01D1
S11339B00895462F4770405D4193B3E00FD0C9F797
S11339C0F6CF462F4F70405D4A3318F0495D31FD04
S11339D04052419302D0A9F7EACFB4E0A695979557
S11339E0879577956795BA95C9F70097610571052D
S11339F008959B01AC010A2E069457954795379577
S1133A002795BA95C9F7620F731F841F951FA01DD0
S1093A100895F894FFCFB5
S1133A161F0000000200000000060A000000001853
S1133A260C041060C0802000001E0220006C656635
S1133A36743A20252E3032660A0072696768743A31
S10B3A4620252E3032660A002F
S9030000FC
