S00D00004C616220372E73726563B1
S11300000C9412030C942F030C942F030C942F03C1
S11300100C945B0F0C94840F0C94AD0F0C94D60FBE
S11300200C942F030C943C0E0C94650E0C948E0EC1
S11300300C94090F0C94B70E0C94E00E0C94320F30
S11300400C94C10D0C94EA0D0C94130E0C942F0314
S11300500C942F030C942F030C942F030C942F0354
S11300600C942F030C942F030C942F030C942F0344
S11300700C942F030C942F030C942F034619271967
S1130080371934193A1931192E1907634236B79BB7
S1130090D8A71A39685618AEBAAB558C1D3CB7CCE4
S11300A05763BD6DEDFD753EF6177231BF0000005C
S11300B0803F08000000BE922449123EABAAAA2A3F
S11300C0BECDCCCC4C3E00000080BEABAAAAAA3E5A
S11300D000000000BF000000803F00000000000896
S11300E04178D3BB4387D1133D190E3CC3BD428233
S11300F0AD2B3E68EC8276BED98FE1A93E4C80EFF1
S1130100FFBE01C4FF7F3F00000000006E616E006F
S1130110696E660000407A10F35A00A0724E180906
S11301200010A5D4E80000E87648170000E40B545A
S1130130020000CA9A3B000000E1F5050000809629
S11301409800000040420F000000A086010000005B
S1130150102700000000E803000000006400000015
S113016000000A00000000000100000000002C76DE
S1130170D888DC674F0823DFC1DFAE59E1B1B796F9
S1130180E5E3E453C63AE651997696E8E6C2842656
S1130190EB898C9B62ED407C6FFCEFBC9C9F40F232
S11301A0BAA56FA5F490055A2AF75C936B6CF967AE
S11301B06DC11BFCE0E40D47FEF520E6B500D0ED73
S11301C0902E0300943577050080841E08000020DB
S11301D04E0A000000C80C333333330F986E128379
S11301E01141EF8D2114893BE65516CFFEE6DB184D
S11301F0D1844B381BF77C1D901DA4BBE424203212
S113020084725E228100C9F124ECA1E53D27160524
S11302100100000000000000FA000000E000E0001F
S113022028FE28FE282454FE5448C4C81026466CD0
S113023092AA44A000A0C0000000384482000082BA
S113024044380028107C102810107C1010000A0C70
S11302500000101010101000060600000408102002
S1130260407C8A92A27C0042FE020042868A92620C
S11302708482A2D28C182848FE08E4A2A2A29C3C44
S11302805292920C808E90A0C06C9292926C60926A
S1130290929478006C6C0000006A6C000010284492
S11302A082002828282828008244281040808A9028
S11302B0604C929E827C7E8888887EFE9292926CAC
S11302C07C82828244FE82824438FE92929282FE32
S11302D0909090807C8292925EFE101010FE0082BC
S11302E0FE8200040282FC80FE10284482FE020288
S11302F00202FE403040FEFE201008FE7C82828214
S11303007CFE909090607C828A847AFE90989462BD
S1130310629292928C8080FE8080FC020202FCF841
S1130320040204F8FC021C02FCC6281028C6E010D3
S11303300E10E0868A92A2C200FE82820040201043
S11303400804008282FE0020408040200202020253
S1130350020080402000042A2A2A1EFE1222221CA7
S11303601C222222041C222212FE1C2A2A2A1810D1
S11303707E908040304A4A4A7CFE1020201E002293
S1130380BE0200040222BC00FE081422000082FE09
S113039002003E2018201E3E1020201E1C22222275
S11303A01C3E28282810102828183E3E1020201013
S11303B0122A2A2A0420FC2202043C0202043E38A7
S11303C0040204383C020C023C2214081422300AB1
S11303D00A0A3C22262A322200106C82000000FE07
S11303E0000000826C1000081010081000000000CB
S11303F0007F8181817F7F8383837F7F8787877F5E
S11304007F8F8F8F7F7F9F9F9F7F7FBFBFBF7F7FA8
S1130410FFFFFF7F2040FF4020621517156500FB9A
S1130420FB00000000000000C0FF0300E0FF070025
S1130430F0FF0F00F8FF1F0078001E0078001E0078
S113044078001E0078001E0078001E0078001E0050
S113045078001E0078001E0078001E0000000000D6
S11304600000000080FF0300E0FF0700F0FF0F0022
S1130470F8FF1F00F83C1F00783C1E00783C1E006B
S1130480783C1E00783C1E00783C1E00783C1E0020
S1130490783C1E00783C1E00783C1E00783C1E0010
S11304A00000000000000000E0FF0300F0FF070070
S11304B0F8FF0F00F8FF1F00783C1E00783C1E0078
S11304C0783C1E00783C1E00783C1E00783C1E00E0
S11304D0783C1E00783C1E00783C1E00783C1E00D0
S11304E00000000000000000F8FF0300F8FF0F0008
S11304F0F8FF1F00F8FF1F0000001E0000001E0090
S113050000801F0000F01F0000FF0F00E0FF070045
S1130510F0FF0000F80F0000F80000007800000071
S113052078000000F8FF1F00F8FF1F00F0FF1F0015
S1130530E0FF1F000000000000000000F8FF1F00A3
S1130540F8FF1F00F8FF1F00F8FF1F0078001E00CF
S1130550783C1E00783C1E00783C1E00783C1E004F
S1130560783C1E00783C1E00F87E1F00F8FF1F0038
S1130570F0FF0F00E0E70300000000000000380077
S1130580EEFF6C002A8045003A0047FC03FF6CFC38
S113059083FF3900DEFF0B7CD0810BFCD0810BC0C4
S11305A0D0810BFCD0810B7CDEFF0B0082FF397005
S11305B002FF6CF83A0047DC2A8045CCEEFF6CCC95
S11305C0000038000000000C00001E0C00001E009B
S11305D000001E0000001E0000001E00F8FF1F00A7
S11305E0F8FF1F00F8FF1F00F8FF1F0000001E00A7
S11305F000001E0000001E0000001E0000005E003F
S11306000000400000007C000000400000004000AA
S113061000007C00000030000000100000003000EA
S113062000007C0011241FBECFEFD8E0DEBFCDBF99
S113063011E0A0E0B1E0E2E8FDE402C005900D9213
S1130640A23CB107D9F722E0A2ECB1E001C01D92AF
S1130650AA3EB207E1F70E94A6030C94BF260C94AD
S113066000008FE00E94520A882311F082E008956E
S11306700E949B0381E008958FE00E945F0A882313
S113068019F420E030E013C080917A0080648093F4
S11306907A0080917A0086FDFCCF30917800209119
S11306A07900922F80E0232F30E0282B392BC901C9
S11306B00895ECE7F0E090818295880F880F807CA4
S11306C09F73982B90830895582F80910001883050
S11306D0D8F440917E0021E030E0B90102C0660FF9
S11306E0771F8A95E2F7CB018095842380937E005F
S11306F080917E00052E02C0220F331F0A94E2F778
S1130700822B80937E000DC020917E0081E090E0DA
S1130710052E02C0880F991F0A94E2F7282B209314
S11307207E005093000180917C005F71807E852B58
S113073080937C0008958FE180937C00EAE7F0E0E9
S113074087E0808380818068808308950E94BF0D44
S11307500E94B10D0E94921B80E090E008950F93D7
S11307601F9385E00E945F0A8823C1F080E460E063
S11307700E94C30400E0802F60E00E94570410E050
S113078080E061E00E94C3041F5F1038C9F70F5F67
S1130790043089F783E060E00E94B1041F910F9157
S11307A008950F931F9385E00E94520A882311F045
S11307B082E07AC00E940E05182F0E94D10A1150BF
S11307C0123008F06DC08150823008F069C00E9478
S11307D0DE048EEA60E00E94C30482EA60E00E94C4
S11307E0C30480EA60E00E94C30400E513ECC8017E
S11307F00197F1F780EC60E00E94C3048FE260E0AF
S11308000E94C30481E860E00E94C30486E160E0C2
S11308100E94C30482E260E00E94C304C8010197FD
S1130820F1F78FEA60E00E94C30486EA60E00E9468
S1130830C30485EA60E00E94C30480E090E028E8F5
S113084033E1F9013197F1F7019643E0883E9407CB
S1130850C1F783EB60E00E94C30480E460E00E947F
S1130860C30483E060E00E94570483E060E00E94D8
S1130870B10410928002109282021092810285E0EB
S113088091E09093E7028093E60288E10E9490044D
S11308900E94AF0384EA60E00E94C30481E004C0C4
S11308A085E00E94420A87E01F910F910895FF920C
S11308B00F931F93082FF62E85E00E945F0A88236A
S11308C0A1F01F2D1F770370802F806B60E00E94C2
S11308D0C30412951F70812F806160E00E94C304DD
S11308E08F2D8F7060E00E94C3041F910F91FF90C1
S11308F008950F931F93082F162F85E00E945F0A17
S1130900882359F0812F153108F084E166E0869F31
S1130910B0011124802F0E94B1041F910F910895FA
S11309201F93182F85E00E945F0A8823C1F087E097
S11309300E94500582E06AE00E94A10582E061EB1A
S11309400E94A105612F113208F060E282E00E944A
S1130950A10589EE8A95F1F787E00E9450051F9161
S113096008950F931F93082F162F85E00E945F0AA6
S1130970882331F003701F7710937E0200937F0267
S11309801F910F9108950F931F93082F162F85E041
S11309900E945F0A882379F0112319F0113021F4A1
S11309A002C02B9801C02B9A86E08A95F1F780E06B
S11309B0602F0E94A1051F910F910895239A089515
S11309C086E00E94520A882311F082E008950E9472
S11309D0F70481E008951F93182F86E00E945F0AB0
S11309E0882319F0812F0E9400051F910895559ABC
S11309F0569A80E20E94BD1080E40E94BD100895C2
S1130A00282F85FF04C08BB190E289278BB926FF7C
S1130A1004C08BB190E489278BB9089582E00E94C9
S1130A20520A882311F082E008950E94B00580E004
S1130A3064E471E10E94470581E06CE371E10E9486
S1130A40470582E064E371E10E94470586E06CE4B7
S1130A5071E10E94470583E06CE271E10E94470561
S1130A6084E06CE271E10E94470585E06CE271E18B
S1130A700E94470587E06CE271E10E9447058FEF11
S1130A808093830287E00E94500581E00895E82F57
S1130A90F0E0EE0FFF1FEF5EFD4F7183608308955A
S1130AA01F93182F82E00E945F0A882309F447C02D
S1130AB0912F977080918302981709F440C0909306
S1130AC0830285B1887F892B85B9933011F19430E5
S1130AD028F4913051F0923090F40CC0953019F113
S1130AE09530E0F0963021F50FC0E0911302F091BB
S1130AF0140222C0E0911102F09112021DC0E09193
S1130B001502F091160218C0E0911D02F0911E0228
S1130B1013C0E0911702F09118020EC0E09119027F
S1130B20F0911A0209C0E0911B02F0911C0204C06A
S1130B30E0911F02F0912002309709F009951F916E
S1130B4008951F93162F0E94500582E00E945F0AA9
S1130B50882321F01EBD0DB407FEFDCF1F9108951B
S1130B60259A2698279A209A219A229A08952F92B4
S1130B703F924F925F926F927F928F929F92AF9229
S1130B80BF92CF92DF92EF92FF920F931F93DF9366
S1130B90CF930F92CDB7DEB7582E962E442E39013F
S1130BA0C9821501CE88DF88A88CB98C6A8D7B8DAB
S1130BB081E0981619F1981628F092E0991609F038
S1130BC070C03EC080E0B7010E94E80780E0642D59
S1130BD0A30198010981EE24E3947BEBC72E72E014
S1130BE0D72E0E94A808552009F05BC000D00F92B0
S1130BF0EDB7FEB71182338222821CC081E00E94CD
S1130C00E80781E0682DA60195010C8DEE24E3949C
S1130C109BEBC92E92E0D92E0E94A808552009F01A
S1130C2040C000D00F92EDB7FEB791828D8D9E8D9E
S1130C30938382830E94E5090F900F900F9031C037
S1130C40C7010E940A0800D08BEB92E0EDB7FEB713
S1130C5092838183842DB301A8012981082D760113
S1130C606501AC8C882483940E943B090F900F90FB
S1130C705520B9F400D000D00F92ADB7BEB711968D
S1130C80EDB7FEB79182FD01328221828D8D9E8D5A
S1130C90948383830E94E5090F900F900F900F9027
S1130CA00F900F90CF91DF911F910F91FF90EF90D4
S1130CB0DF90CF90BF90AF909F908F907F906F9078
S1130CC05F904F903F902F9008954F925F927F9244
S1130CD08F929F92AF92BF92CF92DF92EF92FF9248
S1130CE00F931F93DF93CF93CDB7DEB7562F942E78
S1130CF07C2CAA89BB89CC88DD886E897F89988DF4
S1130D00813009F445C0813030F1823009F066C089
S1130D10513071F0513020F0523009F05FC011C0F1
S1130D2080E0B7010E94E80780E0692DA80106C0B1
S1130D3081E00E94E80781E0682DA6010E94730704
S1130D404DC0C7010E940A08892DB801482D96019B
S1130D500E948A0743C0EDB7FEB739970FB6F894DF
S1130D60FEBF0FBEEDBF4DB65EB60894411C511CCC
S1130D70B283A183F201D382C28275836483968392
S1130D80898D9A8D9087878380E0652FC72C1CC03E
S1130D90EDB7FEB739970FB6F894FEBF0FBEEDBF9F
S1130DA0ADB6BEB60894A11CB11CB283A183F501F3
S1130DB0D382C2827583648396831086178281E00E
S1130DC0652FC72CAA24BB240E94B7058DB79EB7F4
S1130DD009960FB6F8949EBF0FBE8DBFCF91DF91D9
S1130DE01F910F91FF90EF90DF90CF90BF90AF9045
S1130DF09F908F907F905F904F90089587E00E941E
S1130E00520A882311F082E008950E94380A81E092
S1130E108093BA0210928402109285021092870283
S1130E2010928602109289021092880210928B020C
S1130E3010928A0210928D0210928C0210928F02EC
S1130E4010928E02109291021092900210929302CC
S1130E5010929202109295021092940210929702AC
S1130E6010929602109299021092980210929B028C
S1130E7010929A0210929D0210929C021092A20269
S1130E801092A3021092A4021092A5021092A7023B
S1130E901092A8021092A9021092AA021092AB0218
S1130EA01092AC021092AD021092AF021092AE02F8
S1130EB01092B1021092B0021092B3021092B202D8
S1130EC01092B5021092B40210929F0210929E02E8
S1130ED01092A1021092A0021092B9021092B802CC
S1130EE01092BA020895EF92FF920F931F93182F56
S1130EF0062F7A0160E00E944708812F602F0E942C
S1130F002808812FB7010E945C081F910F91FF9060
S1130F10EF900895CF92DF92EF92FF920F931F9379
S1130F20C82E7B01D42E890182E060E00E9447082C
S1130F308C2D6D2D0E943D08C701B8010E948908BF
S1130F401F910F91FF90EF90DF90CF9008952EEFB7
S1130F508037920714F480E79EEFFC0181E0E139C9
S1130F60F80714F0E0E9F1E09B018EEF60377807B1
S1130F7014F420E73EEFA90121E04139520714F0AF
S1130F8040E951E08F2F881F8827881F252F221FB3
S1130F902227221F91E09093BA028093A702209304
S1130FA0A802CF01F7FF03C0909581959F4F9A0146
S1130FB057FF03C0309521953F4F9093870280934C
S1130FC0860230938902209388021092BA0208950F
S1130FD0482F81E08093BA02CB0123E0693E720777
S1130FE010F088EE93E0413071F0413018F0423057
S1130FF071F405C090938F0280938E0208C0909381
S11310008F0280938E0290939102809390021092AB
S1131010BA02089521E02093BA02AC0183E0493E6C
S1131020580710F048EE53E09B0183E0693E7807CF
S113103010F028EE33E0F89450938F0240938E0220
S1131040309391022093900278941092BA020895FA
S1131050982F81E08093BA02913051F0913018F0CA
S1131060923041F403C06093A70204C06093A702C6
S11310706093A8021092BA02089591E09093BA0284
S1131080E7EAF2E0819360831092BA020895982F00
S113109081E08093BA02913051F0913018F092308F
S11310A041F403C06093840204C06093840260939B
S11310B085021092BA020895482F81E08093BA0203
S11310C0CB0121E06139720710F080E991E04130F1
S11310D061F0413018F04230C9F40EC0F894909396
S11310E0870280938602789411C0F89490938902C1
S11310F08093880278940AC0F8949093870280932E
S11311008602909389028093880278941092BA029E
S11311100895AC0181E08093BA02F894CB0121E0F8
S11311206139720710F080E991E09093890280930D
S113113088029A0181E04139580710F020E931E032
S1131140309387022093860278941092BA0208950D
S11311508F929F92AF92BF92CF92DF92EF92FF92C3
S11311600F931F93CF93DF93182FF62E4A01590143
S1131170E60187E00E945F0A882309F46FC0812F8B
S113118061E00E944708812FB401A5010E94261343
S1131190812F6F2D0E942808812F602F0E94111328
S11311A0812FB4010E94E912C114D10499F01130C5
S11311B049F0113018F0123069F406C01882109208
S11311C0B60208C0198204C0188219821092B602AD
S11311D01092B702D093B902C093B802EE20B9F5C9
S11311E082EC91E09093B9028093B802812FB5010B
S11311F00E945C08812F0E94D412113071F01130CA
S113120018F0123059F512C01092C2011092B602B1
S11312108091C2018823E1F321C01092C30110928E
S1131220B7028091C3018823E1F318C01092C20170
S11312301092C3011092B6021092B7028091C201BB
S11312408823E1F38091C3018823C1F307C0812F70
S1131250B5010E945C08812F0E94D412DF91CF91C6
S11312601F910F91FF90EF90DF90CF90BF90AF90C0
S11312709F908F9008953F924F925F926F927F92CA
S11312808F929F92AF92BF92CF92DF92EF92FF9292
S11312900F931F93DF93CF93CDB7DEB7982E2B0117
S11312A03A01322EB02E0C891D8987E00E945F0A14
S11312B0882309F453C082E061E00E94470880E07B
S11312C0B201A3010E94261381E0B701A6010E9486
S11312D02613892D6B2D0E943D0880E0632D0E940A
S11312E0111381E06A2D0E941113C201B7010E94FB
S11312F004130115110539F0F801108211821092BE
S1131300B6021092B7021093B9020093B802882073
S1131310F1F484EC91E09093B9028093B802C30194
S1131320B6010E94890882E00E94D4121092C4017E
S11313301092C5011092B6021092B7028091C401B6
S11313408823E1F38091C5018823C1F307C0C30159
S1131350B6010E94890882E00E94D412CF91DF91E5
S11313601F910F91FF90EF90DF90CF90BF90AF90BF
S11313709F908F907F906F905F904F903F900895D3
S11313800F931F93182F062F662349F460E070E033
S11313900E945C08812F60E070E00E94E91281E005
S11313A08093BA02113051F0113018F0123041F428
S11313B003C00093A20204C00093A2020093A302FC
S11313C01092BA021F910F910895CF92DF92EF927B
S11313D0FF920F931F93DF93CF93CDB7DEB71B8597
S11313E087E00E945F0A8823D1F1113061F0113047
S11313F018F01230A1F511C0EC85FD858091BB0277
S11314008823E1F306C0EC85FD858091BC02882326
S1131410E1F3309721F1099522C0CC84DD84EE8478
S1131420FF8400E010E0002351F48091BB02882384
S113143031F0C114D10411F0F601099501E0112332
S113144051F48091BC02882331F0E114F10411F0CD
S1131450F701099511E0002331F3112321F3CF9112
S1131460DF911F910F91FF90EF90DF90CF9008953F
S11314703A9A3B9A3C9A3D9A3E9A3F9A88B1837035
S113148088B90895853160F4E82FF0E0E759FD4FFD
S11314908081882329F08081815080838081089510
S11314A08FEF0895853110F080E00895E82FF0E083
S11314B0E759FD4F80818F5F808381500895853186
S11314C010F080E00895E82FF0E0E759FD4F8081A7
S11314D0811181E008951F93182F8091C7018823FB
S11314E041F08091CE01882399F01092C7011092A7
S11314F0CE010E94A00A8093C60188EC91E061E0CD
S113150040E028E230E00E947E0C81E08093C70135
S11315109091C601133018F0133079F409C0E12F0B
S1131520F0E0EF5FFE4F8081892341F081E006C047
S113153091FF03C0892F817001C080E01F9108953D
S11315400F931F9381E00E945F0A882311F400E047
S113155024C087E00E94500582E06AE00E94A10551
S113156082E062EB0E94A10518EC812F8A95F1F7C5
S113157082E060E00E945511082F812F8A95F1F7CF
S113158082E060E00E9455111A95F1F787E00E940D
S1131590500588E893E10197F1F7802F1F910F918F
S11315A00895DF93CF9300D00F92CDB7DEB781E0DB
S11315B00E94520A882311F082E011C00E940E0595
S11315C08150823040F40E94100CCE0101960E949A
S11315D0DE1381E004C081E00E94420A87E00F909C
S11315E00F900F90CF91DF9108950F931F93823046
S11315F0B1F0833028F4882341F08130F1F40AC03B
S1131600833091F08430C9F414C07093D402609391
S1131610D30213C07093D6026093D5020EC07093A8
S1131620D8026093D70209C07093DA026093D9029A
S113163004C07093DC026093DB026091D502709168
S1131640D6024091D7025091D8022091D90230910C
S1131650DA020091DB021091DC028091D3029091B6
S1131660D4020E94360B1F910F9108954F925F92FE
S11316706F927F928F929F92AF92BF92CF92DF929E
S1131680EF92FF920F931F93CF93DF93EC017B01B3
S11316903A01290181E00E945F0A882309F4AFC05E
S11316A087E00E94500589EE8A95F1F782E06AE0AE
S11316B00E94A10582E060EB0E94A1058090C9020E
S11316C09090CA028C169D0648F08091BF029091BA
S11316D0C0024E01C817D90708F44C01A090CB02F0
S11316E0B090CC02AE14BF0448F08091C102909136
S11316F0C2025701E816F90608F45C01C090CD0255
S1131700D090CE02C614D70448F08091C3029091C1
S1131710C40263016816790608F46C01E090CF02F4
S1131720F090D002E414F50448F08091C502909141
S1131730C60272014816590608F47C01C091D10210
S1131740D091D202C017D10748F08091C70290917E
S1131750C802E8010817190708F4EC019092D402B2
S11317608092D302B092D602A092D502D092D8022F
S1131770C092D702F092DA02E092D902D093DC024E
S1131780C093DB0219EE812F8A95F1F782E0692D6F
S11317900E94A10582E0682D0E94A105812F8A95EF
S11317A0F1F782E06B2D0E94A10582E06A2D0E9470
S11317B0A105812F8A95F1F782E06D2D0E94A10584
S11317C082E06C2D0E94A105812F8A95F1F782E0B9
S11317D06F2D0E94A10582E06E2D0E94A105812F2C
S11317E08A95F1F782E06D2F0E94A10582E06C2FAB
S11317F00E94A1051A95F1F787E00E945005DF9138
S1131800CF911F910F91FF90EF90DF90CF90BF90F9
S1131810AF909F908F907F906F905F904F900895BE
S11318201092D4021092D3021092D6021092D502D2
S11318301092D8021092D7021092DA021092D902B2
S11318401092DC021092DB0280E991E09093C002D6
S11318508093BF029093C2028093C1029093C4020A
S11318608093C3029093C6028093C5029093C802EA
S11318708093C70284E398E09093CA028093C902DC
S11318809093CC028093CB029093CE028093CD02AE
S11318909093D0028093CF029093D2028093D1028E
S11318A008950F931F93DF93CF93CDB7DEB7299796
S11318B00FB6F894DEBF0FBECDBF8C0188E00E9446
S11318C05F0A882311F491E00DC0CE01019661E016
S11318D040E098010E947E0C982F882319F48F8190
S11318E08823E9F3892F29960FB6F894DEBF0FBE3B
S11318F0CDBFCF91DF911F910F910895EF92FF9289
S11319000F931F93CF93DF93EC01F62EE42E8901FE
S113191088E00E945F0A882311F481E026C084E0F5
S113192090E00E94D023FC01009711F482E01DC0D6
S1131930F982F0FC1E8281E0E81619F48981846042
S113194089838981886089831B830A831D830C832F
S1131950D183C0831382128281E080933102CF014C
S11319600E94BC0C1092310280E0DF91CF911F9154
S11319700F91FF90EF900895CF92DF92EF92FF9234
S11319800F931F93CF93DF93EC018091DD028823A3
S113199039F4D093DF02C093DE020E94581447C08A
S11319A0C090DE02D090DF0200E010E0EE24FF24BD
S11319B037C0A881B981FD0164817581F601408138
S11319C05181FA01848195819B01281B390B37FFD2
S11319D00FC0861B970B95838483DB82CA82012BFD
S11319E029F4D093DF02C093DE0221C0F7010CC0BA
S11319F0F601828193812115310549F4FD01158297
S1131A0014829B838A83F601D383C28310C0FD01B1
S1131A10358324830097B9F30F5F1F4F76016C0160
S1131A208091DD0290E00817190718F2ECCF80913D
S1131A30DD028F5F8093DD02DF91CF911F910F91C3
S1131A40FF90EF90DF90CF9008958CE00E94520AAF
S1131A50882311F082E008958BE00E945F0A8823B6
S1131A60A1F40E946913813081F480E00E941B1468
S1131A7088EE93E024EF31E0F9013197F1F7019713
S1131A80D9F70E94AE0D81E008958CE00E94420ACD
S1131A9087E00895EF92FF920F931F938CE00E94CA
S1131AA05F0A882309F452C00E948713139A81E2C3
S1131AB08A95F1F713980B98EE24FF2487010CC044
S1131AC0039B0AC082E48A95F1F780B186958695D6
S1131AD0869580FF26C00FC00894E11CF11C011DEF
S1131AE0111D80E2E81681EAF80687E0080780E025
S1131AF0180731F722C00E949113EE24FF248701B6
S1131B0002C0039B0EC00894E11CF11C011D111DB1
S1131B1090E2E91691EAF90697E0090790E01907BF
S1131B2081F70E94991380E090E2E91691EAF906A0
S1131B3097E0090790E0190708F081E00B9A1398E1
S1131B40813021F00E9463139C0102C020E030E048
S1131B50C9011F910F91FF90EF9008950B9A13986C
S1131B6008950E94C7130E94CE100E94FF0F0E9486
S1131B703C140E940E050E94D10A78940895000036
S1131B8008951F920F920FB60F9211242F933F9333
S1131B904F935F936F937F938F939F93AF93BF9371
S1131BA0EF93FF93E091F101F091F201309709F086
S1131BB00995FF91EF91BF91AF919F918F917F9183
S1131BC06F915F914F913F912F910F900FBE0F90A6
S1131BD01F9018951F920F920FB60F9211242F93F6
S1131BE03F934F935F936F937F938F939F93AF93A1
S1131BF0BF93EF93FF93E091F301F091F4013097D9
S1131C0009F00995FF91EF91BF91AF919F918F9149
S1131C107F916F915F914F913F912F910F900FBEE4
S1131C200F901F9018951F920F920FB60F921124C8
S1131C302F933F934F935F936F937F938F939F93D0
S1131C40AF93BF93EF93FF93E091F501F091F60109
S1131C50309709F00995FF91EF91BF91AF919F9152
S1131C608F917F916F915F914F913F912F910F9041
S1131C700FBE0F901F9018951F920F920FB60F92E0
S1131C8011242F933F934F935F936F937F938F937D
S1131C909F93AF93BF93EF93FF93E091E301F09190
S1131CA0E401309709F00995FF91EF91BF91AF914D
S1131CB09F918F917F916F915F914F913F912F9160
S1131CC00F900FBE0F901F9018951F920F920FB692
S1131CD00F9211242F933F934F935F936F937F93AE
S1131CE08F939F93AF93BF93EF93FF93E091E5019D
S1131CF0F091E601309709F00995FF91EF91BF91BA
S1131D00AF919F918F917F916F915F914F913F918F
S1131D102F910F900FBE0F901F9018951F920F9246
S1131D200FB60F9211242F933F934F935F936F93AA
S1131D307F938F939F93AF93BF93EF93FF93E09120
S1131D40E701F091E801309709F00995FF91EF91CF
S1131D50BF91AF919F918F917F916F915F914F91BF
S1131D603F912F910F900FBE0F901F9018951F92C7
S1131D700F920FB60F9211242F933F934F935F93BB
S1131D806F937F938F939F93AF93BF93EF93FF933F
S1131D90E091EB01F091EC01309709F00995FF9186
S1131DA0EF91BF91AF919F918F917F916F915F91CF
S1131DB04F913F912F910F900FBE0F901F90189548
S1131DC01F920F920FB60F9211242F933F934F93AC
S1131DD05F936F937F938F939F93AF93BF93EF938F
S1131DE0FF93E091ED01F091EE01309709F0099530
S1131DF0FF91EF91BF91AF919F918F917F916F91DF
S1131E005F914F913F912F910F900FBE0F901F90B4
S1131E1018951F920F920FB60F9211242F933F9390
S1131E204F935F936F937F938F939F93AF93BF93DE
S1131E30EF93FF93E091E901F091EA01309709F003
S1131E400995FF91EF91BF91AF919F918F917F91F0
S1131E506F915F914F913F912F910F900FBE0F9013
S1131E601F9018951F920F920FB60F9211242F9363
S1131E703F934F935F936F937F938F939F93AF930E
S1131E80BF93EF93FF93E091EF01F091F00130974E
S1131E9009F00995FF91EF91BF91AF919F918F91B7
S1131EA07F916F915F914F913F912F910F900FBE52
S1131EB00F901F9018951F920F920FB60F92112436
S1131EC02F933F934F935F936F937F938F939F933E
S1131ED0AF93BF93EF93FF93E091D901F091DA01AF
S1131EE0309709F00995FF91EF91BF91AF919F91C0
S1131EF08F917F916F915F914F913F912F910F90AF
S1131F000FBE0F901F9018951F920F920FB60F924D
S1131F1011242F933F934F935F936F937F938F93EA
S1131F209F93AF93BF93EF93FF93E091DB01F09105
S1131F30DC01309709F00995FF91EF91BF91AF91C2
S1131F409F918F917F916F915F914F913F912F91CD
S1131F500F900FBE0F901F9018951F920F920FB6FF
S1131F600F9211242F933F934F935F936F937F931B
S1131F708F939F93AF93BF93EF93FF93E091DD0112
S1131F80F091DE01309709F00995FF91EF91BF912F
S1131F90AF919F918F917F916F915F914F913F91FD
S1131FA02F910F900FBE0F901F9018951F920F92B4
S1131FB00FB60F9211242F933F934F935F936F9318
S1131FC07F938F939F93AF93BF93EF93FF93E0918E
S1131FD0DF01F091E001309709F00995FF91EF914D
S1131FE0BF91AF919F918F917F916F915F914F912D
S1131FF03F912F910F900FBE0F901F90189580E185
S11320000E94520A882311F082E00895E1EDF1E084
S11320101192119282E0E131F807D1F781E008953D
S1132020FF920F931F93CF93DF93F82E8AE0F81655
S1132030B1F08F1548F0E8E0FE16B9F1EF1538F16C
S1132040F7E0FF1651F43BC08DE0F81659F0EBE1D0
S1132050FE1689F0FCE0FF1641F001E041C0109249
S11320607E0203C010927E023AC080917F028150AA
S113207080937F0234C00E94AF0314C080E061E00B
S11320800E94C30480917E028F5F80937E028091C0
S11320907E0287FFF3CF10927E0280917F028150EF
S11320A080937F0200E011E01CC080917E028823AF
S11320B0B1F080917E02865080937E0210C081E050
S11320C00E94261264EF71E080E090E04DE750E05A
S11320D024E630E00E94321281E00E948D1100E07B
S11320E010E080917F0260917E020E9457040023D9
S11320F051F185E0F89EC0011124EC01CF58DE4F68
S11321008C010A581E4FFE01849161E00E94C304B1
S11321102196C017D107B9F780E061E00E94C3049B
S113212080917E028A5F80937E0280917E0290E09D
S11321308C3791053CF010927E0280917F02815091
S113214080937F0211E080917F02837080937F02ED
S1132150113059F480918002813039F4E091810288
S1132160F0918202309709F0099580E090E0DF91C8
S1132170CF911F910F91FF9008951F93182F86E020
S11321800E945F0A882319F0812F0E94C9101F91B1
S1132190089585FD5D9886FD5E980895F8940E94E3
S11321A0291181E00E94D61081E00895813049F020
S11321B0F894813020F18230B1F0833009F045C0C9
S11321C017C02C9A80E8809361001092610080E02F
S11321D090E00000019688329105D9F710926800CA
S11321E010926B00089580E88093610083E004C03E
S11321F080E88093610088E08093610028C080E0DB
S113220090E0000001962DE680369207D1F72C98D5
S113221080E090E0000001962DE680369207D1F729
S113222010927A008FEF809364008091680081603F
S11322308093680080916B00846080936B00789435
S113224083B7816083BF88950895823008F07894BD
S11322500895249A2C9A089583E58CBD81E08DBD60
S11322608DE08A95F1F7089583E58CBD1DBC84EF5C
S113227091E00197F1F708958FE78CBD1DBC84EFC1
S113228091E00197F1F7089583E58CBD81E08DBD60
S11322908DE08A95F1F7089583E58CBD81E08DBDCD
S11322A084EF91E00197F1F708951F93162F0E9490
S11322B0500582E00E945F0A882329F01EBD0DB4F8
S11322C007FEFDCF8EB51F9108958AE00E94420A51
S11322D0882329F481E00E94881210922202089532
S11322E089E00E94420A8823B9F48091210288235C
S11322F011F00E94CE1282E00E94881280912F0277
S113230090913002009731F00E94682410923002BC
S113231010922F02109221020895813029F0823008
S113232029F40E94701108950E94651108950F9375
S11323301F93CF93DF9380E291E00E94D0239C010E
S11323409093300280932F02892B11F480E039C0DE
S11323508901C0E0D0E0BE0180E090E00E948A20C4
S113236020E030E040EA51E40E94E21F27EF35E725
S113237040E05FE30E9455219B01AC0160E070E006
S113238080E291E40E94C2219B01AC01CA01B9011F
S11323902DEC3CEC42E851E40E9455210E941821A6
S11323A02AE030E040E050E00E944723F8016193C6
S11323B07193819391938F012196C834D10559F675
S11323C081E0DF91CF911F910F9108958AE00E94DF
S11323D0520A882311F082E0089510922C02109280
S11323E02B0281E00E94A41281E0809322020895CE
S11323F01F9389E00E94520A882311F082E024C0CE
S11324008BE00E945F0A8823D9F40E949711182F49
S1132410813011F086E018C0109223021092240239
S113242010922502109226028DE060E974E10E9468
S11324306B1482E00E94A4121093210281E004C074
S113244089E00E94420A87E01F910895813021F0BB
S1132450823029F084E008950E94E61108950E94D4
S1132460F81108956F927F928F929F92AF92BF92CC
S1132470CF92DF92EF92FF920F931F93CF93DF934C
S11324803B014C015A01E9018AE00E945F0A88235A
S113249081F1209741F19501442737FD4095542F50
S11324A0BE01C536D10510F064E670E080E090E02E
S11324B00E94472324E630E040E050E00E94572386
S11324C079018A01C401B3010E949314C7010E94D7
S11324D0510C60E070E080E090E00E949314C5012C
S11324E08E199F0904C0A114B10419F0C5010E94FA
S11324F0510CDF91CF911F910F91FF90EF90DF90DE
S1132500CF90BF90AF909F908F907F906F900895E1
S1132510823029F4809181008E7F809381008091A4
S11325202102813031F480912202813011F40000C3
S1132530089580912102813021F08091220281301E
S113254011F45F9857980895982F80912102882359
S113255031F480912202882311F4579A5F98809174
S113256021028823D1F49230C1F410928000109299
S11325708100809181008860809381008091810036
S1132580816080938100109285001092840081E024
S11325908093890080E9809388000895EFE6F0E055
S11325A080818D7F80830895982F81E08093BA0283
S11325B0913051F0913018F0923041F403C01092F0
S11325C0A20204C01092A2021092A3021092BA02B4
S11325D00895982F81E08093BA02913071F0913080
S11325E018F0923071F405C07093970260939602CC
S11325F008C0709397026093960270939902609357
S113260098021092BA02089521E02093BA02E6E9F2
S1132610F2E0918380833296718360831092BA02D0
S11326200895982F81E08093BA02913051F091304F
S113263018F0923041F403C06093A40204C0609384
S1132640A4026093A5021092BA0208950F931F93F7
S1132650CF93DF93EB018A01813001F1813018F0CF
S1132660823061F50DC080918E0290918F02892B8A
S113267011F080E01AC010929B0210929A021EC0C0
S113268080918E0290918F02892B21F080E00E942C
S1132690F81404C010929B0210929A028091900246
S11326A090919102892B31F081E0BE01A8010E9432
S11326B0F81404C010929D0210929C02DF91CF91F5
S11326C01F910F9108952091BD023091BE02C9015E
S11326D008958BE00E94520A882311F082E0089545
S11326E089E00E945F0A882369F41092BE02109266
S11326F0BD028DE065E675E10E946B140E94A6138D
S113270081E008958BE00E94420A82E008952091BE
S1132710BD023091BE021092BE021092BD02C901E8
S113272008958BE00E945F0A882311F00E94BB1376
S113273008958BE00E945F0A882311F00E94C11360
S11327402091BD023091BE02C9010895109280000B
S1132750E1E8F0E01082808188608083808181607C
S1132760808310928500109284001092890088EC76
S1132770809388000895EFE6F0E080818260808392
S11327800895EFE6F0E080818D7F80830895CF93F4
S1132790DF93C0E0D0E08C2F60E00E94D613219636
S11327A0C531D105C1F7DF91CF910895853128F462
S11327B0E82FF0E0E759FD4F608308951F93CF930E
S11327C0DF93EC01009799F181E00E945F0A88236E
S11327D051F187E00E94500518EC812F8A95F1F79A
S11327E082E06AE00E94A10582E064EB0E94A105F8
S11327F0812F8A95F1F782E060E00E945511888369
S1132800812F8A95F1F782E060E00E945511898357
S11328101A95F1F782E060E00E9455118A8387E0FF
S11328200E94500504C0188219828DE28A83DF91C8
S1132830CF911F9108951F93182F81E00E945F0A82
S11328408823C1F087E00E94500588EC8A95F1F74F
S113285082E06AE00E94A10582E065EB0E94A10586
S113286082E0612F0E94A10589EE8A95F1F787E045
S11328700E9450051F91089588E00E94520A8823FF
S113288011F082E008951092DD021092DF0210929E
S1132890DE02109231021092320280E168E675E1A4
S11328A00E947F140E945C140E94651481E00895C4
S11328B081E080933202089584B5826084BD85B539
S11328C0846085BD8EE487BD0895EEE6F0E08081E6
S11328D0826080830895E82F803268F480518330C9
S11328E050F0F0E0EE0FFF1FEF52FE4F20813181D8
S11328F07183608302C020E030E0C9010895803212
S113290018F020E030E00AC0E82FF0E0EE0FFF1FDF
S1132910EF52FE4F2081318171836083C901089594
S11329200E94B7140895EF92FF920F931F937B01B7
S11329308C018AE00E945F0A8823A1F08091220220
S1132940882381F0D801C701880F991FAA1FBB1FD4
S113295090932E0280932D02E114F10401051105D8
S113296009F45F981F910F91FF90EF900895809163
S1132970230290912402A0912502B0912602209175
S11329802702309128024091290250912A02280FEF
S1132990391F4A1F5B1F2093230230932402409364
S11329A02502509326028091230290912402A09143
S11329B02502B09126028851964FA040B040BCF049
S11329C08BB180588BB98091230290912402A091FD
S11329D02502B09126028851964FA040B0408093C2
S11329E0230290932402A0932502B0932602089513
S11329F0EF92FF920F931F93CF93DF93EB01882302
S1132A0021F0813009F05AC02DC09A0140E050E015
S1132A10CA01B9010E94472320918E0230918F028E
S1132A20220F331F40E050E00E94572379018A01AE
S1132A30A8019701220F331F441F551FCE01A0E0A8
S1132A40B0E082179307A407B50728F0F0929B0221
S1132A50E0929A0233C0D695C795D0939B02C09357
S1132A609A022CC09A0140E050E0CA01B9010E94C8
S1132A7047232091900230919102220F331F40E0AE
S1132A8050E00E94572379018A01A8019701220F7F
S1132A90331F441F551FCE01A0E0B0E082179307F7
S1132AA0A407B50728F0F0929D02E0929C0206C0AC
S1132AB0D695C795D0939D02C0939C02DF91CF9188
S1132AC01F910F91FF90EF9008950E94881508952B
S1132AD00E946F150E94BB150E949415089588E00A
S1132AE00E945F0A882311F484E0089580913202E1
S1132AF0882311F483E0089580913102882311F032
S1132B0082E008950E9408188130E1F380E008957E
S1132B10CF93DF93CDEBD2E08881998101968883AE
S1132B209983DF91CF91089580912202813011F52C
S1132B3080912B0290912C0220912D0230912E0233
S1132B40280F391F30932C0220932B0280912B02E3
S1132B5090912C02885E93406CF08BB180588BB9B5
S1132B6080912B0290912C02885E934090932C02CA
S1132B7080932B02089587E00E945F0A882309F45A
S1132B80AAC080918E0290918F02892B09F18091C5
S1132B90B2029091B30220918E0230918F02820F83
S1132BA0931F9093B3028093B2028091B2029091EA
S1132BB0B302885E9340A4F08091B2029091B30274
S1132BC0885E93409093B3028093B20241E009C0BF
S1132BD0809186029091870290938B0280938A025F
S1132BE040E08091900290919102892B09F18091AB
S1132BF0B4029091B5022091900230919102820F1B
S1132C00931F9093B5028093B4028091B402909183
S1132C10B502885E9340A4F08091B4029091B5020D
S1132C20885E93409093B5028093B40261E009C03A
S1132C30809188029091890290938D0280938C02F6
S1132C4060E0842F0E946C168091AE029091AF02D6
S1132C5020918A0230918B02280F391F3093AF02E2
S1132C602093AE028091AE029091AF02885E9340B1
S1132C7014F440E00BC08091AE029091AF02885EE4
S1132C8093409093AF028093AE0241E08091B002F2
S1132C909091B10220918C0230918D02280F391F3E
S1132CA03093B1022093B0028091B0029091B102AE
S1132CB0885E934014F460E00BC08091B002909160
S1132CC0B102885E93409093B1028093B00261E0B8
S1132CD0842F0E94B11608958823F1F02091860272
S1132CE03091870280918A0290918B02281B390BC4
S1132CF01216130634F480918A0290918B02019685
S1132D0007C0232B49F080918A0290918B0201978E
S1132D1090938B0280938A02662311F1209188029A
S1132D203091890280918C0290918D02281B390B7D
S1132D301216130654F480918C0290918D02019620
S1132D4090938D0280938C020895232B49F08091F7
S1132D508C0290918D02019790938D0280938C0246
S1132D6008950F931F93182F062F8091BA0288237A
S1132D7009F0E7C08091A202882309F05AC080912B
S1132D808A0290918B02892BE9F480913302837E2D
S1132D90809333021092AB028091B602882309F427
S1132DA05DC06091A40280E00E94C009E091B80275
S1132DB0F091B902309709F451C081E080831092F8
S1132DC0B6024CC080918402813041F48091960215
S1132DD090919702019711F411E002C01123F1F1CF
S1132DE0E091A902F0E0ED5EFE4F90913302937EF4
S1132DF08081892B809333028091A702882321F458
S1132E008091A9028F5F03C08091A90281508093B1
S1132E10A9028091A90283708093A90281E0809322
S1132E20AB02809184028130C9F480E00E94B4171F
S1132E3015C090913302937E90933302E091A902DE
S1132E40F0E0ED5EFE4F8081892B8093330282E0B7
S1132E508093AB0210928B0210928A028091A3029B
S1132E60882309F059C080918C0290918D02892B9E
S1132E70E9F4809133028F71809333021092AC0293
S1132E808091B702882309F45CC06091A50281E0B7
S1132E900E94C009E091B802F091B902309709F498
S1132EA050C081E081831092B7024BC080918502AB
S1132EB0813041F48091980290919902019711F424
S1132EC001E002C00023E9F1E091AA02F0E0E95E2A
S1132ED0FE4F909133029F718081892B809333023E
S1132EE08091A802882321F48091AA028F5F03C0F5
S1132EF08091AA0281508093AA028091AA028370D1
S1132F008093AA0281E08093AC0280918502813093
S1132F10C1F40E94B41715C0909133029F7190932D
S1132F203302E091AA02F0E0E95EFE4F8081892B32
S1132F308093330282E08093AC0210928D0210924F
S1132F408C028091AD02882331F483E392E0612FF7
S1132F50402F0E94761888B1837090913302892B98
S1132F6088B91F910F910895882321F0813009F0C9
S1132F704EC027C08091960290919702892B49F008
S1132F808091960290919702019790939702809373
S1132F9096028091B6028823D1F520919602309151
S1132FA0970280919A0290919B022817390779F52C
S1132FB080E060E070E00E945C0881E08093B602EB
S1132FC008958091980290919902892B49F08091FB
S1132FD09802909199020197909399028093980294
S1132FE08091B702882399F4209198023091990234
S1132FF080919C0290919D022817390741F481E049
S113300060E070E00E945C0881E08093B70208955C
S1133010FF920F931F93CF93DF938091DD02882358
S113302009F459C00091DE021091DF02F801C08159
S1133030D1818C819D8101979D838C8318161906FB
S11330400CF449C0898180FF05C08E81882311F466
S113305081E08E83898181FF03C0EF81F885099522
S11330608091DD028230A8F0F801828193819093EF
S1133070DF028093DE0213821282E0910000F0915D
S1133080010084819581181619063CF0FF24F394FD
S113309005C01092DF021092DE02FF248091DD024F
S11330A081508093DD028091DD02882311F40E9417
S11330B07318898182FF08C08A819B819D838C83D8
S11330C0C8010E94BC0C08C0C8010E946824898100
S11330D08F7E898301C0FF248F2DDF91CF911F91B3
S11330E00F91FF900895109232020895FC0180918F
S11330F0AB02823069F48091370291E08927809392
S11331003702882309F03EC08081837E80833AC0E1
S113311080918A0290918B02C397A4F56623D1F023
S113312020918A0230918B0280E690E0BC01269FB8
S1133130C001279F900D369F900D1124880F892F71
S1133140881F990B90939F0280939E0281E0809345
S1133150350218C0809135028823A1F080919E0227
S113316090919F02019790939F0280939E02809179
S11331709E0290919F02892B29F48081837E808313
S1133180109235028091AC02823069F4809136024B
S113319091E0892780933602882309F03EC080811C
S11331A08F718083089580918C0290918D02C397D2
S11331B0A4F54423D1F020918C0230918D0280E655
S11331C090E0AC01249FC001259F900D349F900D89
S11331D01124880F892F881F990B9093A102809343
S11331E0A00281E080933402089580913402882300
S11331F0A1F08091A0029091A10201979093A10265
S11332008093A0028091A0029091A102892B29F4BD
S113321080818F718083109234020895CF93DF935D
S1133220FC01308120915F02321303C020812111FF
S113323030C0EC010E94AF03E8814E2F50E04730CC
S1133240510500F5FA01E25CFF4F0C94792360E02C
S113325083E00E94790481E291E016C08EE291E05D
S113326013C08BE391E010C08BE491E00DC08BE5BB
S113327091E00AC086E691E09F938F930E941B26FB
S11332800F900F9083E791E00E943126888180930C
S11332905F02DF91CF910895DC01FB019C91808155
S11332A0981325C011962D913C911297818192819A
S11332B028173907E1F413962D913C9114978381D3
S11332C094812817390799F415962D913C911697F6
S11332D0858196812817390751F417964D915C9191
S11332E018972781308581E04217530709F080E061
S11332F00895CF93DF93EC019B0180915E028111CD
S11333000AC041E061E085E592E00E947E0C81E024
S113331080935E0211C080915B02882369F080E48F
S11333200E94EB0480E00E946B0A888381E00E9483
S11333306B0A898310925B02DF91CF910895CF933A
S1133340DF93EC019B018091540281110AC041E09A
S113335061E08BE492E00E947E0C81E08093540251
S113336041C0809151028823E9F180E40E94EB047A
S113337084E00E9464030E943C03BC0180E090E06E
S11333800E948A2020E030E040EA50E40E94552167
S113339020E030E040E85AE30E9455216F837887AB
S11333A089879A8782E390E00E94510C85E00E940D
S11333B064030E943C03BC0180E090E00E948A20E8
S11333C020E030E040EA50E40E94552120E030E063
S11333D040E85AE30E9455216B837C838D839E834E
S11333E010925102DF91CF910895CF93DF93EC01B6
S11333F09B0180914A0281110AC041E061E081E4AD
S113340092E00E947E0C81E080934A023FC080914A
S113341047028823D9F180E40E94EB040E944A0DFC
S1133420988B8F872F853889AAE0B0E00E947F238C
S11334306B877C878D879E876B857C858D859E8534
S11334400E948A2027EE3AE34DE85CE30E9455216E
S1133450698B7A8B8B8B9C8B60E080E00E94790473
S113346089899A89AB89BC89BF93AF939F938F93C2
S11334708DE991E09F938F930E941B26109247023F
S11334800F900F900F900F900F900F90DF91CF91AE
S113349008958F929F92AF92BF92CF92DF92EF9254
S11334A0FF920F931F93CF93DF938C01EB016989F4
S11334B07A898B899C8920E030E04EED51E40E94AA
S11334C0751F0E9454206D8B7E8B8F8B988F8D89F6
S11334D09E89AF89B88D498D5A8D6B8D7C8D841BE7
S11334E0950BA60BB70B8D8F9E8FAF8FB8A36D89ED
S11334F07E898F89988D8D8C9E8CAF8CB8A00E940C
S11335008C202DEC3CEC4CEA50E40E9455216B01DC
S11335107C01ACEBB2E0A50194010E948E230E94D1
S11335208C209B01AC01C701B6010E94761F20E0EC
S113353030E046E153E40E94761F0E945420F801D3
S1133540728361836D897E898F89988D8D8C9E8C21
S1133550AF8CB8A00E948C202DEC3CEC4CEA50E4DB
S11335600E9455216B017C01ACEBB2E0A5019401F2
S11335700E948E230E948C209B01AC01C701B601DE
S11335800E94761F9B01AC0160E070E086E193E449
S11335900E94751F0E945420F8017483638360E0C5
S11335A081E00E9479048D899E89AF89B88DBF938B
S11335B0AF939F938F938AEA91E09F938F930E9496
S11335C01B268D899E89AF89B88D898F9A8FAB8F81
S11335D0BC8F0F900F900F900F900F900F90DF9172
S11335E0CF911F910F91FF90EF90DF90CF90BF90FC
S11335F0AF909F908F9008956F927F928F929F9239
S1133600AF92BF92CF92DF92EF92FF920F931F93EC
S1133610CF93DF93FB012181213021F020812130E0
S113362009F051C0FB01EC0186E08883DD24D394CA
S1133630D28260E082E00E94C0091F921F921F9212
S1133640DF9280E9682E6F921F9298EC792E7F9218
S11336501F9226E9922E9F9288248394A12CB12C48
S1133660C12C30E9E32EFF24F39408EC10E026E9A2
S113367030E041E062E080E00E9465061F921F9204
S11336801F92DF926F921F927F921F929F92812CC2
S113369026E930E041E062E080E00E94650688ECC3
S11336A090E09A8389839C838B8380E991E09E8355
S11336B08D8398878F838DB79EB742960FB6F89403
S11336C09EBF0FBE8DBFDF91CF911F910F91FF90D1
S11336D0EF90DF90CF90BF90AF909F908F907F90AE
S11336E06F900895CF93DF93EC0168E372E00E943A
S11336F04C19811114C06F8178858D819E810E943F
S11337000A086B817C8189819A810E94A70789E0DC
S1133710FE01A8E3B2E001900D928A95E1F7DF91F2
S1133720CF910895CF93DF93CDB7DEB7A1970FB6AE
S1133730F894DEBF0FBECDBF0E94310381E00E942A
S113374059030E94E0040E94D1030E94D10A0E94FE
S1133750250D0E94FE066EEF71E080E00E94F50ADE
S1133760109262021092610210926402109263023B
S1133770109266021092650210926802109267021B
S11337801092600285EB91E00E94312688EB9BE069
S11337900E94510C0E94AF036DE770E0CE010196C8
S11337A00E94791962E370E0CE0101960E94F51936
S11337B06BE470E0CE0101960E949F19BE016F5F19
S11337C07F4F80E692E00E94491ABE016F5F7F4FEF
S11337D080E692E00E94FC1A80E692E00E94721B4E
S11337E0BE016F5F7F4F80E692E00E940E19D4CF36
S11337F0A0E1B0E0EEEFFBE10C9499237C011B0106
S11338006A01FC0117821682838181FF44C39E01F1
S11338102F5F3F4F3901F7019381F10193FD8591AA
S113382093FF81911F01882309F431C3853239F450
S113383093FD859193FF81911F01853239F4B7017E
S113384090E00E94DF2556016501E5CF10E0512C80
S1133850912CFFE1F915D8F08B3279F038F48032ED
S113386079F08332A1F4F92DF0612EC08D3261F02C
S1133870803369F4292D21602DC0392D3260932EB7
S1133880892D8460982E2AC0E92DE86015C097FC24
S11338902DC020ED280F2A3088F496FE06C03AE0A9
S11338A0139F200D1124122F19C08AE0589E200D59
S11338B01124522EE92DE0629E2E10C08E3231F476
S11338C096FCE5C2F92DF0649F2E08C08C3621F4D5
S11338D0292D2068922E02C0883641F4F10193FD0F
S11338E0859193FF81911F018111B3CF9BEB980FB9
S11338F0933020F4992D9061805E07C09BE9980F66
S1133900933008F066C1992D9F7E96FF16E09F7351
S1133910992E853619F49064992E08C0863621F4C0
S1133920392F3068932E02C01111115097FE07C031
S11339301C3350F444244394410E27E00BC0183048
S113394038F027E017E005C027E09CE3492E02C0C9
S1133950212F412C560184E0A80EB11CF601608190
S1133960718182819381042DA3010E94F1246C0151
S1133970F981FC87F0FF02C0F3FF06C091FC06C08A
S113398092FE06C000E205C00DE203C00BE201C0D6
S113399000E08C858C7019F001115AC29BC297FE0D
S11339A010C04C0CFC85F4FF04C08A81813309F4F7
S11339B04A94141474F528E0241578F588E0482E08
S11339C02CC096FC2AC0812F90E08C159D059CF09C
S11339D03CEFC3163FEFD30674F0892D8068982E10
S11339E00AC0E2E0F0E0EC0FFD1FE10FF11D808161
S11339F0803319F411501111F4CF97FE0EC04424F2
S1133A004394410E812F90E0C816D9062CF41C195A
S1133A1004C04424439401C010E097FE06C01C1463
S1133A201D0434F4C601019605C085E090E002C08F
S1133A3081E090E001110196112331F0212F30E053
S1133A402F5F3F4F820F931F252D30E0821793077E
S1133A5014F4581A01C0512C892D897049F4552049
S1133A6039F0B70180E290E00E94DF255A94F7CF45
S1133A70002329F0B701802F90E00E94DF2593FCFA
S1133A8009C0552039F0B70180E390E00E94DF259A
S1133A905A94F7CF97FE4CC04601D7FE02C0812C42
S1133AA0912CC60188199909F301E80FF91FFE87C3
S1133AB0ED87960124193109388B2F87012F10E0E7
S1133AC01195019511093FEF8316930629F4B70167
S1133AD08EE290E00E94DF25C814D9044CF08F8553
S1133AE098898815990524F4ED85FE85818101C0A6
S1133AF080E3F1E08F1A91082D853E852F5F3F4FBB
S1133B003E872D87801691062CF0B70190E00E9425
S1133B10DF25D9CFC814D90441F49A81963320F40F
S1133B20953319F43C8534FF81E3B70190E04EC02E
S1133B308A81813319F09C859F7E9C87B70190E030
S1133B400E94DF25111105C094FC18C085E690E0A1
S1133B5017C0B7018EE290E00E94DF251E5F82E06D
S1133B6001E0080FF301E80FF11D8081B70190E037
S1133B700E94DF25802F0113F3CFE6CF85E490E088
S1133B80B7010E94DF25D7FC06C0C114D10441F45B
S1133B90EC85E4FF05C0D194C194D1088DE201C045
S1133BA08BE2B70190E00E94DF2580E32AE0C21691
S1133BB0D1042CF08F5FFAE0CF1AD108F7CFB70108
S1133BC090E00E94DF25B701C601C0960E94DF2560
S1133BD054C1833631F0833779F0833509F056C008
S1133BE020C0560132E0A30EB11CF6018081898306
S1133BF001E010E0630112C05601F2E0AF0EB11C07
S1133C00F601C080D18096FE03C0612F70E002C02F
S1133C106FEF7FEFC6010E94D4258C01F92DFF7749
S1133C2014C0560122E0A20EB11CF601C080D1805E
S1133C3096FE03C0612F70E002C06FEF7FEFC601F4
S1133C400E94C9258C01F92DF0689F2EF3FD1AC03E
S1133C50852D90E008171907A8F4B70180E290E0D9
S1133C600E94DF255A94F4CFF60197FC859197FEC4
S1133C7081916F01B70190E00E94DF2551105A94A1
S1133C80015011090115110579F7F7C0843611F0B7
S1133C90893661F5560197FE09C024E0A20EB11CD5
S1133CA0F60160817181828193810AC0F2E0AF0ED6
S1133CB0B11CF60160817181072E000C880B990BF1
S1133CC0F92DFF769F2E97FF09C0909580957095EA
S1133CD061957F4F8F4F9F4FF0689F2E2AE030E011
S1133CE0A3010E946126C82EC6183FC0092D85373E
S1133CF021F40F7E2AE030E01DC0097F8F3691F059
S1133D0018F4883559F0C3C0803719F0883711F09A
S1133D10BEC0006104FF09C0046007C094FE08C06F
S1133D20066006C028E030E005C020E130E002C0B3
S1133D3020E132E0560107FF09C084E0A80EB11C5F
S1133D40F601608171818281938108C0F2E0AF0E37
S1133D50B11CF6016081718180E090E0A3010E94B2
S1133D606126C82EC6180F77902E96FE0BC0092D1B
S1133D700E7FC11650F494FE0AC092FC08C0092DAF
S1133D800E7E05C0DC2C092D03C0DC2C01C0D12E15
S1133D9004FF0DC0FE01EC0DF11D8081803311F490
S1133DA0097E09C002FF06C0D394D39404C0802FB7
S1133DB0867809F0D39403FD11C000FF06C01C2DC2
S1133DC0D51480F4150D1D190DC0D51458F4B70180
S1133DD080E290E00E94DF25D394F7CFD51410F44D
S1133DE05D1801C0512C04FF10C0B70180E390E0BE
S1133DF00E94DF2502FF17C001FD03C088E790E0A1
S1133E0002C088E590E0B7010CC0802F867859F095
S1133E1001FF02C08BE201C080E207FD8DE2B70121
S1133E2090E00E94DF25C11638F4B70180E390E0EA
S1133E300E94DF251150F7CFCA94F301EC0DF11D58
S1133E408081B70190E00E94DF25C110F5CF15C035
S1133E50F4E0F51560F584E0581A93FE1FC00111D3
S1133E6027C02C8523FF2AC00CE011E0392D3071C6
S1133E70932EF8018491811124C0552009F4E4CCD7
S1133E80B70180E290E00E94DF255A94F6CFF70153
S1133E908681978126C08FEF9FEF23C0B70180E210
S1133EA090E00E94DF255A945110F8CFD8CF512CBE
S1133EB0B701802F90E00E94DF25D3CF00E111E00D
S1133EC0D5CF91108052B70190E00E94DF250F5F9B
S1133ED01F4FCFCF23E0251510F483E0BDCF512C25
S1133EE0C0CF6096E2E10C94B5235058BB27AA27B3
S1133EF00E948D1F0C94DE200E94D02038F00E9476
S1133F00D72020F039F49F3F19F426F40C94CD20E7
S1133F100EF4E095E7FB0C94C720E92F0E94EF20F4
S1133F2058F3BA17620773078407950720F079F4EA
S1133F30A6F50C9411210EF4E0950B2EBA2FA02DAA
S1133F400B01B90190010C01CA01A0011124FF2742
S1133F50591B99F0593F50F4503E68F11A16F0403D
S1133F60A22F232F342F4427585FF3CF469537953C
S1133F702795A795F0405395C9F77EF41F16BA0B01
S1133F80620B730B840BBAF09150A1F0FF0FBB1FAF
S1133F90661F771F881FC2F70EC0BA0F621F731FF8
S1133FA0841F48F4879577956795B795F7959E3F55
S1133FB008F0B0CF9395880F08F09927EE0F9795E6
S1133FC0879508950E94F61F0C94DE200E94D72046
S1133FD058F00E94D02040F029F45F3F29F00C945F
S1133FE0C72051110C9412210C94CD200E94EF2073
S1133FF068F39923B1F3552391F3951B550BBB2714
S1134000AA2762177307840738F09F5F5F4F220F58
S1134010331F441FAA1FA9F335D00E2E3AF0E0E84F
S113402032D091505040E695001CCAF72BD0FE2F99
S113403029D0660F771F881FBB1F2617370748072D
S1134040AB07B0E809F0BB0B802DBF01FF279358E5
S11340505F4F3AF09E3F510578F00C94C7200C94C2
S113406012215F3FE4F3983ED4F3869577956795E4
S1134070B795F7959F5FC9F7880F911D969587951A
S113408097F90895E1E0660F771F881FBB1F621739
S113409073078407BA0720F0621B730B840BBA0BF7
S11340A0EE1F88F7E09508950E945B206894B11193
S11340B00C94122108950E94F72088F09F5798F0DD
S11340C0B92F9927B751B0F0E1F0660F771F881F19
S11340D0991F1AF0BA95C9F714C0B13091F00E9433
S11340E01121B1E008950C941121672F782F8827AE
S11340F0B85F39F0B93FCCF3869577956795B3955A
S1134100D9F73EF490958095709561957F4F8F4FC8
S11341109F4F0895E89409C097FB3EF490958095CD
S1134120709561957F4F8F4F9F4F9923A9F0F92F79
S113413096E9BB279395F695879577956795B795F7
S1134140F111F8CFFAF4BB0F11F460FF1BC06F5FDD
S11341507F4F8F4F9F4F16C0882311F096E911C0EF
S1134160772321F09EE8872F762F05C0662371F010
S113417096E8862F70E060E02AF09A95660F771F24
S1134180881FDAF7880F9695879597F9089597F918
S11341909F6780E870E060E008959FEF80EC0895E9
S11341A000240A9416161706180609060895002412
S11341B00A9412161306140605060895092E03948C
S11341C0000C11F4882352F0BB0F40F4BF2B11F400
S11341D060FF04C06F5F7F4F8F4F9F4F089557FD5F
S11341E09058440F551F59F05F3F71F04795880F61
S11341F097FB991F61F09F3F79F0879508951216F8
S113420013061406551FF2CF4695F1DF08C01616A3
S113421017061806991FF1CF869571056105089454
S11342200895E894BB2766277727CB0197F908956B
S11342300E94F720A8F19E57B0F1985160F039F12F
S1134240983070F5092E9927660F771F881F991FDC
S11342500A94D1F71CC0BB27993F4CF4B111B1E0CB
S1134260B62B672F782F8827985FB1F708C08695FB
S113427077956795B79508F4B1609395C1F7BB0F2F
S113428030F411F460FF03C06F5F7F4F8F4F3EF433
S113429090958095709561957F4F8F4F9F4F0895AE
S11342A068940C9412210C9411210E9468210C949E
S11342B0DE200E94D02038F00E94D72020F09523E1
S11342C011F00C94C7200C94CD2011240C941221CD
S11342D00E94EF2070F3959FC1F3950F50E0551F96
S11342E0629FF001729FBB27F00DB11D639FAA2747
S11342F0F00DB11DAA1F649F6627B00DA11D661F96
S1134300829F2227B00DA11D621F739FB00DA11DB6
S1134310621F839FA00D611D221F749F3327A00D70
S1134320611D231F849F600D211D822F762F6A2F0C
S113433011249F5750409AF0F1F088234AF0EE0F71
S1134340FF1FBB1F661F771F881F91505040A9F79E
S11343509E3F510580F00C94C7200C9412215F3FBE
S1134360E4F3983ED4F3869577956795B795F795DA
S1134370E7959F5FC1F7FE2B880F911D9695879552
S113438097F90895FA01EE0FFF1F309621053105C4
S1134390A1F16115710561F48038BFE39B0749F110
S11343A068949038810561F08038BFEF9B0741F035
S11343B099234AF5FF3FE1053105210519F1E894F8
S11343C00894E795D901AA2329F4AB2FBE2FF85FEF
S11343D0D0F310C0FF5F70F4A695E0F7F73950F002
S11343E019F0FF3A38F49F779F930DD00F9007FC94
S11343F09058089546F00C94CD2060E070E080E879
S11344009FE308954FE79F775F934F933F932F93D5
S11344100E94BD222F913F914F915F910E9455219F
S11344200C941A2229F416F00C94C7200C94112130
S11344300C94CD200E94F720A8F39638A0F707F833
S11344400F92E8942BE33AEA48EB5FE70E946B2172
S11344500F920F920F924DB75EB70F920E940523F1
S1134460EAE8F0E00E944C224F915F91EF91FF91B6
S1134470E595EE1FFF1F49F0FE57E0684427EE0F55
S1134480441FFA95E1F74195550B0E947F220F9046
S113449007FE0C9473220895DF93CF931F930F9319
S11344A0FF92EF92DF927B018C01689406C0DA2EB2
S11344B0EF010E946821FE01E894A59125913591B0
S11344C045915591A6F3EF010E948D1FFE019701BE
S11344D0A801DA9469F7DF90EF90FF900F911F9194
S11344E0CF91DF9108959B01AC0160E070E080E81A
S11344F09FE30C94E21F0C94C7200C9439230E9470
S1134500F720D8F39923C9F3940F511DA3F39150C5
S1134510504094F059F0882332F0660F771F881FBB
S113452091505040C1F79E3F51052CF7880F911DC3
S11345309695879597F908955F3FACF0983E9CF067
S1134540BB27869577956795B79508F4B1609395E1
S1134550C1F7BB0F58F711F460FFE8CF6F5F7F4FCF
S11345608F4F9F4FE3CF0C94122116F00C943923F4
S11345700C94CD2068940C94C7200E94F720A8F3D3
S11345809923C1F3AEF3DF93CF931F930F93FF925D
S1134590C92FDD2788232AF02197660F771F881FEC
S11345A0DAF720E030E040E85FEB9FE3883920F061
S11345B0803E38F021968F770E94761FE2EBF0E080
S11345C004C00E94761FEFEDF0E00E944C228B01A4
S11345D0BE01EC01FB2E6F5771097595771F880B8F
S11345E0990B0E948C2028E132E741E35FE30E94AB
S11345F06821AF2D9801AE01FF900F911F91CF91CB
S1134600DF910E948D1F0C94DE20FA01DC01AA0FB9
S1134610BB1F9B01AC01BF5728F422273327442733
S1134620507820C0B75190F4AB2F002446953795AD
S11346302795011CA395D2F3002071F0220F331F9C
S1134640441FB395DAF30ED00C94751F61307105D5
S1134650A0E88A07B94630F49B01AC0166277727A6
S113466088279078309621F02083318342835383C6
S113467008959F3F31F0915020F487957795679581
S1134680B795880F911D9695879597F90895DB0145
S11346908F939F930E948E23BF91AF91A29F800D11
S11346A0911DA39F900DB29F900D11240895A1E236
S11346B01A2EAA1BBB1BFD010DC0AA1FBB1FEE1F98
S11346C0FF1FA217B307E407F50720F0A21BB30BE3
S11346D0E40BF50B661F771F881F991F1A9469F75F
S11346E060957095809590959B01AC01BD01CF01BB
S11346F00895EE0FFF1F0590F491E02D0994A29FF9
S1134700B001B39FC001A39F700D811D1124911DA1
S1134710B29F700D811D1124911D08950E947F2365
S1134720A59F900DB49F900DA49F800D911D112401
S113473008952F923F924F925F926F927F928F9241
S11347409F92AF92BF92CF92DF92EF92FF920F931C
S11347501F93CF93DF93CDB7DEB7CA1BDB0B0FB626
S1134760F894DEBF0FBECDBF09942A8839884888E3
S11347705F846E847D848C849B84AA84B984C88479
S1134780DF80EE80FD800C811B81AA81B981CE0F70
S1134790D11D0FB6F894DEBF0FBECDBFED01089555
S11347A00F931F93CF93DF938230910510F482E02F
S11347B090E0E091E202F091E30220E030E0A0E03A
S11347C0B0E0309719F1408151810281138148177B
S11347D05907C8F08417950769F4109731F01296B9
S11347E00C93129713961C9327C00093E202109324
S11347F0E30222C02115310519F04217530718F4BA
S11348009A01BD01EF01DF01F801DBCF211531056C
S1134810F9F0281B390B2430310580F48A819B81FF
S11348206115710521F0FB019383828304C0909389
S1134830E3028093E202FE01329644C0FE01E20FDD
S1134840F31F8193919322503109398328833AC00D
S11348502091E0023091E102232B41F420911D01CB
S113486030911E013093E1022093E00220911B015C
S113487030911C012115310541F42DB73EB740910B
S11348801F0150912001241B350BE091E002F091AF
S1134890E102E217F307A0F42E1B3F0B2817390798
S11348A078F0AC014E5F5F4F2417350748F04E0F88
S11348B05F1F5093E1024093E0028193919302C001
S11348C0E0E0F0E0CF01DF91CF911F910F910895C7
S11348D0CF93DF93009709F481C0FC0132971382D0
S11348E01282A091E202B091E302109781F4208138
S11348F03181820F931F2091E0023091E102281749
S1134900390751F5F093E102E093E00267C0ED014D
S113491020E030E0CE17DF0740F44A815B819E013E
S113492041155105F1F0EA01F5CFD383C2834081EB
S11349305181840F951FC817D90759F4888199812B
S1134940840F951F0296918380838A819B81938330
S113495082832115310529F4F093E302E093E20206
S11349603DC0E901FB83EA8349915991C40FD51FE6
S1134970EC17FD0761F480819181840F951F0296E5
S1134980E90199838883828193819B838A83E0E010
S1134990F0E012968D919C911397009719F0FD0108
S11349A0DC01F7CF8D919C9111979D012E5F3F4FB4
S11349B0820F931F2091E0023091E10228173907FA
S11349C069F4309729F41092E3021092E20202C0D3
S11349D013821282B093E102A093E002DF91CF919F
S11349E00895283008F027E03327DA01990F311DA4
S11349F087FD916000966105710539F432602E5F80
S1134A003D9330E32A95E1F708959F3F30F08038D5
S1134A107105610509F03C5F3C5F3D93913008F0FE
S1134A208068911DDF93CF931F930F93FF92EF92B2
S1134A30192F987F9695E92F96959695E90FFF275C
S1134A40E259FE4F99273327EE24FF24A701E701FB
S1134A5005900894079428F4360FE71EF81E491FA2
S1134A60511D660F771F881F991F0694A1F70590A3
S1134A70079428F4E70EF81E491F561FC11D770F2F
S1134A80881F991F661F0694A1F70590079428F4C0
S1134A90F80E491F561FC71FD11D880F991F661F87
S1134AA0771F0694A1F70590079420F4490F561F29
S1134AB0C71FD81F990F661F771F881F0694A9F771
S1134AC084911095177041F0D695C79557954795E1
S1134AD0F794E7941A95C1F7E4E1F1E0689415902E
S1134AE0159135916591959105907FE27395E11843
S1134AF0F10A430B560BC90BD009C0F7E10CF11EA8
S1134B00431F561FC91FD01D7EF4703311F48A95BC
S1134B10E6CFE894015030F0080F0AF4002702179A
S1134B2008F4202F2395022F7A3328F079E37D931C
S1134B302A95E9F710C07D932A9589F606949795EE
S1134B406795379517951794E118F10A430B560B9F
S1134B50C90BD00998F023957E9173957A3308F0A8
S1134B6070E37C932013B8F77E9170617D9330F0ED
S1134B70839571E37D9370E32A95E1F71124EF9017
S1134B80FF900F911F91CF91DF91992787FD909509
S1134B900895FC010590615070400110D8F780958C
S1134BA090958E0F9F1F0895FC01615070400190F5
S1134BB00110D8F7809590958E0F9F1F08950F933D
S1134BC01F93CF93DF93FB01238121FD03C08FEF5C
S1134BD09FEF2CC022FF16C0468157812481358166
S1134BE04217530744F4A081B1819D012F5F3F4FC9
S1134BF0318320838C93268137812F5F3F4F378306
S1134C00268314C08B01EC01FB010084F185E02DA7
S1134C100995892BE1F6D80116968D919C911797E9
S1134C20019617969C938E931697CE01DF91CF91A0
S1134C301F910F910895A0E0B0E0E1E2F6E20C9438
S1134C40A923AE014B5F5F4FFA0161917191AF01EE
S1134C508091E6029091E7020E94F81BE2E00C9436
S1134C60C5230F931F93CF93DF93E091E602F09156
S1134C70E702238121FF1BC08C01D0E0C0E0F801D2
S1134C8081918F016091E6027091E702DB01189631
S1134C90ED91FC911997882331F00995892B79F3CB
S1134CA0DFEFCFEFECCF8AE00995892B19F08FEF76
S1134CB09FEF02C08D2F9C2FDF91CF911F910F91F9
S1134CC00895FA01AA27283051F1203181F1E8949E
S1134CD06F936E7F6E5F7F4F8F4F9F4FAF4FB1E0EB
S1134CE03ED0B4E03CD0670F781F891F9A1FA11DE6
S1134CF0680F791F8A1F911DA11D6A0F711D811DE7
S1134D00911DA11D20D009F468943F912AE0269FAB
S1134D1011243019305D3193DEF6CF010895462F0A
S1134D204770405D4193B3E00FD0C9F7F6CF462FEB
S1134D304F70405D4A3318F0495D31FD4052419354
S1134D4002D0A9F7EACFB4E0A69597958795779511
S1134D506795BA95C9F700976105710508959B0198
S1134D60AC010A2E06945795479537952795BA9521
S1134D70C9F7620F731F841F951FA01D0895F8942F
S1054D80FFCF5F
S1134D821F020103030000000200000000101000D3
S1134D92000000180C041060C080200000EA022009
S1134DA2004578706C6F72696E672E2E2E00495220
S1134DB22041766F6964696E672100536F6E617278
S1134DC22041766F6964696E67210057616C6C20BB
S1134DD2666F6C6C6F77696E672100466F6C6C6FDF
S1134DE277696E6721004C6967687420666F756E17
S1134DF2642E00556E6B6E6F776E207374617465EA
S1134E0221006C6566743A20252E3032660A0072DF
S1134E12696768743A20252E3032660A0044697341
S1134E2274203D20252E33660A004572726F723A51
S1134E3220256C64005374617274696E672E2E2E81
S1054E4200006A
S9030000FC
