S00D00004C616220372E73726563B1
S11300000C9412030C942F030C942F030C942F03C1
S11300100C94070F0C94300F0C94590F0C94820F0E
S11300200C942F030C94E80D0C94110E0C943A0EBE
S11300300C94B50E0C94630E0C948C0E0C94DE0E82
S11300400C946D0D0C94960D0C94BF0D0C942F0311
S11300500C942F030C942F030C942F030C942F0354
S11300600C942F030C942F030C942F030C942F0344
S11300700C942F030C942F030C942F03F218D31811
S1130080E318E018E618DD18DA1807634236B79B60
S1130090D8A71A39685618AEBAAB558C1D3CB7CCE4
S11300A05763BD6DEDFD753EF6177231BF0000005C
S11300B0803F08000000BE922449123EABAAAA2A3F
S11300C0BECDCCCC4C3E00000080BEABAAAAAA3E5A
S11300D000000000BF000000803F00000000000896
S11300E04178D3BB4387D1133D190E3CC3BD428233
S11300F0AD2B3E68EC8276BED98FE1A93E4C80EFF1
S1130100FFBE01C4FF7F3F00000000006E616E006F
S1130110696E660000407A10F35A00A0724E180906
S11301200010A5D4E80000E87648170000E40B545A
S1130130020000CA9A3B000000E1F5050000809629
S11301409800000040420F000000A086010000005B
S1130150102700000000E803000000006400000015
S113016000000A00000000000100000000002C76DE
S1130170D888DC674F0823DFC1DFAE59E1B1B796F9
S1130180E5E3E453C63AE651997696E8E6C2842656
S1130190EB898C9B62ED407C6FFCEFBC9C9F40F232
S11301A0BAA56FA5F490055A2AF75C936B6CF967AE
S11301B06DC11BFCE0E40D47FEF520E6B500D0ED73
S11301C0902E0300943577050080841E08000020DB
S11301D04E0A000000C80C333333330F986E128379
S11301E01141EF8D2114893BE65516CFFEE6DB184D
S11301F0D1844B381BF77C1D901DA4BBE424203212
S113020084725E228100C9F124ECA1E53D27160524
S11302100100000000000000FA000000E000E0001F
S113022028FE28FE282454FE5448C4C81026466CD0
S113023092AA44A000A0C0000000384482000082BA
S113024044380028107C102810107C1010000A0C70
S11302500000101010101000060600000408102002
S1130260407C8A92A27C0042FE020042868A92620C
S11302708482A2D28C182848FE08E4A2A2A29C3C44
S11302805292920C808E90A0C06C9292926C60926A
S1130290929478006C6C0000006A6C000010284492
S11302A082002828282828008244281040808A9028
S11302B0604C929E827C7E8888887EFE9292926CAC
S11302C07C82828244FE82824438FE92929282FE32
S11302D0909090807C8292925EFE101010FE0082BC
S11302E0FE8200040282FC80FE10284482FE020288
S11302F00202FE403040FEFE201008FE7C82828214
S11303007CFE909090607C828A847AFE90989462BD
S1130310629292928C8080FE8080FC020202FCF841
S1130320040204F8FC021C02FCC6281028C6E010D3
S11303300E10E0868A92A2C200FE82820040201043
S11303400804008282FE0020408040200202020253
S1130350020080402000042A2A2A1EFE1222221CA7
S11303601C222222041C222212FE1C2A2A2A1810D1
S11303707E908040304A4A4A7CFE1020201E002293
S1130380BE0200040222BC00FE081422000082FE09
S113039002003E2018201E3E1020201E1C22222275
S11303A01C3E28282810102828183E3E1020201013
S11303B0122A2A2A0420FC2202043C0202043E38A7
S11303C0040204383C020C023C2214081422300AB1
S11303D00A0A3C22262A322200106C82000000FE07
S11303E0000000826C1000081010081000000000CB
S11303F0007F8181817F7F8383837F7F8787877F5E
S11304007F8F8F8F7F7F9F9F9F7F7FBFBFBF7F7FA8
S1130410FFFFFF7F2040FF4020621517156500FB9A
S1130420FB00000000000000C0FF0300E0FF070025
S1130430F0FF0F00F8FF1F0078001E0078001E0078
S113044078001E0078001E0078001E0078001E0050
S113045078001E0078001E0078001E0000000000D6
S11304600000000080FF0300E0FF0700F0FF0F0022
S1130470F8FF1F00F83C1F00783C1E00783C1E006B
S1130480783C1E00783C1E00783C1E00783C1E0020
S1130490783C1E00783C1E00783C1E00783C1E0010
S11304A00000000000000000E0FF0300F0FF070070
S11304B0F8FF0F00F8FF1F00783C1E00783C1E0078
S11304C0783C1E00783C1E00783C1E00783C1E00E0
S11304D0783C1E00783C1E00783C1E00783C1E00D0
S11304E00000000000000000F8FF0300F8FF0F0008
S11304F0F8FF1F00F8FF1F0000001E0000001E0090
S113050000801F0000F01F0000FF0F00E0FF070045
S1130510F0FF0000F80F0000F80000007800000071
S113052078000000F8FF1F00F8FF1F00F0FF1F0015
S1130530E0FF1F000000000000000000F8FF1F00A3
S1130540F8FF1F00F8FF1F00F8FF1F0078001E00CF
S1130550783C1E00783C1E00783C1E00783C1E004F
S1130560783C1E00783C1E00F87E1F00F8FF1F0038
S1130570F0FF0F00E0E70300000000000000380077
S1130580EEFF6C002A8045003A0047FC03FF6CFC38
S113059083FF3900DEFF0B7CD0810BFCD0810BC0C4
S11305A0D0810BFCD0810B7CDEFF0B0082FF397005
S11305B002FF6CF83A0047DC2A8045CCEEFF6CCC95
S11305C0000038000000000C00001E0C00001E009B
S11305D000001E0000001E0000001E00F8FF1F00A7
S11305E0F8FF1F00F8FF1F00F8FF1F0000001E00A7
S11305F000001E0000001E0000001E0000005E003F
S11306000000400000007C000000400000004000AA
S113061000007C00000030000000100000003000EA
S113062000007C0011241FBECFEFD8E0DEBFCDBF99
S113063011E0A0E0B1E0EAE1FCE402C005900D9213
S1130640AA3CB107D9F722E0AAECB1E001C01D929F
S1130650A83EB207E1F70E9452030C940B260C94B7
S113066000008FE00E94FE09882311F082E00895C3
S11306700E94470381E00895ECE7F0E090818295C1
S1130680880F880F807C9F73982B908308958FE147
S113069080937C00EAE7F0E087E0808380818068D3
S11306A0808308950E946B0D0E945D0D0E94E41AE0
S11306B080E090E008950F931F9385E00E940B0A59
S11306C08823C1F080E460E00E946F0400E0802F82
S11306D060E00E94030410E080E061E00E946F0487
S11306E01F5F1038C9F70F5F043089F783E060E0BB
S11306F00E945D041F910F9108950F931F9385E04D
S11307000E94FE09882311F082E07AC00E94BA0494
S1130710182F0E947D0A1150123008F06DC08150CC
S1130720823008F069C00E948A048EEA60E00E9468
S11307306F0482EA60E00E946F0480EA60E00E9435
S11307406F0400E513ECC8010197F1F780EC60E059
S11307500E946F048FE260E00E946F0481E860E011
S11307600E946F0486E160E00E946F0482E260E010
S11307700E946F04C8010197F1F78FEA60E00E94BC
S11307806F0486EA60E00E946F0485EA60E00E94DC
S11307906F0480E090E028E833E1F9013197F1F744
S11307A0019643E0883E9407C1F783EB60E00E9422
S11307B06F0480E460E00E946F0483E060E00E94C4
S11307C0030483E060E00E945D0410927E021092B4
S11307D0800210927F0284E091E09093E50280937E
S11307E0E40288E10E943C040E945B0384EA60E026
S11307F00E946F0481E004C085E00E94EE0987E056
S11308001F910F910895FF920F931F93082FF62EB7
S113081085E00E940B0A8823A1F01F2D1F77037027
S1130820802F806B60E00E946F0412951F70812FEF
S1130830806160E00E946F048F2D8F7060E00E94E1
S11308406F041F910F91FF9008950F931F93082F2A
S1130850162F85E00E940B0A882359F0812F153149
S113086008F084E166E0869FB0011124802F0E9485
S11308705D041F910F9108951F93182F85E00E9426
S11308800B0A8823C1F087E00E94FC0482E06AE03E
S11308900E944D0582E061EB0E944D05612F1132EB
S11308A008F060E282E00E944D0589EE8A95F1F736
S11308B087E00E94FC041F9108950F931F93082F53
S11308C0162F85E00E940B0A882331F003701F77EE
S11308D010937C0200937D021F910F9108950F9352
S11308E01F93082F162F85E00E940B0A882379F0A6
S11308F0112319F0113021F402C02B9801C02B9A56
S113090086E08A95F1F780E0602F0E944D051F91E3
S11309100F910895239A089586E00E94FE09882382
S113092011F082E008950E94A30481E008951F93CA
S1130930182F86E00E940B0A882319F0812F0E9449
S1130940AC041F910895559A569A80E20E9469104A
S113095080E40E9469100895282F85FF04C08BB19C
S113096090E289278BB926FF04C08BB190E48927D4
S11309708BB9089582E00E94FE09882311F082E079
S113098008950E945C0580E060EF70E10E94F3042A
S113099081E068EE70E10E94F30482E060EE70E1B1
S11309A00E94F30486E068EF70E10E94F30483E0A0
S11309B068ED70E10E94F30484E068ED70E10E9448
S11309C0F30485E068ED70E10E94F30487E068EDCC
S11309D070E10E94F3048FEF8093810287E00E940C
S11309E0FC0481E00895E82FF0E0EE0FFF1FE75EBE
S11309F0FD4F7183608308951F93182F82E00E9436
S1130A000B0A882309F447C0912F977080918102C3
S1130A10981709F440C09093810285B1887F892B8F
S1130A2085B9933011F1943028F4913051F092301B
S1130A3090F40CC0953019F19530E0F0963021F522
S1130A400FC0E0911B02F0911C0222C0E091190238
S1130A50F0911A021DC0E0911D02F0911E0218C00F
S1130A60E0912502F091260213C0E0911F02F0915B
S1130A7020020EC0E0912102F091220209C0E0910F
S1130A802302F091240204C0E0912702F09128028D
S1130A90309709F009951F9108951F93162F0E940E
S1130AA0FC0482E00E940B0A882321F01EBD0DB4D1
S1130AB007FEFDCF1F910895259A2698279A209A1C
S1130AC0219A229A08952F923F924F925F926F92A9
S1130AD07F928F929F92AF92BF92CF92DF92EF92CA
S1130AE0FF920F931F93DF93CF930F92CDB7DEB78F
S1130AF0582E962E442E3901C9821501CE88DF88DE
S1130B00A88CB98C6A8D7B8D81E0981619F19816A2
S1130B1028F092E0991609F070C03EC080E0B70159
S1130B200E94940780E0642DA30198010981EE24BA
S1130B30E39479EBC72E72E0D72E0E945408552017
S1130B4009F05BC000D00F92EDB7FEB7118233827B
S1130B5022821CC081E00E94940781E0682DA601D6
S1130B6095010C8DEE24E39499EBC92E92E0D92ED5
S1130B700E945408552009F040C000D00F92EDB7F0
S1130B80FEB791828D8D9E8D938382830E949109FD
S1130B900F900F900F9031C0C7010E94B60700D08C
S1130BA089EB92E0EDB7FEB792838183842DB30184
S1130BB0A8012981082D76016501AC8C88248394D1
S1130BC00E94E7080F900F905520B9F400D000D090
S1130BD00F92ADB7BEB71196EDB7FEB79182FD0186
S1130BE0328221828D8D9E8D948383830E9491090C
S1130BF00F900F900F900F900F900F90CF91DF9167
S1130C001F910F91FF90EF90DF90CF90BF90AF9026
S1130C109F908F907F906F905F904F903F902F9018
S1130C2008954F925F927F928F929F92AF92BF925C
S1130C30CF92DF92EF92FF920F931F93DF93CF93A4
S1130C40CDB7DEB7562F942E7C2CAA89BB89CC88CD
S1130C50DD886E897F89988D813009F445C08130A3
S1130C6030F1823009F066C0513071F0513020F01B
S1130C70523009F05FC011C080E0B7010E949407B0
S1130C8080E0692DA80106C081E00E94940781E0FC
S1130C90682DA6010E941F074DC0C7010E94B60718
S1130CA0892DB801482D96010E94360743C0EDB73F
S1130CB0FEB739970FB6F894FEBF0FBEEDBF4DB621
S1130CC05EB60894411C511CB283A183F201D38205
S1130CD0C282758364839683898D9A8D9087878376
S1130CE080E0652FC72C1CC0EDB7FEB739970FB64F
S1130CF0F894FEBF0FBEEDBFADB6BEB60894A11CFE
S1130D00B11CB283A183F501D382C282758364834B
S1130D1096831086178281E0652FC72CAA24BB24F2
S1130D200E9463058DB79EB709960FB6F8949EBFCF
S1130D300FBE8DBFCF91DF911F910F91FF90EF9068
S1130D40DF90CF90BF90AF909F908F907F905F90F7
S1130D504F90089587E00E94FE09882311F082E0F5
S1130D6008950E94E40981E08093B80210928202FF
S1130D7010928302109285021092840210928702CC
S1130D8010928602109289021092880210928B02AD
S1130D9010928A0210928D0210928C0210928F028D
S1130DA010928E021092910210929002109293026D
S1130DB0109292021092950210929402109297024D
S1130DC010929602109299021092980210929B022D
S1130DD010929A021092A0021092A1021092A20202
S1130DE01092A3021092A5021092A6021092A702DA
S1130DF01092A8021092A9021092AA021092AB02B9
S1130E001092AD021092AC021092AF021092AE0298
S1130E101092B1021092B0021092B3021092B20278
S1130E2010929D0210929C0210929F0210929E02B8
S1130E301092B7021092B6021092B8020895EF927F
S1130E40FF920F931F93182F062F7A0160E00E94E0
S1130E50F307812F602F0E94D407812FB7010E94CE
S1130E6008081F910F91FF90EF900895CF92DF92A1
S1130E70EF92FF920F931F93C82E7B01D42E89010A
S1130E8082E060E00E94F3078C2D6D2D0E94E9073B
S1130E90C701B8010E9435081F910F91FF90EF9090
S1130EA0DF90CF9008952EEF8037920714F480E7F7
S1130EB09EEFFC0181E0E139F80714F0E0E9F1E08C
S1130EC09B018EEF6037780714F420E73EEFA90109
S1130ED021E04139520714F040E951E08F2F881F77
S1130EE08827881F252F221F2227221F91E09093F5
S1130EF0B8028093A5022093A602CF01F7FF03C096
S1130F00909581959F4F9A0157FF03C03095219585
S1130F103F4F9093850280938402309387022093FD
S1130F2086021092B8020895482F81E08093B80297
S1130F30CB0123E0693E720710F088EE93E0413064
S1130F4071F0413018F0423071F405C090938D0275
S1130F5080938C0208C090938D0280938C029093AE
S1130F608F0280938E021092B802089521E020939C
S1130F70B802AC0183E0493E580710F048EE53E054
S1130F809B0183E0693E780710F028EE33E0F89483
S1130F9050938D0240938C0230938F0220938E02E3
S1130FA078941092B8020895982F81E08093B80243
S1130FB0913051F0913018F0923041F403C06093B5
S1130FC0A50204C06093A5026093A6021092B80221
S1130FD0089591E09093B802E5EAF2E0819360838A
S1130FE01092B8020895982F81E08093B80291304E
S1130FF051F0913018F0923041F403C060938202B2
S113100004C060938202609383021092B802089530
S1131010482F81E08093B802CB0121E06139720747
S113102010F080E991E0413061F0413018F0423035
S1131030C9F40EC0F8949093850280938402789446
S113104011C0F894909387028093860278940AC022
S1131050F8949093850280938402909387028093FE
S1131060860278941092B8020895AC0181E08093CE
S1131070B802F894CB0121E06139720710F080E9DD
S113108091E090938702809386029A0181E041392E
S1131090580710F020E931E0309385022093840250
S11310A078941092B80208958F929F92AF92BF9253
S11310B0CF92DF92EF92FF920F931F93CF93DF9320
S11310C0182FF62E4A015901E60187E00E940B0A07
S11310D0882309F46FC0812F61E00E94F307812FF8
S11310E0B401A5010E94D212812F6F2D0E94D40752
S11310F0812F602F0E94BD12812FB4010E9495128E
S1131100C114D10499F0113049F0113018F01230A3
S113111069F406C018821092B40208C0198204C08F
S1131120188219821092B4021092B502D093B702B9
S1131130C093B602EE20B9F58AEC91E09093B70221
S11311408093B602812FB5010E940808812F0E9466
S11311508012113071F0113018F0123059F512C0AC
S11311601092CA011092B4028091CA018823E1F35B
S113117021C01092CB011092B5028091CB0188233B
S1131180E1F318C01092CA011092CB011092B4027C
S11311901092B5028091CA018823E1F38091CB01BA
S11311A08823C1F307C0812FB5010E940808812F4D
S11311B00E948012DF91CF911F910F91FF90EF90C9
S11311C0DF90CF90BF90AF909F908F9008953F9203
S11311D04F925F926F927F928F929F92AF92BF9243
S11311E0CF92DF92EF92FF920F931F93DF93CF93EF
S11311F0CDB7DEB7982E2B013A01322EB02E0C89D2
S11312001D8987E00E940B0A882309F453C082E0F9
S113121061E00E94F30780E0B201A3010E94D212B0
S113122081E0B701A6010E94D212892D6B2D0E9484
S1131230E90780E0632D0E94BD1281E06A2D0E94BF
S1131240BD12C201B7010E94B0120115110539F097
S1131250F801108211821092B4021092B502109318
S1131260B7020093B6028820F1F48CEC91E09093DD
S1131270B7028093B602C301B6010E94350882E02A
S11312800E9480121092CC011092CD011092B402EF
S11312901092B5028091CC018823E1F38091CD01B5
S11312A08823C1F307C0C301B6010E94350882E058
S11312B00E948012CF91DF911F910F91FF90EF90C8
S11312C0DF90CF90BF90AF909F908F907F906F9062
S11312D05F904F903F9008950F931F93182F062F00
S11312E0662349F460E070E00E940808812F60E002
S11312F070E00E94951281E08093B802113051F0A1
S1131300113018F0123041F403C00093A00204C05D
S11313100093A0020093A1021092B8021F910F91B2
S11313200895CF92DF92EF92FF920F931F93DF9372
S1131330CF93CDB7DEB71B8587E00E940B0A8823C5
S1131340D1F1113061F0113018F01230A1F511C053
S1131350EC85FD858091B9028823E1F306C0EC8514
S1131360FD858091BA028823E1F3309721F1099534
S113137022C0CC84DD84EE84FF8400E010E00023EE
S113138051F48091B902882331F0C114D10411F0D1
S1131390F601099501E0112351F48091BA028823E2
S11313A031F0E114F10411F0F701099511E0002383
S11313B031F3112321F3CF91DF911F910F91FF900E
S11313C0EF90DF90CF9008953A9A3B9A3C9A3D9AD9
S11313D03E9A3F9A88B1837088B90895853160F444
S11313E0E82FF0E0E959FD4F8081882329F08081BE
S11313F081508083808108958FEF0895853110F0A6
S113140080E00895E82FF0E0E959FD4F80818F5F77
S1131410808381500895853110F080E00895E82F8D
S1131420F0E0E959FD4F8081811181E008951F9317
S1131430182F8091CF01882341F08091D601882311
S113144099F01092CF011092D6010E944C0A809319
S1131450CE0180ED91E061E040E028E230E00E94BE
S11314602A0C81E08093CF019091CE01133018F0C3
S1131470133079F409C0E12FF0E0E050FF4F808190
S1131480892341F081E006C091FF03C0892F817058
S113149001C080E01F9108950F931F9381E00E9483
S11314A00B0A882311F400E024C087E00E94FC04A6
S11314B082E06AE00E944D0582E062EB0E944D05E5
S11314C018EC812F8A95F1F782E060E00E94011107
S11314D0082F812F8A95F1F782E060E00E940111C4
S11314E01A95F1F787E00E94FC0488E893E10197DC
S11314F0F1F7802F1F910F910895DF93CF9300D0C0
S11315000F92CDB7DEB781E00E94FE09882311F067
S113151082E011C00E94BA048150823040F40E94DB
S1131520BC0BCE0101960E948A1381E004C081E0C5
S11315300E94EE0987E00F900F900F90CF91DF91FA
S113154008950F931F938230B1F0833028F48823D9
S113155041F08130F1F40AC0833091F08430C9F451
S113156014C07093D2026093D10213C07093D4025A
S11315706093D3020EC07093D6026093D50209C063
S11315807093D8026093D70204C07093DA02609318
S1131590D9026091D3027091D4024091D502509146
S11315A0D6022091D7023091D8020091D90210912D
S11315B0DA028091D1029091D2020E94E20A1F9134
S11315C00F9108954F925F926F927F928F929F92A4
S11315D0AF92BF92CF92DF92EF92FF920F931F933D
S11315E0CF93DF93EC017B013A01290181E00E9452
S11315F00B0A882309F4AFC087E00E94FC0489EE3B
S11316008A95F1F782E06AE00E944D0582E060EB82
S11316100E944D058090C7029090C8028C169D06CA
S113162048F08091BD029091BE024E01C817D907BF
S113163008F44C01A090C902B090CA02AE14BF04D1
S113164048F08091BF029091C0025701E816F90654
S113165008F45C01C090CB02D090CC02C614D7042D
S113166048F08091C1029091C20263016816790624
S113167008F46C01E090CD02F090CE02E414F5047D
S113168048F08091C3029091C40272014816590631
S113169008F47C01C091CF02D091D002C017D107C9
S11316A048F08091C5029091C602E8010817190715
S11316B008F4EC019092D2028092D102B092D4024A
S11316C0A092D302D092D602C092D502F092D80250
S11316D0E092D702D093DA02C093D90219EE812F97
S11316E08A95F1F782E0692D0E944D0582E0682D0C
S11316F00E944D05812F8A95F1F782E06B2D0E949F
S11317004D0582E06A2D0E944D05812F8A95F1F7DF
S113171082E06D2D0E944D0582E06C2D0E944D05E6
S1131720812F8A95F1F782E06F2D0E944D0582E0AA
S11317306E2D0E944D05812F8A95F1F782E06D2F61
S11317400E944D0582E06C2F0E944D051A95F1F719
S113175087E00E94FC04DF91CF911F910F91FF90CD
S1131760EF90DF90CF90BF90AF909F908F907F903D
S11317706F905F904F9008951092D2021092D10210
S11317801092D4021092D3021092D6021092D50273
S11317901092D8021092D7021092DA021092D90253
S11317A080E991E09093BE028093BD029093C002C1
S11317B08093BF029093C2028093C1029093C402AB
S11317C08093C3029093C6028093C50284E398E099
S11317D09093C8028093C7029093CA028093C9026F
S11317E09093CC028093CB029093CE028093CD024F
S11317F09093D0028093CF0208950F931F93DF93A9
S1131800CF93CDB7DEB729970FB6F894DEBF0FBEDE
S1131810CDBF8C0188E00E940B0A882311F491E06B
S11318200DC0CE01019661E040E098010E942A0CAF
S1131830982F882319F48F818823E9F3892F299617
S11318400FB6F894DEBF0FBECDBFCF91DF911F91CD
S11318500F910895EF92FF920F931F93CF93DF930D
S1131860EC01F62EE42E890188E00E940B0A8823FD
S113187011F481E026C084E090E00E941C23FC0166
S1131880009711F482E01DC0F982F0FC1E8281E011
S1131890E81619F489818460898389818860898341
S11318A01B830A831D830C83D183C083138212821A
S11318B081E080933902CF010E94680C10923902B2
S11318C080E0DF91CF911F910F91FF90EF900895E9
S11318D0CF92DF92EF92FF920F931F93CF93DF93F8
S11318E0EC018091DB02882339F4D093DD02C093AC
S11318F0DC020E94041447C0C090DC02D090DD02D8
S113190000E010E0EE24FF2437C0A881B981FD0176
S113191064817581F60140815181FA018481958148
S11319209B01281B390B37FF0FC0861B970B958330
S11319308483DB82CA82012B29F4D093DD02C09315
S1131940DC0221C0F7010CC0F601828193812115CC
S1131950310549F4FD01158214829B838A83F601C3
S1131960D383C28310C0FD01358324830097B9F368
S11319700F5F1F4F76016C018091DB0290E0081726
S1131980190718F2ECCF8091DB028F5F8093DB02A2
S1131990DF91CF911F910F91FF90EF90DF90CF9047
S11319A008958CE00E94FE09882311F082E00895D6
S11319B08BE00E940B0A8823A1F40E941513813046
S11319C081F480E00E94C71388EE93E024EF31E0B5
S11319D0F9013197F1F70197D9F70E945A0D81E087
S11319E008958CE00E94EE0987E00895EF92FF923B
S11319F00F931F938CE00E940B0A882309F452C0B2
S1131A000E943313139A81E28A95F1F713980B9885
S1131A10EE24FF2487010CC0039B0AC082E48A954C
S1131A20F1F780B186958695869580FF26C00FC014
S1131A300894E11CF11C011D111D80E2E81681EAE5
S1131A40F80687E0080780E0180731F722C00E94F3
S1131A503D13EE24FF24870102C0039B0EC00894AB
S1131A60E11CF11C011D111D90E2E91691EAF90631
S1131A7097E0090790E0190781F70E94451380E079
S1131A8090E2E91691EAF90697E0090790E0190750
S1131A9008F081E00B9A1398813021F00E940F1313
S1131AA09C0102C020E030E0C9011F910F91FF901A
S1131AB0EF9008950B9A139808950E9473130E944F
S1131AC07A100E94AB0F0E94E8130E94BA040E948D
S1131AD07D0A78940895000008951F920F920FB61E
S1131AE00F9211242F933F934F935F936F937F93A0
S1131AF08F939F93AF93BF93EF93FF93E091F9017B
S1131B00F091FA01309709F00995FF91EF91BF9197
S1131B10AF919F918F917F916F915F914F913F9181
S1131B202F910F900FBE0F901F9018951F920F9238
S1131B300FB60F9211242F933F934F935F936F939C
S1131B407F938F939F93AF93BF93EF93FF93E09112
S1131B50FB01F091FC01309709F00995FF91EF9199
S1131B60BF91AF919F918F917F916F915F914F91B1
S1131B703F912F910F900FBE0F901F9018951F92B9
S1131B800F920FB60F9211242F933F934F935F93AD
S1131B906F937F938F939F93AF93BF93EF93FF9331
S1131BA0E091FD01F091FE01309709F00995FF9154
S1131BB0EF91BF91AF919F918F917F916F915F91C1
S1131BC04F913F912F910F900FBE0F901F9018953A
S1131BD01F920F920FB60F9211242F933F934F939E
S1131BE05F936F937F938F939F93AF93BF93EF9381
S1131BF0FF93E091EB01F091EC01309709F0099526
S1131C00FF91EF91BF91AF919F918F917F916F91D0
S1131C105F914F913F912F910F900FBE0F901F90A6
S1131C2018951F920F920FB60F9211242F933F9382
S1131C304F935F936F937F938F939F93AF93BF93D0
S1131C40EF93FF93E091ED01F091EE01309709F0ED
S1131C500995FF91EF91BF91AF919F918F917F91E2
S1131C606F915F914F913F912F910F900FBE0F9005
S1131C701F9018951F920F920FB60F9211242F9355
S1131C803F934F935F936F937F938F939F93AF9300
S1131C90BF93EF93FF93E091EF01F091F001309740
S1131CA009F00995FF91EF91BF91AF919F918F91A9
S1131CB07F916F915F914F913F912F910F900FBE44
S1131CC00F901F9018951F920F920FB60F92112428
S1131CD02F933F934F935F936F937F938F939F9330
S1131CE0AF93BF93EF93FF93E091F301F091F4016D
S1131CF0309709F00995FF91EF91BF91AF919F91B2
S1131D008F917F916F915F914F913F912F910F90A0
S1131D100FBE0F901F9018951F920F920FB60F923F
S1131D2011242F933F934F935F936F937F938F93DC
S1131D309F93AF93BF93EF93FF93E091F501F091DD
S1131D40F601309709F00995FF91EF91BF91AF919A
S1131D509F918F917F916F915F914F913F912F91BF
S1131D600F900FBE0F901F9018951F920F920FB6F1
S1131D700F9211242F933F934F935F936F937F930D
S1131D808F939F93AF93BF93EF93FF93E091F101F0
S1131D90F091F201309709F00995FF91EF91BF910D
S1131DA0AF919F918F917F916F915F914F913F91EF
S1131DB02F910F900FBE0F901F9018951F920F92A6
S1131DC00FB60F9211242F933F934F935F936F930A
S1131DD07F938F939F93AF93BF93EF93FF93E09180
S1131DE0F701F091F801309709F00995FF91EF910F
S1131DF0BF91AF919F918F917F916F915F914F911F
S1131E003F912F910F900FBE0F901F9018951F9226
S1131E100F920FB60F9211242F933F934F935F931A
S1131E206F937F938F939F93AF93BF93EF93FF939E
S1131E30E091E101F091E201309709F00995FF91F9
S1131E40EF91BF91AF919F918F917F916F915F912E
S1131E504F913F912F910F900FBE0F901F901895A7
S1131E601F920F920FB60F9211242F933F934F930B
S1131E705F936F937F938F939F93AF93BF93EF93EE
S1131E80FF93E091E301F091E401309709F00995A3
S1131E90FF91EF91BF91AF919F918F917F916F913E
S1131EA05F914F913F912F910F900FBE0F901F9014
S1131EB018951F920F920FB60F9211242F933F93F0
S1131EC04F935F936F937F938F939F93AF93BF933E
S1131ED0EF93FF93E091E501F091E601309709F06B
S1131EE00995FF91EF91BF91AF919F918F917F9150
S1131EF06F915F914F913F912F910F900FBE0F9073
S1131F001F9018951F920F920FB60F9211242F93C2
S1131F103F934F935F936F937F938F939F93AF936D
S1131F20BF93EF93FF93E091E701F091E8013097BD
S1131F3009F00995FF91EF91BF91AF919F918F9116
S1131F407F916F915F914F913F912F910F900FBEB1
S1131F500F901F90189580E10E94FE09882311F0CC
S1131F6082E00895E9EDF1E01192119282E0E93105
S1131F70F807D1F781E00895FF920F931F93CF9351
S1131F80DF93F82E8AE0F816B1F08F1548F0E8E0F8
S1131F90FE16B9F1EF1538F1F7E0FF1651F43BC026
S1131FA08DE0F81659F0EBE1FE1689F0FCE0FF161F
S1131FB041F001E041C010927C0203C010927C0207
S1131FC03AC080917D02815080937D0234C00E948A
S1131FD05B0314C080E061E00E946F0480917C0286
S1131FE08F5F80937C0280917C0287FFF3CF1092F5
S1131FF07C0280917D02815080937D0200E011E09B
S11320001CC080917C028823B1F080917C028650B0
S113201080937C0210C081E00E94D21164EF71E0D1
S113202080E090E04DE750E024E630E00E94DE11CD
S113203081E00E94391100E010E080917D026091FE
S11320407C020E940304002351F185E0F89EC00144
S11320501124EC01CF58DE4F8C010A581E4FFE01AB
S1132060849161E00E946F042196C017D107B9F7EB
S113207080E061E00E946F0480917C028A5F80931B
S11320807C0280917C0290E08C3791053CF01092A8
S11320907C0280917D02815080937D0211E08091C9
S11320A07D02837080937D02113059F480917E0209
S11320B0813039F4E0917F02F0918002309709F089
S11320C0099580E090E0DF91CF911F910F91FF90EF
S11320D008951F93182F86E00E940B0A882319F095
S11320E0812F0E9475101F91089585FD5D9886FDCE
S11320F05E980895F8940E94D51081E00E948210A1
S113210081E00895813049F0F894813020F18230E3
S1132110B1F0833009F045C017C02C9A80E8809351
S113212061001092610080E090E000000196883226
S11321309105D9F71092680010926B00089580E819
S11321408093610083E004C080E88093610088E0AC
S11321508093610028C080E090E0000001962DE6A5
S113216080369207D1F72C9880E090E00000019629
S11321702DE680369207D1F710927A008FEF809384
S113218064008091680081608093680080916B0096
S1132190846080936B00789483B7816083BF889553
S11321A00895823008F078940895249A2C9A08951A
S11321B083E58CBD81E08DBD8DE08A95F1F70895AE
S11321C083E58CBD1DBC84EF91E00197F1F7089580
S11321D08FE78CBD1DBC84EF91E00197F1F7089562
S11321E083E58CBD81E08DBD8DE08A95F1F708957E
S11321F083E58CBD81E08DBD84EF91E00197F1F71B
S113220008951F93162F0E94FC0482E00E940B0A7B
S1132210882329F01EBD0DB407FEFDCF8EB51F9196
S113222008958AE00E94EE09882329F481E00E943F
S1132230341210922A02089589E00E94EE0988233C
S1132240B9F480912902882311F00E947A1282E065
S11322500E9434128091370290913802009731F035
S11322600E94B4231092380210923702109229026D
S11322700895813029F0823029F40E941C110895B8
S11322800E94111108950F931F93CF93DF9380E25F
S113229091E00E941C239C019093380280933702A2
S11322A0892B11F480E039C08901C0E0D0E0BE017F
S11322B080E090E00E94D61F20E030E040EA51E444
S11322C00E942E1F27EF35E740E05FE30E94A12024
S11322D09B01AC0160E070E080E291E40E940E2179
S11322E09B01AC01CA01B9012DEC3CEC42E851E47C
S11322F00E94A1200E9464202AE030E040E050E0E7
S11323000E949322F80161937193819391938F01B9
S11323102196C834D10559F681E0DF91CF911F9100
S11323200F9108958AE00E94FE09882311F082E04B
S11323300895109234021092330281E00E945012E8
S113234081E080932A0208951F9389E00E94FE0988
S1132350882311F082E024C08BE00E940B0A8823BA
S1132360D9F40E944311182F813011F086E018C06F
S113237010922B0210922C0210922D0210922E0217
S11323808DE06CE374E10E94171482E00E94501205
S11323901093290281E004C089E00E94EE0987E0DD
S11323A01F910895813021F0823029F084E008954E
S11323B00E94921108950E94A41108956F927F9231
S11323C08F929F92AF92BF92CF92DF92EF92FF9241
S11323D00F931F93CF93DF933B014C015A01E90103
S11323E08AE00E940B0A882381F1209741F195012C
S11323F0442737FD4095542FBE01C536D10510F052
S113240064E670E080E090E00E94932224E630E0ED
S113241040E050E00E94A32279018A01C401B30183
S11324200E943F14C7010E94FD0B60E070E080E051
S113243090E00E943F14C5018E199F0904C0A114A5
S1132440B10419F0C5010E94FD0BDF91CF911F91DA
S11324500F91FF90EF90DF90CF90BF90AF909F903F
S11324608F907F906F900895823029F4809181003D
S11324708E7F8093810080912902813031F4809194
S11324802A02813011F400000895809129028130DC
S113249021F080912A02813011F45F9857980895B1
S11324A0982F80912902882331F480912A0288236D
S11324B011F4579A5F98809129028823D1F49230BD
S11324C0C1F4109280001092810080918100886094
S11324D080938100809181008160809381001092BB
S11324E085001092840081E08093890080E98093C4
S11324F088000895EFE6F0E080818D7F8083089561
S1132500982F81E08093B802913051F0913018F007
S1132510923041F403C01092A00204C01092A002B1
S11325201092A1021092B8020895982F81E080932E
S1132530B802913071F0913018F0923071F405C006
S1132540709395026093940208C07093950260930F
S1132550940270939702609396021092B8020895C1
S113256021E02093B802E4E9F2E09183808332967B
S1132570718360831092B8020895982F81E080934C
S1132580B802913051F0913018F0923041F403C008
S11325906093A20204C06093A2026093A30210920B
S11325A0B80208950F931F93CF93DF93EB018A0131
S11325B0813001F1813018F0823061F50DC08091D5
S11325C08C0290918D02892B11F080E01AC0109238
S11325D09902109298021EC080918C0290918D02F3
S11325E0892B21F080E00E94A41404C01092990267
S11325F01092980280918E0290918F02892B31F073
S113260081E0BE01A8010E94A41404C010929B02A0
S113261010929A02DF91CF911F910F91089520910A
S1132620BB023091BC02C90108958BE00E94FE09EF
S1132630882311F082E0089589E00E940B0A882320
S113264069F41092BC021092BB028DE061E175E165
S11326500E9417140E94521381E008958BE00E9497
S1132660EE0982E008952091BB023091BC021092E1
S1132670BC021092BB02C90108958BE00E940B0AB0
S1132680882311F00E94671308958BE00E940B0ABF
S1132690882311F00E946D132091BB023091BC027B
S11326A0C901089510928000E1E8F0E01082808171
S11326B0886080838081816080831092850010927D
S11326C084001092890088EC809388000895EFE6D6
S11326D0F0E08081826080830895EFE6F0E08081FD
S11326E08D7F80830895CF93DF93C0E0D0E08C2F5B
S11326F060E00E9482132196C531D105C1F7DF91B4
S1132700CF910895853128F4E82FF0E0E959FD4F81
S1132710608308951F93CF93DF93EC01009799F1A1
S113272081E00E940B0A882351F187E00E94FC0497
S113273018EC812F8A95F1F782E06AE00E944D053A
S113274082E064EB0E944D05812F8A95F1F782E0C7
S113275060E00E9401118883812F8A95F1F782E05D
S113276060E00E94011189831A95F1F782E060E02C
S11327700E9401118A8387E00E94FC0404C018822D
S113278019828DE28A83DF91CF911F9108951F935F
S1132790182F81E00E940B0A8823C1F087E00E9471
S11327A0FC0488EC8A95F1F782E06AE00E944D050A
S11327B082E065EB0E944D0582E0612F0E944D0589
S11327C089EE8A95F1F787E00E94FC041F91089531
S11327D088E00E94FE09882311F082E00895109297
S11327E0DB021092DD021092DC0210923902109288
S11327F03A0280E164E175E10E942B140E940814FE
S11328000E94111481E0089581E080933A020895B2
S113281084B5826084BD85B5846085BD8EE487BD42
S11328200895EEE6F0E08081826080830895E82FC9
S1132830803268F48051833050F0F0E0EE0FFF1FD7
S1132840E752FE4F208131817183608302C020E012
S113285030E0C9010895803218F020E030E00AC069
S1132860E82FF0E0EE0FFF1FE752FE4F2081318189
S113287071836083C90108950E9463140895EF92DF
S1132880FF920F931F937B018C018AE00E940B0A35
S11328908823A1F080912A02882381F0D801C701FE
S11328A0880F991FAA1FBB1F90933602809335028D
S11328B0E114F1040105110509F45F981F910F91CA
S11328C0FF90EF90089580912B0290912C02A0919B
S11328D02D02B0912E0220912F02309130024091AE
S11328E0310250913202280F391F4A1F5B1F209377
S11328F02B0230932C0240932D0250932E02809190
S11329002B0290912C02A0912D02B0912E0288519D
S1132910964FA040B040BCF08BB180588BB98091E9
S11329202B0290912C02A0912D02B0912E0288517D
S1132930964FA040B04080932B0290932C02A0931A
S11329402D02B0932E020895EF92FF920F931F93DE
S1132950CF93DF93EB01882321F0813009F05AC033
S11329602DC09A0140E050E0CA01B9010E949322AF
S113297020918C0230918D02220F331F40E050E0F1
S11329800E94A32279018A01A8019701220F331F13
S1132990441F551FCE01A0E0B0E082179307A4079F
S11329A0B50728F0F0929902E092980233C0D695C8
S11329B0C795D0939902C09398022CC09A0140E025
S11329C050E0CA01B9010E94932220918E023091F5
S11329D08F02220F331F40E050E00E94A3227901AE
S11329E08A01A8019701220F331F441F551FCE01EE
S11329F0A0E0B0E082179307A407B50728F0F0928F
S1132A009B02E0929A0206C0D695C795D0939B028A
S1132A10C0939A02DF91CF911F910F91FF90EF9095
S1132A2008950E94341508950E941B150E9467158D
S1132A300E944015089588E00E940B0A882311F42F
S1132A4084E0089580913A02882311F483E0089584
S1132A5080913902882311F082E008950E94B4170E
S1132A608130E1F380E00895CF93DF93CBEBD2E0A4
S1132A7088819981019688839983DF91CF91089504
S1132A8080912A02813011F58091330290913402B1
S1132A902091350230913602280F391F30933402C9
S1132AA0209333028091330290913402885E9340E4
S1132AB06CF08BB180588BB98091330290913402C1
S1132AC0885E93409093340280933302089587E0A4
S1132AD00E940B0A882309F4AAC080918C02909169
S1132AE08D02892B09F18091B0029091B10220915D
S1132AF08C0230918D02820F931F9093B1028093C8
S1132B00B0028091B0029091B102885E9340A4F02B
S1132B108091B0029091B102885E93409093B1028B
S1132B208093B00241E009C08091840290918502B3
S1132B30909389028093880240E080918E02909164
S1132B408F02892B09F18091B2029091B3022091F6
S1132B508E0230918F02820F931F9093B302809361
S1132B60B2028091B2029091B302885E9340A4F0C5
S1132B708091B2029091B302885E93409093B30225
S1132B808093B20261E009C080918602909187022D
S1132B9090938B0280938A0260E0842F0E9418161F
S1132BA08091AC029091AD0220918802309189020B
S1132BB0280F391F3093AD022093AC028091AC02F0
S1132BC09091AD02885E934014F440E00BC0809174
S1132BD0AC029091AD02885E93409093AD028093D5
S1132BE0AC0241E08091AE029091AF0220918A0242
S1132BF030918B02280F391F3093AF022093AE021D
S1132C008091AE029091AF02885E934014F460E02C
S1132C100BC08091AE029091AF02885E9340909376
S1132C20AF028093AE0261E0842F0E945D16089586
S1132C308823F1F0209184023091850280918802EA
S1132C4090918902281B390B1216130634F48091D3
S1132C50880290918902019607C0232B49F0809144
S1132C608802909189020197909389028093880247
S1132C70662311F1209186023091870280918A02A5
S1132C8090918B02281B390B1216130654F4809171
S1132C908A0290918B02019690938B0280938A0210
S1132CA00895232B49F080918A0290918B02019719
S1132CB090938B0280938A0208950F931F93182F89
S1132CC0062F8091B802882309F0E7C08091A00202
S1132CD0882309F05AC08091880290918902892B37
S1132CE0E9F480913B02837E80933B021092A90217
S1132CF08091B402882309F45DC06091A20280E04F
S1132D000E946C09E091B602F091B702309709F481
S1132D1051C081E080831092B4024CC08091820241
S1132D20813041F48091940290919502019711F4BD
S1132D3011E002C01123F1F1E091A702F0E0EE5E90
S1132D40FE4F90913B02937E8081892B80933B02BE
S1132D508091A502882321F48091A7028F5F03C08C
S1132D608091A70281508093A7028091A70283706B
S1132D708093A70281E08093A9028091820281302E
S1132D80C9F480E00E94601715C090913B02937EC5
S1132D9090933B02E091A702F0E0EE5EFE4F80814B
S1132DA0892B80933B0282E08093A90210928902CE
S1132DB0109288028091A102882309F059C0809161
S1132DC08A0290918B02892BE9F480913B028F71E6
S1132DD080933B021092AA028091B502882309F4E1
S1132DE05CC06091A30281E00E946C09E091B6028C
S1132DF0F091B702309709F450C081E081831092BA
S1132E00B5024BC080918302813041F480919602D7
S1132E1090919702019711F401E002C00023E9F1B7
S1132E20E091A802F0E0EA5EFE4F90913B029F71B0
S1132E308081892B80933B028091A602882321F410
S1132E408091A8028F5F03C08091A8028150809373
S1132E50A8028091A80283708093A80281E08093E5
S1132E60AA02809183028130C1F40E94601715C0C8
S1132E7090913B029F7190933B02E091A802F0E095
S1132E80EA5EFE4F8081892B80933B0282E080932F
S1132E90AA0210928B0210928A028091AB028823BC
S1132EA031F48BE392E0612F402F0E94221888B105
S1132EB0837090913B02892B88B91F910F910895DB
S1132EC0882321F0813009F04EC027C080919402FC
S1132ED090919502892B49F08091940290919502EA
S1132EE0019790939502809394028091B402882371
S1132EF0D1F520919402309195028091980290919D
S1132F0099022817390779F580E060E070E00E94A3
S1132F10080881E08093B40208958091960290910C
S1132F209702892B49F0809196029091970201971C
S1132F3090939702809396028091B502882399F426
S1132F40209196023091970280919A0290919B026F
S1132F502817390741F481E060E070E00E94080816
S1132F6081E08093B5020895FF920F931F93CF934E
S1132F70DF938091DB02882309F459C00091DC02BD
S1132F801091DD02F801C081D1818C819D8101976E
S1132F909D838C83181619060CF449C0898180FF1F
S1132FA005C08E81882311F481E08E83898181FF9D
S1132FB003C0EF81F88509958091DB028230A8F087
S1132FC0F801828193819093DD028093DC02138265
S1132FD01282E0910000F09101008481958118161D
S1132FE019063CF0FF24F39405C01092DD02109200
S1132FF0DC02FF248091DB0281508093DB0280910C
S1133000DB02882311F40E941F18898182FF08C003
S11330108A819B819D838C83C8010E94680C08C0AF
S1133020C8010E94B42389818F7E898301C0FF2453
S11330308F2DDF91CF911F910F91FF9008951092E2
S11330403A020895FC018091A902823069F48091CA
S11330503F0291E0892780933F02882309F03EC014
S11330608081837E80833AC0809188029091890216
S1133070C397A4F56623D1F0209188023091890288
S113308080E690E0BC01269FC001279F900D369FEB
S1133090900D1124880F892F881F990B90939D02FE
S11330A080939C0281E080933D0218C080913D0290
S11330B08823A1F080919C0290919D0201979093A6
S11330C09D0280939C0280919C0290919D02892B89
S11330D029F48081837E808310923D028091AA022C
S11330E0823069F480913E0291E0892780933E0208
S11330F0882309F03EC080818F7180830895809178
S11331008A0290918B02C397A4F54423D1F02091B5
S11331108A0230918B0280E690E0AC01249FC001CA
S1133120259F900D349F900D1124880F892F881F9F
S1133130990B90939F0280939E0281E080933C02BE
S1133140089580913C028823A1F080919E02909181
S11331509F02019790939F0280939E0280919E020A
S113316090919F02892B29F480818F718083109222
S11331703C020895CF93DF93FC01308120915D02DE
S1133180321303C02081211130C0EC010E945B0383
S1133190E8814E2F50E04730510500F5FA01E25C1A
S11331A0FF4F0C94C52260E083E00E94250480E276
S11331B091E016C08DE291E013C08AE391E010C063
S11331C08AE491E00DC08AE591E00AC085E691E0C9
S11331D09F938F930E9467250F900F9082E791E051
S11331E00E947D25888180935D02DF91CF910895AF
S11331F0DC01FB019C918081981325C011962D91CF
S11332003C9112978181928128173907E1F4139632
S11332102D913C911497838194812817390799F44F
S113322015962D913C91169785819681281739071B
S113323051F417964D915C9118972781308581E060
S11332404217530709F080E00895CF93DF93EC0110
S11332509B0180915C0281110AC041E061E083E539
S113326092E00E942A0C81E080935C0211C080915C
S11332705902882369F080E40E94970480E00E9448
S1133280170A888381E00E94170A898310925902E1
S1133290DF91CF910895CF93DF93EC019B0180914F
S11332A0520281110AC041E061E089E492E00E9487
S11332B02A0C81E0809352023FC080914F02882300
S11332C0D9F180E40E9497040E94F60C988B8F87B2
S11332D02F853889AAE0B0E00E94CB226B877C87D7
S11332E08D879E876B857C858D859E850E94D61FE4
S11332F027EE3AE34DE85CE30E94A120698B7A8BC8
S11333008B8B9C8B60E080E00E94250489899A89DC
S1133310AB89BC89BF93AF939F938F938CE991E062
S11333209F938F930E94672510924F020F900F90E6
S11333300F900F900F900F90DF91CF9108958F927F
S11333409F92AF92BF92CF92DF92EF92FF920F9330
S11333501F93CF93DF938C01EB0169897A898B8961
S11333609C8920E030E04EED51E40E94C11E0E9491
S1133370A01F6D8B7E8B8F8B988F8D899E89AF89D3
S1133380B88D498D5A8D6B8D7C8D841B950BA60B46
S1133390B70B8D8F9E8FAF8FB8A38D899E89AF8910
S11333A0B88D4D8D5E8D6F8D78A1880F991F880F14
S11333B0991FE5E4E49F9001E59F300D1124820FED
S11333C0931F8A569F4FF80192838183CD8CDE8CA4
S11333D0EF8CF8A08D889E88AF88B88CEBEB4E2FCD
S11333E096014203C001439F900D11248A569F4FBA
S11333F0A401440F551F440F551F841B950BF8015E
S11334009483838360E083E00E942504F801818132
S113341092819F938F9349EAE42E41E0F42EFF9228
S1133420EF920E94672560E082E00E942504F80183
S1133430838194819F938F93FF92EF920E946725DB
S113344060E081E00E9425048D899E89AF89B88D52
S1133450BF93AF939F938F9383EB91E09F938F934D
S11334600E9467258D899E89AF89B88D898F9A8F2F
S1133470AB8FBC8F2DB73EB7225F3F4F0FB6F8948A
S11334803EBF0FBE2DBFDF91CF911F910F91FF90D3
S1133490EF90DF90CF90BF90AF909F908F90089562
S11334A07F928F929F92AF92BF92CF92DF92EF92D0
S11334B0FF920F931F93CF93DF93FB012181213060
S11334C021F02081213009F051C0FB01EC0186E09C
S11334D08883DD24D394D28260E082E00E946C0968
S11334E01F921F921F92DF9280E9782E7F921F9283
S11334F098EC992E9F921F9286E98F938824839447
S1133500A12CB12CC12C20E9E22EFF24F39408EC69
S113351010E026E930E041E062E080E00E9411061C
S11335201F921F921F92DF927F921F929F921F926F
S11335308BE78F93812C2BE730E041E062E080E061
S11335400E94110688EC90E09A8389839C838B8384
S113355080E991E09E838D8398878F838DB79EB792
S113356042960FB6F8949EBF0FBE8DBFDF91CF91E8
S11335701F910F91FF90EF90DF90CF90BF90AF908D
S11335809F908F907F900895CF93DF93EC0160E438
S113359072E00E94F818811114C06F8178858D81C2
S11335A09E810E94B6076B817C8189819A810E94E9
S11335B0530789E0FE01A0E4B2E001900D928A95E0
S11335C0E1F7DF91CF910895CF93DF93CDB7DEB7C5
S11335D0A1970FB6F894DEBF0FBECDBF0E94310392
S11335E081E00E943C030E948C040E947D030E949F
S11335F07D0A0E94D10C0E94AA066EEF71E080E061
S11336000E94A10A1092600210925F02109262025C
S11336101092610210926402109263021092660288
S11336201092650210925E028EEB91E00E947D255D
S113363088EB9BE00E94FD0B0E945B036DE770E04A
S1133640CE0101960E94251962E370E0CE01019635
S11336500E944B19BE016F5F7F4F8EE592E00E947E
S11336609F19BE016F5F7F4F8EE592E00E94501A52
S11336708EE592E00E94C41ABE016F5F7F4F8EE513
S113368092E00E94BA18DACFA0E1B0E0EAE4FBE1EC
S11336900C94E5227C011B016A01FC01178216824D
S11336A0838181FF44C39E012F5F3F4F3901F7019E
S11336B09381F10193FD859193FF81911F018823EB
S11336C009F431C3853239F493FD859193FF8191D7
S11336D01F01853239F4B70190E00E942B25560171
S11336E06501E5CF10E0512C912CFFE1F915D8F0DC
S11336F08B3279F038F4803279F08332A1F4F92DE9
S1133700F0612EC08D3261F0803369F4292D21607F
S11337102DC0392D3260932E892D8460982E2AC0B5
S1133720E92DE86015C097FC2DC020ED280F2A3044
S113373088F496FE06C03AE0139F200D1124122F40
S113374019C08AE0589E200D1124522EE92DE06202
S11337509E2E10C08E3231F496FCE5C2F92DF06431
S11337609F2E08C08C3621F4292D2068922E02C089
S1133770883641F4F10193FD859193FF81911F01F6
S11337808111B3CF9BEB980F933020F4992D906166
S1133790805E07C09BE9980F933008F066C1992DAD
S11337A09F7E96FF16E09F73992E853619F49064D8
S11337B0992E08C0863621F4392F3068932E02C022
S11337C01111115097FE07C01C3350F44424439444
S11337D0410E27E00BC0183038F027E017E005C091
S11337E027E09CE3492E02C0212F412C560184E09E
S11337F0A80EB11CF6016081718182819381042D30
S1133800A3010E943D246C01F981FC87F0FF02C0F2
S1133810F3FF06C091FC06C092FE06C000E205C09C
S11338200DE203C00BE201C000E08C858C7019F03E
S113383001115AC29BC297FE10C04C0CFC85F4FFC8
S113384004C08A81813309F44A94141474F528E07D
S1133850241578F588E0482E2CC096FC2AC0812FC8
S113386090E08C159D059CF03CEFC3163FEFD3060A
S113387074F0892D8068982E0AC0E2E0F0E0EC0F25
S1133880FD1FE10FF11D8081803319F411501111D6
S1133890F4CF97FE0EC044244394410E812F90E050
S11338A0C816D9062CF41C1904C04424439401C03E
S11338B010E097FE06C01C141D0434F4C6010196E2
S11338C005C085E090E002C081E090E0011101961E
S11338D0112331F0212F30E02F5F3F4F820F931FD0
S11338E0252D30E08217930714F4581A01C0512C87
S11338F0892D897049F4552039F0B70180E290E0B0
S11339000E942B255A94F7CF002329F0B701802F6A
S113391090E00E942B2593FC09C0552039F0B70193
S113392080E390E00E942B255A94F7CF97FE4CC079
S11339304601D7FE02C0812C912CC6018819990931
S1133940F301E80FF91FFE87ED8796012419310969
S1133950388B2F87012F10E01195019511093FEF46
S11339608316930629F4B7018EE290E00E942B257A
S1133970C814D9044CF08F8598898815990524F4C6
S1133980ED85FE85818101C080E3F1E08F1A910805
S11339902D853E852F5F3F4F3E872D8780169106EC
S11339A02CF0B70190E00E942B25D9CFC814D9047C
S11339B041F49A81963320F4953319F43C8534FF0D
S11339C081E3B70190E04EC08A81813319F09C8570
S11339D09F7E9C87B70190E00E942B25111105C0A2
S11339E094FC18C085E690E017C0B7018EE290E021
S11339F00E942B251E5F82E001E0080FF301E80F0F
S1133A00F11D8081B70190E00E942B25802F0113C6
S1133A10F3CFE6CF85E490E0B7010E942B25D7FCD5
S1133A2006C0C114D10441F4EC85E4FF05C0D1946F
S1133A30C194D1088DE201C08BE2B70190E00E94ED
S1133A402B2580E32AE0C216D1042CF08F5FFAE024
S1133A50CF1AD108F7CFB70190E00E942B25B70108
S1133A60C601C0960E942B2554C1833631F083379A
S1133A7079F0833509F056C020C0560132E0A30E18
S1133A80B11CF6018081898301E010E0630112C05A
S1133A905601F2E0AF0EB11CF601C080D18096FE53
S1133AA003C0612F70E002C06FEF7FEFC6010E9478
S1133AB020258C01F92DFF7714C0560122E0A20EB7
S1133AC0B11CF601C080D18096FE03C0612F70E066
S1133AD002C06FEF7FEFC6010E9415258C01F92DFE
S1133AE0F0689F2EF3FD1AC0852D90E00817190782
S1133AF0A8F4B70180E290E00E942B255A94F4CFF9
S1133B00F60197FC859197FE81916F01B70190E0D2
S1133B100E942B2551105A940150110901151105C9
S1133B2079F7F7C0843611F0893661F5560197FEAE
S1133B3009C024E0A20EB11CF6016081718182816A
S1133B4093810AC0F2E0AF0EB11CF601608171816D
S1133B50072E000C880B990BF92DFF769F2E97FFEB
S1133B6009C090958095709561957F4F8F4F9F4FB9
S1133B70F0689F2E2AE030E0A3010E94AD25C82EF4
S1133B80C6183FC0092D853721F40F7E2AE030E0A6
S1133B901DC0097F8F3691F018F4883559F0C3C0E1
S1133BA0803719F0883711F0BEC0006104FF09C0E6
S1133BB0046007C094FE08C0066006C028E030E038
S1133BC005C020E130E002C020E132E0560107FFE9
S1133BD009C084E0A80EB11CF60160817181828164
S1133BE0938108C0F2E0AF0EB11CF60160817181CF
S1133BF080E090E0A3010E94AD25C82EC6180F777F
S1133C00902E96FE0BC0092D0E7FC11650F494FE23
S1133C100AC092FC08C0092D0E7E05C0DC2C092DBB
S1133C2003C0DC2C01C0D12E04FF0DC0FE01EC0D3D
S1133C30F11D8081803311F4097E09C002FF06C0A2
S1133C40D394D39404C0802F867809F0D39403FDD1
S1133C5011C000FF06C01C2DD51480F4150D1D19CC
S1133C600DC0D51458F4B70180E290E00E942B25D2
S1133C70D394F7CFD51410F45D1801C0512C04FF70
S1133C8010C0B70180E390E00E942B2502FF17C00B
S1133C9001FD03C088E790E002C088E590E0B70129
S1133CA00CC0802F867859F001FF02C08BE201C05E
S1133CB080E207FD8DE2B70190E00E942B25C1163A
S1133CC038F4B70180E390E00E942B251150F7CF20
S1133CD0CA94F301EC0DF11D8081B70190E00E94BC
S1133CE02B25C110F5CF15C0F4E0F51560F584E07F
S1133CF0581A93FE1FC0011127C02C8523FF2AC028
S1133D000CE011E0392D3071932EF801849181116A
S1133D1024C0552009F4E4CCB70180E290E00E946D
S1133D202B255A94F6CFF7018681978126C08FEF11
S1133D309FEF23C0B70180E290E00E942B255A94A4
S1133D405110F8CFD8CF512CB701802F90E00E94AA
S1133D502B25D3CF00E111E0D5CF91108052B701CC
S1133D6090E00E942B250F5F1F4FCFCF23E0251536
S1133D7010F483E0BDCF512CC0CF6096E2E10C94E7
S1133D8001235058BB27AA270E94D91E0C942A202D
S1133D900E941C2038F00E94232020F039F49F3F19
S1133DA019F426F40C9419200EF4E095E7FB0C9416
S1133DB01320E92F0E943B2058F3BA1762077307B8
S1133DC08407950720F079F4A6F50C945D200EF491
S1133DD0E0950B2EBA2FA02D0B01B90190010C0117
S1133DE0CA01A0011124FF27591B99F0593F50F42F
S1133DF0503E68F11A16F040A22F232F342F442787
S1133E00585FF3CF469537952795A795F04053957E
S1133E10C9F77EF41F16BA0B620B730B840BBAF04E
S1133E209150A1F0FF0FBB1F661F771F881FC2F7B9
S1133E300EC0BA0F621F731F841F48F487957795CD
S1133E406795B795F7959E3F08F0B0CF9395880F87
S1133E5008F09927EE0F9795879508950E94421FC1
S1133E600C942A200E94232058F00E941C2040F029
S1133E7029F45F3F29F00C94132051110C945E2017
S1133E800C9419200E943B2068F39923B1F3552325
S1133E9091F3951B550BBB27AA2762177307840759
S1133EA038F09F5F5F4F220F331F441FAA1FA9F3EF
S1133EB035D00E2E3AF0E0E832D091505040E695DD
S1133EC0001CCAF72BD0FE2F29D0660F771F881F3E
S1133ED0BB1F261737074807AB07B0E809F0BB0B31
S1133EE0802DBF01FF2793585F4F3AF09E3F510545
S1133EF078F00C9413200C945E205F3FE4F3983E1A
S1133F00D4F3869577956795B795F7959F5FC9F72D
S1133F10880F911D9695879597F90895E1E0660FAE
S1133F20771F881FBB1F621773078407BA0720F027
S1133F30621B730B840BBA0BEE1F88F7E095089590
S1133F400E94A71F6894B1110C945E2008950E94EA
S1133F50432088F09F5798F0B92F9927B751B0F0B4
S1133F60E1F0660F771F881F991F1AF0BA95C9F7F9
S1133F7014C0B13091F00E945D20B1E008950C941A
S1133F805D20672F782F8827B85F39F0B93FCCF3CD
S1133F90869577956795B395D9F73EF49095809576
S1133FA0709561957F4F8F4F9F4F0895E89409C096
S1133FB097FB3EF490958095709561957F4F8F4F58
S1133FC09F4F9923A9F0F92F96E9BB279395F6956E
S1133FD0879577956795B795F111F8CFFAF4BB0FEC
S1133FE011F460FF1BC06F5F7F4F8F4F9F4F16C050
S1133FF0882311F096E911C0772321F09EE8872FDA
S1134000762F05C0662371F096E8862F70E060E095
S11340102AF09A95660F771F881FDAF7880F96950E
S1134020879597F9089597F99F6780E870E060E0B5
S113403008959FEF80EC089500240A94161617063D
S113404018060906089500240A9412161306140685
S113405005060895092E0394000C11F4882352F0E8
S1134060BB0F40F4BF2B11F460FF04C06F5F7F4FA0
S11340708F4F9F4F089557FD9058440F551F59F087
S11340805F3F71F04795880F97FB991F61F09F3F41
S113409079F087950895121613061406551FF2CF6A
S11340A04695F1DF08C0161617061806991FF1CFBA
S11340B086957105610508940895E894BB276627E1
S11340C07727CB0197F908950E944320A8F19E57C2
S11340D0B0F1985160F039F1983070F5092E9927B4
S11340E0660F771F881F991F0A94D1F71CC0BB273E
S11340F0993F4CF4B111B1E0B62B672F782F882784
S1134100985FB1F708C0869577956795B79508F4D9
S1134110B1609395C1F7BB0F30F411F460FF03C095
S11341206F5F7F4F8F4F3EF49095809570956195AA
S11341307F4F8F4F9F4F089568940C945E200C948A
S11341405D200E94B4200C942A200E941C2038F088
S11341500E94232020F0952311F00C9413200C943A
S1134160192011240C945E200E943B2070F3959F2B
S1134170C1F3950F50E0551F629FF001729FBB275A
S1134180F00DB11D639FAA27F00DB11DAA1F649FF6
S11341906627B00DA11D661F829F2227B00DA11DA9
S11341A0621F739FB00DA11D621F839FA00D611D2F
S11341B0221F749F3327A00D611D231F849F600D50
S11341C0211D822F762F6A2F11249F5750409AF079
S11341D0F1F088234AF0EE0FFF1FBB1F661F771F05
S11341E0881F91505040A9F79E3F510580F00C94D0
S11341F013200C945E205F3FE4F3983ED4F386953D
S113420077956795B795F795E7959F5FC1F7FE2B6F
S1134210880F911D9695879597F90895FA01EE0FE9
S1134220FF1F309621053105A1F16115710561F477
S11342308038BFE39B0749F168949038810561F0A9
S11342408038BFEF9B0741F099234AF5FF3FE10512
S11342503105210519F1E8940894E795D901AA23B9
S113426029F4AB2FBE2FF85FD0F310C0FF5F70F4BA
S1134270A695E0F7F73950F019F0FF3A38F49F7734
S11342809F930DD00F9007FC9058089546F00C941E
S1134290192060E070E080E89FE308954FE79F777E
S11342A05F934F933F932F930E9409222F913F9145
S11342B04F915F910E94A1200C94662129F416F07D
S11342C00C9413200C945D200C9419200E9443201C
S11342D0A8F39638A0F707F80F92E8942BE33AEA8C
S11342E048EB5FE70E94B7200F920F920F924DB7F1
S11342F05EB70F920E945122EAE8F0E00E949821F2
S11343004F915F91EF91FF91E595EE1FFF1F49F0EB
S1134310FE57E0684427EE0F441FFA95E1F74195F4
S1134320550B0E94CB210F9007FE0C94BF210895DA
S1134330DF93CF931F930F93FF92EF92DF927B0152
S11343408C01689406C0DA2EEF010E94B420FE01AD
S1134350E894A5912591359145915591A6F3EF01E6
S11343600E94D91EFE019701A801DA9469F7DF9033
S1134370EF90FF900F911F91CF91DF9108959B01D2
S1134380AC0160E070E080E89FE30C942E1F0C9475
S113439013200C9485220E944320D8F39923C9F357
S11343A0940F511DA3F39150504094F059F0882379
S11343B032F0660F771F881F91505040C1F79E3F1F
S11343C051052CF7880F911D9695879597F90895B7
S11343D05F3FACF0983E9CF0BB2786957795679538
S11343E0B79508F4B1609395C1F7BB0F58F711F472
S11343F060FFE8CF6F5F7F4F8F4F9F4FE3CF0C94E9
S11344005E2016F00C9485220C94192068940C9468
S113441013200E944320A8F39923C1F3AEF3DF9342
S1134420CF931F930F93FF92C92FDD2788232AF080
S11344302197660F771F881FDAF720E030E040E805
S11344405FEB9FE3883920F0803E38F021968F7728
S11344500E94C21EE2EBF0E004C00E94C21EEFED17
S1134460F0E00E9498218B01BE01EC01FB2E6F57F6
S113447071097595771F880B990B0E94D81F28E145
S113448032E741E35FE30E94B420AF2D9801AE010F
S1134490FF900F911F91CF91DF910E94D91E0C9430
S11344A02A20FA01DC01AA0FBB1F9B01AC01BF57F4
S11344B028F4222733274427507820C0B75190F49A
S11344C0AB2F0024469537952795011CA395D2F36D
S11344D0002071F0220F331F441FB395DAF30ED07E
S11344E00C94C11E61307105A0E88A07B94630F406
S11344F09B01AC016627772788279078309621F0B6
S1134500208331834283538308959F3F31F0915038
S113451020F4879577956795B795880F911D9695A3
S1134520879597F90895DB018F939F930E94DA2270
S1134530BF91AF91A29F800D911DA39F900DB29F3B
S1134540900D11240895A1E21A2EAA1BBB1BFD0194
S11345500DC0AA1FBB1FEE1FFF1FA217B307E4075E
S1134560F50720F0A21BB30BE40BF50B661F771FB6
S1134570881F991F1A9469F7609570958095909596
S11345809B01AC01BD01CF010895EE0FFF1F059003
S1134590F491E02D0994A29FB001B39FC001A39FA1
S11345A0700D811D1124911DB29F700D811D112468
S11345B0911D08950E94CB22A59F900DB49F900D4C
S11345C0A49F800D911D112408952F923F924F9224
S11345D05F926F927F928F929F92AF92BF92CF928F
S11345E0DF92EF92FF920F931F93CF93DF93CDB798
S11345F0DEB7CA1BDB0B0FB6F894DEBF0FBECDBF10
S113460009942A88398848885F846E847D848C84E0
S11346109B84AA84B984C884DF80EE80FD800C81E9
S11346201B81AA81B981CE0FD11D0FB6F894DEBFCC
S11346300FBECDBFED0108950F931F93CF93DF936A
S11346408230910510F482E090E0E091E002F09174
S1134650E10220E030E0A0E0B0E0309719F14081C1
S113466051810281138148175907C8F084179507AF
S113467069F4109731F012960C93129713961C93C9
S113468027C00093E0021093E10222C021153105F6
S113469019F04217530718F49A01BD01EF01DF0125
S11346A0F801DBCF21153105F9F0281B390B243033
S11346B0310580F48A819B816115710521F0FB012C
S11346C09383828304C09093E1028093E002FE010D
S11346D0329644C0FE01E20FF31F8193919322505E
S11346E03109398328833AC02091DE023091DF02F8
S11346F0232B41F420911C0130911D013093DF02E2
S11347002093DE0220911A0130911B0121153105FD
S113471041F42DB73EB740911E0150911F01241B57
S1134720350BE091DE02F091DF02E217F307A0F40B
S11347302E1B3F0B2817390778F0AC014E5F5F4FF3
S11347402417350748F04E0F5F1F5093DF02409344
S1134750DE028193919302C0E0E0F0E0CF01DF91AB
S1134760CF911F910F910895CF93DF93009709F490
S113477081C0FC01329713821282A091E002B091B1
S1134780E102109781F420813181820F931F2091DF
S1134790DE023091DF022817390751F5F093DF026A
S11347A0E093DE0267C0ED0120E030E0CE17DF07C2
S11347B040F44A815B819E0141155105F1F0EA0103
S11347C0F5CFD383C28340815181840F951FC817CD
S11347D0D90759F488819981840F951F0296918392
S11347E080838A819B81938382832115310529F4F7
S11347F0F093E102E093E0023DC0E901FB83EA8328
S113480049915991C40FD51FEC17FD0761F48081BC
S11348109181840F951F0296E9019983888382818F
S113482093819B838A83E0E0F0E012968D919C91C2
S11348301397009719F0FD01DC01F7CF8D919C913E
S113484011979D012E5F3F4F820F931F2091DE022F
S11348503091DF022817390769F4309729F4109250
S1134860E1021092E00202C013821282B093DF02CE
S1134870A093DE02DF91CF910895283008F027E05D
S11348803327DA01990F311D87FD91600096610588
S1134890710539F432602E5F3D9330E32A95E1F7D8
S11348A008959F3F30F080387105610509F03C5F41
S11348B03C5F3D93913008F08068911DDF93CF9366
S11348C01F930F93FF92EF92192F987F9695E92FDC
S11348D096959695E90FFF27E259FE4F99273327BE
S11348E0EE24FF24A701E70105900894079428F417
S11348F0360FE71EF81E491F511D660F771F881FCC
S1134900991F0694A1F70590079428F4E70EF81E62
S1134910491F561FC11D770F881F991F661F0694D4
S1134920A1F70590079428F4F80E491F561FC71FD6
S1134930D11D880F991F661F771F0694A1F7059054
S1134940079420F4490F561FC71FD81F990F661FDD
S1134950771F881F0694A9F784911095177041F06A
S1134960D695C79557954795F794E7941A95C1F747
S1134970E4E1F1E068941590159135916591959174
S113498005907FE27395E118F10A430B560BC90BAE
S1134990D009C0F7E10CF11E431F561FC91FD01DDB
S11349A07EF4703311F48A95E6CFE894015030F028
S11349B0080F0AF40027021708F4202F2395022F6A
S11349C07A3328F079E37D932A95E9F710C07D9333
S11349D02A9589F6069497956795379517951794B0
S11349E0E118F10A430B560BC90BD00998F0239533
S11349F07E9173957A3308F070E37C932013B8F7B3
S1134A007E9170617D9330F0839571E37D9370E3C3
S1134A102A95E1F71124EF90FF900F911F91CF9108
S1134A20DF91992787FD90950895FC0105906150C9
S1134A3070400110D8F7809590958E0F9F1F0895B0
S1134A40FC016150704001900110D8F78095909559
S1134A508E0F9F1F08950F931F93CF93DF93FB0136
S1134A60238121FD03C08FEF9FEF2CC022FF16C0CE
S1134A7046815781248135814217530744F4A0812C
S1134A80B1819D012F5F3F4F318320838C93268119
S1134A9037812F5F3F4F3783268314C08B01EC018E
S1134AA0FB010084F185E02D0995892BE1F6D801FD
S1134AB016968D919C911797019617969C938E93B9
S1134AC01697CE01DF91CF911F910F910895A0E029
S1134AD0B0E0EDE6F5E20C94F522AE014B5F5F4FDA
S1134AE0FA0161917191AF018091E4029091E50224
S1134AF00E94441BE2E00C9411230F931F93CF9365
S1134B00DF93E091E402F091E502238121FF1BC0D1
S1134B108C01D0E0C0E0F80181918F016091E40242
S1134B207091E502DB011896ED91FC9119978823A9
S1134B3031F00995892B79F3DFEFCFEFECCF8AE0E1
S1134B400995892B19F08FEF9FEF02C08D2F9C2FB1
S1134B50DF91CF911F910F910895FA01AA27283070
S1134B6051F1203181F1E8946F936E7F6E5F7F4F36
S1134B708F4F9F4FAF4FB1E03ED0B4E03CD0670FB2
S1134B80781F891F9A1FA11D680F791F8A1F911D05
S1134B90A11D6A0F711D811D911DA11D20D009F455
S1134BA068943F912AE0269F11243019305D319397
S1134BB0DEF6CF010895462F4770405D4193B3E080
S1134BC00FD0C9F7F6CF462F4F70405D4A3318F027
S1134BD0495D31FD4052419302D0A9F7EACFB4E0D8
S1134BE0A6959795879577956795BA95C9F7009790
S1134BF06105710508959B01AC010A2E0694579531
S1134C00479537952795BA95C9F7620F731F841F87
S10D4C10951FA01D0895F894FFCF2E
S1134C1A020103030000000200000000BC0F0000B0
S1134C2A0000180C041060C080200000E802200074
S1134C3A4578706C6F72696E672E2E2E0049522069
S1134C4A41766F6964696E672100536F6E617220E1
S1134C5A41766F6964696E67210057616C6C2066DE
S1134C6A6F6C6C6F77696E672100466F6C6C6F7737
S1134C7A696E6721004C6967687420666F756E6493
S1134C8A2E00556E6B6E6F776E2073746174652196
S1134C9A006C6566743A20252E3032660A00726901
S1134CAA6768743A20252E3032660A0044697374A0
S1134CBA203D20252E33660A004572726F723A200F
S1134CCA2564004572726F723A20256C640053742D
S10D4CDA617274696E672E2E2E00BD
S9030000FC
