:100000000C9413030C9430030C9430030C943003C1
:100010000C94370B0C94600B0C94890B0C94B20B62
:100020000C9430030C94180A0C94410A0C946A0A3C
:100030000C94E50A0C94930A0C94BC0A0C940E0BD5
:100040000C949D090C94C6090C94EF090C94300390
:100050000C9430030C9430030C9430030C94300354
:100060000C9430030C9430030C9430030C94300344
:100070000C9430030C9430030C9430031314F113DC
:100080000414FE1301140714FB13F813076342361C
:10009000B79BD8A71A39685618AEBAAB558C1D3C19
:1000A000B7CC5763BD6DEDFD753EF6177231BF00DD
:1000B0000000803F08000000BE922449123EABAA17
:1000C000AA2ABECDCCCC4C3E00000080BEABAAAA72
:1000D000AA3E00000000BF000000803F00000000BA
:1000E00000084178D3BB4387D1133D190E3CC3BDF3
:1000F0004282AD2B3E68EC8276BED98FE1A93E4CA0
:1001000080EFFFBE01C4FF7F3F00000000006E6172
:100110006E00696E660000407A10F35A00A0724EBD
:1001200018090010A5D4E80000E87648170000E49C
:100130000B54020000CA9A3B000000E1F5050000E4
:1001400080969800000040420F000000A086010049
:100150000000102700000000E80300000000640019
:10016000000000000A000000000001000000000084
:100170002C76D888DC674F0823DFC1DFAE59E1B1A8
:10018000B796E5E3E453C63AE651997696E8E6C2B7
:100190008426EB898C9B62ED407C6FFCEFBC9C9FBE
:1001A00040F2BAA56FA5F490055A2AF75C936B6CE0
:1001B000F9676DC11BFCE0E40D47FEF520E6B500D4
:1001C000D0ED902E0300943577050080841E080042
:1001D00000204E0A000000C80C333333330F986EF2
:1001E00012831141EF8D2114893BE65516CFFEE6AF
:1001F000DB18D1844B381BF77C1D901DA4BBE42475
:10020000203284725E228100C9F124ECA1E53D27F1
:1002100016050100000000000000FA000000E000E8
:10022000E00028FE28FE282454FE5448C4C81026A6
:10023000466C92AA44A000A0C0000000384482008E
:10024000008244380028107C102810107C10100008
:100250000A0C000010101010100006060000040820
:100260001020407C8A92A27C0042FE020042868AD4
:1002700092628482A2D28C182848FE08E4A2A2A22C
:100280009C3C5292920C808E90A0C06C9292926C88
:100290006092929478006C6C0000006A6C00001010
:1002A00028448200282828282800824428104080DA
:1002B0008A90604C929E827C7E8888887EFE929294
:1002C000926C7C82828244FE82824438FE929292B8
:1002D00082FE909090807C8292925EFE101010FEC2
:1002E0000082FE8200040282FC80FE10284482FE0E
:1002F00002020202FE403040FEFE201008FE7C8218
:1003000082827CFE909090607C828A847AFE9098B3
:100310009462629292928C8080FE8080FC02020243
:10032000FCF8040204F8FC021C02FCC6281028C6D3
:10033000E0100E10E0868A92A2C200FE8282004087
:1003400020100804008282FE00204080402002022B
:100350000202020080402000042A2A2A1EFE1222E5
:10036000221C1C222222041C222212FE1C2A2A2ABF
:1003700018107E908040304A4A4A7CFE1020201E91
:100380000022BE0200040222BC00FE08142200006B
:1003900082FE02003E2018201E3E1020201E1C223D
:1003A00022221C3E28282810102828183E3E102003
:1003B0002010122A2A2A0420FC2202043C020204F1
:1003C0003E38040204383C020C023C221408142279
:1003D000300A0A0A3C22262A322200106C820000CF
:1003E00000FE000000826C100008101008100000D1
:1003F0000000007F8181817F7F8383837F7F878768
:10040000877F7F8F8F8F7F7F9F9F9F7F7FBFBFBFA4
:100410007F7FFFFFFF7F2040FF402062151715659B
:1004200000FBFB00000000000000C0FF0300E0FF35
:100430000700F0FF0F00F8FF1F0078001E00780093
:100440001E0078001E0078001E0078001E00780054
:100450001E0078001E0078001E0078001E000000BC
:1004600000000000000080FF0300E0FF0700F0FF35
:100470000F00F8FF1F00F83C1F00783C1E00783C7E
:100480001E00783C1E00783C1E00783C1E00783C24
:100490001E00783C1E00783C1E00783C1E00783C14
:1004A0001E000000000000000000E0FF0300F0FF5D
:1004B0000700F8FF0F00F8FF1F00783C1E00783C93
:1004C0001E00783C1E00783C1E00783C1E00783CE4
:1004D0001E00783C1E00783C1E00783C1E00783CD4
:1004E0001E000000000000000000F8FF0300F8FFFD
:1004F0000F00F8FF1F00F8FF1F0000001E000000A3
:100500001E0000801F0000F01F0000FF0F00E0FF32
:100510000700F0FF0000F80F0000F800000078006E
:10052000000078000000F8FF1F00F8FF1F00F0FF38
:100530001F00E0FF1F000000000000000000F8FFA7
:100540001F00F8FF1F00F8FF1F00F8FF1F007800D2
:100550001E00783C1E00783C1E00783C1E00783C53
:100560001E00783C1E00783C1E00F87E1F00F8FF3D
:100570001F00F0FF0F00E0E7030000000000000094
:100580003800EEFF6C002A8045003A0047FC03FF6C
:100590006CFC83FF3900DEFF0B7CD0810BFCD0812B
:1005A0000BC0D0810BFCD0810B7CDEFF0B0082FFE7
:1005B000397002FF6CF83A0047DC2A8045CCEEFF28
:1005C0006CCC000038000000000C00001E0C000085
:1005D0001E0000001E0000001E0000001E00F8FFAC
:1005E0001F00F8FF1F00F8FF1F00F8FF1F000000AA
:1005F0001E0000001E0000001E0000001E00000083
:100600005E000000400000007C0000004000000090
:10061000400000007C0000003000000010000000DE
:10062000300000007C0011241FBECFEFD8E0DEBFF9
:10063000CDBF11E0A0E0B1E0E6E4F1E402C0059036
:100640000D92AC3CB107D9F722E0ACECB1E001C0AF
:100650001D92A13DB207E1F70E94A7030C94A120CF
:100660000C9400008FE00E94F806882311F082E0CD
:1006700008950E949C0381E008958FE00E94050781
:10068000882319F420E030E013C080917A00806460
:1006900080937A0080917A0086FDFCCF30917800BB
:1006A00020917900922F80E0232F30E0282B392BE6
:1006B000C9010895ECE7F0E090818295880F880FDA
:1006C000807C9F73982B90830895582F8091000110
:1006D0008830D8F440917E0021E030E0B90102C0BA
:1006E000660F771F8A95E2F7CB018095842380936C
:1006F0007E0080917E00052E02C0220F331F0A94D7
:10070000E2F7822B80937E000DC020917E0081E075
:1007100090E0052E02C0880F991F0A94E2F7282B5B
:1007200020937E005093000180917C005F71807E59
:10073000852B80937C0008958FE180937C00EAE70D
:10074000F0E087E0808380818068808308950E9444
:100750009B090E948D090E94861580E090E0089513
:100760000F931F9385E00E9405078823C1F080E462
:1007700060E00E94C40400E0802F60E00E94580402
:1007800010E080E061E00E94C4041F5F1038C9F7E8
:100790000F5F043089F783E060E00E94B2041F918C
:1007A0000F9108950F931F9385E00E94F806882308
:1007B00011F082E07AC00E940F05182F0E941107E5
:1007C0001150123008F06DC08150823008F069C0BD
:1007D0000E94DF048EEA60E00E94C40482EA60E0C6
:1007E0000E94C40480EA60E00E94C40400E513ECA7
:1007F000C8010197F1F780EC60E00E94C4048FE229
:1008000060E00E94C40481E860E00E94C40486E1C4
:1008100060E00E94C40482E260E00E94C404C80157
:100820000197F1F78FEA60E00E94C40486EA60E075
:100830000E94C40485EA60E00E94C40480E090E065
:1008400028E833E1F9013197F1F7019643E0883E5A
:100850009407C1F783EB60E00E94C40480E460E089
:100860000E94C40483E060E00E94580483E060E0DA
:100870000E94B204109267021092690210926802FC
:1008800081E091E09093CE028093CD0288E10E94B6
:1008900091040E94B00384EA60E00E94C40481E0F5
:1008A00004C085E00E94E80687E01F910F9108953B
:1008B000FF920F931F93082FF62E85E00E940507E5
:1008C0008823A1F01F2D1F770370802F806B60E0BD
:1008D0000E94C40412951F70812F806160E00E9405
:1008E000C4048F2D8F7060E00E94C4041F910F918B
:1008F000FF9008950F931F93082F162F85E00E94F5
:100900000507882359F0812F153108F084E166E04E
:10091000869FB0011124802F0E94B2041F910F9175
:1009200008951F93182F85E00E9405078823C1F0C2
:1009300087E00E94510582E06AE00E94A20582E001
:1009400061EB0E94A205612F113208F060E282E0A3
:100950000E94A20589EE8A95F1F787E00E94510571
:100960001F9108950F931F93082F162F85E00E9463
:100970000507882331F003701F77109365020093F9
:1009800066021F910F9108950F931F93082F162F42
:1009900085E00E940507882379F0112319F01130B2
:1009A00021F402C02B9801C02B9A86E08A95F1F7BA
:1009B00080E0602F0E94A2051F910F910895239A55
:1009C000089586E00E94F806882311F082E00895D9
:1009D0000E94F80481E008951F93182F86E00E947A
:1009E0000507882319F0812F0E9401051F910895A2
:1009F000559A569A80E20E94990C80E40E94990CC4
:100A00000895282F85FF04C08BB190E289278BB908
:100A100026FF04C08BB190E489278BB9089582E04A
:100A20000E94F806882311F082E008950E94B10523
:100A300080E060E27DE00E94480581E068E17DE0C1
:100A40000E94480582E060E17DE00E94480586E062
:100A500068E27DE00E94480583E068E07DE00E9456
:100A6000480584E068E07DE00E94480585E068E094
:100A70007DE00E94480587E068E07DE00E9448052F
:100A80008FEF80936A0287E00E94510581E008950C
:100A9000E82FF0E0EE0FFF1FE45FFD4F71836083EE
:100AA00008951F93182F82E00E940507882309F4F8
:100AB00047C0912F977080916A02981709F440C03F
:100AC00090936A0285B1887F892B85B9933011F1A3
:100AD000943028F4913051F0923090F40CC095305D
:100AE00019F19530E0F0963021F50FC0E0910E023B
:100AF000F0910F0222C0E0910C02F0910D021DC096
:100B0000E0911002F091110218C0E0911802F091EA
:100B1000190213C0E0911202F09113020EC0E0918D
:100B20001402F091150209C0E0911602F09117022B
:100B300004C0E0911A02F0911B02309709F0099568
:100B40001F9108951F93162F0E94510582E00E9465
:100B50000507882321F01EBD0DB407FEFDCF1F91B0
:100B60000895259A2698279A209A219A229A0895DC
:100B700087E00E94F806882311F082E008950E9421
:100B8000DE0681E08093A10210926B0210926C024B
:100B900010926E0210926D021092700210926F020B
:100BA00010927202109271021092740210927302EB
:100BB00010927602109275021092780210927702CB
:100BC00010927A021092790210927C0210927B02AB
:100BD00010927E0210927D021092800210927F028B
:100BE000109282021092810210928402109283026B
:100BF0001092890210928A0210928B0210928C023B
:100C000010928E0210928F02109290021092910216
:100C100010929202109293021092940210929602F5
:100C200010929502109298021092970210929A02D6
:100C30001092990210929C0210929B0210928602CE
:100C40001092850210928802109287021092A002E0
:100C500010929F021092A10208952EEF8037920702
:100C600014F480E79EEFFC0181E0E139F80714F00D
:100C7000E0E9F1E09B018EEF6037780714F420E79C
:100C80003EEFA90121E04139520714F040E951E05B
:100C90008F2F881F8827881F252F221F2227221F7A
:100CA00091E09093A10280938E0220938F02CF0156
:100CB000F7FF03C0909581959F4F9A0157FF03C09E
:100CC000309521953F4F90936E0280936D02309343
:100CD000700220936F021092A102089521E02093E8
:100CE000A102AC0183E0493E580710F048EE53E002
:100CF0009B0183E0693E780710F028EE33E0F8941A
:100D000050937602409375023093780220937702D5
:100D100078941092A1020895482F81E08093A10257
:100D2000CB0121E06139720710F080E991E0413098
:100D300061F0413018F04230C9F40EC0F89490933D
:100D40006E0280936D02789411C0F89490937002B3
:100D500080936F0278940AC0F89490936E02809307
:100D60006D029093700280936F0278941092A102AA
:100D700008950F931F93182F062F662349F460E000
:100D800070E00E948C06812F60E070E00E94B00E3F
:100D900081E08093A102113051F0113018F012302F
:100DA00041F403C00093890204C0009389020093B8
:100DB0008A021092A1021F910F9108953A9A3B9ACC
:100DC0003C9A3D9A3E9A3F9A88B1837088B90895BB
:100DD000853160F4E82FF0E0E05BFD4F80818823EF
:100DE00029F0808181508083808108958FEF08955C
:100DF000853110F080E00895E82FF0E0E05BFD4FD2
:100E000080818F5F808381500895853110F080E06C
:100E10000895E82FF0E0E05BFD4F8081811181E0D3
:100E20000895DF93CF9300D00F92CDB7DEB781E066
:100E30000E94F806882311F082E011C00E940F057D
:100E40008150823040F40E945008CE0101960E94E9
:100E5000150F81E004C081E00E94E80687E00F9052
:100E60000F900F90CF91DF9108950F931F938230D1
:100E7000B1F0833028F4882341F08130F1F40AC0C6
:100E8000833091F08430C9F414C07093BB02609336
:100E9000BA0213C07093BD026093BC020EC070937F
:100EA000BF026093BE0209C07093C1026093C0028A
:100EB00004C07093C3026093C2026091BC0270913F
:100EC000BD024091BE025091BF022091C0023091FC
:100ED000C1020091C2021091C3028091BA029091A6
:100EE000BB020E9476071F910F9108954F925F9267
:100EF0006F927F928F929F92AF92BF92CF92DF922A
:100F0000EF92FF920F931F93CF93DF93EC017B013E
:100F10003A01290181E00E940507882309F4AFC046
:100F200087E00E94510589EE8A95F1F782E06AE038
:100F30000E94A20582E060EB0E94A2058090B002B0
:100F40009090B1028C169D0648F08091A602909177
:100F5000A7024E01C817D90708F44C01A090B202AD
:100F6000B090B302AE14BF0448F08091A8029091F3
:100F7000A9025701E816F90608F45C01C090B40212
:100F8000D090B502C614D70448F08091AA0290917F
:100F9000AB0263016816790608F46C01E090B602B2
:100FA000F090B702E414F50448F08091AC029091FF
:100FB000AD0272014816590608F47C01C091B802CE
:100FC000D091B902C017D10748F08091AE0290913C
:100FD000AF02E8010817190708F4EC019092BB0270
:100FE0008092BA02B092BD02A092BC02D092BF021F
:100FF000C092BE02F092C102E092C002D093C3023E
:10100000C093C20219EE812F8A95F1F782E0692D13
:101010000E94A20582E0682D0E94A205812F8A9578
:10102000F1F782E06B2D0E94A20582E06A2D0E94FA
:10103000A205812F8A95F1F782E06D2D0E94A2050D
:1010400082E06C2D0E94A205812F8A95F1F782E043
:101050006F2D0E94A20582E06E2D0E94A205812FB5
:101060008A95F1F782E06D2F0E94A20582E06C2F35
:101070000E94A2051A95F1F787E00E945105DF91C1
:10108000CF911F910F91FF90EF90DF90CF90BF9085
:10109000AF909F908F907F906F905F904F9008954A
:1010A0001092BB021092BA021092BD021092BC02C2
:1010B0001092BF021092BE021092C1021092C002A2
:1010C0001092C3021092C20280E991E09093A702AD
:1010D0008093A6029093A9028093A8029093AB02FA
:1010E0008093AA029093AD028093AC029093AF02DA
:1010F0008093AE0284E398E09093B1028093B002B3
:101100009093B3028093B2029093B5028093B4029D
:101110009093B7028093B6029093B9028093B8027D
:1011200008950F931F93DF93CF93CDB7DEB7299721
:101130000FB6F894DEBF0FBECDBF8C0188E00E94D1
:101140000507882311F491E00DC0CE01019661E0FE
:1011500040E098010E94BE08982F882319F48F81DF
:101160008823E9F3892F29960FB6F894DEBF0FBEC6
:10117000CDBFCF91DF911F910F910895EF92FF9214
:101180000F931F93CF93DF93EC01F62EE42E89018A
:1011900088E00E940507882311F481E026C084E0DE
:1011A00090E00E94B21DFC01009711F482E01DC086
:1011B000F982F0FC1E8281E0E81619F489818460CE
:1011C00089838981886089831B830A831D830C83BB
:1011D000D183C0831382128281E080932C02CF01DD
:1011E0000E94FC0810922C0280E0DF91CF911F91A9
:1011F0000F91FF90EF900895CF92DF92EF92FF92C0
:101200000F931F93CF93DF93EC018091C402882347
:1012100039F4D093C602C093C5020E948F0F47C015
:10122000C090C502D090C60200E010E0EE24FF247A
:1012300037C0A881B981FD0164817581F6014081C3
:101240005181FA01848195819B01281B390B37FF5D
:101250000FC0861B970B95838483DB82CA82012B88
:1012600029F4D093C602C093C50221C0F7010CC077
:10127000F601828193812115310549F4FD01158222
:1012800014829B838A83F601D383C28310C0FD013D
:10129000358324830097B9F30F5F1F4F76016C01EC
:1012A0008091C40290E00817190718F2ECCF8091E2
:1012B000C4028F5F8093C402DF91CF911F910F9181
:1012C000FF90EF90DF90CF9008958CE00E94F80699
:1012D000882311F082E008958BE00E94050788239F
:1012E000A1F40E94CB0E813081F480E00E94520F65
:1012F00088EE93E024EF31E0F9013197F1F701979F
:10130000D9F70E948A0981E008958CE00E94E806DE
:1013100087E008950B9A139808950E94FE0E0E948C
:10132000AA0C0E94DB0B0E94730F0E940F050E9403
:10133000110778940895000008951F920F920FB638
:101340000F9211242F933F934F935F936F937F934B
:101350008F939F93AF93BF93EF93FF93E091EC0133
:10136000F091ED01309709F00995FF91EF91BF9150
:10137000AF919F918F917F916F915F914F913F912D
:101380002F910F900FBE0F901F9018951F920F92E4
:101390000FB60F9211242F933F934F935F936F9348
:1013A0007F938F939F93AF93BF93EF93FF93E091BE
:1013B000EE01F091EF01309709F00995FF91EF915F
:1013C000BF91AF919F918F917F916F915F914F915D
:1013D0003F912F910F900FBE0F901F9018951F9265
:1013E0000F920FB60F9211242F933F934F935F9359
:1013F0006F937F938F939F93AF93BF93EF93FF93DD
:10140000E091F001F091F101309709F00995FF9119
:10141000EF91BF91AF919F918F917F916F915F916C
:101420004F913F912F910F900FBE0F901F901895E5
:101430001F920F920FB60F9211242F933F934F9349
:101440005F936F937F938F939F93AF93BF93EF932C
:10145000FF93E091DE01F091DF01309709F00995EB
:10146000FF91EF91BF91AF919F918F917F916F917C
:101470005F914F913F912F910F900FBE0F901F9052
:1014800018951F920F920FB60F9211242F933F932E
:101490004F935F936F937F938F939F93AF93BF937C
:1014A000EF93FF93E091E001F091E101309709F0B3
:1014B0000995FF91EF91BF91AF919F918F917F918E
:1014C0006F915F914F913F912F910F900FBE0F90B1
:1014D0001F9018951F920F920FB60F9211242F9301
:1014E0003F934F935F936F937F938F939F93AF93AC
:1014F000BF93EF93FF93E091E201F091E301309706
:1015000009F00995FF91EF91BF91AF919F918F9154
:101510007F916F915F914F913F912F910F900FBEEF
:101520000F901F9018951F920F920FB60F921124D3
:101530002F933F934F935F936F937F938F939F93DB
:10154000AF93BF93EF93FF93E091E601F091E70132
:10155000309709F00995FF91EF91BF91AF919F915D
:101560008F917F916F915F914F913F912F910F904C
:101570000FBE0F901F9018951F920F920FB60F92EB
:1015800011242F933F934F935F936F937F938F9388
:101590009F93AF93BF93EF93FF93E091E801F09196
:1015A000E901309709F00995FF91EF91BF91AF9153
:1015B0009F918F917F916F915F914F913F912F916B
:1015C0000F900FBE0F901F9018951F920F920FB69D
:1015D0000F9211242F933F934F935F936F937F93B9
:1015E0008F939F93AF93BF93EF93FF93E091E401A9
:1015F000F091E501309709F00995FF91EF91BF91C6
:10160000AF919F918F917F916F915F914F913F919A
:101610002F910F900FBE0F901F9018951F920F9251
:101620000FB60F9211242F933F934F935F936F93B5
:101630007F938F939F93AF93BF93EF93FF93E0912B
:10164000EA01F091EB01309709F00995FF91EF91D4
:10165000BF91AF919F918F917F916F915F914F91CA
:101660003F912F910F900FBE0F901F9018951F92D2
:101670000F920FB60F9211242F933F934F935F93C6
:101680006F937F938F939F93AF93BF93EF93FF934A
:10169000E091D401F091D501309709F00995FF91BF
:1016A000EF91BF91AF919F918F917F916F915F91DA
:1016B0004F913F912F910F900FBE0F901F90189553
:1016C0001F920F920FB60F9211242F933F934F93B7
:1016D0005F936F937F938F939F93AF93BF93EF939A
:1016E000FF93E091D601F091D701309709F0099569
:1016F000FF91EF91BF91AF919F918F917F916F91EA
:101700005F914F913F912F910F900FBE0F901F90BF
:1017100018951F920F920FB60F9211242F933F939B
:101720004F935F936F937F938F939F93AF93BF93E9
:10173000EF93FF93E091D801F091D901309709F030
:101740000995FF91EF91BF91AF919F918F917F91FB
:101750006F915F914F913F912F910F900FBE0F901E
:101760001F9018951F920F920FB60F9211242F936E
:101770003F934F935F936F937F938F939F93AF9319
:10178000BF93EF93FF93E091DA01F091DB01309783
:1017900009F00995FF91EF91BF91AF919F918F91C2
:1017A0007F916F915F914F913F912F910F900FBE5D
:1017B0000F901F90189580E10E94F806882311F081
:1017C00082E00895ECECF1E01192119282E0EC30AD
:1017D000F807D1F781E00895FF920F931F93CF93FD
:1017E000DF93F82E8AE0F816B1F08F1548F0E8E0A4
:1017F000FE16B9F1EF1538F1F7E0FF1651F43BC0D2
:101800008DE0F81659F0EBE1FE1689F0FCE0FF16CA
:1018100041F001E041C01092650203C010926502E0
:101820003AC08091660281508093660234C00E9463
:10183000B00314C080E061E00E94C404809165029E
:101840008F5F809365028091650287FFF3CF1092CE
:1018500065028091660281508093660200E011E08B
:101860001CC0809165028823B1F08091650286508A
:101870008093650210C081E00E94020E64EF71E067
:1018800080E090E04DE750E024E630E00E940E0E4C
:1018900081E00E94690D00E010E080916602609195
:1018A00065020E945804002351F185E0F89EC001B2
:1018B0001124EC01CD58DE4F8C0108581E4FFE015B
:1018C000849161E00E94C4042196C017D107B9F742
:1018D00080E061E00E94C404809165028A5F809389
:1018E00065028091650290E08C3791053CF0109282
:1018F00065028091660281508093660211E08091BA
:101900006602837080936602113059F480916702F9
:10191000813039F4E0916802F0916902309709F062
:10192000099580E090E0DF91CF911F910F91FF909A
:1019300008951F93182F86E00E940507882319F049
:10194000812F0E94A50C1F91089585FD5D9886FD4D
:101950005E980895F8940E94050D81E00E94B20CF3
:1019600081E00895813049F0F894813020F182308F
:10197000B1F0833009F045C017C02C9A80E88093FD
:1019800061001092610080E090E0000001968832D2
:101990009105D9F71092680010926B00089580E8C5
:1019A0008093610083E004C080E88093610088E058
:1019B0008093610028C080E090E0000001962DE651
:1019C00080369207D1F72C9880E090E000000196D5
:1019D0002DE680369207D1F710927A008FEF809330
:1019E00064008091680081608093680080916B0042
:1019F000846080936B00789483B7816083BF8895FF
:101A00000895823008F078940895249A2C9A0895C5
:101A100083E58CBD81E08DBD8DE08A95F1F7089559
:101A200083E58CBD1DBC84EF91E00197F1F708952B
:101A30008FE78CBD1DBC84EF91E00197F1F708950D
:101A400083E58CBD81E08DBD8DE08A95F1F7089529
:101A500083E58CBD81E08DBD84EF91E00197F1F7C6
:101A600008951F93162F0E94510582E00E940507DA
:101A7000882329F01EBD0DB407FEFDCF8EB51F9142
:101A800008958AE00E94E806882329F481E00E94F4
:101A9000640E10921D02089589E00E94E8068823D2
:101AA000B9F480911C02882311F00E94AA0E82E0F2
:101AB0000E94640E80912A0290912B02009731F0CF
:101AC0000E944A1E10922B0210922A0210921C02AF
:101AD0000895813029F0823029F40E944C0D089538
:101AE0000E94410D08950F931F93CF93DF9380E2DF
:101AF00091E00E94B21D9C0190932B0280932A02D8
:101B0000892B11F480E039C08901C0E0D0E0BE012A
:101B100080E090E00E946C1A20E030E040EA51E45E
:101B20000E94C41927EF35E740E05FE30E94371BAE
:101B30009B01AC0160E070E080E291E40E94A41B94
:101B40009B01AC01CA01B9012DEC3CEC42E851E427
:101B50000E94371B0E94FA1A2AE030E040E050E071
:101B60000E94291DF80161937193819391938F01D4
:101B70002196C834D10559F681E0DF91CF911F91AC
:101B80000F9108958AE00E94F806882311F082E000
:101B90000895109227021092260281E00E94800E82
:101BA00081E080931D0208951F9389E00E94F8064A
:101BB000882311F082E024C08BE00E94050788236F
:101BC000D9F40E94730D182F813011F086E018C0EF
:101BD00010921E0210921F021092200210922102F7
:101BE0008DE067EC7FE00E94A20F82E00E94800EF1
:101BF00010931C0281E004C089E00E94E80687E09F
:101C00001F910895813021F0823029F084E00895F9
:101C10000E94C20D08950E94D40D08956F927F9284
:101C20008F929F92AF92BF92CF92DF92EF92FF92EC
:101C30000F931F93CF93DF933B014C015A01E901AE
:101C40008AE00E940507882381F1209741F19501E0
:101C5000442737FD4095542FBE01C536D10510F0FD
:101C600064E670E080E090E00E94291D24E630E008
:101C700040E050E00E94391D79018A01C401B3019E
:101C80000E94CA0FC7010E94910860E070E080E0E6
:101C900090E00E94CA0FC5018E199F0904C0A114CB
:101CA000B10419F0C5010E949108DF91CF911F91F5
:101CB0000F91FF90EF90DF90CF90BF90AF909F90EB
:101CC0008F907F906F900895823029F480918100E9
:101CD0008E7F8093810080911C02813031F480914D
:101CE0001D02813011F40000089580911C028130A2
:101CF00021F080911D02813011F45F98579808956A
:101D0000982F80911C02882331F480911D02882332
:101D100011F4579A5F9880911C028823D1F4923075
:101D2000C1F410928000109281008091810088603F
:101D30008093810080918100816080938100109266
:101D400085001092840081E08093890080E980936F
:101D500088000895EFE6F0E080818D7F808308950C
:101D6000982F81E08093A102913071F0913018F0AA
:101D7000923071F405C070937E0260937D0208C0BA
:101D800070937E0260937D027093800260937F0265
:101D90001092A10208958BE00E94F806882311F0AA
:101DA00082E0089589E00E940507882369F4109273
:101DB000A5021092A4028DE06FE270E10E94A20FD2
:101DC0000E94E90E81E008958BE00E94E80682E01F
:101DD000089510928000E1E8F0E010828081886030
:101DE00080838081816080831092850010928400BE
:101DF0001092890088EC809388000895CF93DF9338
:101E0000C0E0D0E08C2F60E00E940D0F2196C5311C
:101E1000D105C1F7DF91CF910895853128F4E82FDE
:101E2000F0E0E05BFD4F608308951F93CF93DF9355
:101E3000EC01009799F181E00E940507882351F198
:101E400087E00E94510518EC812F8A95F1F782E016
:101E50006AE00E94A20582E064EB0E94A205812F45
:101E60008A95F1F782E060E00E94310D8883812F2E
:101E70008A95F1F782E060E00E94310D89831A951E
:101E8000F1F782E060E00E94310D8A8387E00E94D2
:101E9000510504C0188219828DE28A83DF91CF91A7
:101EA0001F9108951F93182F81E00E940507882332
:101EB000C1F087E00E94510588EC8A95F1F782E035
:101EC0006AE00E94A20582E065EB0E94A20582E022
:101ED000612F0E94A20589EE8A95F1F787E00E94A2
:101EE00051051F91089588E00E94F806882311F09B
:101EF00082E008951092C4021092C6021092C502A8
:101F000010922C0210922D0280E162E370E10E9497
:101F1000B60F0E94930F0E949C0F81E0089581E00C
:101F200080932D02089584B5826084BD85B5846058
:101F300085BD8EE487BD0895EEE6F0E08081826085
:101F400080830895E82F803268F48051833050F008
:101F5000F0E0EE0FFF1FE453FE4F208131817183CB
:101F6000608302C020E030E0C9010895803218F09B
:101F700020E030E00AC0E82FF0E0EE0FFF1FE4534E
:101F8000FE4F2081318171836083C90108950E94D1
:101F9000EE0F0895EF92FF920F931F937B018C0138
:101FA0008AE00E9405078823A1F080911D02882302
:101FB00081F0D801C701880F991FAA1FBB1F9093FA
:101FC000290280932802E114F1040105110509F4A6
:101FD0005F981F910F91FF90EF90089580911E02DE
:101FE00090911F02A0912002B09121022091220223
:101FF000309123024091240250912502280F391F6D
:102000004A1F5B1F20931E0230931F024093200241
:102010005093210280911E0290911F02A0912002F4
:10202000B09121028851964FA040B040BCF08BB1D6
:1020300080588BB980911E0290911F02A0912002BE
:10204000B09121028851964FA040B04080931E026B
:1020500090931F02A0932002B093210208950E9442
:10206000521008950E9439100E9485100E945E103F
:10207000089588E00E940507882311F484E00895FC
:1020800080912D02882311F483E0089580912C0221
:10209000882311F082E008950E94D2128130E1F38A
:1020A00080E00895CF93DF93C4EAD2E088819981DC
:1020B000019688839983DF91CF91089580911D02C5
:1020C000813011F5809126029091270220912802FB
:1020D00030912902280F391F3093270220932602BE
:1020E0008091260290912702885E93406CF08BB11C
:1020F00080588BB98091260290912702885E934088
:102100009093270280932602089587E00E94050796
:10211000882309F4AAC08091750290917602892BD8
:1021200009F18091990290919A0220917502309163
:102130007602820F931F90939A0280939902809166
:10214000990290919A02885E9340A4F0809199023E
:1021500090919A02885E934090939A02809399029C
:1021600041E009C080916D0290916E0290937202DD
:102170008093710240E08091770290917802892BE0
:1021800009F180919B0290919C02209177023091FD
:102190007802820F931F90939C0280939B02809100
:1021A0009B0290919C02885E9340A4F080919B02D8
:1021B00090919C02885E934090939C0280939B0236
:1021C00061E009C080916F02909170029093740257
:1021D0008093730260E0842F0E94361180919502F3
:1021E000909196022091710230917202280F391F4E
:1021F00030939602209395028091950290919602D9
:10220000885E934014F440E00BC080919502909159
:102210009602885E9340909396028093950241E0E7
:1022200080919702909198022091730230917402EC
:10223000280F391F309398022093970280919702BC
:1022400090919802885E934014F460E00BC08091F6
:10225000970290919802885E9340909398028093A1
:10226000970261E0842F0E947B1108958823F1F08A
:1022700020916D0230916E028091710290917202F4
:10228000281B390B1216130634F4809171029091B9
:102290007202019607C0232B49F080917102909140
:1022A000720201979093720280937102662311F17A
:1022B00020916F02309170028091730290917402AC
:1022C000281B390B1216130654F480917302909157
:1022D0007402019690937402809373020895232BE5
:1022E00049F0809173029091740201979093740267
:1022F0008093730208950F931F93182F062F8091D8
:10230000A102882309F0E7C080918902882309F09F
:102310005AC08091710290917202892BE9F48091E8
:102320002E02837E80932E021092920280919D0253
:10233000882309F45DC060918B0280E00E94B90699
:10234000E0919F02F091A002309709F451C081E022
:10235000808310929D024CC080916B02813041F4C9
:1023600080917D0290917E02019711F411E002C0EC
:102370001123F1F1E0919002F0E0E15FFE4F9091C6
:102380002E02937E8081892B80932E0280918E0273
:10239000882321F4809190028F5F03C08091900286
:1023A000815080939002809190028370809390027C
:1023B00081E08093920280916B028130C9F480E0C9
:1023C0000E947E1215C090912E02937E90932E0251
:1023D000E0919002F0E0E15FFE4F8081892B8093D5
:1023E0002E0282E080939202109272021092710289
:1023F00080918A02882309F059C0809173029091DC
:102400007402892BE9F480912E028F7180932E0241
:102410001092930280919E02882309F45CC060911F
:102420008C0281E00E94B906E0919F02F091A00227
:10243000309709F450C081E0818310929E024BC016
:1024400080916C02813041F480917F0290918002F2
:10245000019711F401E002C00023E9F1E09191023B
:10246000F0E0ED5EFE4F90912E029F718081892BEE
:1024700080932E0280918F02882321F48091910213
:102480008F5F03C08091910281508093910280916F
:10249000910283708093910281E0809393028091F6
:1024A0006C028130C1F40E947E1215C090912E0200
:1024B0009F7190932E02E0919102F0E0ED5EFE4F4D
:1024C0008081892B80932E0282E080939302109268
:1024D00074021092730280919402882331F48EE288
:1024E00092E0612F402F0E94401388B18370909139
:1024F0002E02892B88B91F910F910895882321F00E
:10250000813009F04EC027C080917D0290917E02FB
:10251000892B49F080917D0290917E0201979093E2
:102520007E0280937D0280919D028823D1F52091C7
:102530007D0230917E028091810290918202281763
:10254000390779F580E060E070E00E948C0681E058
:1025500080939D02089580917F0290918002892B43
:1025600049F080917F0290918002019790938002C0
:1025700080937F0280919E02882399F420917F02AC
:10258000309180028091830290918402281739074C
:1025900041F481E060E070E00E948C0681E080936D
:1025A0009E020895FF920F931F93CF93DF93809124
:1025B000C402882309F459C00091C5021091C602D3
:1025C000F801C081D1818C819D8101979D838C838D
:1025D000181619060CF449C0898180FF05C08E8148
:1025E000882311F481E08E83898181FF03C0EF810C
:1025F000F88509958091C4028230A8F0F8018281A3
:1026000093819093C6028093C50213821282E09157
:102610000000F091010084819581181619063CF0A4
:10262000FF24F39405C01092C6021092C502FF2445
:102630008091C40281508093C4028091C402882397
:1026400011F40E943D13898182FF08C08A819B8119
:102650009D838C83C8010E94FC0808C0C8010E94A9
:102660004A1E89818F7E898301C0FF248F2DDF91CF
:10267000CF911F910F91FF90089510922D02089510
:10268000FC0180919202823069F48091320291E0E3
:10269000892780933202882309F03EC08081837E9F
:1026A00080833AC08091710290917202C397A4F521
:1026B0006623D1F0209171023091720280E690E0A1
:1026C000BC01269FC001279F900D369F900D1124BD
:1026D000880F892F881F990B90938602809385021B
:1026E00081E08093300218C0809130028823A1F0ED
:1026F0008091850290918602019790938602809343
:1027000085028091850290918602892B29F480812F
:10271000837E80831092300280919302823069F42C
:102720008091310291E0892780933102882309F05A
:102730003EC080818F718083089580917302909153
:102740007402C397A4F54423D1F020917302309111
:10275000740280E690E0AC01249FC001259F900D9B
:10276000349F900D1124880F892F881F990B909307
:1027700088028093870281E080932F0208958091E0
:102780002F028823A1F080918702909188020197FF
:1027900090938802809387028091870290918802AB
:1027A000892B29F480818F71808310922F020895E4
:1027B000CF93DF93FC01308120914602321303C096
:1027C0002081211133C0EC010E94B003E8814E2F1B
:1027D00050E04830510518F5FA01E25CFF4F0C94C7
:1027E0005B1D60E083E00E947A048DE191E019C0F6
:1027F0008AE291E016C087E391E013C087E491E09C
:1028000010C087E591E00DC08CE591E00AC087E635
:1028100091E09F938F930E94FD1F0F900F9084E78C
:1028200091E00E941320888180934602DF91CF912E
:102830000895DC01FB019C918081981325C01196BD
:102840002D913C9112978181928128173907E1F4EB
:1028500013962D913C911497838194812817390701
:1028600099F415962D913C9116978581968128179C
:10287000390751F417964D915C911897278130854F
:1028800081E04217530709F080E00895CF93DF936A
:10289000EC019B018091450281110AC041E061E099
:1028A0008CE392E00E94BE0881E08093450241C023
:1028B000809142028823E9F180E40E94EC0484E0E4
:1028C0000E9465030E943D03BC0180E090E00E94ED
:1028D0006C1A20E030E040EA50E40E94371B20E010
:1028E00030E040E85AE30E94371B6DA37EA38FA31C
:1028F00098A782E390E00E94910885E00E9465031A
:102900000E943D03BC0180E090E00E946C1A20E030
:1029100030E040EA50E40E94371B20E030E040E81D
:102920005AE30E94371B69A37AA38BA39CA310923E
:102930004202DF91CF910895CF92DF92EF92FF9202
:102940000F931F93CF93DF938C01EB0184E0D801A9
:102950008C9360E082E00E947A0489A19AA1ABA1E5
:10296000BCA1BF93AF939F938F9383E891E09F9314
:102970008F930E94FD1F60E081E00E947A048DA188
:102980009EA1AFA1B8A5BF93AF939F938F9380E90A
:1029900091E09F938F930E94FD1F6DA17EA18FA157
:1029A00098A5C9A0DAA0EBA0FCA02DEC3CEC4CEC67
:1029B0005DE30E9457190E94361A69A77AA78BA770
:1029C0009CA72DEC3CEC4CEC5DE3C701B6010E94EA
:1029D00057190E94361A6DA77EA78FA798AB89A5B5
:1029E0009AA5ABA5BCA549A95AA96BA97CA9841B2A
:1029F000950BA60BB70B89AF9AAFABAFBCAF8DA54C
:102A00009EA5AFA5B8A94DA95EA96FA978AD841BF5
:102A1000950BA60BB70BFE01FD9680839183A283D5
:102A2000B38389A59AA5ABA5BCA5C9ACDAACEBACC0
:102A3000FCAC32E3389FA001399F500D112424E1F2
:102A40002C9DC0012D9D900D1124840F951F49963A
:102A5000D80114969C938E9313978DA59EA5AFA530
:102A6000B8A9C080D180E280F380389FA001399F4F
:102A7000500D11242C9DC0012D9D900D1124840F0B
:102A8000951F4996F8019283818389A59AA5ABA5E4
:102A9000BCA589AB9AABABABBCAB8DA59EA5AFA5D6
:102AA000B8A98DAB9EABAFABB8AF8DB79EB70C9648
:102AB0000FB6F8949EBF0FBE8DBFDF91CF911F91CF
:102AC0000F91FF90EF90DF90CF900895CF93DF9319
:102AD000EC0163E372E00E941914811114C06F814C
:102AE00078858D819E810E946E066B817C818981B3
:102AF0009A810E942D0689E0FE01A3E3B2E00190D5
:102B00000D928A95E1F7DF91CF910895CF93DF93EE
:102B1000CDB7DEB7C154D1090FB6F894DEBF0FBEF2
:102B2000CDBF0E94320381E00E945A030E94E1045B
:102B30000E94D2030E9411070E9465090E94B805F5
:102B40006EEF71E080E00E9435071092490210920A
:102B5000480210924B0210924A0210924D021092BB
:102B60004C0210924F0210924E021092470280ECDB
:102B700091E00E94132088EB9BE00E9491080E9444
:102B8000B00362E370E0CE0101960E944614BE01DC
:102B90006F5F7F4F87E492E00E949C1487E492E08D
:102BA0000E946615BE016F5F7F4F87E492E00E942E
:102BB000D813E7CFA0E1B0E0E0EEF5E10C947B1D87
:102BC0007C011B016A01FC0117821682838181FF4F
:102BD00044C39E012F5F3F4F3901F7019381F101FB
:102BE00093FD859193FF81911F01882309F431C3DF
:102BF000853239F493FD859193FF81911F018532D0
:102C000039F4B70190E00E94C11F56016501E5CF7C
:102C100010E0512C912CFFE1F915D8F08B3279F0AE
:102C200038F4803279F08332A1F4F92DF0612EC0AE
:102C30008D3261F0803369F4292D21602DC0392D4A
:102C40003260932E892D8460982E2AC0E92DE86089
:102C500015C097FC2DC020ED280F2A3088F496FE71
:102C600006C03AE0139F200D1124122F19C08AE0EC
:102C7000589E200D1124522EE92DE0629E2E10C088
:102C80008E3231F496FCE5C2F92DF0649F2E08C017
:102C90008C3621F4292D2068922E02C0883641F40A
:102CA000F10193FD859193FF81911F018111B3CFB4
:102CB0009BEB980F933020F4992D9061805E07C0B4
:102CC0009BE9980F933008F066C1992D9F7E96FF7F
:102CD00016E09F73992E853619F49064992E08C0DA
:102CE000863621F4392F3068932E02C0111111500D
:102CF00097FE07C01C3350F444244394410E27E050
:102D00000BC0183038F027E017E005C027E09CE33F
:102D1000492E02C0212F412C560184E0A80EB11C7F
:102D2000F6016081718182819381042DA3010E944B
:102D3000D31E6C01F981FC87F0FF02C0F3FF06C0CF
:102D400091FC06C092FE06C000E205C00DE203C081
:102D50000BE201C000E08C858C7019F001115AC2A1
:102D60009BC297FE10C04C0CFC85F4FF04C08A8106
:102D7000813309F44A94141474F528E0241578F585
:102D800088E0482E2CC096FC2AC0812F90E08C153C
:102D90009D059CF03CEFC3163FEFD30674F0892DE0
:102DA0008068982E0AC0E2E0F0E0EC0FFD1FE10F12
:102DB000F11D8081803319F411501111F4CF97FE69
:102DC0000EC044244394410E812F90E0C816D906CA
:102DD0002CF41C1904C04424439401C010E097FE55
:102DE00006C01C141D0434F4C601019605C085E01C
:102DF00090E002C081E090E001110196112331F0D2
:102E0000212F30E02F5F3F4F820F931F252D30E0A1
:102E10008217930714F4581A01C0512C892D897018
:102E200049F4552039F0B70180E290E00E94C11FBB
:102E30005A94F7CF002329F0B701802F90E00E9429
:102E4000C11F93FC09C0552039F0B70180E390E021
:102E50000E94C11F5A94F7CF97FE4CC04601D7FE7F
:102E600002C0812C912CC60188199909F301E80F41
:102E7000F91FFE87ED87960124193109388B2F87BA
:102E8000012F10E01195019511093FEF831693066C
:102E900029F4B7018EE290E00E94C11FC814D90442
:102EA0004CF08F8598898815990524F4ED85FE8569
:102EB000818101C080E3F1E08F1A91082D853E8564
:102EC0002F5F3F4F3E872D87801691062CF0B7016C
:102ED00090E00E94C11FD9CFC814D90441F49A814F
:102EE000963320F4953319F43C8534FF81E3B70120
:102EF00090E04EC08A81813319F09C859F7E9C872B
:102F0000B70190E00E94C11F111105C094FC18C0C8
:102F100085E690E017C0B7018EE290E00E94C11FE5
:102F20001E5F82E001E0080FF301E80FF11D8081D0
:102F3000B70190E00E94C11F802F0113F3CFE6CFAD
:102F400085E490E0B7010E94C11FD7FC06C0C11400
:102F5000D10441F4EC85E4FF05C0D194C194D108BB
:102F60008DE201C08BE2B70190E00E94C11F80E3B7
:102F70002AE0C216D1042CF08F5FFAE0CF1AD108F4
:102F8000F7CFB70190E00E94C11FB701C601C096FC
:102F90000E94C11F54C1833631F0833779F08335E5
:102FA00009F056C020C0560132E0A30EB11CF60154
:102FB0008081898301E010E0630112C05601F2E0D4
:102FC000AF0EB11CF601C080D18096FE03C0612F08
:102FD00070E002C06FEF7FEFC6010E94B61F8C0148
:102FE000F92DFF7714C0560122E0A20EB11CF601A4
:102FF000C080D18096FE03C0612F70E002C06FEFE9
:103000007FEFC6010E94AB1F8C01F92DF0689F2E47
:10301000F3FD1AC0852D90E008171907A8F4B70131
:1030200080E290E00E94C11F5A94F4CFF60197FC11
:10303000859197FE81916F01B70190E00E94C11FB9
:1030400051105A94015011090115110579F7F7C073
:10305000843611F0893661F5560197FE09C024E0E7
:10306000A20EB11CF60160817181828193810AC038
:10307000F2E0AF0EB11CF60160817181072E000CE9
:10308000880B990BF92DFF769F2E97FF09C090951D
:103090008095709561957F4F8F4F9F4FF0689F2E61
:1030A0002AE030E0A3010E944320C82EC6183FC08A
:1030B000092D853721F40F7E2AE030E01DC0097FFD
:1030C0008F3691F018F4883559F0C3C0803719F065
:1030D000883711F0BEC0006104FF09C0046007C05A
:1030E00094FE08C0066006C028E030E005C020E17C
:1030F00030E002C020E132E0560107FF09C084E061
:10310000A80EB11CF601608171818281938108C093
:10311000F2E0AF0EB11CF6016081718180E090E0B9
:10312000A3010E944320C82EC6180F77902E96FE4A
:103130000BC0092D0E7FC11650F494FE0AC092FCFC
:1031400008C0092D0E7E05C0DC2C092D03C0DC2C27
:1031500001C0D12E04FF0DC0FE01EC0DF11D8081D8
:10316000803311F4097E09C002FF06C0D394D394C2
:1031700004C0802F867809F0D39403FD11C000FFAE
:1031800006C01C2DD51480F4150D1D190DC0D514C5
:1031900058F4B70180E290E00E94C11FD394F7CFAA
:1031A000D51410F45D1801C0512C04FF10C0B701F4
:1031B00080E390E00E94C11F02FF17C001FD03C021
:1031C00088E790E002C088E590E0B7010CC0802F4E
:1031D000867859F001FF02C08BE201C080E207FD52
:1031E0008DE2B70190E00E94C11FC11638F4B7010B
:1031F00080E390E00E94C11F1150F7CFCA94F30101
:10320000EC0DF11D8081B70190E00E94C11FC1103B
:10321000F5CF15C0F4E0F51560F584E0581A93FE7B
:103220001FC0011127C02C8523FF2AC00EE011E02A
:10323000392D3071932EF8018491811124C05520CD
:1032400009F4E4CCB70180E290E00E94C11F5A94D7
:10325000F6CFF7018681978126C08FEF9FEF23C0BD
:10326000B70180E290E00E94C11F5A945110F8CF3C
:10327000D8CF512CB701802F90E00E94C11FD3CF2F
:1032800002E111E0D5CF91108052B70190E00E9489
:10329000C11F0F5F1F4FCFCF23E0251510F483E030
:1032A000BDCF512CC0CF6096E2E10C94971D5058D1
:1032B000BB27AA270E946F190C94C01A0E94B21A49
:1032C00038F00E94B91A20F039F49F3F19F426F41F
:1032D0000C94AF1A0EF4E095E7FB0C94A91AE92FB1
:1032E0000E94D11A58F3BA1762077307840795072B
:1032F00020F079F4A6F50C94F31A0EF4E0950B2E59
:10330000BA2FA02D0B01B90190010C01CA01A00137
:103310001124FF27591B99F0593F50F4503E68F192
:103320001A16F040A22F232F342F4427585FF3CFD3
:10333000469537952795A795F0405395C9F77EF4A4
:103340001F16BA0B620B730B840BBAF09150A1F0ED
:10335000FF0FBB1F661F771F881FC2F70EC0BA0F73
:10336000621F731F841F48F4879577956795B795FB
:10337000F7959E3F08F0B0CF9395880F08F09927F6
:10338000EE0F9795879508950E94D8190C94C01A4E
:103390000E94B91A58F00E94B21A40F029F45F3F17
:1033A00029F00C94A91A51110C94F41A0C94AF1A28
:1033B0000E94D11A68F39923B1F3552391F3951B19
:1033C000550BBB27AA2762177307840738F09F5F46
:1033D0005F4F220F331F441FAA1FA9F335D00E2EB3
:1033E0003AF0E0E832D091505040E695001CCAF720
:1033F0002BD0FE2F29D0660F771F881FBB1F2617E3
:1034000037074807AB07B0E809F0BB0B802DBF01B9
:10341000FF2793585F4F3AF09E3F510578F00C9488
:10342000A91A0C94F41A5F3FE4F3983ED4F38695FE
:1034300077956795B795F7959F5FC9F7880F911DA9
:103440009695879597F90895E1E0660F771F881F95
:10345000BB1F621773078407BA0720F0621B730B48
:10346000840BBA0BEE1F88F7E09508950E943D1A71
:103470006894B1110C94F41A08950E94D91A88F036
:103480009F5798F0B92F9927B751B0F0E1F0660F28
:10349000771F881F991F1AF0BA95C9F714C0B13069
:1034A00091F00E94F31AB1E008950C94F31A672F7B
:1034B000782F8827B85F39F0B93FCCF38695779598
:1034C0006795B395D9F73EF4909580957095619581
:1034D0007F4F8F4F9F4F0895E89409C097FB3EF4AC
:1034E00090958095709561957F4F8F4F9F4F992351
:1034F000A9F0F92F96E9BB279395F69587957795CF
:103500006795B795F111F8CFFAF4BB0F11F460FF8E
:103510001BC06F5F7F4F8F4F9F4F16C0882311F0E6
:1035200096E911C0772321F09EE8872F762F05C0FA
:10353000662371F096E8862F70E060E02AF09A9595
:10354000660F771F881FDAF7880F9695879597F98A
:10355000089597F99F6780E870E060E008959FEF15
:1035600080EC089500240A9416161706180609061A
:10357000089500240A9412161306140605060895E9
:10358000092E0394000C11F4882352F0BB0F40F471
:10359000BF2B11F460FF04C06F5F7F4F8F4F9F4FB1
:1035A000089557FD9058440F551F59F05F3F71F033
:1035B0004795880F97FB991F61F09F3F79F087959A
:1035C0000895121613061406551FF2CF4695F1DF23
:1035D00008C0161617061806991FF1CF86957105B3
:1035E000610508940895E894BB2766277727CB01E7
:1035F00097F908950E94D91AA8F19E57B0F19851F1
:1036000060F039F1983070F5092E9927660F771F11
:10361000881F991F0A94D1F71CC0BB27993F4CF40F
:10362000B111B1E0B62B672F782F8827985FB1F7DB
:1036300008C0869577956795B79508F4B16093951E
:10364000C1F7BB0F30F411F460FF03C06F5F7F4F11
:103650008F4F3EF490958095709561957F4F8F4F79
:103660009F4F089568940C94F41A0C94F31A0E94D6
:103670004A1B0C94C01A0E94B21A38F00E94B91A60
:1036800020F0952311F00C94A91A0C94AF1A112470
:103690000C94F41A0E94D11A70F3959FC1F3950F00
:1036A00050E0551F629FF001729FBB27F00DB11DC6
:1036B000639FAA27F00DB11DAA1F649F6627B00D56
:1036C000A11D661F829F2227B00DA11D621F739F3F
:1036D000B00DA11D621F839FA00D611D221F749F4D
:1036E0003327A00D611D231F849F600D211D822F94
:1036F000762F6A2F11249F5750409AF0F1F08823BB
:103700004AF0EE0FFF1FBB1F661F771F881F9150E7
:103710005040A9F79E3F510580F00C94A91A0C94D3
:10372000F41A5F3FE4F3983ED4F386957795679556
:10373000B795F795E7959F5FC1F7FE2B880F911D11
:103740009695879597F90895FA01EE0FFF1F309629
:1037500021053105A1F16115710561F48038BFE3E0
:103760009B0749F168949038810561F08038BFEF7C
:103770009B0741F099234AF5FF3FE10531052105FB
:1037800019F1E8940894E795D901AA2329F4AB2FFD
:10379000BE2FF85FD0F310C0FF5F70F4A695E0F77E
:1037A000F73950F019F0FF3A38F49F779F930DD016
:1037B0000F9007FC9058089546F00C94AF1A60E003
:1037C00070E080E89FE308954FE79F775F934F9302
:1037D0003F932F930E949F1C2F913F914F915F9198
:1037E0000E94371B0C94FC1B29F416F00C94A91AA8
:1037F0000C94F31A0C94AF1A0E94D91AA8F39638B5
:10380000A0F707F80F92E8942BE33AEA48EB5FE75A
:103810000E944D1B0F920F920F924DB75EB70F9201
:103820000E94E71CECE8F0E00E942E1C4F915F9193
:10383000EF91FF91E595EE1FFF1F49F0FE57E068FD
:103840004427EE0F441FFA95E1F74195550B0E946E
:10385000611C0F9007FE0C94551C0895DF93CF93C5
:103860001F930F93FF92EF92DF927B018C0168947C
:1038700006C0DA2EEF010E944A1BFE01E894A591D2
:103880002591359145915591A6F3EF010E946F194D
:10389000FE019701A801DA9469F7DF90EF90FF909D
:1038A0000F911F91CF91DF9108959B01AC0160E0D2
:1038B00070E080E89FE30C94C4190C94A91A0C944E
:1038C0001B1D0E94D91AD8F39923C9F3940F511DD7
:1038D000A3F39150504094F059F0882332F0660FD2
:1038E000771F881F91505040C1F79E3F51052CF71C
:1038F000880F911D9695879597F908955F3FACF0D5
:10390000983E9CF0BB27869577956795B79508F408
:10391000B1609395C1F7BB0F58F711F460FFE8CF82
:103920006F5F7F4F8F4F9F4FE3CF0C94F41A16F0C9
:103930000C941B1D0C94AF1A68940C94A91A0E9445
:10394000D91AA8F39923C1F3AEF3DF93CF931F9352
:103950000F93FF92C92FDD2788232AF02197660F46
:10396000771F881FDAF720E030E040E85FEB9FE345
:10397000883920F0803E38F021968F770E945819C0
:10398000E4EBF0E004C00E945819E1EEF0E00E9480
:103990002E1C8B01BE01EC01FB2E6F577109759532
:1039A000771F880B990B0E946E1A28E132E741E3DA
:1039B0005FE30E944A1BAF2D9801AE01FF900F916B
:1039C0001F91CF91DF910E946F190C94C01AFA01D8
:1039D000DC01AA0FBB1F9B01AC01BF5728F42227B3
:1039E00033274427507820C0B75190F4AB2F0024E0
:1039F000469537952795011CA395D2F3002071F0C9
:103A0000220F331F441FB395DAF30ED00C945719CD
:103A100061307105A0E88A07B94630F49B01AC011A
:103A20006627772788279078309621F02083318386
:103A30004283538308959F3F31F0915020F487953E
:103A400077956795B795880F911D9695879597F906
:103A50000895DB018F939F930E94701DBF91AF91DA
:103A6000A29F800D911DA39F900DB29F900D1124D8
:103A70000895A1E21A2EAA1BBB1BFD010DC0AA1FAF
:103A8000BB1FEE1FFF1FA217B307E407F50720F0C7
:103A9000A21BB30BE40BF50B661F771F881F991F42
:103AA0001A9469F760957095809590959B01AC018B
:103AB000BD01CF010895EE0FFF1F0590F491E02D99
:103AC0000994A29FB001B39FC001A39F700D811DF7
:103AD0001124911DB29F700D811D1124911D089517
:103AE0000E94611DA59F900DB49F900DA49F800D15
:103AF000911D112408952F923F924F925F926F92E1
:103B00007F928F929F92AF92BF92CF92DF92EF926D
:103B1000FF920F931F93CF93DF93CDB7DEB7CA1BEE
:103B2000DB0B0FB6F894DEBF0FBECDBF09942A8819
:103B3000398848885F846E847D848C849B84AA84C1
:103B4000B984C884DF80EE80FD800C811B81AA814E
:103B5000B981CE0FD11D0FB6F894DEBF0FBECDBF19
:103B6000ED0108950F931F93CF93DF93823091055A
:103B700010F482E090E0E091C902F091CA0220E0E6
:103B800030E0A0E0B0E0309719F14081518102812E
:103B9000138148175907C8F08417950769F41097DF
:103BA00031F012960C93129713961C9327C0009332
:103BB000C9021093CA0222C02115310519F042171B
:103BC000530718F49A01BD01EF01DF01F801DBCFC3
:103BD00021153105F9F0281B390B2430310580F40B
:103BE0008A819B816115710521F0FB01938382839A
:103BF00004C09093CA028093C902FE01329644C069
:103C0000FE01E20FF31F8193919322503109398312
:103C100028833AC02091C7023091C802232B41F477
:103C20002091190130911A013093C8022093C702E4
:103C300020911701309118012115310541F42DB75C
:103C40003EB740911B0150911C01241B350BE091A4
:103C5000C702F091C802E217F307A0F42E1B3F0B36
:103C60002817390778F0AC014E5F5F4F24173507EE
:103C700048F04E0F5F1F5093C8024093C7028193D4
:103C8000919302C0E0E0F0E0CF01DF91CF911F916E
:103C90000F910895CF93DF93009709F481C0FC0141
:103CA000329713821282A091C902B091CA02109772
:103CB00081F420813181820F931F2091C7023091BE
:103CC000C8022817390751F5F093C802E093C702DC
:103CD00067C0ED0120E030E0CE17DF0740F44A81F5
:103CE0005B819E0141155105F1F0EA01F5CFD383C7
:103CF000C28340815181840F951FC817D90759F499
:103D000088819981840F951F0296918380838A818F
:103D10009B81938382832115310529F4F093CA0294
:103D2000E093C9023DC0E901FB83EA8349915991BF
:103D3000C40FD51FEC17FD0761F480819181840FBA
:103D4000951F0296E90199838883828193819B83E1
:103D50008A83E0E0F0E012968D919C911397009792
:103D600019F0FD01DC01F7CF8D919C9111979D0118
:103D70002E5F3F4F820F931F2091C7023091C802E0
:103D80002817390769F4309729F41092CA02109263
:103D9000C90202C013821282B093C802A093C70264
:103DA000DF91CF910895283008F027E03327DA011A
:103DB000990F311D87FD916000966105710539F4F9
:103DC00032602E5F3D9330E32A95E1F708959F3FDF
:103DD00030F080387105610509F03C5F3C5F3D9330
:103DE000913008F08068911DDF93CF931F930F935C
:103DF000FF92EF92192F987F9695E92F96959695B9
:103E0000E90FFF27E059FE4F99273327EE24FF24BF
:103E1000A701E70105900894079428F4360FE71EE0
:103E2000F81E491F511D660F771F881F991F0694A2
:103E3000A1F70590079428F4E70EF81E491F561FB6
:103E4000C11D770F881F991F661F0694A1F7059063
:103E5000079428F4F80E491F561FC71FD11D880F5D
:103E6000991F661F771F0694A1F70590079420F409
:103E7000490F561FC71FD81F990F661F771F881F2E
:103E80000694A9F784911095177041F0D695C795BF
:103E900057954795F794E7941A95C1F7E6E1F1E055
:103EA00068941590159135916591959105907FE2F3
:103EB0007395E118F10A430B560BC90BD009C0F7F3
:103EC000E10CF11E431F561FC91FD01D7EF4703335
:103ED00011F48A95E6CFE894015030F0080F0AF407
:103EE0000027021708F4202F2395022F7A3328F099
:103EF00079E37D932A95E9F710C07D932A9589F699
:103F0000069497956795379517951794E118F10AD8
:103F1000430B560BC90BD00998F023957E917395EE
:103F20007A3308F070E37C932013B8F77E917061C8
:103F30007D9330F0839571E37D9370E32A95E1F7EB
:103F40001124EF90FF900F911F91CF91DF9199274E
:103F500087FD90950895FC01059061507040011017
:103F6000D8F7809590958E0F9F1F0895FC016150A2
:103F7000704001900110D8F7809590958E0F9F1F8B
:103F800008950F931F93CF93DF93FB01238121FDAE
:103F900003C08FEF9FEF2CC022FF16C046815781D0
:103FA000248135814217530744F4A081B1819D01DA
:103FB0002F5F3F4F318320838C93268137812F5F82
:103FC0003F4F3783268314C08B01EC01FB01008433
:103FD000F185E02D0995892BE1F6D80116968D9192
:103FE0009C911797019617969C938E931697CE01E6
:103FF000DF91CF911F910F910895A0E0B0E0E3E031
:10400000F0E20C948B1DAE014B5F5F4FFA016191A2
:104010007191AF018091CD029091CE020E94DA158C
:10402000E2E00C94A71D0F931F93CF93DF93E091D1
:10403000CD02F091CE02238121FF1BC08C01D0E084
:10404000C0E0F80181918F016091CD027091CE02A4
:10405000DB011896ED91FC911997882331F00995B1
:10406000892B79F3DFEFCFEFECCF8AE00995892B2D
:1040700019F08FEF9FEF02C08D2F9C2FDF91CF9112
:104080001F910F910895FA01AA27283051F120318C
:1040900081F1E8946F936E7F6E5F7F4F8F4F9F4FDC
:1040A000AF4FB1E03ED0B4E03CD0670F781F891F1E
:1040B0009A1FA11D680F791F8A1F911DA11D6A0FEC
:1040C000711D811D911DA11D20D009F468943F919F
:1040D0002AE0269F11243019305D3193DEF6CF019E
:1040E0000895462F4770405D4193B3E00FD0C9F764
:1040F000F6CF462F4F70405D4A3318F0495D31FDD1
:104100004052419302D0A9F7EACFB4E0A695979523
:10411000879577956795BA95C9F7009761057105F9
:1041200008959B01AC010A2E069457954795379543
:104130002795BA95C9F7620F731F841F951FA01D9D
:064140000895F894FFCF82
:104146001F0000000200000000EC0B000000001839
:104156000C041060C080200000D102200045787059
:104166006C6F72696E672E2E2E0049522041766F53
:104176006964696E672100536F6E61722041766FC4
:104186006964696E67210057616C6C20666F6C6CA0
:104196006F77696E6721004C696E6520466F6C6C9F
:1041A6006F77696E6721004C6967687420666F7562
:1041B6006E642E00556E6B6E6F776E20737461742D
:1041C6006521006C6566743A20252E3032660A0039
:1041D60072696768743A20252E3032660A0044698F
:1041E6007374203D20252E33660A004572726F7265
:1041F6003A202564004572726F723A20256C64007D
:0C4206005374617274696E672E2E2E00D6
:00000001FF
