:100000000C940B030C9428030C9428030C942803E1
:100010000C942E070C9457070C9480070C94A90796
:100020000C9428030C940F060C9438060C9461066B
:100030000C94DC060C948A060C94B3060C94050709
:100040000C9494050C94BD050C94E6050C942803BF
:100050000C9428030C9428030C9428030C94280374
:100060000C9428030C9428030C9428030C94280364
:100070000C9428030C9428030C942803076342363D
:10008000B79BD8A71A39685618AEBAAB558C1D3C29
:10009000B7CC5763BD6DEDFD753EF6177231BF00ED
:1000A0000000803F08000000BE922449123EABAA27
:1000B000AA2ABECDCCCC4C3E00000080BEABAAAA82
:1000C000AA3E00000000BF000000803F00000000CA
:1000D00000084178D3BB4387D1133D190E3CC3BD03
:1000E0004282AD2B3E68EC8276BED98FE1A93E4CB0
:1000F00080EFFFBE01C4FF7F3F00000000006E6183
:100100006E00696E660000407A10F35A00A0724ECD
:1001100018090010A5D4E80000E87648170000E4AC
:100120000B54020000CA9A3B000000E1F5050000F4
:1001300080969800000040420F000000A086010059
:100140000000102700000000E80300000000640029
:10015000000000000A000000000001000000000094
:100160002C76D888DC674F0823DFC1DFAE59E1B1B8
:10017000B796E5E3E453C63AE651997696E8E6C2C7
:100180008426EB898C9B62ED407C6FFCEFBC9C9FCE
:1001900040F2BAA56FA5F490055A2AF75C936B6CF0
:1001A000F9676DC11BFCE0E40D47FEF520E6B500E4
:1001B000D0ED902E0300943577050080841E080052
:1001C00000204E0A000000C80C333333330F986E02
:1001D00012831141EF8D2114893BE65516CFFEE6BF
:1001E000DB18D1844B381BF77C1D901DA4BBE42485
:1001F000203284725E228100C9F124ECA1E53D2702
:1002000016050100000000000000FA000000E000F8
:10021000E00028FE28FE282454FE5448C4C81026B6
:10022000466C92AA44A000A0C0000000384482009E
:10023000008244380028107C102810107C10100018
:100240000A0C000010101010100006060000040830
:100250001020407C8A92A27C0042FE020042868AE4
:1002600092628482A2D28C182848FE08E4A2A2A23C
:100270009C3C5292920C808E90A0C06C9292926C98
:100280006092929478006C6C0000006A6C00001020
:1002900028448200282828282800824428104080EA
:1002A0008A90604C929E827C7E8888887EFE9292A4
:1002B000926C7C82828244FE82824438FE929292C8
:1002C00082FE909090807C8292925EFE101010FED2
:1002D0000082FE8200040282FC80FE10284482FE1E
:1002E00002020202FE403040FEFE201008FE7C8228
:1002F00082827CFE909090607C828A847AFE9098C4
:100300009462629292928C8080FE8080FC02020253
:10031000FCF8040204F8FC021C02FCC6281028C6E3
:10032000E0100E10E0868A92A2C200FE8282004097
:1003300020100804008282FE00204080402002023B
:100340000202020080402000042A2A2A1EFE1222F5
:10035000221C1C222222041C222212FE1C2A2A2ACF
:1003600018107E908040304A4A4A7CFE1020201EA1
:100370000022BE0200040222BC00FE08142200007B
:1003800082FE02003E2018201E3E1020201E1C224D
:1003900022221C3E28282810102828183E3E102013
:1003A0002010122A2A2A0420FC2202043C02020401
:1003B0003E38040204383C020C023C221408142289
:1003C000300A0A0A3C22262A322200106C820000DF
:1003D00000FE000000826C100008101008100000E1
:1003E0000000007F8181817F7F8383837F7F878778
:1003F000877F7F8F8F8F7F7F9F9F9F7F7FBFBFBFB5
:100400007F7FFFFFFF7F2040FF40206215171565AB
:1004100000FBFB00000000000000C0FF0300E0FF45
:100420000700F0FF0F00F8FF1F0078001E007800A3
:100430001E0078001E0078001E0078001E00780064
:100440001E0078001E0078001E0078001E000000CC
:1004500000000000000080FF0300E0FF0700F0FF45
:100460000F00F8FF1F00F83C1F00783C1E00783C8E
:100470001E00783C1E00783C1E00783C1E00783C34
:100480001E00783C1E00783C1E00783C1E00783C24
:100490001E000000000000000000E0FF0300F0FF6D
:1004A0000700F8FF0F00F8FF1F00783C1E00783CA3
:1004B0001E00783C1E00783C1E00783C1E00783CF4
:1004C0001E00783C1E00783C1E00783C1E00783CE4
:1004D0001E000000000000000000F8FF0300F8FF0D
:1004E0000F00F8FF1F00F8FF1F0000001E000000B3
:1004F0001E0000801F0000F01F0000FF0F00E0FF43
:100500000700F0FF0000F80F0000F800000078007E
:10051000000078000000F8FF1F00F8FF1F00F0FF48
:100520001F00E0FF1F000000000000000000F8FFB7
:100530001F00F8FF1F00F8FF1F00F8FF1F007800E2
:100540001E00783C1E00783C1E00783C1E00783C63
:100550001E00783C1E00783C1E00F87E1F00F8FF4D
:100560001F00F0FF0F00E0E70300000000000000A4
:100570003800EEFF6C002A8045003A0047FC03FF7C
:100580006CFC83FF3900DEFF0B7CD0810BFCD0813B
:100590000BC0D0810BFCD0810B7CDEFF0B0082FFF7
:1005A000397002FF6CF83A0047DC2A8045CCEEFF38
:1005B0006CCC000038000000000C00001E0C000095
:1005C0001E0000001E0000001E0000001E00F8FFBC
:1005D0001F00F8FF1F00F8FF1F00F8FF1F000000BA
:1005E0001E0000001E0000001E0000001E00000093
:1005F0005E000000400000007C00000040000000A1
:10060000400000007C0000003000000010000000EE
:10061000300000007C0011241FBECFEFD8E0DEBF09
:10062000CDBF11E0A0E0B1E0E2E0F6E302C005904A
:100630000D92AA32B107D9F722E0AAE2B1E001C0D7
:100640001D92A031B207E1F70E942A030C94FF1A11
:100650000C9400000E9492050E9484050E94811063
:1006600080E090E008950F931F9385E00E941305AA
:100670008823C1F080E460E00E94300400E0802F15
:1006800060E00E94DB0310E080E061E00E94300443
:100690001F5F1038C9F70F5F043089F783E060E00F
:1006A0000E941E041F910F9108950F931F9385E0E0
:1006B0000E940605882311F082E07AC00E944D0452
:1006C000182F0E941F051150123008F06DC0815084
:1006D000823008F069C00E944B048EEA60E00E94FC
:1006E000300482EA60E00E94300480EA60E00E9408
:1006F000300400E513ECC8010197F1F780EC60E0ED
:100700000E9430048FE260E00E94300481E860E0E3
:100710000E94300486E160E00E94300482E260E0E2
:100720000E943004C8010197F1F78FEA60E00E944F
:10073000300486EA60E00E94300485EA60E00E94AE
:10074000300480E090E028E833E1F9013197F1F7D7
:10075000019643E0883E9407C1F783EB60E00E9476
:10076000300480E460E00E94300483E060E00E9496
:10077000DB0383E060E00E941E041092A801109247
:10078000AA011092A90180E091E090930D0280935C
:100790000C0288E10E94FD030E94330384EA60E0BA
:1007A0000E94300481E004C085E00E94F60487E0E6
:1007B0001F910F910895FF920F931F93082FF62E0C
:1007C00085E00E9413058823A1F01F2D1F77037079
:1007D000802F806B60E00E94300412951F70812F83
:1007E000806160E00E9430048F2D8F7060E00E9475
:1007F00030041F910F91FF9008951F93182F85E0EB
:100800000E9413058823C1F087E00E948F0482E0D4
:100810006AE00E94E00482E061EB0E94E004612F44
:10082000113208F060E282E00E94E00489EE8A95CD
:10083000F1F787E00E948F041F9108950F931F9393
:10084000082F162F85E00E941305882331F00370CE
:100850001F771093A6010093A7011F910F91089590
:100860000F931F93082F162F85E00E9413058823EE
:1008700079F0112319F0113021F402C02B9801C036
:100880002B9A86E08A95F1F780E0602F0E94E004C1
:100890001F910F910895239A089582E00E94060502
:1008A000882311F082E008950E94EF0480E066E062
:1008B00079E00E94860481E06EEF78E00E94860471
:1008C00082E066EF78E00E94860486E06EE079E0E0
:1008D0000E94860483E06EEE78E00E94860484E045
:1008E0006EEE78E00E94860485E06EEE78E00E946D
:1008F000860487E06EEE78E00E9486048FEF809396
:10090000AB0187E00E948F0481E00895E82FF0E0BA
:10091000EE0FFF1FE659FE4F7183608308951F930A
:10092000182F82E00E941305882309F447C0912FF5
:1009300097708091AB01981709F440C09093AB0178
:1009400085B1887F892B85B9933011F1943028F4D3
:10095000913051F0923090F40CC0953019F19530EF
:10096000E0F0963021F50FC0E0916C01F0916D013F
:1009700022C0E0916A01F0916B011DC0E0916E010F
:10098000F0916F0118C0E0917601F091770113C0EA
:10099000E0917001F09171010EC0E0917201F0914F
:1009A000730109C0E0917401F091750104C0E091F8
:1009B0007801F0917901309709F009951F91089518
:1009C0001F93162F0E948F0482E00E941305882334
:1009D00021F01EBD0DB407FEFDCF1F910895259A8D
:1009E0002698279A209A219A229A0895853160F4B0
:1009F000E82FF0E0EF56FE4F8081882329F08081B8
:100A000081508083808108958FEF0895853110F0A3
:100A100080E00895E82FF0E0EF56FE4F80818F5F71
:100A2000808381500895853110F080E00895E82F8B
:100A3000F0E0EF56FE4F8081811181E00895DF9351
:100A4000CF9300D00F92CDB7DEB781E00E940605AC
:100A5000882311F082E011C00E944D048150823041
:100A600040F40E944305CE0101960E949D0A81E058
:100A700004C081E00E94F60487E00F900F900F9071
:100A8000CF91DF9108951092C1011092C001109290
:100A9000C3011092C2011092C5011092C4011092BC
:100AA000C7011092C6011092C9011092C80180E9D5
:100AB00091E09093AD018093AC019093AF0180934E
:100AC000AE019093B1018093B0019093B3018093F4
:100AD000B2019093B5018093B40184E398E09093C0
:100AE000B7018093B6019093B9018093B8019093B8
:100AF000BB018093BA019093BD018093BC01909398
:100B0000BF018093BE0108950E94860A0E9490084A
:100B10000E94D2070E94450B0E944D040E941F05AF
:100B200078940895000008951F920F920FB60F92C7
:100B300011242F933F934F935F936F937F938F93E2
:100B40009F93AF93BF93EF93FF93E0914A01F0918E
:100B50004B01309709F00995FF91EF91BF91AF914B
:100B60009F918F917F916F915F914F913F912F91C5
:100B70000F900FBE0F901F9018951F920F920FB6F7
:100B80000F9211242F933F934F935F936F937F9313
:100B90008F939F93AF93BF93EF93FF93E0914C019B
:100BA000F0914D01309709F00995FF91EF91BF91B8
:100BB000AF919F918F917F916F915F914F913F91F5
:100BC0002F910F900FBE0F901F9018951F920F92AC
:100BD0000FB60F9211242F933F934F935F936F9310
:100BE0007F938F939F93AF93BF93EF93FF93E09186
:100BF0004E01F0914F01309709F00995FF91EF9167
:100C0000BF91AF919F918F917F916F915F914F9124
:100C10003F912F910F900FBE0F901F9018951F922C
:100C20000F920FB60F9211242F933F934F935F9320
:100C30006F937F938F939F93AF93BF93EF93FF93A4
:100C4000E0913C01F0913D01309709F00995FF9149
:100C5000EF91BF91AF919F918F917F916F915F9134
:100C60004F913F912F910F900FBE0F901F901895AD
:100C70001F920F920FB60F9211242F933F934F9311
:100C80005F936F937F938F939F93AF93BF93EF93F4
:100C9000FF93E0913E01F0913F01309709F00995F3
:100CA000FF91EF91BF91AF919F918F917F916F9144
:100CB0005F914F913F912F910F900FBE0F901F901A
:100CC00018951F920F920FB60F9211242F933F93F6
:100CD0004F935F936F937F938F939F93AF93BF9344
:100CE000EF93FF93E0914001F0914101309709F0BB
:100CF0000995FF91EF91BF91AF919F918F917F9156
:100D00006F915F914F913F912F910F900FBE0F9078
:100D10001F9018951F920F920FB60F9211242F93C8
:100D20003F934F935F936F937F938F939F93AF9373
:100D3000BF93EF93FF93E0914401F0914501309709
:100D400009F00995FF91EF91BF91AF919F918F911C
:100D50007F916F915F914F913F912F910F900FBEB7
:100D60000F901F9018951F920F920FB60F9211249B
:100D70002F933F934F935F936F937F938F939F93A3
:100D8000AF93BF93EF93FF93E0914601F09147013A
:100D9000309709F00995FF91EF91BF91AF919F9125
:100DA0008F917F916F915F914F913F912F910F9014
:100DB0000FBE0F901F9018951F920F920FB60F92B3
:100DC00011242F933F934F935F936F937F938F9350
:100DD0009F93AF93BF93EF93FF93E0914201F09104
:100DE0004301309709F00995FF91EF91BF91AF91C1
:100DF0009F918F917F916F915F914F913F912F9133
:100E00000F900FBE0F901F9018951F920F920FB664
:100E10000F9211242F933F934F935F936F937F9380
:100E20008F939F93AF93BF93EF93FF93E09148010C
:100E3000F0914901309709F00995FF91EF91BF9129
:100E4000AF919F918F917F916F915F914F913F9162
:100E50002F910F900FBE0F901F9018951F920F9219
:100E60000FB60F9211242F933F934F935F936F937D
:100E70007F938F939F93AF93BF93EF93FF93E091F3
:100E80003201F0913301309709F00995FF91EF910C
:100E9000BF91AF919F918F917F916F915F914F9192
:100EA0003F912F910F900FBE0F901F9018951F929A
:100EB0000F920FB60F9211242F933F934F935F938E
:100EC0006F937F938F939F93AF93BF93EF93FF9312
:100ED000E0913401F0913501309709F00995FF91C7
:100EE000EF91BF91AF919F918F917F916F915F91A2
:100EF0004F913F912F910F900FBE0F901F9018951B
:100F00001F920F920FB60F9211242F933F934F937E
:100F10005F936F937F938F939F93AF93BF93EF9361
:100F2000FF93E0913601F0913701309709F0099570
:100F3000FF91EF91BF91AF919F918F917F916F91B1
:100F40005F914F913F912F910F900FBE0F901F9087
:100F500018951F920F920FB60F9211242F933F9363
:100F60004F935F936F937F938F939F93AF93BF93B1
:100F7000EF93FF93E0913801F0913901309709F038
:100F80000995FF91EF91BF91AF919F918F917F91C3
:100F90006F915F914F913F912F910F900FBE0F90E6
:100FA0001F90189580E10E940605882311F082E0C9
:100FB0000895EAE2F1E01192119281E0EA36F80731
:100FC000D1F781E00895FF920F931F93CF93DF93A2
:100FD000F82E8AE0F816B1F08F1548F0E8E0FE161A
:100FE000B9F1EF1538F1F7E0FF1651F43BC08DE091
:100FF000F81659F0EBE1FE1689F0FCE0FF1641F01F
:1010000001E041C01092A60103C01092A6013AC0AF
:101010008091A70181508093A70134C00E943303BF
:1010200014C080E061E00E9430048091A6018F5FCF
:101030008093A6018091A60187FFF3CF1092A601AD
:101040008091A70181508093A70100E011E01CC0AE
:101050008091A6018823B1F08091A60186508093EB
:10106000A60110C081E00E94D80964EF71E080E021
:1010700090E04DE750E024E630E00E94E40981E092
:101080000E943F0900E010E08091A7016091A60155
:101090000E94DB03002351F185E0F89EC00111247A
:1010A000EC01CD59DE4F8C0108591E4FFE01849191
:1010B00061E00E9430042196C017D107B9F780E0A3
:1010C00061E00E9430048091A6018A5F8093A601AE
:1010D0008091A60190E08C3791053CF01092A6011A
:1010E0008091A70181508093A70111E08091A70111
:1010F00083708093A701113059F48091A801813049
:1011000039F4E091A901F091AA01309709F009950D
:1011100080E090E0DF91CF911F910F91FF900895B3
:10112000F8940E94EB0881E00E94980881E00895FD
:10113000813049F0F894813020F18230B1F0833071
:1011400009F045C017C02C9A80E880936100109286
:10115000610080E090E00000019688329105D9F7A7
:101160001092680010926B00089580E880936100EF
:1011700083E004C080E88093610088E08093610090
:1011800028C080E090E0000001962DE680369207AE
:10119000D1F72C9880E090E0000001962DE6803693
:1011A0009207D1F710927A008FEF809364008091BC
:1011B000680081608093680080916B0084608093F8
:1011C0006B00789483B7816083BF889508958230DF
:1011D00008F078940895249A2C9A089583E58CBD9C
:1011E00081E08DBD8DE08A95F1F7089583E58CBD92
:1011F0001DBC84EF91E00197F1F708958FE78CBD56
:101200001DBC84EF91E00197F1F7089583E58CBD53
:1012100081E08DBD8DE08A95F1F7089583E58CBD61
:1012200081E08DBD84EF91E00197F1F708958AE0A8
:101230000E94F604882329F481E00E943A0A109261
:101240007B01089589E00E94F6048823B9F4809117
:101250007A01882311F00E94800A82E00E943A0AF3
:101260008091880190918901009731F00E94BE1809
:10127000109289011092880110927A0108958130AC
:1012800029F0823029F40E94220908950E9417094A
:1012900008950F931F93CF93DF9380E291E00E9414
:1012A00026189C019093890180938801892B11F461
:1012B00080E039C08901C0E0D0E0BE0180E090E06C
:1012C0000E94791420E030E040EA51E40E940714C3
:1012D00027EF35E740E05FE30E9444159B01AC0136
:1012E00060E070E080E291E40E94B1159B01AC01E6
:1012F000CA01B9012DEC3CEC42E851E40E944415CE
:101300000E9407152AE030E040E050E00E94A31759
:10131000F80161937193819391938F012196C83461
:10132000D10559F681E0DF91CF911F910F9108957A
:101330008AE00E940605882311F082E00895109249
:1013400085011092840181E00E94560A81E0809319
:101350007B0108951F9389E00E940605882311F000
:1013600082E024C08BE00E9413058823D9F40E94F8
:101370004909182F813011F086E018C010927C01C5
:1013800010927D0110927E0110927F018DE06EE03F
:101390007CE00E94D90B82E00E94560A10937A01E9
:1013A00081E004C089E00E94F60487E01F9108955F
:1013B000813021F0823029F084E008950E9498095C
:1013C00008950E94AA0908956F927F928F929F922A
:1013D000AF92BF92CF92DF92EF92FF920F931F9343
:1013E000CF93DF933B014C015A01E9018AE00E944F
:1013F0001305882381F1209741F19501442737FD9A
:101400004095542FBE01C536D10510F064E670E05A
:1014100080E090E00E94A31724E630E040E050E036
:101420000E94B31779018A01C401B3010E94110C13
:10143000C7010E94DA0A60E070E080E090E00E945C
:10144000110CC5018E199F0904C0A114B10419F033
:10145000C5010E94DA0ADF91CF911F910F91FF9091
:10146000EF90DF90CF90BF90AF909F908F907F9044
:101470006F900895823029F4809181008E7F80934F
:10148000810080917A01813031F480917B0181303B
:1014900011F40000089580917A01813021F080914B
:1014A0007B01813011F45F9857980895982F8091AF
:1014B0007A01882331F480917B01882311F4579AB3
:1014C0005F9880917A018823D1F49230C1F4109210
:1014D000800010928100809181008860809381005B
:1014E000809181008160809381001092850010922C
:1014F000840081E08093890080E9809388000895CA
:10150000EFE6F0E080818D7F80830895CF93DF93B5
:10151000C0E0D0E08C2F60E00E94950A2196C53192
:10152000D105C1F7DF91CF910895853128F4E82FD7
:10153000F0E0EF56FE4F608308951F93CF93DF9343
:10154000EC01009799F181E00E941305882351F185
:1015500087E00E948F0418EC812F8A95F1F782E0D2
:101560006AE00E94E00482E064EB0E94E004812FC4
:101570008A95F1F782E060E00E94FE0B8883812F5C
:101580008A95F1F782E060E00E94FE0B89831A954C
:10159000F1F782E060E00E94FE0B8A8387E00E9400
:1015A0008F0404C0188219828DE28A83DF91CF9163
:1015B0001F9108950F931F93DF93CF93CDB7DEB79D
:1015C00029970FB6F894DEBF0FBECDBF8C0188E01F
:1015D0000E941305882311F491E00DC0CE010196FD
:1015E00061E040E098010E94070B982F882319F4CE
:1015F0008F818823E9F3892F29960FB6F894DEBFEF
:101600000FBECDBFCF91DF911F910F910895EF9243
:10161000FF920F931F93CF93DF93EC01F62EE42EEE
:10162000890188E00E941305882311F481E026C017
:1016300084E090E00E942618FC01009711F482E0FB
:101640001DC0F982F0FC1E8281E0E81619F4898140
:10165000846089838981886089831B830A831D83D1
:101660000C83D183C0831382128281E080938A012C
:10167000CF010E946A0B10928A0180E0DF91CF9126
:101680001F910F91FF90EF90089588E00E9406054A
:10169000882311F082E008951092CA011092CC01C3
:1016A0001092CB0110928A0110928B0180E166E7C3
:1016B0007CE00E94ED0B0E94610B0E94D30B81E045
:1016C000089584B5826084BD85B5846085BD8EE44F
:1016D00087BD0895CF92DF92EF92FF920F931F93F1
:1016E000CF93DF93EC018091CA01882339F4D09322
:1016F000CC01C093CB010E947D0C47C0C090CB01B0
:10170000D090CC0100E010E0EE24FF2437C0A88187
:10171000B981FD0164817581F60140815181FA0131
:10172000848195819B01281B390B37FF0FC0861BD5
:10173000970B95838483DB82CA82012B29F4D09393
:10174000CC01C093CB0121C0F7010CC0F60182810E
:1017500093812115310549F4FD01158214829B8383
:101760008A83F601D383C28310C0FD0135832483AD
:101770000097B9F30F5F1F4F76016C018091CA018A
:1017800090E00817190718F2ECCF8091CA018F5F1B
:101790008093CA01DF91CF911F910F91FF90EF903D
:1017A000DF90CF900895EEE6F0E080818260808344
:1017B0000895E82F803268F48051833050F0F0E0D3
:1017C000EE0FFF1FE65DFE4F208131817183608344
:1017D00002C020E030E0C9010895803218F020E016
:1017E00030E00AC0E82FF0E0EE0FFF1FE65DFE4F8D
:1017F0002081318171836083C90108951F93162F61
:101800000E948F0482E00E941305882329F01EBDE8
:101810000DB407FEFDCF8EB51F9108950E94350CC3
:101820000895EF92FF920F931F937B018C018AE042
:101830000E9413058823A1F080917B01882381F009
:10184000D801C701880F991FAA1FBB1F909387015A
:1018500080938601E114F1040105110509F45F98F4
:101860001F910F91FF90EF90089580917C019091CE
:101870007D01A0917E01B0917F0120918001309186
:1018800081014091820150918301280F391F4A1F25
:101890005B1F20937C0130937D0140937E01509328
:1018A0007F0180917C0190917D01A0917E01B0919A
:1018B0007F018851964FA040B040BCF08BB180585A
:1018C0008BB980917C0190917D01A0917E01B091B6
:1018D0007F018851964FA040B04080937C01909347
:1018E0007D01A0937E01B0937F0108950E94810C39
:1018F0000E94C10C0E949A0C089581E080938B0194
:10190000089588E00E941305882311F484E0089567
:1019100080918B01882311F483E0089580918A01DE
:10192000882311F082E008950E94600F8130E1F376
:1019300080E0089580917B01813011F580918401D0
:10194000909185012091860130918701280F391FE0
:1019500030938501209384018091840190918501C9
:10196000885E93406CF08BB180588BB98091840174
:1019700090918501885E93409093850180938401C6
:10198000089587E00E941305882309F4AAC0809176
:10199000D7019091D801892B09F18091FB01909199
:1019A000FC012091D7013091D801820F931F9093B1
:1019B000FC018093FB018091FB019091FC01885E0A
:1019C0009340A4F08091FB019091FC01885E9340CC
:1019D0009093FC018093FB0141E009C08091CF010D
:1019E0009091D0019093D4018093D30140E08091F5
:1019F000D9019091DA01892B09F18091FD01909133
:101A0000FE012091D9013091DA01820F931F90934A
:101A1000FE018093FD018091FD019091FE01885EA1
:101A20009340A4F08091FD019091FE01885E934067
:101A30009093FE018093FD0161E009C08091D10186
:101A40009091D2019093D6018093D50160E0842FCC
:101A50000E94720D8091F7019091F8012091D301BD
:101A60003091D401280F391F3093F8012093F701EA
:101A70008091F7019091F801885E934014F440E062
:101A80000BC08091F7019091F801885E934090938C
:101A9000F8018093F70141E08091F9019091FA01FA
:101AA0002091D5013091D601280F391F3093FA01CA
:101AB0002093F9018091F9019091FA01885E934099
:101AC00014F460E00BC08091F9019091FA01885EF6
:101AD00093409093FA018093F90161E0842F0E9472
:101AE000B70D08958823F1F02091CF013091D001F6
:101AF0008091D3019091D401281B390B1216130643
:101B000034F48091D3019091D401019607C0232B26
:101B100049F08091D3019091D40101979093D40121
:101B20008093D301662311F12091D1013091D2012C
:101B30008091D5019091D601281B390B12161306FE
:101B400054F48091D5019091D60101969093D601DD
:101B50008093D5010895232B49F08091D501909170
:101B6000D60101979093D6018093D50108950F93E4
:101B70001F93182F062F80910302882309F0E7C0D6
:101B80008091EB01882309F05AC08091D301909194
:101B9000D401892BE9F480918C01837E80938C01A0
:101BA0001092F4018091FF01882309F45DC06091D7
:101BB000ED0180E00E943B0FE0910102F0910202F2
:101BC000309709F451C081E080831092FF014CC02E
:101BD0008091CD01813041F48091DF019091E0014D
:101BE000019711F411E002C01123F1F1E091F2012B
:101BF000F0E0E25FFE4F90918C01937E8081892B13
:101C000080938C018091F001882321F48091F2016E
:101C10008F5F03C08091F20181508093F201809127
:101C2000F20183708093F20181E08093F40180914E
:101C3000CD018130C9F480E00E94BA0E15C09091A8
:101C40008C01937E90938C01E091F201F0E0E25FD1
:101C5000FE4F8081892B80938C0182E08093F40178
:101C60001092D4011092D3018091EC01882309F0E5
:101C700059C08091D5019091D601892BE9F48091CA
:101C80008C018F7180938C011092F501809100027C
:101C9000882309F45CC06091EE0181E00E943B0F53
:101CA000E0910102F0910202309709F450C081E006
:101CB0008183109200024BC08091CE01813041F4AB
:101CC0008091E1019091E201019711F401E002C0DD
:101CD0000023E9F1E091F301F0E0EE5EFE4F909118
:101CE0008C019F718081892B80938C018091F101FF
:101CF000882321F48091F3018F5F03C08091F30169
:101D000081508093F3018091F30183708093F301FC
:101D100081E08093F5018091CE018130C1F40E9471
:101D2000BA0E15C090918C019F7190938C01E09137
:101D3000F301F0E0EE5EFE4F8081892B80938C01F1
:101D400082E08093F5011092D6011092D501809126
:101D5000F601882331F48CE891E0612F402F0E9436
:101D6000CE0F88B1837090918C01892B88B91F9117
:101D70000F910895882321F0813009F04EC027C0CB
:101D80008091DF019091E001892B49F08091DF0182
:101D90009091E00101979093E0018093DF018091A1
:101DA000FF018823D1F52091DF013091E00180917E
:101DB000E3019091E4012817390779F580E060E0AC
:101DC00070E00E940E0F81E08093FF0108958091E2
:101DD000E1019091E201892B49F08091E10190911C
:101DE000E20101979093E2018093E101809100026A
:101DF000882399F42091E1013091E2018091E5017D
:101E00009091E6012817390741F481E060E070E025
:101E10000E940E0F81E0809300020895482F81E018
:101E200080930302CB0121E06139720710F080E951
:101E300091E0413061F0413018F04230C9F40EC0F9
:101E4000F8949093D0018093CF01789411C0F894C6
:101E50009093D2018093D10178940AC0F894909322
:101E6000D0018093CF019093D2018093D1017894D7
:101E70001092030208950F931F93182F062F6623C5
:101E800049F460E070E00E940E0F812F60E070E086
:101E90000E94661081E080930302113051F01130EE
:101EA00018F0123041F403C00093EB0104C000931A
:101EB000EB010093EC01109203021F910F91089522
:101EC000FF920F931F93CF93DF938091CA018823D2
:101ED00009F459C00091CB011091CC01F801C081E7
:101EE000D1818C819D8101979D838C831816190661
:101EF0000CF449C0898180FF05C08E81882311F4CC
:101F000081E08E83898181FF03C0EF81F885099587
:101F10008091CA018230A8F0F80182819381909368
:101F2000CC018093CB0113821282E0910000F091EA
:101F3000010084819581181619063CF0FF24F39462
:101F400005C01092CC011092CB01FF248091CA01F0
:101F500081508093CA018091CA01882311F40E94A4
:101F6000CB0F898182FF08C08A819B819D838C83EE
:101F7000C8010E946A0B08C0C8010E94BE1889816E
:101F80008F7E898301C0FF248F2DDF91CF911F9118
:101F90000F91FF90089510928B010895FC0180919C
:101FA000F401823069F48091900191E08927809357
:101FB0009001882309F03EC08081837E80833AC0EF
:101FC0008091D3019091D401C397A4F56623D1F0F9
:101FD0002091D3013091D40180E690E0BC01269F8E
:101FE000C001279F900D369F900D1124880F892FD7
:101FF000881F990B9093E8018093E70181E080931B
:102000008E0118C080918E018823A1F08091E70194
:102010009091E80101979093E8018093E701809106
:10202000E7019091E801892B29F48081837E8083E8
:1020300010928E018091F501823069F480918F01B8
:1020400091E0892780938F01882309F03EC0808129
:102050008F71808308958091D5019091D601C397A7
:10206000A4F54423D1F02091D5013091D60180E62A
:1020700090E0AC01249FC001259F900D349F900DEE
:102080001124880F892F881F990B9093EA01809360
:10209000E90181E080938D01089580918D0188236D
:1020A000A1F08091E9019091EA0101979093EA01F2
:1020B0008093E9018091E9019091EA01892B29F44B
:1020C00080818F71808310928D010895982F81E017
:1020D00080930302913071F0913018F0923071F4D6
:1020E00005C07093E0016093DF0108C07093E001C8
:1020F0006093DF017093E2016093E10110920302AB
:1021000008950E9455030E9433038CE191E00E94E0
:10211000711AFFCFA0E1B0E0E0E9F0E10C94E01724
:102120007C011B016A01FC0117821682838181FFF9
:1021300044C39E012F5F3F4F3901F7019381F101A5
:1021400093FD859193FF81911F01882309F431C389
:10215000853239F493FD859193FF81911F0185327A
:1021600039F4B70190E00E94351A56016501E5CFB8
:1021700010E0512C912CFFE1F915D8F08B3279F059
:1021800038F4803279F08332A1F4F92DF0612EC059
:102190008D3261F0803369F4292D21602DC0392DF5
:1021A0003260932E892D8460982E2AC0E92DE86034
:1021B00015C097FC2DC020ED280F2A3088F496FE1C
:1021C00006C03AE0139F200D1124122F19C08AE097
:1021D000589E200D1124522EE92DE0629E2E10C033
:1021E0008E3231F496FCE5C2F92DF0649F2E08C0C2
:1021F0008C3621F4292D2068922E02C0883641F4B5
:10220000F10193FD859193FF81911F018111B3CF5E
:102210009BEB980F933020F4992D9061805E07C05E
:102220009BE9980F933008F066C1992D9F7E96FF29
:1022300016E09F73992E853619F49064992E08C084
:10224000863621F4392F3068932E02C011111150B7
:1022500097FE07C01C3350F444244394410E27E0FA
:102260000BC0183038F027E017E005C027E09CE3EA
:10227000492E02C0212F412C560184E0A80EB11C2A
:10228000F6016081718182819381042DA3010E94F6
:1022900047196C01F981FC87F0FF02C0F3FF06C00B
:1022A00091FC06C092FE06C000E205C00DE203C02C
:1022B0000BE201C000E08C858C7019F001115AC24C
:1022C0009BC297FE10C04C0CFC85F4FF04C08A81B1
:1022D000813309F44A94141474F528E0241578F530
:1022E00088E0482E2CC096FC2AC0812F90E08C15E7
:1022F0009D059CF03CEFC3163FEFD30674F0892D8B
:102300008068982E0AC0E2E0F0E0EC0FFD1FE10FBC
:10231000F11D8081803319F411501111F4CF97FE13
:102320000EC044244394410E812F90E0C816D90674
:102330002CF41C1904C04424439401C010E097FEFF
:1023400006C01C141D0434F4C601019605C085E0C6
:1023500090E002C081E090E001110196112331F07C
:10236000212F30E02F5F3F4F820F931F252D30E04C
:102370008217930714F4581A01C0512C892D8970C3
:1023800049F4552039F0B70180E290E00E94351AF7
:102390005A94F7CF002329F0B701802F90E00E94D4
:1023A000351A93FC09C0552039F0B70180E390E05D
:1023B0000E94351A5A94F7CF97FE4CC04601D7FEBB
:1023C00002C0812C912CC60188199909F301E80FEC
:1023D000F91FFE87ED87960124193109388B2F8765
:1023E000012F10E01195019511093FEF8316930617
:1023F00029F4B7018EE290E00E94351AC814D9047E
:102400004CF08F8598898815990524F4ED85FE8513
:10241000818101C080E3F1E08F1A91082D853E850E
:102420002F5F3F4F3E872D87801691062CF0B70116
:1024300090E00E94351AD9CFC814D90441F49A818A
:10244000963320F4953319F43C8534FF81E3B701CA
:1024500090E04EC08A81813319F09C859F7E9C87D5
:10246000B70190E00E94351A111105C094FC18C004
:1024700085E690E017C0B7018EE290E00E94351A21
:102480001E5F82E001E0080FF301E80FF11D80817B
:10249000B70190E00E94351A802F0113F3CFE6CFE9
:1024A00085E490E0B7010E94351AD7FC06C0C1143C
:1024B000D10441F4EC85E4FF05C0D194C194D10866
:1024C0008DE201C08BE2B70190E00E94351A80E3F3
:1024D0002AE0C216D1042CF08F5FFAE0CF1AD1089F
:1024E000F7CFB70190E00E94351AB701C601C09638
:1024F0000E94351A54C1833631F0833779F0833521
:1025000009F056C020C0560132E0A30EB11CF601FE
:102510008081898301E010E0630112C05601F2E07E
:10252000AF0EB11CF601C080D18096FE03C0612FB2
:1025300070E002C06FEF7FEFC6010E942A1A8C0183
:10254000F92DFF7714C0560122E0A20EB11CF6014E
:10255000C080D18096FE03C0612F70E002C06FEF93
:102560007FEFC6010E941F1A8C01F92DF0689F2E83
:10257000F3FD1AC0852D90E008171907A8F4B701DC
:1025800080E290E00E94351A5A94F4CFF60197FC4D
:10259000859197FE81916F01B70190E00E94351AF5
:1025A00051105A94015011090115110579F7F7C01E
:1025B000843611F0893661F5560197FE09C024E092
:1025C000A20EB11CF60160817181828193810AC0E3
:1025D000F2E0AF0EB11CF60160817181072E000C94
:1025E000880B990BF92DFF769F2E97FF09C09095C8
:1025F0008095709561957F4F8F4F9F4FF0689F2E0C
:102600002AE030E0A3010E94A11AC82EC6183FC0DC
:10261000092D853721F40F7E2AE030E01DC0097FA7
:102620008F3691F018F4883559F0C3C0803719F00F
:10263000883711F0BEC0006104FF09C0046007C004
:1026400094FE08C0066006C028E030E005C020E126
:1026500030E002C020E132E0560107FF09C084E00B
:10266000A80EB11CF601608171818281938108C03E
:10267000F2E0AF0EB11CF6016081718180E090E064
:10268000A3010E94A11AC82EC6180F77902E96FE9D
:102690000BC0092D0E7FC11650F494FE0AC092FCA7
:1026A00008C0092D0E7E05C0DC2C092D03C0DC2CD2
:1026B00001C0D12E04FF0DC0FE01EC0DF11D808183
:1026C000803311F4097E09C002FF06C0D394D3946D
:1026D00004C0802F867809F0D39403FD11C000FF59
:1026E00006C01C2DD51480F4150D1D190DC0D51470
:1026F00058F4B70180E290E00E94351AD394F7CFE6
:10270000D51410F45D1801C0512C04FF10C0B7019E
:1027100080E390E00E94351A02FF17C001FD03C05C
:1027200088E790E002C088E590E0B7010CC0802FF8
:10273000867859F001FF02C08BE201C080E207FDFC
:102740008DE2B70190E00E94351AC11638F4B70146
:1027500080E390E00E94351A1150F7CFCA94F3013C
:10276000EC0DF11D8081B70190E00E94351AC11077
:10277000F5CF15C0F4E0F51560F584E0581A93FE26
:102780001FC0011127C02C8523FF2AC00EEF10E0C7
:10279000392D3071932EF8018491811124C0552078
:1027A00009F4E4CCB70180E290E00E94351A5A9413
:1027B000F6CFF7018681978126C08FEF9FEF23C068
:1027C000B70180E290E00E94351A5A945110F8CF78
:1027D000D8CF512CB701802F90E00E94351AD3CF6B
:1027E00002E011E0D5CF91108052B70190E00E9435
:1027F000351A0F5F1F4FCFCF23E0251510F483E06C
:10280000BDCF512CC0CF6096E2E10C94FC170E9422
:102810001B140C94CD140E94C61458F00E94BF14CF
:1028200040F029F45F3F29F00C94B61451110C9438
:1028300001150C94BC140E94DE1468F39923B1F3C3
:10284000552391F3951B550BBB27AA2762177307D6
:10285000840738F09F5F5F4F220F331F441FAA1F6A
:10286000A9F335D00E2E3AF0E0E832D09150504026
:10287000E695001CCAF72BD0FE2F29D0660F771FD4
:10288000881FBB1F261737074807AB07B0E809F0BA
:10289000BB0B802DBF01FF2793585F4F3AF09E3F3F
:1028A000510578F00C94B6140C9401155F3FE4F3D5
:1028B000983ED4F3869577956795B795F7959F5F82
:1028C000C9F7880F911D9695879597F90895E1E0CE
:1028D000660F771F881FBB1F621773078407BA072D
:1028E00020F0621B730B840BBA0BEE1F88F7E09588
:1028F0000895E89409C097FB3EF4909580957095F3
:1029000061957F4F8F4F9F4F9923A9F0F92F96E93B
:10291000BB279395F695879577956795B795F111B0
:10292000F8CFFAF4BB0F11F460FF1BC06F5F7F4F4D
:102930008F4F9F4F16C0882311F096E911C077235F
:1029400021F09EE8872F762F05C0662371F096E868
:10295000862F70E060E02AF09A95660F771F881F37
:10296000DAF7880F9695879597F9089597F99F67F5
:1029700080E870E060E008959FEF80EC0895002407
:102980000A941616170618060906089500240A94D4
:1029900012161306140605060895092E0394000C5A
:1029A00011F4882352F0BB0F40F4BF2B11F460FFE9
:1029B00004C06F5F7F4F8F4F9F4F089557FD905812
:1029C000440F551F59F05F3F71F04795880F97FBF3
:1029D000991F61F09F3F79F08795089512161306AD
:1029E0001406551FF2CF4695F1DF08C016161706DC
:1029F0001806991FF1CF8695710561050894089511
:102A0000E894BB2766277727CB0197F908950E94A2
:102A1000E614A8F19E57B0F1985160F039F1983062
:102A200070F5092E9927660F771F881F991F0A9442
:102A3000D1F71CC0BB27993F4CF4B111B1E0B62BC4
:102A4000672F782F8827985FB1F708C0869577950C
:102A50006795B79508F4B1609395C1F7BB0F30F453
:102A600011F460FF03C06F5F7F4F8F4F3EF490956E
:102A70008095709561957F4F8F4F9F4F0895689413
:102A80000C9401150C9400150E9457150C94CD144C
:102A90000E94BF1438F00E94C61420F0952311F054
:102AA0000C94B6140C94BC1411240C9401150E94BF
:102AB000DE1470F3959FC1F3950F50E0551F629F90
:102AC000F001729FBB27F00DB11D639FAA27F00D87
:102AD000B11DAA1F649F6627B00DA11D661F829FAE
:102AE0002227B00DA11D621F739FB00DA11D621F93
:102AF000839FA00D611D221F749F3327A00D611DB0
:102B0000231F849F600D211D822F762F6A2F112491
:102B10009F5750409AF0F1F088234AF0EE0FFF1FC4
:102B2000BB1F661F771F881F91505040A9F79E3F1B
:102B3000510580F00C94B6140C9401155F3FE4F33A
:102B4000983ED4F3869577956795B795F795E79571
:102B50009F5FC1F7FE2B880F911D9695879597F97A
:102B60000895FA01EE0FFF1F309621053105A1F1FE
:102B70006115710561F48038BFE39B0749F16894E2
:102B80009038810561F08038BFEF9B0741F09923B1
:102B90004AF5FF3FE1053105210519F1E894089454
:102BA000E795D901AA2329F4AB2FBE2FF85FD0F304
:102BB00010C0FF5F70F4A695E0F7F73950F019F0F8
:102BC000FF3A38F49F779F930DD00F9007FC9058F1
:102BD000089546F00C94BC1460E070E080E89FE338
:102BE00008954FE79F775F934F933F932F930E94F2
:102BF000AC162F913F914F915F910E9444150C9418
:102C0000091629F416F00C94B6140C9400150C94C3
:102C1000BC140E94E614A8F39638A0F707F80F92A8
:102C2000E8942BE33AEA48EB5FE70E945A150F92CB
:102C30000F920F924DB75EB70F920E94F416ECE719
:102C4000F0E00E943B164F915F91EF91FF91E59567
:102C5000EE1FFF1F49F0FE57E0684427EE0F441FA8
:102C6000FA95E1F74195550B0E946E160F9007FEFD
:102C70000C9462160895DF93CF931F930F93FF92E6
:102C8000EF92DF927B018C01689406C0DA2EEF018F
:102C90000E945715FE01E894A59125913591459123
:102CA0005591A6F3EF010E944017FE019701A8017C
:102CB000DA9469F7DF90EF90FF900F911F91CF9119
:102CC000DF9108959B01AC0160E070E080E89FE334
:102CD0000C9407140C94B6140C9495170E94E614E7
:102CE000D8F39923C9F3940F511DA3F39150504089
:102CF00094F059F0882332F0660F771F881F9150A7
:102D00005040C1F79E3F51052CF7880F911D9695B5
:102D1000879597F908955F3FACF0983E9CF0BB27EC
:102D2000869577956795B79508F4B1609395C1F747
:102D3000BB0F58F711F460FFE8CF6F5F7F4F8F4FE5
:102D40009F4FE3CF0C94011516F00C9495170C943B
:102D5000BC1468940C94B6140E94E614A8F399234A
:102D6000C1F3AEF3DF93CF931F930F93FF92C92F5D
:102D7000DD2788232AF02197660F771F881FDAF74F
:102D800020E030E040E85FEB9FE3883920F0803EB0
:102D900038F021968F770E942917E4EAF0E004C00A
:102DA0000E942917E1EDF0E00E943B168B01BE0165
:102DB000EC01FB2E6F5771097595771F880B990BE6
:102DC0000E947B1428E132E741E35FE30E9457153C
:102DD000AF2D9801AE01FF900F911F91CF91DF9120
:102DE0000E9440170C94CD14FA01DC01AA0FBB1FFE
:102DF0009B01AC01BF5728F4222733274427507882
:102E000020C0B75190F4AB2F0024469537952795F5
:102E1000011CA395D2F3002071F0220F331F441F31
:102E2000B395DAF30ED00C94281761307105A0E841
:102E30008A07B94630F49B01AC01662777278827BB
:102E40009078309621F02083318342835383089514
:102E50005058BB27AA270E9440170C94CD140E94FB
:102E6000BF1438F00E94C61420F039F49F3F19F4C3
:102E700026F40C94BC140EF4E095E7FB0C94B61405
:102E8000E92F0E94DE1458F3BA176207730784070C
:102E9000950720F079F4A6F50C9400150EF4E09552
:102EA0000B2EBA2FA02D0B01B90190010C01CA0104
:102EB000A0011124FF27591B99F0593F50F4503EAF
:102EC00068F11A16F040A22F232F342F4427585FA1
:102ED000F3CF469537952795A795F0405395C9F7B9
:102EE0007EF41F16BA0B620B730B840BBAF0915071
:102EF000A1F0FF0FBB1F661F771F881FC2F70EC010
:102F0000BA0F621F731F841F48F4879577956795E2
:102F1000B795F7959E3F08F0B0CF9395880F08F0CE
:102F20009927EE0F9795879508959F3F31F091501F
:102F300020F4879577956795B795880F911D96959D
:102F4000879597F90895DB018F939F930E94D5177A
:102F5000BF91AF91A29F800D911DA39F900DB29F35
:102F6000900D11240895A1E21A2EAA1BBB1BFD018E
:102F70000DC0AA1FBB1FEE1FFF1FA217B307E40758
:102F8000F50720F0A21BB30BE40BF50B661F771FB0
:102F9000881F991F1A9469F7609570958095909590
:102FA0009B01AC01BD01CF0108950E941718A59F98
:102FB000900DB49F900DA49F800D911D1124089534
:102FC0002F923F924F925F926F927F928F929F9239
:102FD000AF92BF92CF92DF92EF92FF920F931F9327
:102FE000CF93DF93CDB7DEB7CA1BDB0B0FB6F894D8
:102FF000DEBF0FBECDBF09942A88398848885F8418
:103000006E847D848C849B84AA84B984C884DF8088
:10301000EE80FD800C811B81AA81B981CE0FD11D6C
:103020000FB6F894DEBF0FBECDBFED010895A29F8D
:10303000B001B39FC001A39F700D811D1124911D8C
:10304000B29F700D811D1124911D08950F931F9340
:10305000CF93DF938230910510F482E090E0E0910D
:103060000802F091090220E030E0A0E0B0E03097E3
:1030700019F1408151810281138148175907C8F025
:103080008417950769F4109731F012960C931297F4
:1030900013961C9327C0009308021093090222C0C4
:1030A0002115310519F04217530718F49A01BD0193
:1030B000EF01DF01F801DBCF21153105F9F0281B05
:1030C000390B2430310580F48A819B8161157105AB
:1030D00021F0FB019383828304C0909309028093C3
:1030E0000802FE01329644C0FE01E20FF31F8193F5
:1030F000919322503109398328833AC020910602E6
:1031000030910702232B41F42091180130911901CD
:103110003093070220930602209116013091170187
:103120002115310541F42DB73EB740911A01509158
:103130001B01241B350BE0910602F0910702E217F8
:10314000F307A0F42E1B3F0B2817390778F0AC01CA
:103150004E5F5F4F2417350748F04E0F5F1F5093A7
:103160000702409306028193919302C0E0E0F0E0F1
:10317000CF01DF91CF911F910F910895CF93DF93EE
:10318000009709F481C0FC01329713821282A0914A
:103190000802B0910902109781F420813181820FD9
:1031A000931F20910602309107022817390751F525
:1031B000F0930702E093060267C0ED0120E030E0E3
:1031C000CE17DF0740F44A815B819E01411551050E
:1031D000F1F0EA01F5CFD383C28340815181840F9E
:1031E000951FC817D90759F488819981840F951FB5
:1031F0000296918380838A819B81938382832115A8
:10320000310529F4F0930902E09308023DC0E90179
:10321000FB83EA8349915991C40FD51FEC17FD0731
:1032200061F480819181840F951F0296E901998351
:103230008883828193819B838A83E0E0F0E0129609
:103240008D919C911397009719F0FD01DC01F7CF48
:103250008D919C9111979D012E5F3F4F820F931F7F
:1032600020910602309107022817390769F4309738
:1032700029F4109209021092080202C013821282ED
:10328000B0930702A0930602DF91CF9108952830F2
:1032900008F027E03327DA01990F311D87FD91608F
:1032A00000966105710539F432602E5F3D9330E37D
:1032B0002A95E1F708959F3F30F080387105610548
:1032C00009F03C5F3C5F3D93913008F08068911DB0
:1032D000DF93CF931F930F93FF92EF92192F987F55
:1032E0009695E92F96959695E90FFF27E05AFE4FA0
:1032F00099273327EE24FF24A701E70105900894BE
:10330000079428F4360FE71EF81E491F511D660F5B
:10331000771F881F991F0694A1F70590079428F43A
:10332000E70EF81E491F561FC11D770F881F991FF2
:10333000661F0694A1F70590079428F4F80E491F1C
:10334000561FC71FD11D880F991F661F771F069430
:10335000A1F70590079420F4490F561FC71FD81FE7
:10336000990F661F771F881F0694A9F784911095FF
:10337000177041F0D695C79557954795F794E79400
:103380001A95C1F7E6E0F1E0689415901591359132
:103390006591959105907FE27395E118F10A430BD1
:1033A000560BC90BD009C0F7E10CF11E431F561F85
:1033B000C91FD01D7EF4703311F48A95E6CFE894CE
:1033C000015030F0080F0AF40027021708F4202FEC
:1033D0002395022F7A3328F079E37D932A95E9F734
:1033E00010C07D932A9589F6069497956795379531
:1033F00017951794E118F10A430B560BC90BD00926
:1034000098F023957E9173957A3308F070E37C935E
:103410002013B8F77E9170617D9330F0839571E34E
:103420007D9370E32A95E1F71124EF90FF900F91BF
:103430001F91CF91DF91992787FD90950895FC0109
:103440000590615070400110D8F7809590958E0FCF
:103450009F1F0895FC016150704001900110D8F742
:10346000809590958E0F9F1F08950F931F93CF9374
:10347000DF93FB01238121FD03C08FEF9FEF2CC061
:1034800022FF16C046815781248135814217530798
:1034900044F4A081B1819D012F5F3F4F3183208390
:1034A0008C93268137812F5F3F4F3783268314C04B
:1034B0008B01EC01FB010084F185E02D0995892B3E
:1034C000E1F6D80116968D919C9117970196179663
:1034D0009C938E931697CE01DF91CF911F910F9100
:1034E00008950F931F93CF93DF93E0910C02F09117
:1034F0000D02238121FF1BC08C01D0E0C0E0F80148
:1035000081918F0160910C0270910D02DB01189680
:10351000ED91FC911997882331F00995892B79F366
:10352000DFEFCFEFECCF8AE00995892B19F08FEF11
:103530009FEF02C08D2F9C2FDF91CF911F910F9194
:103540000895FA01AA27283051F1203181F1E89439
:103550006F936E7F6E5F7F4F8F4F9F4FAF4FB1E086
:103560003ED0B4E03CD0670F781F891F9A1FA11D81
:10357000680F791F8A1F911DA11D6A0F711D811D82
:10358000911DA11D20D009F468943F912AE0269F47
:1035900011243019305D3193DEF6CF010895462FA6
:1035A0004770405D4193B3E00FD0C9F7F6CF462F87
:1035B0004F70405D4A3318F0495D31FD40524193F0
:1035C00002D0A9F7EACFB4E0A695979587957795AD
:1035D0006795BA95C9F700976105710508959B0134
:1035E000AC010A2E06945795479537952795BA95BD
:1035F000C9F7620F731F841F951FA01D0895F894CB
:02360000FFCFFA
:103602000000000200000000E30700000000180CA8
:10361200041060C0802000001002200048656C6C1D
:0A3622006F2C20446F6C6C792100BE
:00000001FF
