S01800006D676F6265726C696E67204C616220322E7372656365
S11300000C940B030C9428030C9428030C942803DD
S11300100C946F0C0C94980C0C94C10C0C94EA0C7A
S11300200C9428030C94500B0C94790B0C94A20B95
S11300300C941D0C0C94CB0B0C94F40B0C94460CEC
S11300400C94D50A0C94FE0A0C94270B0C942803E8
S11300500C9428030C9428030C9428030C94280370
S11300600C9428030C9428030C9428030C94280360
S11300700C9428030C9428030C9428030763423639
S1130080B79BD8A71A39685618AEBAAB558C1D3C25
S1130090B7CC5763BD6DEDFD753EF6177231BF00E9
S11300A00000803F08000000BE922449123EABAA23
S11300B0AA2ABECDCCCC4C3E00000080BEABAAAA7E
S11300C0AA3E00000000BF000000803F00000000C6
S11300D000084178D3BB4387D1133D190E3CC3BDFF
S11300E04282AD2B3E68EC8276BED98FE1A93E4CAC
S11300F080EFFFBE01C4FF7F3F00000000006E617F
S11301006E00696E660000407A10F35A00A0724EC9
S113011018090010A5D4E80000E87648170000E4A8
S11301200B54020000CA9A3B000000E1F5050000F0
S113013080969800000040420F000000A086010055
S11301400000102700000000E80300000000640025
S1130150000000000A000000000001000000000090
S11301602C76D888DC674F0823DFC1DFAE59E1B1B4
S1130170B796E5E3E453C63AE651997696E8E6C2C3
S11301808426EB898C9B62ED407C6FFCEFBC9C9FCA
S113019040F2BAA56FA5F490055A2AF75C936B6CEC
S11301A0F9676DC11BFCE0E40D47FEF520E6B500E0
S11301B0D0ED902E0300943577050080841E08004E
S11301C000204E0A000000C80C333333330F986EFE
S11301D012831141EF8D2114893BE65516CFFEE6BB
S11301E0DB18D1844B381BF77C1D901DA4BBE42481
S11301F0203284725E228100C9F124ECA1E53D27FE
S113020016050100000000000000FA000000E000F4
S1130210E00028FE28FE282454FE5448C4C81026B2
S1130220466C92AA44A000A0C0000000384482009A
S1130230008244380028107C102810107C10100014
S11302400A0C00001010101010000606000004082C
S11302501020407C8A92A27C0042FE020042868AE0
S113026092628482A2D28C182848FE08E4A2A2A238
S11302709C3C5292920C808E90A0C06C9292926C94
S11302806092929478006C6C0000006A6C0000101C
S113029028448200282828282800824428104080E6
S11302A08A90604C929E827C7E8888887EFE9292A0
S11302B0926C7C82828244FE82824438FE929292C4
S11302C082FE909090807C8292925EFE101010FECE
S11302D00082FE8200040282FC80FE10284482FE1A
S11302E002020202FE403040FEFE201008FE7C8224
S11302F082827CFE909090607C828A847AFE9098C0
S11303009462629292928C8080FE8080FC0202024F
S1130310FCF8040204F8FC021C02FCC6281028C6DF
S1130320E0100E10E0868A92A2C200FE8282004093
S113033020100804008282FE002040804020020237
S11303400202020080402000042A2A2A1EFE1222F1
S1130350221C1C222222041C222212FE1C2A2A2ACB
S113036018107E908040304A4A4A7CFE1020201E9D
S11303700022BE0200040222BC00FE081422000077
S113038082FE02003E2018201E3E1020201E1C2249
S113039022221C3E28282810102828183E3E10200F
S11303A02010122A2A2A0420FC2202043C020204FD
S11303B03E38040204383C020C023C221408142285
S11303C0300A0A0A3C22262A322200106C820000DB
S11303D000FE000000826C100008101008100000DD
S11303E00000007F8181817F7F8383837F7F878774
S11303F0877F7F8F8F8F7F7F9F9F9F7F7FBFBFBFB1
S11304007F7FFFFFFF7F2040FF40206215171565A7
S113041000FBFB00000000000000C0FF0300E0FF41
S11304200700F0FF0F00F8FF1F0078001E0078009F
S11304301E0078001E0078001E0078001E00780060
S11304401E0078001E0078001E0078001E000000C8
S113045000000000000080FF0300E0FF0700F0FF41
S11304600F00F8FF1F00F83C1F00783C1E00783C8A
S11304701E00783C1E00783C1E00783C1E00783C30
S11304801E00783C1E00783C1E00783C1E00783C20
S11304901E000000000000000000E0FF0300F0FF69
S11304A00700F8FF0F00F8FF1F00783C1E00783C9F
S11304B01E00783C1E00783C1E00783C1E00783CF0
S11304C01E00783C1E00783C1E00783C1E00783CE0
S11304D01E000000000000000000F8FF0300F8FF09
S11304E00F00F8FF1F00F8FF1F0000001E000000AF
S11304F01E0000801F0000F01F0000FF0F00E0FF3F
S11305000700F0FF0000F80F0000F800000078007A
S1130510000078000000F8FF1F00F8FF1F00F0FF44
S11305201F00E0FF1F000000000000000000F8FFB3
S11305301F00F8FF1F00F8FF1F00F8FF1F007800DE
S11305401E00783C1E00783C1E00783C1E00783C5F
S11305501E00783C1E00783C1E00F87E1F00F8FF49
S11305601F00F0FF0F00E0E70300000000000000A0
S11305703800EEFF6C002A8045003A0047FC03FF78
S11305806CFC83FF3900DEFF0B7CD0810BFCD08137
S11305900BC0D0810BFCD0810B7CDEFF0B0082FFF3
S11305A0397002FF6CF83A0047DC2A8045CCEEFF34
S11305B06CCC000038000000000C00001E0C000091
S11305C01E0000001E0000001E0000001E00F8FFB8
S11305D01F00F8FF1F00F8FF1F00F8FF1F000000B6
S11305E01E0000001E0000001E0000001E0000008F
S11305F05E000000400000007C000000400000009D
S1130600400000007C0000003000000010000000EA
S1130610300000007C0011241FBECFEFD8E0DEBF05
S1130620CDBF12E0A0E0B1E0E4E1F3E402C0059044
S11306300D92AC34B107D9F723E0ACE4B2E001C0C9
S11306401D92A633B207E1F70E942A030C94882175
S11306500C9400000E94D30A0E94C50A0E94F1165D
S113066080E090E008950F931F9385E00E944F0966
S11306708823C1F080E460E00E94470400E0802FFA
S113068060E00E94DB0310E080E061E00E94470428
S11306901F5F1038C9F70F5F043089F783E060E00B
S11306A00E9435041F910F9108950F931F9385E0C5
S11306B00E944209882311F082E07AC00E946404F7
S11306C0182F0E948C091150123008F06DC081500F
S11306D0823008F069C00E9462048EEA60E00E94E1
S11306E0470482EA60E00E94470480EA60E00E94D6
S11306F0470400E513ECC8010197F1F780EC60E0D2
S11307000E9447048FE260E00E94470481E860E0B1
S11307100E94470486E160E00E94470482E260E0B0
S11307200E944704C8010197F1F78FEA60E00E9434
S1130730470486EA60E00E94470485EA60E00E947C
S1130740470480E090E028E833E1F9013197F1F7BC
S1130750019643E0883E9407C1F783EB60E00E9472
S1130760470480E460E00E94470483E060E00E9464
S1130770DB0383E060E00E9435041092CE02109205
S1130780D0021092CF0280E091E0909333038093E3
S1130790320388E10E9414040E94330384EA60E077
S11307A00E94470481E004C085E00E94320987E08A
S11307B01F910F910895FF920F931F93082FF62E08
S11307C085E00E944F098823A1F01F2D1F77037035
S11307D0802F806B60E00E94470412951F70812F68
S11307E0806160E00E9447048F2D8F7060E00E945A
S11307F047041F910F91FF9008950F931F93082FA3
S1130800162F85E00E944F09882359F0812F153156
S113081008F084E166E0869FB0011124802F0E94D5
S113082035041F910F9108951F93182F85E00E949E
S11308304F098823C1F087E00E94A60482E06AE0A1
S11308400E94F70482E061EB0E94F704612F1132E9
S113085008F060E282E00E94F70489EE8A95F1F7DD
S113086087E00E94A6041F9108950F931F93082FF9
S1130870162F85E00E944F09882331F003701F77FB
S11308801093CC020093CD021F910F9108950F9302
S11308901F93082F162F85E00E944F09882379F0B3
S11308A0112319F0113021F402C02B9801C02B9AA6
S11308B086E08A95F1F780E0602F0E94F7041F918B
S11308C00F910895239A089582E00E944209882393
S11308D011F082E008950E94060580E067E47EE05E
S11308E00E949D0481E06FE37EE00E949D0482E00B
S11308F067E37EE00E949D0486E06FE47EE00E9450
S11309009D0483E06FE27EE00E949D0484E06FE238
S11309107EE00E949D0485E06FE27EE00E949D04DB
S113092087E06FE27EE00E949D048FEF8093D10206
S113093087E00E94A60481E00895E82FF0E0EE0F1E
S1130940FF1FE057FD4F7183608308951F93182F95
S113095082E00E944F09882309F447C0912F9770C1
S11309608091D102981709F440C09093D10285B1C7
S1130970887F892B85B9933011F1943028F4913014
S113098051F0923090F40CC0953019F19530E0F0AC
S1130990963021F50FC0E0919202F091930222C0AB
S11309A0E0919002F09191021DC0E0919402F091C7
S11309B0950218C0E0919C02F0919D0213C0E09151
S11309C09602F09197020EC0E0919802F09199027C
S11309D009C0E0919A02F0919B0204C0E0919E024A
S11309E0F0919F02309709F009951F9108951F9384
S11309F0162F0E94A60482E00E944F09882321F04A
S1130A001EBD0DB407FEFDCF1F910895259A2698AB
S1130A10279A209A219A229A08952F923F924F92D0
S1130A205F926F927F928F929F92AF92BF92CF927A
S1130A30DF92EF92FF920F931F93DF93CF930F9266
S1130A40CDB7DEB7582E962E442E3901C982150132
S1130A50CE88DF88A88CB98C6A8D7B8D81E098164E
S1130A6019F1981628F092E0991609F070C03EC06A
S1130A7080E0B7010E94FD0680E0642DA301980187
S1130A800981EE24E39479E0C72E73E0D72E0E9407
S1130A90BD07552009F05BC000D00F92EDB7FEB73B
S1130AA01182338222821CC081E00E94FD0681E013
S1130AB0682DA60195010C8DEE24E39499E0C92ECE
S1130AC093E0D92E0E94BD07552009F040C000D004
S1130AD00F92EDB7FEB791828D8D9E8D93838283A5
S1130AE00E94D5080F900F900F9031C0C7010E944B
S1130AF01F0700D089E093E0EDB7FEB792838183AE
S1130B00842DB301A8012981082D76016501AC8CDF
S1130B10882483940E9450080F900F905520B9F4B4
S1130B2000D000D00F92ADB7BEB71196EDB7FEB7A7
S1130B309182FD01328221828D8D9E8D94838383E7
S1130B400E94D5080F900F900F900F900F900F9068
S1130B50CF91DF911F910F91FF90EF90DF90CF9095
S1130B60BF90AF909F908F907F906F905F904F90C9
S1130B703F902F9008954F925F927F928F929F9211
S1130B80AF92BF92CF92DF92EF92FF920F931F9397
S1130B90DF93CF93CDB7DEB7562F942E7C2CAA8942
S1130BA0BB89CC88DD886E897F89988D813009F472
S1130BB045C0813030F1823009F066C0513071F0A7
S1130BC0513020F0523009F05FC011C080E0B7010D
S1130BD00E94FD0680E0692DA80106C081E00E9404
S1130BE0FD0681E0682DA6010E94C9064DC0C7011B
S1130BF00E941F07892DB801482D96010E94E00626
S1130C0043C0EDB7FEB739970FB6F894FEBF0FBED9
S1130C10EDBF4DB65EB60894411C511CB283A1834E
S1130C20F201D382C282758364839683898D9A8DFF
S1130C309087878380E0652FC72C1CC0EDB7FEB773
S1130C4039970FB6F894FEBF0FBEEDBFADB6BEB672
S1130C500894A11CB11CB283A183F501D382C28282
S1130C607583648396831086178281E0652FC72C71
S1130C70AA24BB240E940D058DB79EB709960FB612
S1130C80F8949EBF0FBE8DBFCF91DF911F910F913E
S1130C90FF90EF90DF90CF90BF90AF909F908F9098
S1130CA07F905F904F90089587E00E9442098823C7
S1130CB011F082E008950E94280981E080930803DE
S1130CC01092D2021092D3021092D5021092D40242
S1130CD01092D7021092D6021092D9021092D80222
S1130CE01092DB021092DA021092DD021092DC0202
S1130CF01092DF021092DE021092E1021092E002E2
S1130D001092E3021092E2021092E5021092E402C1
S1130D101092E7021092E6021092E9021092E802A1
S1130D201092EB021092EA021092F0021092F10279
S1130D301092F2021092F3021092F5021092F6024F
S1130D401092F7021092F8021092F9021092FA022D
S1130D501092FB021092FD021092FC021092FF020C
S1130D601092FE02109201031092000310920303EA
S1130D70109202031092ED021092EC021092EF0214
S1130D801092EE02109207031092060310920803C9
S1130D900895EF92FF920F931F93182F062F7A0155
S1130DA060E00E945C07812F602F0E943D07812F25
S1130DB0B7010E9471071F910F91FF90EF90089562
S1130DC0CF92DF92EF92FF920F931F93C82E7B0175
S1130DD0D42E890182E060E00E945C078C2D6D2D89
S1130DE00E945207C701B8010E949E071F910F91EC
S1130DF0FF90EF90DF90CF900895482F81E080938B
S1130E000803CB0123E0693E720710F088EE93E0FB
S1130E10413071F0413018F0423071F405C09093C4
S1130E20DD028093DC0208C09093DD028093DC0233
S1130E309093DF028093DE0210920803089521E06C
S1130E4020930803AC0183E0493E580710F048EEB4
S1130E5053E09B0183E0693E780710F028EE33E00D
S1130E60F8945093DD024093DC023093DF02209328
S1130E70DE027894109208030895982F81E08093FD
S1130E800803913051F0913018F0923041F403C0CE
S1130E906093F50204C06093F5026093F602109229
S1130EA00803089591E090930803E5EFF2E081933D
S1130EB06083109208030895982F81E080930803BB
S1130EC0913051F0913018F0923041F403C06093A6
S1130ED0D20204C06093D2026093D302109208033A
S1130EE00895482F81E080930803CB0121E0613904
S1130EF0720710F080E991E0413061F0413018F060
S1130F004230C9F40EC0F8949093D5028093D40271
S1130F10789411C0F8949093D7028093D602789471
S1130F200AC0F8949093D5028093D4029093D70288
S1130F308093D6027894109208030895AC0181E05E
S1130F4080930803F894CB0121E06139720710F013
S1130F5080E991E09093D7028093D6029A0181E0D0
S1130F604139580710F020E931E03093D50220933D
S1130F70D40278941092080308958F929F92AF92AE
S1130F80BF92CF92DF92EF92FF920F931F93CF9372
S1130F90DF93182FF62E4A015901E60187E00E94DB
S1130FA04F09882309F46FC0812F61E00E945C0718
S1130FB0812FB401A5010E942910812F6F2D0E9459
S1130FC03D07812F602F0E941410812FB4010E94CD
S1130FD0EC0FC114D10499F0113049F0113018F01C
S1130FE0123069F406C018821092040308C01982F2
S1130FF004C0188219821092040310920503D0933E
S11310000703C0930603EE20B9F58CE492E09093B5
S1131010070380930603812FB5010E947107812F76
S11310200E94D70F113071F0113018F0123059F5B9
S113103012C010924C021092040380914C02882337
S1131040E1F321C010924D021092050380914D02EC
S11310508823E1F318C010924C0210924D021092B2
S113106004031092050380914C028823E1F38091DC
S11310704D028823C1F307C0812FB5010E94710777
S1131080812F0E94D70FDF91CF911F910F91FF9075
S1131090EF90DF90CF90BF90AF909F908F90089586
S11310A03F924F925F926F927F928F929F92AF92F4
S11310B0BF92CF92DF92EF92FF920F931F93DF9331
S11310C0CF93CDB7DEB7982E2B013A01322EB02E36
S11310D00C891D8987E00E944F09882309F453C0B5
S11310E082E061E00E945C0780E0B201A3010E94FB
S11310F0291081E0B701A6010E942910892D6B2DCA
S11311000E94520780E0632D0E94141081E06A2D32
S11311100E941410C201B7010E94071001151105A5
S113112039F0F80110821182109204031092050321
S113113010930703009306038820F1F48EE492E0F1
S11311409093070380930603C301B6010E949E0790
S113115082E00E94D70F10924E0210924F0210921A
S113116004031092050380914E028823E1F38091D9
S11311704F028823C1F307C0C301B6010E949E0732
S113118082E00E94D70FCF91DF911F910F91FF90C2
S1131190EF90DF90CF90BF90AF909F908F907F9013
S11311A06F905F904F903F900895CF92DF92EF92AF
S11311B0FF920F931F93DF93CF93CDB7DEB71B85B9
S11311C087E00E944F098823D1F1113061F011307A
S11311D018F01230A1F511C0EC85FD85809109034A
S11311E08823E1F306C0EC85FD8580910A038823FA
S11311F0E1F3309721F1099522C0CC84DD84EE849B
S1131200FF8400E010E0002351F480910903882357
S113121031F0C114D10411F0F601099501E0112354
S113122051F480910A03882331F0E114F10411F0A0
S1131230F701099511E0002331F3112321F3CF9134
S1131240DF911F910F91FF90EF90DF90CF90089561
S11312503A9A3B9A3C9A3D9A3E9A3F9A88B1837057
S113126088B90895853160F4E82FF0E0E954FD4F22
S11312708081882329F08081815080838081089532
S11312808FEF0895853110F080E00895E82FF0E0A5
S1131290E954FD4F80818F5F8083815008958531AB
S11312A010F080E00895E82FF0E0E954FD4F8081CC
S11312B0811181E008950F931F9381E00E944F09EB
S11312C0882311F400E024C087E00E94A60482E091
S11312D06AE00E94F70482E062EB0E94F70418ECD3
S11312E0812F8A95F1F782E060E00E94580E082F62
S11312F0812F8A95F1F782E060E00E94580E1A95DA
S1131300F1F787E00E94A60488E893E10197F1F7DA
S1131310802F1F910F910895DF93CF9300D00F92E8
S1131320CDB7DEB781E00E944209882311F082E044
S113133011C00E9464048150823040F40E94B009BC
S1131340CE0101960E947D1081E004C081E00E94DC
S1131350320987E00F900F900F90CF91DF9108959D
S11313601092200310921F03109222031092210363
S11313701092240310922303109226031092250343
S1131380109228031092270380E991E090930C03B4
S113139080930B0390930E0380930D03909310039B
S11313A080930F039093120380931103909314037B
S11313B08093130384E398E09093160380931503BA
S11313C0909318038093170390931A03809319033F
S11313D090931C0380931B0390931E0380931D031F
S11313E008950F931F93DF93CF93CDB7DEB729975B
S11313F00FB6F894DEBF0FBECDBF8C0188E00E940B
S11314004F09882311F491E00DC0CE01019661E0EB
S113141040E098010E941E0A982F882319F48F81B6
S11314208823E9F3892F29960FB6F894DEBF0FBEFF
S1131430CDBFCF91DF911F910F910895EF92FF924D
S11314400F931F93CF93DF93EC01F62EE42E8901C3
S113145088E00E944F09882311F481E026C084E0CB
S113146090E00E94C91EFC01009711F482E01DC0A7
S1131470F982F0FC1E8281E0E81619F48981846007
S113148089838981886089831B830A831D830C83F4
S1131490D183C0831382128281E08093B002CF0192
S11314A00E945C0A1092B00280E0DF91CF911F91FC
S11314B00F91FF90EF900895CF92DF92EF92FF92F9
S11314C00F931F93CF93DF93EC018091290388231B
S11314D039F4D0932B03C0932A030E94D61047C03B
S11314E0C0902A03D0902B0300E010E0EE24FF24E8
S11314F037C0A881B981FD0164817581F6014081FD
S11315005181FA01848195819B01281B390B37FF96
S11315100FC0861B970B95838483DB82CA82012BC1
S113152029F4D0932B03C0932A0321C0F7010CC0E4
S1131530F601828193812115310549F4FD0115825B
S113154014829B838A83F601D383C28310C0FD0176
S1131550358324830097B9F30F5F1F4F76016C0125
S11315608091290390E00817190718F2ECCF8091B5
S113157029038F5F80932903DF91CF911F910F91EE
S1131580FF90EF90DF90CF9008950E9466100E9424
S1131590D10D0E94130D0E94BA100E9464040E948F
S11315A08C0978940895000008951F920F920FB645
S11315B00F9211242F933F934F935F936F937F93D5
S11315C08F939F93AF93BF93EF93FF93E091700238
S11315D0F0917102309709F00995FF91EF91BF9155
S11315E0AF919F918F917F916F915F914F913F91B7
S11315F02F910F900FBE0F901F9018951F920F926E
S11316000FB60F9211242F933F934F935F936F93D1
S11316107F938F939F93AF93BF93EF93FF93E09147
S11316207202F0917302309709F00995FF91EF91DE
S1131630BF91AF919F918F917F916F915F914F91E6
S11316403F912F910F900FBE0F901F9018951F92EE
S11316500F920FB60F9211242F933F934F935F93E2
S11316606F937F938F939F93AF93BF93EF93FF9366
S1131670E0917402F0917502309709F00995FF9199
S1131680EF91BF91AF919F918F917F916F915F91F6
S11316904F913F912F910F900FBE0F901F9018956F
S11316A01F920F920FB60F9211242F933F934F93D3
S11316B05F936F937F938F939F93AF93BF93EF93B6
S11316C0FF93E0916202F0916302309709F009956B
S11316D0FF91EF91BF91AF919F918F917F916F9106
S11316E05F914F913F912F910F900FBE0F901F90DC
S11316F018951F920F920FB60F9211242F933F93B8
S11317004F935F936F937F938F939F93AF93BF9305
S1131710EF93FF93E0916402F0916502309709F032
S11317200995FF91EF91BF91AF919F918F917F9117
S11317306F915F914F913F912F910F900FBE0F903A
S11317401F9018951F920F920FB60F9211242F938A
S11317503F934F935F936F937F938F939F93AF9335
S1131760BF93EF93FF93E0916602F0916702309785
S113177009F00995FF91EF91BF91AF919F918F91DE
S11317807F916F915F914F913F912F910F900FBE79
S11317900F901F9018951F920F920FB60F9211245D
S11317A02F933F934F935F936F937F938F939F9365
S11317B0AF93BF93EF93FF93E0916A02F0916B02B2
S11317C0309709F00995FF91EF91BF91AF919F91E7
S11317D08F917F916F915F914F913F912F910F90D6
S11317E00FBE0F901F9018951F920F920FB60F9275
S11317F011242F933F934F935F936F937F938F9312
S11318009F93AF93BF93EF93FF93E0916C02F0919A
S11318106D02309709F00995FF91EF91BF91AF9157
S11318209F918F917F916F915F914F913F912F91F4
S11318300F900FBE0F901F9018951F920F920FB626
S11318400F9211242F933F934F935F936F937F9342
S11318508F939F93AF93BF93EF93FF93E0916802AD
S1131860F0916902309709F00995FF91EF91BF91CA
S1131870AF919F918F917F916F915F914F913F9124
S11318802F910F900FBE0F901F9018951F920F92DB
S11318900FB60F9211242F933F934F935F936F933F
S11318A07F938F939F93AF93BF93EF93FF93E091B5
S11318B06E02F0916F02309709F00995FF91EF9154
S11318C0BF91AF919F918F917F916F915F914F9154
S11318D03F912F910F900FBE0F901F9018951F925C
S11318E00F920FB60F9211242F933F934F935F9350
S11318F06F937F938F939F93AF93BF93EF93FF93D4
S1131900E0915802F0915902309709F00995FF913E
S1131910EF91BF91AF919F918F917F916F915F9163
S11319204F913F912F910F900FBE0F901F901895DC
S11319301F920F920FB60F9211242F933F934F9340
S11319405F936F937F938F939F93AF93BF93EF9323
S1131950FF93E0915A02F0915B02309709F00995E8
S1131960FF91EF91BF91AF919F918F917F916F9173
S11319705F914F913F912F910F900FBE0F901F9049
S113198018951F920F920FB60F9211242F933F9325
S11319904F935F936F937F938F939F93AF93BF9373
S11319A0EF93FF93E0915C02F0915D02309709F0B0
S11319B00995FF91EF91BF91AF919F918F917F9185
S11319C06F915F914F913F912F910F900FBE0F90A8
S11319D01F9018951F920F920FB60F9211242F93F8
S11319E03F934F935F936F937F938F939F93AF93A3
S11319F0BF93EF93FF93E0915E02F0915F02309703
S1131A0009F00995FF91EF91BF91AF919F918F914B
S1131A107F916F915F914F913F912F910F900FBEE6
S1131A200F901F90189580E10E944209882311F0BD
S1131A3082E00895E0E5F2E01192119282E0E0394B
S1131A40F807D1F781E00895FF920F931F93CF9386
S1131A50DF93F82E8AE0F816B1F08F1548F0E8E02D
S1131A60FE16B9F1EF1538F1F7E0FF1651F43BC05B
S1131A708DE0F81659F0EBE1FE1689F0FCE0FF1654
S1131A8041F001E041C01092CC0203C01092CC029C
S1131A903AC08091CD0281508093CD0234C00E941F
S1131AA0330314C080E061E00E9447048091CC02BB
S1131AB08F5F8093CC028091CC0287FFF3CF10928A
S1131AC0CC028091CD0281508093CD0200E011E0E0
S1131AD01CC08091CC028823B1F08091CC02865046
S1131AE08093CC0210C081E00E94290F64EF71E062
S1131AF080E090E04DE750E024E630E00E94350FAE
S1131B0081E00E94900E00E010E08091CD0260918F
S1131B10CC020E94DB03002351F185E0F89EC00152
S1131B201124EC01CD59DE4F8C0108591E4FFE01E2
S1131B30849161E00E9447042196C017D107B9F748
S1131B4080E061E00E9447048091CC028A5F809328
S1131B50CC028091CC0290E08C3791053CF010923D
S1131B60CC028091CD0281508093CD0211E080910E
S1131B70CD0283708093CD02113059F48091CE024E
S1131B80813039F4E091CF02F091D002309709F01E
S1131B90099580E090E0DF91CF911F910F91FF9024
S1131BA00895F8940E942C0E81E00E94D90D81E0E2
S1131BB00895813049F0F894813020F18230B1F0F9
S1131BC0833009F045C017C02C9A80E880936100E7
S1131BD01092610080E090E0000001968832910547
S1131BE0D9F71092680010926B00089580E88093F2
S1131BF0610083E004C080E88093610088E0809302
S1131C00610028C080E090E0000001962DE6803657
S1131C109207D1F72C9880E090E0000001962DE621
S1131C2080369207D1F710927A008FEF8093640088
S1131C308091680081608093680080916B0084606B
S1131C4080936B00789483B7816083BF88950895EF
S1131C50823008F078940895249A2C9A089583E5A4
S1131C608CBD81E08DBD8DE08A95F1F7089583E503
S1131C708CBD1DBC84EF91E00197F1F708958FE7C7
S1131C808CBD1DBC84EF91E00197F1F7089583E5C5
S1131C908CBD81E08DBD8DE08A95F1F7089583E5D3
S1131CA08CBD81E08DBD84EF91E00197F1F708953B
S1131CB01F93162F0E94A60482E00E944F098823D6
S1131CC029F01EBD0DB407FEFDCF8EB51F910895FA
S1131CD08AE00E943209882329F481E00E948B0F54
S1131CE01092A102089589E00E9432098823B9F470
S1131CF08091A002882311F00E94D10F82E00E94FB
S1131D008B0F8091AE029091AF02009731F00E9448
S1131D10611F1092AF021092AE021092A0020895B9
S1131D20813029F0823029F40E94730E08950E94B4
S1131D30680E08950F931F93CF93DF9380E291E091
S1131D400E94C91E9C019093AF028093AE02892B1E
S1131D5011F480E039C08901C0E0D0E0BE0180E028
S1131D6090E00E941C1B20E030E040EA51E40E9415
S1131D707B1A27EF35E740E05FE30E94E71B9B01F6
S1131D80AC0160E070E080E291E40E94541C9B018D
S1131D90AC01CA01B9012DEC3CEC42E851E40E94CB
S1131DA0E71B0E94AA1B2AE030E040E050E00E94BA
S1131DB0461EF80161937193819391938F0121964B
S1131DC0C834D10559F681E0DF91CF911F910F916D
S1131DD008958AE00E944209882311F082E0089560
S1131DE01092AB021092AA0281E00E94A70F81E038
S1131DF08093A10208951F9389E00E9442098823D9
S1131E0011F082E024C08BE00E944F098823D9F4AA
S1131E100E949A0E182F813011F086E018C010929B
S1131E20A2021092A3021092A4021092A5028DE0C5
S1131E306EE071E10E94E91082E00E94A70F109306
S1131E40A00281E004C089E00E94320987E01F916A
S1131E500895813021F0823029F084E008950E94B1
S1131E60E90E08950E94FB0E08956F927F928F925F
S1131E709F92AF92BF92CF92DF92EF92FF920F9315
S1131E801F93CF93DF933B014C015A01E9018AE090
S1131E900E944F09882381F1209741F1950144273D
S1131EA037FD4095542FBE01C536D10510F064E6C8
S1131EB070E080E090E00E94461E24E630E040E0BE
S1131EC050E00E94561E79018A01C401B3010E94A8
S1131ED01111C7010E94F10960E070E080E090E018
S1131EE00E941111C5018E199F0904C0A114B104E7
S1131EF019F0C5010E94F109DF91CF911F910F9153
S1131F00FF90EF90DF90CF90BF90AF909F908F9015
S1131F107F906F900895823029F4809181008E7FA4
S1131F20809381008091A002813031F48091A102DC
S1131F30813011F4000008958091A002813021F0D5
S1131F408091A102813011F45F9857980895982FD9
S1131F508091A002882331F48091A102882311F496
S1131F60579A5F988091A0028823D1F49230C1F4EB
S1131F70109280001092810080918100886080938B
S1131F80810080918100816080938100109285009E
S1131F901092840081E08093890080E98093880016
S1131FA00895EFE6F0E080818D7F80830895982F77
S1131FB081E080930803913051F0913018F0923011
S1131FC041F403C01092F00204C01092F002109287
S1131FD0F102109208030895982F81E0809308037A
S1131FE0913071F0913018F0923071F405C0709313
S1131FF0E5026093E40208C07093E5026093E40292
S11320007093E7026093E60210920803089521E0BA
S113201020930803E4EEF2E0918380833296718387
S11320206083109208030895982F81E08093080339
S1132030913051F0913018F0923041F403C0609324
S1132040F20204C06093F2026093F3021092080358
S113205008950F931F93CF93DF93EB018A0181308F
S113206001F1813018F0823061F50DC08091DC02FD
S11320709091DD02892B11F080E01AC01092E902E0
S11320801092E8021EC08091DC029091DD02892B3F
S113209021F080E00E94761104C01092E9021092AF
S11320A0E8028091DE029091DF02892B31F081E019
S11320B0BE01A8010E94761104C01092EB02109296
S11320C0EA02DF91CF911F910F910895CF93DF938F
S11320D0C0E0D0E08C2F60E00E9475102196C531DD
S11320E0D105C1F7DF91CF910895853128F4E82F08
S11320F0F0E0E954FD4F608308951F93CF93DF937D
S1132100EC01009799F181E00E944F09882351F175
S113211087E00E94A60418EC812F8A95F1F782E0EB
S11321206AE00E94F70482E064EB0E94F704812FC6
S11321308A95F1F782E060E00E94580E8883812F2F
S11321408A95F1F782E060E00E94580E89831A951F
S1132150F1F782E060E00E94580E8A8387E00E94D3
S1132160A60404C0188219828DE28A83DF91CF917C
S11321701F91089588E00E944209882311F082E0AB
S113218008951092290310922B0310922A0310929F
S1132190B0021092B10280E163EE71E10E94FD1081
S11321A00E94DA100E94E31081E0089581E0809398
S11321B0B102089584B5826084BD85B5846085BD0F
S11321C08EE487BD0895EEE6F0E08081826080832E
S11321D00895E82F803268F48051833050F0F0E0A5
S11321E0EE0FFF1FE05BFD4F20813181718360831F
S11321F002C020E030E0C9010895803218F020E0E8
S113220030E00AC0E82FF0E0EE0FFF1FE05BFD4F67
S11322102081318171836083C90108950E94351141
S11322200895EF92FF920F931F937B018C018AE034
S11322300E944F098823A1F08091A102882381F094
S1132240D801C701880F991FAA1FBB1F9093AD0225
S11322508093AC02E114F1040105110509F45F98BF
S11322601F910F91FF90EF9008958091A202909199
S1132270A302A091A402B091A5022091A6023091DC
S1132280A7024091A8025091A902280F391F4A1FA2
S11322905B1F2093A2023093A3024093A4025093A5
S11322A0A5028091A2029091A302A091A402B091F0
S11322B0A5028851964FA040B040BCF08BB1805825
S11322C08BB98091A2029091A302A091A402B09133
S11322D0A5028851964FA040B0408093A2029093EB
S11322E0A302A093A402B093A5020895EF92FF92D3
S11322F00F931F93CF93DF93EB01882321F0813059
S113230009F05AC02DC09A0140E050E0CA01B90159
S11323100E94461E2091DC023091DD02220F331F01
S113232040E050E00E94561E79018A01A8019701FD
S1132330220F331F441F551FCE01A0E0B0E08217C7
S11323409307A407B50728F0F092E902E092E802A7
S113235033C0D695C795D093E902C093E8022CC048
S11323609A0140E050E0CA01B9010E94461E209142
S1132370DE023091DF02220F331F40E050E00E9462
S1132380561E79018A01A8019701220F331F441FA9
S1132390551FCE01A0E0B0E082179307A407B5074C
S11323A028F0F092EB02E092EA0206C0D695C795B7
S11323B0D093EB02C093EA02DF91CF911F910F916A
S11323C0FF90EF9008950E94EA110E942A120E9441
S11323D00312089588E00E944F09882311F484E0D1
S11323E008958091B102882311F483E008958091C7
S11323F0B002882311F082E008950E949C14813079
S1132400E1F380E008958091A102813011F580917B
S1132410AA029091AB022091AC023091AD02280F38
S1132420391F3093AB022093AA028091AA029091A3
S1132430AB02885E93406CF08BB180588BB980916D
S1132440AA029091AB02885E93409093AB02809372
S1132450AA02089587E00E944F09882309F4AAC0BC
S11324608091DC029091DD02892B09F180910003B7
S1132470909101032091DC023091DD02820F931FC1
S113248090930103809300038091000390910103D2
S1132490885E9340A4F08091000390910103885ECC
S11324A09340909301038093000341E009C080911D
S11324B0D4029091D5029093D9028093D80240E03F
S11324C08091DE029091DF02892B09F18091020351
S11324D0909103032091DE023091DF02820F931F5B
S11324E0909303038093020380910203909103036A
S11324F0885E9340A4F08091020390910303885E68
S11325009340909303038093020361E009C0809198
S1132510D6029091D7029093DB028093DA0260E0B6
S1132520842F0E94DB128091FC029091FD02209185
S1132530D8023091D902280F391F3093FD0220931D
S1132540FC028091FC029091FD02885E934014F499
S113255040E00BC08091FC029091FD02885E9340A4
S11325609093FD028093FC0241E08091FE029091E1
S1132570FF022091DA023091DB02280F391F3093D9
S1132580FF022093FE028091FE029091FF02885E7A
S1132590934014F460E00BC08091FE029091FF021E
S11325A0885E93409093FF028093FE0261E0842F43
S11325B00E94201308958823F1F02091D4023091D1
S11325C0D5028091D8029091D902281B390B12169A
S11325D0130634F48091D8029091D902019607C071
S11325E0232B49F08091D8029091D90201979093BE
S11325F0D9028093D802662311F12091D60230913A
S1132600D7028091DA029091DB02281B390B121653
S1132610130654F48091DA029091DB0201969093B0
S1132620DB028093DA020895232B49F08091DA02C9
S11326309091DB0201979093DB028093DA02089574
S11326400F931F93182F062F80910803882309F0F6
S1132650E7C08091F002882309F05AC08091D80223
S11326609091D902892BE9F48091B202837E809300
S1132670B2021092F90280910403882309F45DC028
S11326806091F20280E00E947714E0910603F091D9
S11326900703309709F451C081E08083109204034A
S11326A04CC08091D202813041F48091E402909137
S11326B0E502019711F411E002C01123F1F1E09158
S11326C0F702F0E0E25FFE4F9091B202937E8081C8
S11326D0892B8093B2028091F502882321F48091A2
S11326E0F7028F5F03C08091F70281508093F70255
S11326F08091F70283708093F70281E08093F9025E
S11327008091D2028130C9F480E00E94231415C064
S11327109091B202937E9093B202E091F702F0E0BE
S1132720E25FFE4F8081892B8093B20282E0809326
S1132730F9021092D9021092D8028091F1028823F2
S113274009F059C08091DA029091DB02892BE9F4F7
S11327508091B2028F718093B2021092FA0280913A
S11327600503882309F45CC06091F30281E00E94B0
S11327707714E0910603F0910703309709F450C0F1
S113278081E08183109205034BC08091D302813094
S113279041F48091E6029091E702019711F401E07F
S11327A002C00023E9F1E091F802F0E0EE5EFE4F92
S11327B09091B2029F718081892B8093B2028091A3
S11327C0F602882321F48091F8028F5F03C0809180
S11327D0F80281508093F8028091F802837080930C
S11327E0F80281E08093FA028091D3028130C1F42F
S11327F00E94231415C09091B2029F719093B2026B
S1132800E091F802F0E0EE5EFE4F8081892B809328
S1132810B20282E08093FA021092DB021092DA0292
S11328208091FB02882331F482EB92E0612F402FE8
S11328300E940A1588B183709091B202892B88B9DD
S11328401F910F910895882321F0813009F04EC023
S113285027C08091E4029091E502892B49F0809190
S1132860E4029091E50201979093E5028093E402DB
S1132870809104038823D1F52091E4023091E5028C
S11328808091E8029091E9022817390779F580E0F0
S113289060E070E00E94710781E080930403089572
S11328A08091E6029091E702892B49F08091E6023B
S11328B09091E70201979093E7028093E60280915A
S11328C00503882399F42091E6023091E702809170
S11328D0EA029091EB022817390741F481E060E0A5
S11328E070E00E94710781E08093050308950F93BF
S11328F01F93182F062F662349F460E070E00E94AE
S11329007107812F60E070E00E94EC0F81E08093FA
S11329100803113051F0113018F0123041F403C0A3
S11329200093F00204C00093F0020093F1021092AD
S113293008031F910F910895FF920F931F93CF9354
S1132940DF9380912903882309F459C000912A0355
S113295010912B03F801C081D1818C819D81019755
S11329609D838C83181619060CF449C0898180FF55
S113297005C08E81882311F481E08E83898181FFD3
S113298003C0EF81F8850995809129038230A8F06E
S1132990F8018281938190932B0380932A031382FD
S11329A01282E0910000F091010084819581181653
S11329B019063CF0FF24F39405C010922B031092E7
S11329C02A03FF2480912903815080932903809155
S11329D02903882311F40E940715898182FF08C006
S11329E08A819B819D838C83C8010E945C0A08C0F4
S11329F0C8010E94611F89818F7E898301C0FF24E1
S1132A008F2DDF91CF911F910F91FF900895109218
S1132A10B1020895FC018091F902823069F4809139
S1132A20B60291E089278093B602882309F03EC05C
S1132A308081837E80833AC08091D8029091D902AC
S1132A40C397A4F56623D1F02091D8023091D9021E
S1132A5080E690E0BC01269FC001279F900D369F21
S1132A60900D1124880F892F881F990B9093ED02E4
S1132A708093EC0281E08093B40218C08091B40288
S1132A808823A1F08091EC029091ED02019790933C
S1132A90ED028093EC028091EC029091ED02892B7F
S1132AA029F48081837E80831092B4028091FA029B
S1132AB0823069F48091B50291E089278093B50250
S1132AC0882309F03EC080818F71808308958091AE
S1132AD0DA029091DB02C397A4F54423D1F020914C
S1132AE0DA023091DB0280E690E0AC01249FC00161
S1132AF0259F900D349F900D1124880F892F881FD6
S1132B00990B9093EF028093EE0281E08093B302DD
S1132B1008958091B3028823A1F08091EE029091F0
S1132B20EF0201979093EF028093EE028091EE0200
S1132B309091EF02892B29F480818F718083109208
S1132B40B302089560E083E00E94FD038CE191E00C
S1132B509F938F930E94142160E082E00E94FD0302
S1132B608DE291E09F938F930E94142160E081E0B5
S1132B700E94FD038CE391E09F938F930E941421A4
S1132B8060E080E00E94FD038AE491E09F938F93CC
S1132B900E9414218DB79EB708960FB6F8949EBF75
S1132BA00FBE8DBF0895009789F560E083E00E9411
S1132BB0FD0385E591E09F938F930E94142160E0CB
S1132BC082E00E94FD0387E691E09F938F930E9429
S1132BD0142160E081E00E94FD0384E791E09F936B
S1132BE08F930E94142160E080E00E94FD0382E83C
S1132BF091E09F938F930E9414218DB79EB70896FE
S1132C000FB6F8949EBF0FBE8DBF0895019711F4BF
S1132C100C94A2150E94330383E991E09F938F9350
S1132C200E9414210F900F9084EF91E00C94F1090D
S1132C308F929F92AF92BF92CF92DF92EF92FF92C8
S1132C400F931F93CF93DF93182FEB0180E090E055
S1132C500E941C1B20E635EE40E55DE30E947B1AD2
S1132C600E94ED1A962ED72E88EC90E00E94F1096E
S1132C70111130C00E943303DF93CF9385EA91E0B2
S1132C809F938F930E9414211F921F921F9281E0A1
S1132C908F9383E18F931F9286E98F93DF929F92A4
S1132CA0812CA12CB12CC12C9CE2E92EFF24F3949D
S1132CB006E910E0292D3D2D40E062E080E00E940D
S1132CC0BB058DB79EB70D960FB6F8949EBF0FBE89
S1132CD08DBF3FC0113079F50E943303DF93CF934A
S1132CE086EB91E09F938F930E9414211F921F9271
S1132CF01F921F9383E18F931F9286E98F93DF9234
S1132D009F92812CA12CB12CC12C8CE2E82EFF24A3
S1132D10F39406E910E0292D3D2D40E062E080E0C7
S1132D200E94BB058DB79EB70D960FB6F8949EBF53
S1132D300FBE8DBF0EC00E9433038AEC91E09F93B7
S1132D408F930E94142184EF91E00E94F1090F9067
S1132D500F90DF91CF911F910F91FF90EF90DF9033
S1132D60CF90BF90AF909F908F900C9433030EED53
S1132D7011E084E690E00E94F1090E945B0984FF5F
S1132D8003C066E070E024C083FF03C06CE070E021
S1132D901FC082FF21C062E170E080E00E9418162B
S1132DA0C5E0D0E060E083E00E94FD03DF93CF93B1
S1132DB01F930F930E94142188EE93E00E94F1095F
S1132DC021970F900F900F900F9061F768E170E0DA
S1132DD080E00E941816CDCF80E090E00E94D315C9
S1132DE0C8CF0E9455030E948C090E94540668ECC7
S1132DF070E082E00E94FD060E94B716A0E1B0E0F8
S1132E00E4E0F7E10C94831E7C011B016A01FC01E0
S1132E1017821682838181FF44C39E012F5F3F4F37
S1132E203901F7019381F10193FD859193FF81911C
S1132E301F01882309F431C3853239F493FD859148
S1132E4093FF81911F01853239F4B70190E00E940C
S1132E50D82056016501E5CF10E0512C912CFFE1FB
S1132E60F915D8F08B3279F038F4803279F0833266
S1132E70A1F4F92DF0612EC08D3261F0803369F434
S1132E80292D21602DC0392D3260932E892D846027
S1132E90982E2AC0E92DE86015C097FC2DC020EDBE
S1132EA0280F2A3088F496FE06C03AE0139F200DBE
S1132EB01124122F19C08AE0589E200D1124522E7D
S1132EC0E92DE0629E2E10C08E3231F496FCE5C2EC
S1132ED0F92DF0649F2E08C08C3621F4292D20682A
S1132EE0922E02C0883641F4F10193FD859193FF3F
S1132EF081911F018111B3CF9BEB980F933020F484
S1132F00992D9061805E07C09BE9980F933008F07B
S1132F1066C1992D9F7E96FF16E09F73992E853684
S1132F2019F49064992E08C0863621F4392F30683C
S1132F30932E02C01111115097FE07C01C3350F498
S1132F4044244394410E27E00BC0183038F027E0A6
S1132F5017E005C027E09CE3492E02C0212F412C35
S1132F60560184E0A80EB11CF60160817181828152
S1132F709381042DA3010E94EA1F6C01F981FC874F
S1132F80F0FF02C0F3FF06C091FC06C092FE06C02B
S1132F9000E205C00DE203C00BE201C000E08C8535
S1132FA08C7019F001115AC29BC297FE10C04C0CD0
S1132FB0FC85F4FF04C08A81813309F44A94141413
S1132FC074F528E0241578F588E0482E2CC096FC8A
S1132FD02AC0812F90E08C159D059CF03CEFC31610
S1132FE03FEFD30674F0892D8068982E0AC0E2E082
S1132FF0F0E0EC0FFD1FE10FF11D8081803319F427
S113300011501111F4CF97FE0EC044244394410E85
S1133010812F90E0C816D9062CF41C1904C044244E
S1133020439401C010E097FE06C01C141D0434F440
S1133030C601019605C085E090E002C081E090E001
S113304001110196112331F0212F30E02F5F3F4F02
S1133050820F931F252D30E08217930714F4581A1A
S113306001C0512C892D897049F4552039F0B701DC
S113307080E290E00E94D8205A94F7CF002329F0F0
S1133080B701802F90E00E94D82093FC09C05520FE
S113309039F0B70180E390E00E94D8205A94F7CF2A
S11330A097FE4CC04601D7FE02C0812C912CC6016C
S11330B088199909F301E80FF91FFE87ED87960136
S11330C024193109388B2F87012F10E011950195B0
S11330D011093FEF8316930629F4B7018EE290E0BD
S11330E00E94D820C814D9044CF08F85988988157B
S11330F0990524F4ED85FE85818101C080E3F1E02A
S11331008F1A91082D853E852F5F3F4F3E872D876F
S1133110801691062CF0B70190E00E94D820D9CFF8
S1133120C814D90441F49A81963320F4953319F4E0
S11331303C8534FF81E3B70190E04EC08A8181333E
S113314019F09C859F7E9C87B70190E00E94D8204F
S1133150111105C094FC18C085E690E017C0B701B2
S11331608EE290E00E94D8201E5F82E001E0080F0A
S1133170F301E80FF11D8081B70190E00E94D8208F
S1133180802F0113F3CFE6CF85E490E0B7010E94CE
S1133190D820D7FC06C0C114D10441F4EC85E4FF67
S11331A005C0D194C194D1088DE201C08BE2B7016E
S11331B090E00E94D82080E32AE0C216D1042CF0CB
S11331C08F5FFAE0CF1AD108F7CFB70190E00E94E1
S11331D0D820B701C601C0960E94D82054C18336B6
S11331E031F0833779F0833509F056C020C0560199
S11331F032E0A30EB11CF6018081898301E010E066
S1133200630112C05601F2E0AF0EB11CF601C0809A
S1133210D18096FE03C0612F70E002C06FEF7FEF94
S1133220C6010E94CD208C01F92DFF7714C05601F0
S113323022E0A20EB11CF601C080D18096FE03C02C
S1133240612F70E002C06FEF7FEFC6010E94C220C1
S11332508C01F92DF0689F2EF3FD1AC0852D90E0A6
S113326008171907A8F4B70180E290E00E94D8205B
S11332705A94F4CFF60197FC859197FE81916F01E2
S1133280B70190E00E94D82051105A9401501109BE
S11332900115110579F7F7C0843611F0893661F507
S11332A0560197FE09C024E0A20EB11CF60160810C
S11332B07181828193810AC0F2E0AF0EB11CF601E4
S11332C060817181072E000C880B990BF92DFF7614
S11332D09F2E97FF09C090958095709561957F4FBB
S11332E08F4F9F4FF0689F2E2AE030E0A3010E9489
S11332F02A21C82EC6183FC0092D853721F40F7E18
S11333002AE030E01DC0097F8F3691F018F488352B
S113331059F0C3C0803719F0883711F0BEC000617E
S113332004FF09C0046007C094FE08C0066006C01C
S113333028E030E005C020E130E002C020E132E0C6
S1133340560107FF09C084E0A80EB11CF601608194
S113335071818281938108C0F2E0AF0EB11CF60145
S11333606081718180E090E0A3010E942A21C82E2F
S1133370C6180F77902E96FE0BC0092D0E7FC1162E
S113338050F494FE0AC092FC08C0092D0E7E05C0BC
S1133390DC2C092D03C0DC2C01C0D12E04FF0DC090
S11333A0FE01EC0DF11D8081803311F4097E09C00A
S11333B002FF06C0D394D39404C0802F867809F00A
S11333C0D39403FD11C000FF06C01C2DD51480F456
S11333D0150D1D190DC0D51458F4B70180E290E005
S11333E00E94D820D394F7CFD51410F45D1801C0EF
S11333F0512C04FF10C0B70180E390E00E94D82054
S113340002FF17C001FD03C088E790E002C088E511
S113341090E0B7010CC0802F867859F001FF02C0FC
S11334208BE201C080E207FD8DE2B70190E00E94CB
S1133430D820C11638F4B70180E390E00E94D82068
S11334401150F7CFCA94F301EC0DF11D8081B7013F
S113345090E00E94D820C110F5CF15C0F4E0F51516
S113346060F584E0581A93FE1FC0011127C02C8513
S113347023FF2AC00EEF10E0392D3071932EF8018E
S11334808491811124C0552009F4E4CCB70180E271
S113349090E00E94D8205A94F6CFF7018681978154
S11334A026C08FEF9FEF23C0B70180E290E00E9417
S11334B0D8205A945110F8CFD8CF512CB701802F6F
S11334C090E00E94D820D3CF02E011E0D5CF911034
S11334D08052B70190E00E94D8200F5F1F4FCFCFDA
S11334E023E0251510F483E0BDCF512CC0CF6096A6
S11334F0E2E10C949F1E0E948F1A0C94701B0E9490
S1133500691B58F00E94621B40F029F45F3F29F0C8
S11335100C94591B51110C94A41B0C945F1B0E9416
S1133520811B68F39923B1F3552391F3951B550B34
S1133530BB27AA2762177307840738F09F5F5F4F82
S1133540220F331F441FAA1FA9F335D00E2E3AF0C1
S1133550E0E832D091505040E695001CCAF72BD0D9
S1133560FE2F29D0660F771F881FBB1F261737072A
S11335704807AB07B0E809F0BB0B802DBF01FF275C
S113358093585F4F3AF09E3F510578F00C94591BC5
S11335900C94A41B5F3FE4F3983ED4F3869577958F
S11335A06795B795F7959F5FC9F7880F911D969515
S11335B0879597F90895E1E0660F771F881FBB1F71
S11335C0621773078407BA0720F0621B730B840B1E
S11335D0BA0BEE1F88F7E09508950E94891B88F0C6
S11335E09F5798F0B92F9927B751B0F0E1F0660FC3
S11335F0771F881F991F1AF0BA95C9F714C0B13004
S113360091F00E94A31BB1E008950C94A31B672FB3
S1133610782F8827B85F39F0B93FCCF38695779532
S11336206795B395D9F73EF490958095709561951B
S11336307F4F8F4F9F4F0895E89409C097FB3EF446
S113364090958095709561957F4F8F4F9F4F9923EB
S1133650A9F0F92F96E9BB279395F6958795779569
S11336606795B795F111F8CFFAF4BB0F11F460FF29
S11336701BC06F5F7F4F8F4F9F4F16C0882311F081
S113368096E911C0772321F09EE8872F762F05C095
S1133690662371F096E8862F70E060E02AF09A9530
S11336A0660F771F881FDAF7880F9695879597F925
S11336B0089597F99F6780E870E060E008959FEFB0
S11336C080EC089500240A941616170618060906B5
S11336D0089500240A941216130614060506089584
S11336E0092E0394000C11F4882352F0BB0F40F40C
S11336F0BF2B11F460FF04C06F5F7F4F8F4F9F4F4C
S1133700089557FD9058440F551F59F05F3F71F0CD
S11337104795880F97FB991F61F09F3F79F0879534
S11337200895121613061406551FF2CF4695F1DFBD
S113373008C0161617061806991FF1CF869571054D
S1133740610508940895E894BB2766277727CB0181
S113375097F908950E94891BA8F19E57B0F19851DA
S113376060F039F1983070F5092E9927660F771FAC
S1133770881F991F0A94D1F71CC0BB27993F4CF4AA
S1133780B111B1E0B62B672F782F8827985FB1F776
S113379008C0869577956795B79508F4B1609395B9
S11337A0C1F7BB0F30F411F460FF03C06F5F7F4FAC
S11337B08F4F3EF490958095709561957F4F8F4F14
S11337C09F4F089568940C94A41B0C94A31B0E940F
S11337D0FA1B0C94701B0E94621B38F00E94691B38
S11337E020F0952311F00C94591B0C945F1B1124A9
S11337F00C94A41B0E94811B70F3959FC1F3950F39
S113380050E0551F629FF001729FBB27F00DB11D60
S1133810639FAA27F00DB11DAA1F649F6627B00DF0
S1133820A11D661F829F2227B00DA11D621F739FD9
S1133830B00DA11D621F839FA00D611D221F749FE7
S11338403327A00D611D231F849F600D211D822F2E
S1133850762F6A2F11249F5750409AF0F1F0882355
S11338604AF0EE0FFF1FBB1F661F771F881F915082
S11338705040A9F79E3F510580F00C94591B0C94BD
S1133880A41B5F3FE4F3983ED4F386957795679540
S1133890B795F795E7959F5FC1F7FE2B880F911DAC
S11338A09695879597F90895FA01EE0FFF1F3096C4
S11338B021053105A1F16115710561F48038BFE37B
S11338C09B0749F168949038810561F08038BFEF17
S11338D09B0741F099234AF5FF3FE1053105210596
S11338E019F1E8940894E795D901AA2329F4AB2F98
S11338F0BE2FF85FD0F310C0FF5F70F4A695E0F719
S1133900F73950F019F0FF3A38F49F779F930DD0B0
S11339100F9007FC9058089546F00C945F1B60E0EC
S113392070E080E89FE308954FE79F775F934F939C
S11339303F932F930E944F1D2F913F914F915F9181
S11339400E94E71B0C94AC1C29F416F00C94591B30
S11339500C94A31B0C945F1B0E94891BA8F396383C
S1133960A0F707F80F92E8942BE33AEA48EB5FE7F5
S11339700E94FD1B0F920F920F924DB75EB70F92EC
S11339800E94971DECE7F0E00E94DE1C4F915F91CE
S1133990EF91FF91E595EE1FFF1F49F0FE57E06898
S11339A04427EE0F441FFA95E1F74195550B0E9409
S11339B0111D0F9007FE0C94051D0895DF93CF93FE
S11339C01F930F93FF92EF92DF927B018C01689417
S11339D006C0DA2EEF010E94FA1BFE01E894A591BD
S11339E02591359145915591A6F3EF010E94E31D70
S11339F0FE019701A801DA9469F7DF90EF90FF9038
S1133A000F911F91CF91DF9108959B01AC0160E06C
S1133A1070E080E89FE30C947B1A0C94591B0C947F
S1133A20381E0E94891BD8F39923C9F3940F511DA2
S1133A30A3F39150504094F059F0882332F0660F6C
S1133A40771F881F91505040C1F79E3F51052CF7B6
S1133A50880F911D9695879597F908955F3FACF06F
S1133A60983E9CF0BB27869577956795B79508F4A3
S1133A70B1609395C1F7BB0F58F711F460FFE8CF1D
S1133A806F5F7F4F8F4F9F4FE3CF0C94A41B16F0B3
S1133A900C94381E0C945F1B68940C94591B0E9460
S1133AA0891BA8F39923C1F3AEF3DF93CF931F933C
S1133AB00F93FF92C92FDD2788232AF02197660FE1
S1133AC0771F881FDAF720E030E040E85FEB9FE3E0
S1133AD0883920F0803E38F021968F770E94CC1DE3
S1133AE0E4EAF0E004C00E94CC1DE1EDF0E00E94A5
S1133AF0DE1C8B01BE01EC01FB2E6F57710975951D
S1133B00771F880B990B0E941E1B28E132E741E3C3
S1133B105FE30E94FA1BAF2D9801AE01FF900F9155
S1133B201F91CF91DF910E94E31D0C94701BFA0149
S1133B30DC01AA0FBB1F9B01AC01BF5728F422274D
S1133B4033274427507820C0B75190F4AB2F00247A
S1133B50469537952795011CA395D2F3002071F063
S1133B60220F331F441FB395DAF30ED00C94CB1DF0
S1133B7061307105A0E88A07B94630F49B01AC01B5
S1133B806627772788279078309621F02083318321
S1133B904283538308955058BB27AA270E94E31DEC
S1133BA00C94701B0E94621B38F00E94691B20F069
S1133BB039F49F3F19F426F40C945F1B0EF4E0953E
S1133BC0E7FB0C94591BE92F0E94811B58F3BA1789
S1133BD0620773078407950720F079F4A6F50C941F
S1133BE0A31B0EF4E0950B2EBA2FA02D0B01B901E7
S1133BF090010C01CA01A0011124FF27591B99F05F
S1133C00593F50F4503E68F11A16F040A22F232F6A
S1133C10342F4427585FF3CF469537952795A795BA
S1133C20F0405395C9F77EF41F16BA0B620B730B61
S1133C30840BBAF09150A1F0FF0FBB1F661F771FD2
S1133C40881FC2F70EC0BA0F621F731F841F48F487
S1133C50879577956795B795F7959E3F08F0B0CF10
S1133C609395880F08F09927EE0F979587950895F7
S1133C709F3F31F0915020F4879577956795B795DC
S1133C80880F911D9695879597F90895DB018F9379
S1133C909F930E94781EBF91AF91A29F800D911DAA
S1133CA0A39F900DB29F900D11240895A1E21A2EA6
S1133CB0AA1BBB1BFD010DC0AA1FBB1FEE1FFF1FCC
S1133CC0A217B307E407F50720F0A21BB30BE40B1C
S1133CD0F50B661F771F881F991F1A9469F7609563
S1133CE07095809590959B01AC01BD01CF0108951D
S1133CF00E94BA1EA59F900DB49F900DA49F800DA5
S1133D00911D112408952F923F924F925F926F92CA
S1133D107F928F929F92AF92BF92CF92DF92EF9257
S1133D20FF920F931F93CF93DF93CDB7DEB7CA1BD8
S1133D30DB0B0FB6F894DEBF0FBECDBF09942A8803
S1133D40398848885F846E847D848C849B84AA84AB
S1133D50B984C884DF80EE80FD800C811B81AA8138
S1133D60B981CE0FD11D0FB6F894DEBF0FBECDBF03
S1133D70ED010895A29FB001B39FC001A39F700DF0
S1133D80811D1124911DB29F700D811D1124911D5F
S1133D9008950F931F93CF93DF938230910510F40E
S1133DA082E090E0E0912E03F0912F0320E030E0D8
S1133DB0A0E0B0E0309719F1408151810281138174
S1133DC048175907C8F08417950769F4109731F01C
S1133DD012960C93129713961C9327C000932E03EC
S1133DE010932F0322C02115310519F042175307F0
S1133DF018F49A01BD01EF01DF01F801DBCF2115B1
S1133E003105F9F0281B390B2430310580F48A81FF
S1133E109B816115710521F0FB019383828304C0AA
S1133E2090932F0380932E03FE01329644C0FE012B
S1133E30E20FF31F81939193225031093983288330
S1133E403AC020912C0330912D03232B41F420916F
S1133E5018013091190130932D0320932C032091E4
S1133E601601309117012115310541F42DB73EB7E4
S1133E7040911A0150911B01241B350BE0912C0336
S1133E80F0912D03E217F307A0F42E1B3F0B281724
S1133E90390778F0AC014E5F5F4F2417350748F0BF
S1133EA04E0F5F1F50932D0340932C0381939193E6
S1133EB002C0E0E0F0E0CF01DF91CF911F910F91BC
S1133EC00895CF93DF93009709F481C0FC013297E2
S1133ED013821282A0912E03B0912F03109781F4C4
S1133EE020813181820F931F20912C0330912D0367
S1133EF02817390751F5F0932D03E0932C0367C07D
S1133F00ED0120E030E0CE17DF0740F44A815B8109
S1133F109E0141155105F1F0EA01F5CFD383C28327
S1133F2040815181840F951FC817D90759F488819E
S1133F309981840F951F0296918380838A819B8146
S1133F40938382832115310529F4F0932F03E093A1
S1133F502E033DC0E901FB83EA8349915991C40FC3
S1133F60D51FEC17FD0761F480819181840F951FA3
S1133F700296E90199838883828193819B838A8352
S1133F80E0E0F0E012968D919C911397009719F060
S1133F90FD01DC01F7CF8D919C9111979D012E5F5E
S1133FA03F4F820F931F20912C0330912D0328172C
S1133FB0390769F4309729F410922F0310922E03D5
S1133FC002C013821282B0932D03A0932C03DF91BD
S1133FD0CF910895283008F027E03327DA01990FAC
S1133FE0311D87FD916000966105710539F43260D9
S1133FF02E5F3D9330E32A95E1F708959F3F30F01B
S113400080387105610509F03C5F3C5F3D93913058
S113401008F08068911DDF93CF931F930F93FF9255
S1134020EF92192F987F9695E92F96959695E90F1B
S1134030FF27E05AFE4F99273327EE24FF24A701D8
S1134040E70105900894079428F4360FE71EF81E3C
S1134050491F511D660F771F881F991F0694A1F7EA
S11340600590079428F4E70EF81E491F561FC11D3A
S1134070770F881F991F661F0694A1F70590079470
S113408028F4F80E491F561FC71FD11D880F991F0A
S1134090661F771F0694A1F70590079420F4490F33
S11340A0561FC71FD81F990F661F771F881F0694B6
S11340B0A9F784911095177041F0D695C795579537
S11340C04795F794E7941A95C1F7E6E0F1E0689410
S11340D01590159135916591959105907FE27395B1
S11340E0E118F10A430B560BC90BD009C0F7E10CD8
S11340F0F11E431F561FC91FD01D7EF4703311F4E7
S11341008A95E6CFE894015030F0080F0AF40027AE
S1134110021708F4202F2395022F7A3328F079E32D
S11341207D932A95E9F710C07D932A9589F6069424
S113413097956795379517951794E118F10A430BEE
S1134140560BC90BD00998F023957E9173957A3359
S113415008F070E37C932013B8F77E9170617D932F
S113416030F0839571E37D9370E32A95E1F7112490
S1134170EF90FF900F911F91CF91DF91992787FDC9
S113418090950895FC010590615070400110D8F796
S1134190809590958E0F9F1F0895FC01615070408B
S11341A001900110D8F7809590958E0F9F1F089568
S11341B00F931F93CF93DF93FB01238121FD03C052
S11341C08FEF9FEF2CC022FF16C0468157812481B8
S11341D035814217530744F4A081B1819D012F5FBB
S11341E03F4F318320838C93268137812F5F3F4F4C
S11341F03783268314C08B01EC01FB010084F18515
S1134200E02D0995892BE1F6D80116968D919C91A4
S11342101797019617969C938E931697CE01DF916C
S1134220CF911F910F910895A0E0B0E0EAE1F1E28F
S11342300C94931EAE014B5F5F4FFA016191719133
S1134240AF0180913203909133030E94FE16E2E0A5
S11342500C94AF1EFA01AA27283051F1203181F1C4
S1134260E8946F936E7F6E5F7F4F8F4F9F4FAF4F7A
S1134270B1E03ED0B4E03CD0670F781F891F9A1F8D
S1134280A11D680F791F8A1F911DA11D6A0F711D41
S1134290811D911DA11D20D009F468943F912AE04D
S11342A0269F11243019305D3193DEF6CF01089535
S11342B0462F4770405D4193B3E00FD0C9F7F6CF66
S11342C0462F4F70405D4A3318F0495D31FD40522E
S11342D0419302D0A9F7EACFB4E0A69597958795C4
S11342E077956795BA95C9F70097610571050895A3
S11342F09B01AC010A2E069457954795379527954F
S1134300BA95C9F7620F731F841F951FA01D0895E6
S1074310F894FFCF4B
S11343140000000200000000240D00000000180C3E
S1134324041060C0802000003603200053656C65CF
S1134334637420616E20616374696F6E0053333A51
S113434420347834205371756172650053343A20F3
S11343544D617A6520506174680053353A2043698D
S113436472636C650053656C6563742061206469D1
S11343747374616E63650053333A203620696E6347
S11343846865730053343A20313220696E6368657A
S1134394730053353A2031382F323420696E636800
S11343A46573004E6F742061206D656E75206F70A7
S11343B474696F6E004D6F76696E67202564206999
S11343C46E63686573004261636B696E2075702067
S11343D4256420696E636865730054686174277387
S11343E4206E6F74206677642F6261636B003234CD
S11343F420696E6368657320696E202564005468BF
S113440461742773206E6F74207269676874206FF7
S113441472206C6566742E00446F696E672074683C
S113442465207371756172652E2E2E00446F696E5A
S11344346720746865206D617A652E2E2E00446FA2
S1134444696E67206120646F6E75742E2E2E00428F
S10F44546F6E757320696E2025640000F3
S9030000FC
