:100000000C940B030C9428030C9428030C942803E1
:100010000C948D0A0C94B60A0C94DF0A0C94080B0D
:100020000C9428030C946E090C9497090C94C00945
:100030000C943B0A0C94E9090C94120A0C94640A7F
:100040000C94F3080C941C090C9445090C94280397
:100050000C9428030C9428030C9428030C94280374
:100060000C9428030C9428030C9428030C94280364
:100070000C949D100C9428030C94280307634236BB
:10008000B79BD8A71A39685618AEBAAB558C1D3C29
:10009000B7CC5763BD6DEDFD753EF6177231BF00ED
:1000A0000000803F08000000BE922449123EABAA27
:1000B000AA2ABECDCCCC4C3E00000080BEABAAAA82
:1000C000AA3E00000000BF000000803F00000000CA
:1000D00000084178D3BB4387D1133D190E3CC3BD03
:1000E0004282AD2B3E68EC8276BED98FE1A93E4CB0
:1000F00080EFFFBE01C4FF7F3F00000000006E6183
:100100006E00696E660000407A10F35A00A0724ECD
:1001100018090010A5D4E80000E87648170000E4AC
:100120000B54020000CA9A3B000000E1F5050000F4
:1001300080969800000040420F000000A086010059
:100140000000102700000000E80300000000640029
:10015000000000000A000000000001000000000094
:100160002C76D888DC674F0823DFC1DFAE59E1B1B8
:10017000B796E5E3E453C63AE651997696E8E6C2C7
:100180008426EB898C9B62ED407C6FFCEFBC9C9FCE
:1001900040F2BAA56FA5F490055A2AF75C936B6CF0
:1001A000F9676DC11BFCE0E40D47FEF520E6B500E4
:1001B000D0ED902E0300943577050080841E080052
:1001C00000204E0A000000C80C333333330F986E02
:1001D00012831141EF8D2114893BE65516CFFEE6BF
:1001E000DB18D1844B381BF77C1D901DA4BBE42485
:1001F000203284725E228100C9F124ECA1E53D2702
:1002000016050100000000000000FA000000E000F8
:10021000E00028FE28FE282454FE5448C4C81026B6
:10022000466C92AA44A000A0C0000000384482009E
:10023000008244380028107C102810107C10100018
:100240000A0C000010101010100006060000040830
:100250001020407C8A92A27C0042FE020042868AE4
:1002600092628482A2D28C182848FE08E4A2A2A23C
:100270009C3C5292920C808E90A0C06C9292926C98
:100280006092929478006C6C0000006A6C00001020
:1002900028448200282828282800824428104080EA
:1002A0008A90604C929E827C7E8888887EFE9292A4
:1002B000926C7C82828244FE82824438FE929292C8
:1002C00082FE909090807C8292925EFE101010FED2
:1002D0000082FE8200040282FC80FE10284482FE1E
:1002E00002020202FE403040FEFE201008FE7C8228
:1002F00082827CFE909090607C828A847AFE9098C4
:100300009462629292928C8080FE8080FC02020253
:10031000FCF8040204F8FC021C02FCC6281028C6E3
:10032000E0100E10E0868A92A2C200FE8282004097
:1003300020100804008282FE00204080402002023B
:100340000202020080402000042A2A2A1EFE1222F5
:10035000221C1C222222041C222212FE1C2A2A2ACF
:1003600018107E908040304A4A4A7CFE1020201EA1
:100370000022BE0200040222BC00FE08142200007B
:1003800082FE02003E2018201E3E1020201E1C224D
:1003900022221C3E28282810102828183E3E102013
:1003A0002010122A2A2A0420FC2202043C02020401
:1003B0003E38040204383C020C023C221408142289
:1003C000300A0A0A3C22262A322200106C820000DF
:1003D00000FE000000826C100008101008100000E1
:1003E0000000007F8181817F7F8383837F7F878778
:1003F000877F7F8F8F8F7F7F9F9F9F7F7FBFBFBFB5
:100400007F7FFFFFFF7F2040FF40206215171565AB
:1004100000FBFB00000000000000C0FF0300E0FF45
:100420000700F0FF0F00F8FF1F0078001E007800A3
:100430001E0078001E0078001E0078001E00780064
:100440001E0078001E0078001E0078001E000000CC
:1004500000000000000080FF0300E0FF0700F0FF45
:100460000F00F8FF1F00F83C1F00783C1E00783C8E
:100470001E00783C1E00783C1E00783C1E00783C34
:100480001E00783C1E00783C1E00783C1E00783C24
:100490001E000000000000000000E0FF0300F0FF6D
:1004A0000700F8FF0F00F8FF1F00783C1E00783CA3
:1004B0001E00783C1E00783C1E00783C1E00783CF4
:1004C0001E00783C1E00783C1E00783C1E00783CE4
:1004D0001E000000000000000000F8FF0300F8FF0D
:1004E0000F00F8FF1F00F8FF1F0000001E000000B3
:1004F0001E0000801F0000F01F0000FF0F00E0FF43
:100500000700F0FF0000F80F0000F800000078007E
:10051000000078000000F8FF1F00F8FF1F00F0FF48
:100520001F00E0FF1F000000000000000000F8FFB7
:100530001F00F8FF1F00F8FF1F00F8FF1F007800E2
:100540001E00783C1E00783C1E00783C1E00783C63
:100550001E00783C1E00783C1E00F87E1F00F8FF4D
:100560001F00F0FF0F00E0E70300000000000000A4
:100570003800EEFF6C002A8045003A0047FC03FF7C
:100580006CFC83FF3900DEFF0B7CD0810BFCD0813B
:100590000BC0D0810BFCD0810B7CDEFF0B0082FFF7
:1005A000397002FF6CF83A0047DC2A8045CCEEFF38
:1005B0006CCC000038000000000C00001E0C000095
:1005C0001E0000001E0000001E0000001E00F8FFBC
:1005D0001F00F8FF1F00F8FF1F00F8FF1F000000BA
:1005E0001E0000001E0000001E0000001E00000093
:1005F0005E000000400000007C00000040000000A1
:10060000400000007C0000003000000010000000EE
:10061000300000007C0011241FBECFEFD8E0DEBF09
:10062000CDBF11E0A0E0B1E0ECE7F3E402C005903B
:100630000D92A43DB107D9F723E0A4EDB1E001C0CC
:100640001D92A632B207E1F70E942A030C94BC2146
:100650000C9400000E94F1080E94E3080E94DE163C
:1006600080E090E008950F931F9385E00E94990623
:100670008823C1F080E460E00E94470400E0802FFE
:1006800060E00E94DB0310E080E061E00E9447042C
:100690001F5F1038C9F70F5F043089F783E060E00F
:1006A0000E9435041F910F9108950F931F9385E0C9
:1006B0000E948C06882311F082E07AC00E94A30475
:1006C000182F0E940B071150123008F06DC0815096
:1006D000823008F069C00E9462048EEA60E00E94E5
:1006E000470482EA60E00E94470480EA60E00E94DA
:1006F000470400E513ECC8010197F1F780EC60E0D6
:100700000E9447048FE260E00E94470481E860E0B5
:100710000E94470486E160E00E94470482E260E0B4
:100720000E944704C8010197F1F78FEA60E00E9438
:10073000470486EA60E00E94470485EA60E00E9480
:10074000470480E090E028E833E1F9013197F1F7C0
:10075000019643E0883E9407C1F783EB60E00E9476
:10076000470480E460E00E94470483E060E00E9468
:10077000DB0383E060E00E9435041092890210924E
:100780008B0210928A0284E091E09093230380937D
:10079000220388E10E9414040E94330384EA60E08B
:1007A0000E94470481E004C085E00E947C0687E047
:1007B0001F910F910895FF920F931F93082FF62E0C
:1007C00085E00E9499068823A1F01F2D1F770370F2
:1007D000802F806B60E00E94470412951F70812F6C
:1007E000806160E00E9447048F2D8F7060E00E945E
:1007F00047041F910F91FF9008950F931F93082FA7
:10080000162F85E00E949906882359F0812F153113
:1008100008F084E166E0869FB0011124802F0E94D9
:1008200035041F910F9108951F93182F85E00E94A2
:1008300099068823C1F087E00E94E50482E06AE01F
:100840000E94360582E061EB0E943605612F11326D
:1008500008F060E282E00E94360589EE8A95F1F7A1
:1008600087E00E94E5041F9108950F931F93082FBE
:10087000162F85E00E949906882331F003701F77B8
:1008800010938702009388021F910F9108950F9390
:100890001F93082F162F85E00E949906882379F070
:1008A000112319F0113021F402C02B9801C02B9AAA
:1008B00086E08A95F1F780E0602F0E9436051F914F
:1008C0000F910895239A08951F93182F86E00E9490
:1008D0009906882319F0812F0E9487041F9108959B
:1008E00086E00E948C06882311F082E008950E9421
:1008F0008C0481E008951F93182F86E00E949906CA
:10090000882319F0812F0E9495041F91089585FD79
:100910005D9886FD5E980895559A569A80E20E94E9
:10092000640480E40E9464040895282F85FF04C0B5
:100930008BB190E289278BB926FF04C08BB190E47C
:1009400089278BB9089582E00E948C06882311F0D4
:1009500082E008950E94450580E065E67CE00E9403
:10096000DC0481E06DE57CE00E94DC0482E065E56A
:100970007CE00E94DC0486E06DE67CE00E94DC0402
:1009800083E06DE47CE00E94DC0484E06DE47CE0C4
:100990000E94DC0485E06DE47CE00E94DC0487E0DA
:1009A0006DE47CE00E94DC048FEF80938C0287E092
:1009B0000E94E50481E00895E82FF0E0EE0FFF1FAC
:1009C000E15EFD4F7183608308951F93182F82E0CD
:1009D0000E949906882309F447C0912F977080914F
:1009E0008C02981709F440C090938C0285B1887FDF
:1009F000892B85B9933011F1943028F4913051F05E
:100A0000923090F40CC0953019F19530E0F09630AA
:100A100021F50FC0E0912102F091220222C0E09165
:100A20001F02F09120021DC0E0912302F0912402E8
:100A300018C0E0912B02F0912C0213C0E091250226
:100A4000F09126020EC0E0912702F091280209C021
:100A5000E0912902F0912A0204C0E0912D02F09168
:100A60002E02309709F009951F9108951F93162FB4
:100A70000E94E50482E00E949906882321F01EBDB1
:100A80000DB407FEFDCF1F910895259A2698279A49
:100A9000209A219A229A089587E00E948C06882342
:100AA00011F082E008950E94720681E08093C302F3
:100AB00010928D0210928E021092900210928F026C
:100AC000109292021092910210929402109293024C
:100AD000109296021092950210929802109297022C
:100AE00010929A021092990210929C0210929B020C
:100AF00010929E0210929D021092A00210929F02EC
:100B00001092A2021092A1021092A4021092A302CB
:100B10001092A6021092A5021092AB021092AC02A3
:100B20001092AD021092AE021092B0021092B10279
:100B30001092B2021092B3021092B4021092B50257
:100B40001092B6021092B8021092B7021092BA0236
:100B50001092B9021092BC021092BB021092BE0217
:100B60001092BD021092A8021092A7021092AA023F
:100B70001092A9021092C2021092C1021092C302F6
:100B800008952EEF8037920714F480E79EEFFC0162
:100B900081E0E139F80714F0E0E9F1E09B018EEF24
:100BA0006037780714F420E73EEFA90121E04139CE
:100BB000520714F040E951E08F2F881F8827881FC3
:100BC000252F221F2227221F91E09093C30280939A
:100BD000B0022093B102CF01F7FF03C09095819539
:100BE0009F4F9A0157FF03C0309521953F4F909337
:100BF000900280938F023093920220939102109280
:100C0000C302089521E02093C302AC0183E0493E72
:100C1000580710F048EE53E09B0183E0693E7807E7
:100C200010F028EE33E0F894509398024093970226
:100C300030939A022093990278941092C3020895F7
:100C4000482F81E08093C302CB0121E06139720714
:100C500010F080E991E0413061F0413018F042300D
:100C6000C9F40EC0F8949093900280938F02789408
:100C700011C0F894909392028093910278940AC0E4
:100C8000F8949093900280938F02909392028093B5
:100C9000910278941092C30208950F931F93182F16
:100CA000062F662349F460E070E00E942006812F41
:100CB00060E070E00E94F50D81E08093C302113086
:100CC00051F0113018F0123041F403C00093AB0220
:100CD00004C00093AB020093AC021092C3021F91B8
:100CE0000F9108953A9A3B9A3C9A3D9A3E9A3F9AC0
:100CF00088B1837088B90895853160F4E82FF0E0F9
:100D0000EE58FD4F8081882329F0808181508083B7
:100D1000808108958FEF0895853110F080E0089567
:100D2000E82FF0E0EE58FD4F80818F5F8083815087
:100D30000895853110F080E00895E82FF0E0EE5836
:100D4000FD4F8081811181E008951F93182F8091BC
:100D5000D501882341F08091DC01882399F010921D
:100D6000D5011092DC010E94DA068093D40186ED51
:100D700091E061E040E028E230E00E949D0781E0E0
:100D80008093D5019091D401133018F0133079F489
:100D900009C0E12FF0E0E050FF4F8081892341F04E
:100DA00081E006C091FF03C0892F817001C080E0FF
:100DB0001F9108950F931F9381E00E949906882345
:100DC00011F400E024C087E00E94E50482E06AE0BC
:100DD0000E94360582E062EB0E94360518EC812FF6
:100DE0008A95F1F782E060E00E94760C082F812F4F
:100DF0008A95F1F782E060E00E94760C1A95F1F78F
:100E000087E00E94E50488E893E10197F1F7802FDD
:100E10001F910F910895DF93CF9300D00F92CDB71C
:100E2000DEB781E00E948C06882311F082E011C0B9
:100E30000E94A3048150823040F40E942F07CE010B
:100E400001960E94270E81E004C081E00E947C068A
:100E500087E00F900F900F90CF91DF91089510923F
:100E6000DB021092DA021092DD021092DC02109284
:100E7000DF021092DE021092E1021092E002109264
:100E8000E3021092E20280E991E09093C70280931E
:100E9000C6029093C9028093C8029093CB028093BC
:100EA000CA029093CD028093CC029093CF0280939C
:100EB000CE0284E398E09093D1028093D002909385
:100EC000D3028093D2029093D5028093D402909360
:100ED000D7028093D6029093D9028093D8020895C6
:100EE0000F931F93DF93CF93CDB7DEB729970FB63C
:100EF000F894DEBF0FBECDBF8C0188E00E9499063A
:100F0000882311F491E00DC0CE01019661E040E02C
:100F100098010E949D07982F882319F48F818823B8
:100F2000E9F3892F29960FB6F894DEBF0FBECDBF27
:100F3000CF91DF911F910F910895EF92FF920F9340
:100F40001F93CF93DF93EC01F62EE42E890188E006
:100F50000E949906882311F481E026C084E090E085
:100F60000E94CD1EFC01009711F482E01DC0F982A1
:100F7000F0FC1E8281E0E81619F48981846089837F
:100F80008981886089831B830A831D830C83D183B5
:100F9000C0831382128281E080933F02CF010E94BE
:100FA000DB0710923F0280E0DF91CF911F910F91FC
:100FB000FF90EF900895CF92DF92EF92FF920F9300
:100FC0001F93CF93DF93EC018091E402882339F4DF
:100FD000D093E602C093E5020E94800E47C0C09005
:100FE000E502D090E60200E010E0EE24FF2437C0D6
:100FF000A881B981FD0164817581F601408151812B
:10100000FA01848195819B01281B390B37FF0FC0A2
:10101000861B970B95838483DB82CA82012B29F47C
:10102000D093E602C093E50221C0F7010CC0F6019F
:10103000828193812115310549F4FD0115821482C5
:101040009B838A83F601D383C28310C0FD0135835D
:1010500024830097B9F30F5F1F4F76016C018091D5
:10106000E40290E00817190718F2ECCF8091E4022F
:101070008F5F8093E402DF91CF911F910F91FF90DA
:10108000EF90DF90CF900895E0911703F09118034F
:10109000309711F480E0089584850895EF92FF92CF
:1010A0000F931F930E949B1084E10E948C0688235B
:1010B00011F082E026C08EE00E9499068823E9F4B0
:1010C00081E00E94A00F8130C1F40E94CF080E94ED
:1010D000D00881E063E040E020E0E12C92ECF92EC2
:1010E00091E0092F112D0E94F80E0E94A10888237B
:1010F00011F486E006C081E004C084E10E947C0611
:1011000087E01F910F91FF90EF900895E0911703F2
:10111000F0911803309709F0148608959093160300
:101120008093150370931803609317030E94860839
:10113000089581E00E948F0F81E061E00E942E10EF
:101140000895EF92FF920F931F93DF93CF930F9227
:10115000CDB7DEB781E061E00E942E1000E010E024
:101160007E010894E11CF11C81E0B7010E94DA0FB6
:10117000882311F010E006C00F5F1F4F0A301105E1
:1011800099F711E081E060E00E942E10812F0F900E
:10119000CF91DF911F910F91FF90EF9008950895E7
:1011A0001092130310921403109216031092150359
:1011B00010921803109217031092190310921B0338
:1011C00010921A0308950E94100E0E94EF0B0E94C5
:1011D000310B0E94640E0E94A3040E940B077894B6
:1011E0000895000008951F920F920FB60F921124D8
:1011F0002F933F934F935F936F937F938F939F931F
:10120000AF93BF93EF93FF93E091FF01F091000242
:10121000309709F00995FF91EF91BF91AF919F91A0
:101220008F917F916F915F914F913F912F910F908F
:101230000FBE0F901F9018951F920F920FB60F922E
:1012400011242F933F934F935F936F937F938F93CB
:101250009F93AF93BF93EF93FF93E0910102F091BF
:101260000202309709F00995FF91EF91BF91AF917C
:101270009F918F917F916F915F914F913F912F91AE
:101280000F900FBE0F901F9018951F920F920FB6E0
:101290000F9211242F933F934F935F936F937F93FC
:1012A0008F939F93AF93BF93EF93FF93E0910302CC
:1012B000F0910402309709F00995FF91EF91BF91E9
:1012C000AF919F918F917F916F915F914F913F91DE
:1012D0002F910F900FBE0F901F9018951F920F9295
:1012E0000FB60F9211242F933F934F935F936F93F9
:1012F0007F938F939F93AF93BF93EF93FF93E0916F
:10130000F101F091F201309709F00995FF91EF9109
:10131000BF91AF919F918F917F916F915F914F910D
:101320003F912F910F900FBE0F901F9018951F9215
:101330000F920FB60F9211242F933F934F935F9309
:101340006F937F938F939F93AF93BF93EF93FF938D
:10135000E091F301F091F401309709F00995FF91C4
:10136000EF91BF91AF919F918F917F916F915F911D
:101370004F913F912F910F900FBE0F901F90189596
:101380001F920F920FB60F9211242F933F934F93FA
:101390005F936F937F938F939F93AF93BF93EF93DD
:1013A000FF93E091F501F091F601309709F009956E
:1013B000FF91EF91BF91AF919F918F917F916F912D
:1013C0005F914F913F912F910F900FBE0F901F9003
:1013D00018951F920F920FB60F9211242F933F93DF
:1013E0004F935F936F937F938F939F93AF93BF932D
:1013F000EF93FF93E091F901F091FA01309709F032
:101400000995FF91EF91BF91AF919F918F917F913E
:101410006F915F914F913F912F910F900FBE0F9061
:101420001F9018951F920F920FB60F9211242F93B1
:101430003F934F935F936F937F938F939F93AF935C
:10144000BF93EF93FF93E091FB01F091FC01309784
:1014500009F00995FF91EF91BF91AF919F918F9105
:101460007F916F915F914F913F912F910F900FBEA0
:101470000F901F9018951F920F920FB60F92112484
:101480002F933F934F935F936F937F938F939F938C
:10149000AF93BF93EF93FF93E091F701F091F801C1
:1014A000309709F00995FF91EF91BF91AF919F910E
:1014B0008F917F916F915F914F913F912F910F90FD
:1014C0000FBE0F901F9018951F920F920FB60F929C
:1014D00011242F933F934F935F936F937F938F9339
:1014E0009F93AF93BF93EF93FF93E091FD01F09132
:1014F000FE01309709F00995FF91EF91BF91AF91EF
:101500009F918F917F916F915F914F913F912F911B
:101510000F900FBE0F901F9018951F920F920FB64D
:101520000F9211242F933F934F935F936F937F9369
:101530008F939F93AF93BF93EF93FF93E091E70156
:10154000F091E801309709F00995FF91EF91BF9173
:10155000AF919F918F917F916F915F914F913F914B
:101560002F910F900FBE0F901F9018951F920F9202
:101570000FB60F9211242F933F934F935F936F9366
:101580007F938F939F93AF93BF93EF93FF93E091DC
:10159000E901F091EA01309709F00995FF91EF9187
:1015A000BF91AF919F918F917F916F915F914F917B
:1015B0003F912F910F900FBE0F901F9018951F9283
:1015C0000F920FB60F9211242F933F934F935F9377
:1015D0006F937F938F939F93AF93BF93EF93FF93FB
:1015E000E091EB01F091EC01309709F00995FF9142
:1015F000EF91BF91AF919F918F917F916F915F918B
:101600004F913F912F910F900FBE0F901F90189503
:101610001F920F920FB60F9211242F933F934F9367
:101620005F936F937F938F939F93AF93BF93EF934A
:10163000FF93E091ED01F091EE01309709F00995EB
:10164000FF91EF91BF91AF919F918F917F916F919A
:101650005F914F913F912F910F900FBE0F901F9070
:10166000189580E10E948C06882311F082E008958D
:10167000EFEDF1E01192119282E0EF31F807D1F72E
:1016800081E00895FF920F931F93CF93DF93F82E7D
:101690008AE0F816B1F08F1548F0E8E0FE16B9F1CF
:1016A000EF1538F1F7E0FF1651F43BC08DE0F81666
:1016B00059F0EBE1FE1689F0FCE0FF1641F001E085
:1016C00041C01092870203C0109287023AC08091F5
:1016D000880281508093880234C00E94330314C072
:1016E00080E061E00E944704809187028F5F8093D1
:1016F00087028091870287FFF3CF10928702809143
:10170000880281508093880200E011E01CC0809123
:1017100087028823B1F080918702865080938702E8
:1017200010C081E00E94470D64EF71E080E090E01E
:101730004DE750E024E630E00E94530D81E00E9426
:10174000AE0C00E010E080918802609187020E9458
:10175000DB03002351F185E0F89EC0011124EC0168
:10176000CD59DE4F8C0108591E4FFE01849161E076
:101770000E9447042196C017D107B9F780E061E0C5
:101780000E944704809187028A5F8093870280913C
:10179000870290E08C3791053CF01092870280918F
:1017A000880281508093880211E0809188028370C2
:1017B00080938802113059F480918902813039F484
:1017C000E0918A02F0918B02309709F0099580E050
:1017D00090E0DF91CF911F910F91FF900895F894C1
:1017E0000E944A0C81E00E94F70B81E0089581304D
:1017F00049F0F894813020F18230B1F0833009F063
:1018000045C017C02C9A80E8809361001092610057
:1018100080E090E00000019688329105D9F710929F
:10182000680010926B00089580E88093610083E067
:1018300004C080E88093610088E08093610028C044
:1018400080E090E0000001962DE680369207D1F707
:101850002C9880E090E0000001962DE680369207FB
:10186000D1F710927A008FEF809364008091680026
:1018700081608093680080916B00846080936B002E
:10188000789483B7816083BF88950895823008F08B
:1018900078940895249A2C9A089583E58CBD81E06C
:1018A0008DBD8DE08A95F1F7089583E58CBD1DBC53
:1018B00084EF91E00197F1F708958FE78CBD1DBC8F
:1018C00084EF91E00197F1F7089583E58CBD81E005
:1018D0008DBD8DE08A95F1F7089583E58CBD81E09B
:1018E0008DBD84EF91E00197F1F708951F93162FB6
:1018F0000E94E50482E00E949906882329F01EBD1B
:101900000DB407FEFDCF8EB51F9108958AE00E94A9
:101910007C06882329F481E00E94A90D10923002F0
:10192000089589E00E947C068823B9F480912F02F3
:10193000882311F00E94EF0D82E00E94A90D809192
:101940003D0290913E02009731F00E94651F109277
:101950003E0210923D0210922F020895813029F02C
:10196000823029F40E94910C08950E94860C0895FB
:101970000F931F93CF93DF9380E291E00E94CD1EDF
:101980009C0190933E0280933D02892B11F480E0EC
:1019900039C08901C0E0D0E0BE0180E090E00E9443
:1019A000201B20E030E040EA51E40E94AE1A27EF0D
:1019B00035E740E05FE30E94EB1B9B01AC0160E078
:1019C00070E080E291E40E94581C9B01AC01CA01C6
:1019D000B9012DEC3CEC42E851E40E94EB1B0E9463
:1019E000AE1B2AE030E040E050E00E944A1EF801C1
:1019F00061937193819391938F012196C834D1059E
:101A000059F681E0DF91CF911F910F9108958AE0FF
:101A10000E948C06882311F082E0089510923A0209
:101A20001092390281E00E94C50D81E0809330025E
:101A300008951F9389E00E948C06882311F082E0AC
:101A400024C08BE00E9499068823D9F40E94B80C28
:101A5000182F813011F086E018C0109231021092D8
:101A6000320210923302109234028DE064E471E18C
:101A70000E941F1182E00E94C50D10932F0281E089
:101A800004C089E00E947C0687E01F9108958130A0
:101A900021F0823029F084E008950E94070D089516
:101AA0000E94190D08956F927F928F929F92AF922C
:101AB000BF92CF92DF92EF92FF920F931F93CF933B
:101AC000DF933B014C015A01E9018AE00E9499062B
:101AD000882381F1209741F19501442737FD4095F6
:101AE000542FBE01C536D10510F064E670E080E0E9
:101AF00090E00E944A1E24E630E040E050E00E9460
:101B00005A1E79018A01C401B3010E944711C7011D
:101B10000E94700760E070E080E090E00E94471152
:101B2000C5018E199F0904C0A114B10419F0C501A3
:101B30000E947007DF91CF911F910F91FF90EF905E
:101B4000DF90CF90BF90AF909F908F907F906F90DD
:101B50000895823029F4809181008E7F80938100E6
:101B600080912F02813031F480913002813011F464
:101B70000000089580912F02813021F08091300281
:101B8000813011F45F9857980895982F80912F0213
:101B9000882331F480913002882311F4579A5F989A
:101BA00080912F028823D1F49230C1F410928000EA
:101BB00010928100809181008860809381008091E3
:101BC00081008160809381001092850010928400D2
:101BD00081E08093890080E9809388000895EFE692
:101BE000F0E080818D7F80830895982F81E080933D
:101BF000C302913071F0913018F0923071F405C049
:101C00007093A00260939F0208C07093A00260933B
:101C10009F027093A2026093A1021092C3020895E2
:101C2000CF93DF93C0E0D0E08C2F60E00E941F0EC6
:101C30002196C531D105C1F7DF91CF910895853146
:101C400028F4E82FF0E0EE58FD4F608308951F93CD
:101C5000CF93DF93EC01009799F181E00E94990600
:101C6000882351F187E00E94E50418EC812F8A95C2
:101C7000F1F782E06AE00E94360582E064EB0E94A0
:101C80003605812F8A95F1F782E060E00E94760C9C
:101C90008883812F8A95F1F782E060E00E94760CBC
:101CA00089831A95F1F782E060E00E94760C8A83BE
:101CB00087E00E94E50404C0188219828DE28A83BD
:101CC000DF91CF911F91089588E00E948C068823B0
:101CD00011F082E008951092E4021092E602109250
:101CE000E50210923F021092400280E16CEA71E13D
:101CF0000E9433110E94840E0E948D0E81E008958F
:101D000081E080934002089584B5826084BD85B5EA
:101D1000846085BD8EE487BD0895EEE6F0E08081A5
:101D2000826080830895CF92DF92EF92FF920F93AB
:101D30001F93CF93DF937B018C01EA01690181E05E
:101D4000E81681EEF80680E0080780E0180740F406
:101D500044E0EE0CFF1C001F111F4A95D1F707C08D
:101D600033E0EE0CFF1C001F111F3A95D1F760E025
:101D700072EC8BEE9BE0A80197010E945A1E79013C
:101D80008A0186EF9FEFAFEFBFEFE80EF91E0A1F43
:101D90001B1FC801B7012AE030E040E050E00E947C
:101DA0005A1E653071058105910540F08AE090E08A
:101DB000A0E0B0E0E80EF91E0A1F1B1FC801B70122
:101DC0002AE030E040E050E00E945A1EC901DA01EA
:101DD0002883892F9A2FAB2FBB27F6018083DF91B1
:101DE000CF911F910F91FF90EF90DF90CF900895CA
:101DF000BF92CF92DF92EF92FF920F931F93DF93E8
:101E0000CF9300D0CDB7DEB7B62EC42ED22E882306
:101E100021F0813009F077C03CC08DE00E94990626
:101E2000882309F470C01A8219821092C00010929F
:101E3000C1001092C200C801B701AE014E5F5F4FF2
:101E40009E012F5F3F4F0E94930EBB0CDD0CDD0CFB
:101E5000DD0CDD0CDB28CC0CCC0CCC0CCD288A8125
:101E60008093C40089818093C500C092C20081E044
:101E7000E81681EEF80680E0080780E0180728F0F1
:101E80008091C00082608093C00081E08093FB025B
:101E90003AC08EE00E9499068823A9F119821A821D
:101EA0001092C8001092C9001092CA00C801B70170
:101EB000AE014F5F5F4F9E012E5F3F4F0E94930E1A
:101EC000BB0CDD0CDD0CDD0CDD0CDB28CC0CCC0CF4
:101ED000CC0CCD2889818093CC008A818093CD0061
:101EE000C092CA0081E0E81681EEF80680E008079B
:101EF00080E0180728F08091C80082608093C800B5
:101F000081E0809300030F900F90CF91DF911F919C
:101F10000F91FF90EF90DF90CF90BF9008958823AE
:101F200019F0813061F406C08091C100806880930F
:101F3000C10008958091C90080688093C900089508
:101F4000882321F08130B9F084E008958DE00E946B
:101F50008C06882369F51092FB021092F902109208
:101F6000FA020E948E1080E065E070E00E94751019
:101F700080EF92E015C08EE00E948C068823C1F4A9
:101F8000109200031092FE021092FF0281E00E9464
:101F90008E1081E065E070E00E94751087EE92E09F
:101FA00061E041E028EE33E00E949D0781E0089562
:101FB00082E00895CF93DF93EB01882321F08130F5
:101FC00009F046C022C08DE00E949906882309F4DA
:101FD0003FC02091FC023091FD028091FA028130D5
:101FE000B9F50FC08091F602882321F021503040CE
:101FF0001092F6028091C00087FF03C08091C60056
:1020000020C01216130674F325C08EE00E949906B4
:102010008823F1F020910103309102038091FF02A7
:102020008130B1F411C08091ED02882321F021505C
:1020300030401092ED028091C80087FF05C080916A
:10204000CE00888380E007C01216130664F302C036
:1020500081E001C083E0DF91CF9108950F931F933A
:10206000182F062F882311F48DE003C0813029F446
:102070008EE00E9499068823A9F10023F9F001302F
:1020800089F5112319F0113069F50CC08091FB021C
:10209000813041F58091C10080618093C10000933F
:1020A000FA0220C0809100038130E1F48091C900E0
:1020B00080618093C9000093FF0214C0112319F0BE
:1020C000113081F408C08091C1008F7E8093C100DF
:1020D0001092FA0207C08091C9008F7E8093C900D8
:1020E0001092FF021F910F91089577FF03C060E0E7
:1020F00070E005C06F31710514F06EE170E0882367
:1021000019F0813051F405C07093FD026093FC0218
:10211000089570930203609301030895882319F0D2
:10212000813041F404C0519A5098599A0895539AB5
:1021300052985B9A0895000008951F920F920FB66F
:102140000F9211242F933F934F935F936F937F933D
:102150008F939F93AF93BF93EF93FF93DF93CF93AF
:102160000F92CDB7DEB781E00E94CC11789481E068
:10217000BE016F5F7F4F0E94DA0F882319F48981B7
:102180000E94D91081E00E948F0F0F90CF91DF91B4
:10219000FF91EF91BF91AF919F918F917F916F913F
:1021A0005F914F913F912F910F900FBE0F901F9015
:1021B00018951F93282F853519F08A3A89F404C0A1
:1021C00081E08093140333C010911403113069F53A
:1021D00082E0809314030E945C121093130327C0C3
:1021E00080911403823009F580911A0390911B03AA
:1021F0004097C0F480911A0390911B03FC01ED5F9E
:10220000FC4F2083019690931B0380931A038091C7
:102210001A0390911B030C9751F4109214030E941F
:10222000DD1105C081E080931903109214038091A1
:102230001403882311F4109213031F910895E82FBB
:10224000803268F48051833050F0F0E0EE0FFF1FD1
:10225000E152FE4F208131817183608302C020E012
:1022600030E0C9010895803218F020E030E00AC063
:10227000E82FF0E0EE0FFF1FE152FE4F2081318189
:1022800071836083C90108950E946B110895EF92D4
:10229000FF920F931F937B018C018AE00E949906A5
:1022A0008823A1F080913002882381F0D801C701F2
:1022B000880F991FAA1FBB1F90933C0280933B027B
:1022C000E114F1040105110509F45F981F910F91C4
:1022D000FF90EF9008958091310290913202A09189
:1022E0003302B09134022091350230913602409190
:1022F000370250913802280F391F4A1F5B1F209365
:102300003102309332024093330250933402809171
:10231000310290913202A0913302B091340288517F
:10232000964FA040B040BCF08BB180588BB98091E3
:10233000310290913202A0913302B091340288515F
:10234000964FA040B0408093310290933202A09308
:102350003302B093340208950E94B3110E94881290
:102360000E946112089588E00E949906882311F462
:1023700084E0089580914002882311F483E0089559
:1023800080913F02882311F082E008950E94D514C5
:102390008130E1F380E00895882319F0813061F401
:1023A00006C08091C1008F778093C100089580910D
:1023B000C9008F778093C9000895E3E0F3E020E03F
:1023C00030E082819381280F391F329683E0ED300F
:1023D000F807B9F72115310509F46DC080910303A1
:1023E000909104032817390709F065C080911503FF
:1023F00090911603892B59F5E0911703F09118037A
:10240000309729F18485882311F5318320838091C9
:102410000503909106039383828380910703909133
:102420000803958384838091090390910A0397831D
:10243000868380910B0390910C0391878087809114
:102440000D0390910E039387828781E0848720910A
:102450001503309116032115310569F1E091170339
:10246000F0911803309739F18091030390910403A0
:1024700091838083809105039091060393838283E7
:1024800080910703909108039583848380910903C9
:1024900090910A039783868380910B0390910C039C
:1024A0009187808780910D0390910E039387828797
:1024B000CF01F9010995089510921B0310921A0398
:1024C000089580913002813011F580913902909108
:1024D0003A0220913B0230913C02280F391F309381
:1024E0003A02209339028091390290913A02885E33
:1024F00093406CF08BB180588BB9809139029091E8
:102500003A02885E934090933A028093390208958C
:1025100087E00E949906882309F4AAC08091970257
:1025200090919802892B09F18091BB029091BC0295
:102530002091970230919802820F931F9093BC02D2
:102540008093BB028091BB029091BC02885E934055
:10255000A4F08091BB029091BC02885E934090935E
:10256000BC028093BB0241E009C080918F02909130
:102570009002909394028093930240E0809199029C
:1025800090919A02892B09F18091BD029091BE022F
:102590002091990230919A02820F931F9093BE026C
:1025A0008093BD028091BD029091BE02885E9340EF
:1025B000A4F08091BD029091BE02885E93409093FA
:1025C000BE028093BD0261E009C0809191029091AA
:1025D0009202909396028093950260E0842F0E946D
:1025E00039138091B7029091B802209193023091F3
:1025F0009402280F391F3093B8022093B7028091BC
:10260000B7029091B802885E934014F440E00BC08A
:102610008091B7029091B802885E93409093B8027F
:102620008093B70241E08091B9029091BA02209163
:10263000950230919602280F391F3093BA022093E9
:10264000B9028091B9029091BA02885E934014F465
:1026500060E00BC08091B9029091BA02885E93400D
:102660009093BA028093B90261E0842F0E947E1396
:1026700008958823F1F020918F023091900280918B
:10268000930290919402281B390B1216130634F40E
:102690008091930290919402019607C0232B49F0F8
:1026A0008091930290919402019790939402809369
:1026B0009302662311F12091910230919202809150
:1026C000950290919602281B390B1216130654F4AA
:1026D0008091950290919602019690939602809334
:1026E00095020895232B49F08091950290919602CE
:1026F0000197909396028093950208950F931F93EC
:10270000182F062F8091C302882309F0E7C080911B
:10271000AB02882309F05AC08091930290919402F1
:10272000892BE9F480914102837E809341021092CB
:10273000B4028091BF02882309F45DC06091AD02AC
:1027400080E00E944D06E091C102F091C2023097F4
:1027500009F451C081E080831092BF024CC0809187
:102760008D02813041F480919F029091A0020197E7
:1027700011F411E002C01123F1F1E091B202F0E096
:10278000EE5EFE4F90914102937E8081892B809373
:1027900041028091B002882321F48091B2028F5FC0
:1027A00003C08091B20281508093B2028091B20244
:1027B00083708093B20281E08093B40280918D0295
:1027C0008130C9F480E00E94811415C090914102CB
:1027D000937E90934102E091B202F0E0EE5EFE4FF4
:1027E0008081892B8093410282E08093B402109211
:1027F0009402109293028091AC02882309F059C090
:102800008091950290919602892BE9F48091410282
:102810008F71809341021092B5028091C00288238B
:1028200009F45CC06091AE0281E00E944D06E09127
:10283000C102F091C202309709F450C081E0818357
:102840001092C0024BC080918E02813041F4809181
:10285000A1029091A202019711F401E002C00023AD
:10286000E9F1E091B302F0E0EA5EFE4F909141029F
:102870009F718081892B809341028091B1028823CE
:1028800021F48091B3028F5F03C08091B302815025
:102890008093B3028091B30283708093B30281E08E
:1028A0008093B50280918E028130C1F40E94811420
:1028B00015C0909141029F7190934102E091B30243
:1028C000F0E0EA5EFE4F8081892B8093410282E036
:1028D0008093B50210929602109295028091B602F2
:1028E000882331F481E492E0612F402F0E94431548
:1028F00088B1837090914102892B88B91F910F9103
:102900000895882321F0813009F04EC027C08091BE
:102910009F029091A002892B49F080919F02909193
:10292000A00201979093A00280939F028091BF0222
:102930008823D1F520919F023091A0028091A302BB
:102940009091A4022817390779F580E060E070E0E3
:102950000E94200681E08093BF0208958091A10229
:102960009091A202892B49F08091A1029091A2023C
:1029700001979093A2028093A1028091C0028823C4
:1029800099F42091A1023091A2028091A502909128
:10299000A6022817390741F481E060E070E00E9448
:1029A000200681E08093C0020895FF920F931F9349
:1029B000CF93DF938091E402882309F459C00091FA
:1029C000E5021091E602F801C081D1818C819D81E0
:1029D00001979D838C83181619060CF449C08981D0
:1029E00080FF05C08E81882311F481E08E83898168
:1029F00081FF03C0EF81F88509958091E402823060
:102A0000A8F0F801828193819093E6028093E50219
:102A100013821282E0910000F0910100848195817F
:102A2000181619063CF0FF24F39405C01092E60234
:102A30001092E502FF248091E40281508093E40229
:102A40008091E402882311F40E944015898182FF5D
:102A500008C08A819B819D838C83C8010E94DB070B
:102A600008C0C8010E94651F89818F7E898301C0CB
:102A7000FF248F2DDF91CF911F910F91FF9008952B
:102A8000109240020895FC018091B402823069F4F2
:102A90008091450291E0892780934502882309F0BF
:102AA0003EC08081837E80833AC080919302909162
:102AB0009402C397A4F56623D1F02091930230913C
:102AC000940280E690E0BC01269FC001279F900DF4
:102AD000369F900D1124880F892F881F990B909392
:102AE000A8028093A70281E08093430218C08091DE
:102AF00043028823A1F08091A7029091A802019738
:102B00009093A8028093A7028091A7029091A802B7
:102B1000892B29F48081837E8083109243028091E7
:102B2000B502823069F48091440291E08927809354
:102B30004402882309F03EC080818F71808308950C
:102B40008091950290919602C397A4F54423D1F009
:102B5000209195023091960280E690E0AC01249F8E
:102B6000C001259F900D349F900D1124880F892F4F
:102B7000881F990B9093AA028093A90281E0809309
:102B800042020895809142028823A1F08091A90217
:102B90009091AA0201979093AA028093A902809132
:102BA000A9029091AA02892B29F480818F718083D8
:102BB000109242020895CF93DF93FC01308120915F
:102BC0005902321303C02081211124C0EC010E945C
:102BD00033038881813089F038F0823089F0833086
:102BE00091F489E391E011C080E291E09F938F938B
:102BF0000E9418210F900F900AC08CE291E005C04E
:102C000087E491E002C089E591E00E942E2188814D
:102C100080935902DF91CF910895DC01FB019C91D3
:102C20008081981325C011962D913C911297818136
:102C3000928128173907E1F413962D913C9114974E
:102C4000838194812817390799F415962D913C9129
:102C50001697858196812817390751F417964D915B
:102C60005C9118972781308581E04217530709F05E
:102C700080E00895CF93DF93EC019B01809158028F
:102C800081110AC041E061E08FE492E00E949D075B
:102C900081E08093580211C080915502882369F029
:102CA00080E40E947B0480E00E94A506888381E086
:102CB0000E94A506898310925502DF91CF91089555
:102CC0000F931F93CF93DF938C01EB010E94440875
:102CD000882309F44EC082E0F80180838C819D81B5
:102CE0008130910511F0029791F58E819F81813A93
:102CF0009105E8F488859985880F991FF8019283DA
:102D000081836E817F81888599854FEF5FE7649F1E
:102D10009001659F300D749F300D112480569F4F98
:102D2000820F931F880F991F948383831CC02E8169
:102D30003F8188859985820F931F805A9048880F1C
:102D4000991FF8019283818388859985EBCF60E094
:102D500080E00E94FD0383E991E09F938F930E949E
:102D600018210F900F90DF91CF911F910F910C942C
:102D70008608DF91CF911F910F910895CF93DF9334
:102D8000EC0166E472E00E940D16811114C06F819F
:102D900078858D819E810E9402066B817C8189816C
:102DA0009A810E94C10589E0FE01A6E4B2E001908B
:102DB0000D928A95E1F7DF91CF9108950E947004FA
:102DC0000E9455030E944C050E944E08813069F50F
:102DD00080EA91E00E942E2188EE93E00E94700725
:102DE0006CE572E080E090E00E948E080E949908F5
:102DF00010926B0210926A0210926D0210926C0295
:102E000010926F0210926E02109271021092700274
:102E10001092690283EB91E00E942E2188EB9BE0E7
:102E20000E9470070E94330307C00E9433038FEB98
:102E300091E00E942E21FFCF6DE770E08AE592E0DD
:102E40000E943A166AE572E089E692E00E946016F6
:102E500089E692E00E94BE1689E692E00E94DB15A8
:102E6000EBCFA0E1B0E0E7E3F7E10C94871E7C0133
:102E70001B016A01FC0117821682838181FF44C312
:102E80009E012F5F3F4F3901F7019381F10193FDBF
:102E9000859193FF81911F01882309F431C3853205
:102EA00039F493FD859193FF81911F01853239F4A7
:102EB000B70190E00E94DC2056016501E5CF10E0EB
:102EC000512C912CFFE1F915D8F08B3279F038F4C0
:102ED000803279F08332A1F4F92DF0612EC08D3269
:102EE00061F0803369F4292D21602DC0392D3260C5
:102EF000932E892D8460982E2AC0E92DE86015C094
:102F000097FC2DC020ED280F2A3088F496FE06C0CD
:102F10003AE0139F200D1124122F19C08AE0589E09
:102F2000200D1124522EE92DE0629E2E10C08E320B
:102F300031F496FCE5C2F92DF0649F2E08C08C3662
:102F400021F4292D2068922E02C0883641F4F10127
:102F500093FD859193FF81911F018111B3CF9BEB6D
:102F6000980F933020F4992D9061805E07C09BE903
:102F7000980F933008F066C1992D9F7E96FF16E05A
:102F80009F73992E853619F49064992E08C0863661
:102F900021F4392F3068932E02C01111115097FE81
:102FA00007C01C3350F444244394410E27E00BC067
:102FB000183038F027E017E005C027E09CE3492EE1
:102FC00002C0212F412C560184E0A80EB11CF6014D
:102FD0006081718182819381042DA3010E94EE1F83
:102FE0006C01F981FC87F0FF02C0F3FF06C091FC81
:102FF00006C092FE06C000E205C00DE203C00BE26F
:1030000001C000E08C858C7019F001115AC29BC27E
:1030100097FE10C04C0CFC85F4FF04C08A818133FC
:1030200009F44A94141474F528E0241578F588E01E
:10303000482E2CC096FC2AC0812F90E08C159D054F
:103040009CF03CEFC3163FEFD30674F0892D8068E7
:10305000982E0AC0E2E0F0E0EC0FFD1FE10FF11D39
:103060008081803319F411501111F4CF97FE0EC0F6
:1030700044244394410E812F90E0C816D9062CF4C5
:103080001C1904C04424439401C010E097FE06C0FC
:103090001C141D0434F4C601019605C085E090E0BF
:1030A00002C081E090E001110196112331F0212F3F
:1030B00030E02F5F3F4F820F931F252D30E08217A6
:1030C000930714F4581A01C0512C892D897049F4C2
:1030D000552039F0B70180E290E00E94DC205A943C
:1030E000F7CF002329F0B701802F90E00E94DC2069
:1030F00093FC09C0552039F0B70180E390E00E94AD
:10310000DC205A94F7CF97FE4CC04601D7FE02C090
:10311000812C912CC60188199909F301E80FF91F38
:10312000FE87ED87960124193109388B2F87012FEF
:1031300010E01195019511093FEF8316930629F4CC
:10314000B7018EE290E00E94DC20C814D9044CF054
:103150008F8598898815990524F4ED85FE858181F0
:1031600001C080E3F1E08F1A91082D853E852F5F25
:103170003F4F3E872D87801691062CF0B70190E0D7
:103180000E94DC20D9CFC814D90441F49A81963327
:1031900020F4953319F43C8534FF81E3B70190E0C6
:1031A0004EC08A81813319F09C859F7E9C87B70130
:1031B00090E00E94DC20111105C094FC18C085E647
:1031C00090E017C0B7018EE290E00E94DC201E5F05
:1031D00082E001E0080FF301E80FF11D8081B701E3
:1031E00090E00E94DC20802F0113F3CFE6CF85E42E
:1031F00090E0B7010E94DC20D7FC06C0C114D104C6
:1032000041F4EC85E4FF05C0D194C194D1088DE26E
:1032100001C08BE2B70190E00E94DC2080E32AE04D
:10322000C216D1042CF08F5FFAE0CF1AD108F7CF85
:10323000B70190E00E94DC20B701C601C0960E9451
:10324000DC2054C1833631F0833779F0833509F0BF
:1032500056C020C0560132E0A30EB11CF601808199
:10326000898301E010E0630112C05601F2E0AF0E65
:10327000B11CF601C080D18096FE03C0612F70E0C2
:1032800002C06FEF7FEFC6010E94D1208C01F92DA3
:10329000FF7714C0560122E0A20EB11CF601C080D7
:1032A000D18096FE03C0612F70E002C06FEF7FEF08
:1032B000C6010E94C6208C01F92DF0689F2EF3FDF7
:1032C0001AC0852D90E008171907A8F4B70180E20D
:1032D00090E00E94DC205A94F4CFF60197FC85918F
:1032E00097FE81916F01B70190E00E94DC205110A0
:1032F0005A94015011090115110579F7F7C0843668
:1033000011F0893661F5560197FE09C024E0A20E3E
:10331000B11CF60160817181828193810AC0F2E063
:10332000AF0EB11CF60160817181072E000C880B75
:10333000990BF92DFF769F2E97FF09C090958095E8
:10334000709561957F4F8F4F9F4FF0689F2E2AE0B9
:1033500030E0A3010E945E21C82EC6183FC0092D8F
:10336000853721F40F7E2AE030E01DC0097F8F36BB
:1033700091F018F4883559F0C3C0803719F08837B8
:1033800011F0BEC0006104FF09C0046007C094FED4
:1033900008C0066006C028E030E005C020E130E04B
:1033A00002C020E132E0560107FF09C084E0A80E08
:1033B000B11CF601608171818281938108C0F2E0C5
:1033C000AF0EB11CF6016081718180E090E0A30135
:1033D0000E945E21C82EC6180F77902E96FE0BC055
:1033E000092D0E7FC11650F494FE0AC092FC08C04D
:1033F000092D0E7E05C0DC2C092D03C0DC2C01C07C
:10340000D12E04FF0DC0FE01EC0DF11D8081803333
:1034100011F4097E09C002FF06C0D394D39404C0FE
:10342000802F867809F0D39403FD11C000FF06C0F9
:103430001C2DD51480F4150D1D190DC0D51458F48C
:10344000B70180E290E00E94DC20D394F7CFD5143E
:1034500010F45D1801C0512C04FF10C0B70180E3C7
:1034600090E00E94DC2002FF17C001FD03C088E746
:1034700090E002C088E590E0B7010CC0802F86780C
:1034800059F001FF02C08BE201C080E207FD8DE22E
:10349000B70190E00E94DC20C11638F4B70180E348
:1034A00090E00E94DC201150F7CFCA94F301EC0D9C
:1034B000F11D8081B70190E00E94DC20C110F5CFA2
:1034C00015C0F4E0F51560F584E0581A93FE1FC0AE
:1034D000011127C02C8523FF2AC00EEF10E0392DE3
:1034E0003071932EF8018491811124C0552009F484
:1034F000E4CCB70180E290E00E94DC205A94F6CF41
:10350000F7018681978126C08FEF9FEF23C0B70117
:1035100080E290E00E94DC205A945110F8CFD8CF7E
:10352000512CB701802F90E00E94DC20D3CF02E025
:1035300011E0D5CF91108052B70190E00E94DC20BD
:103540000F5F1F4FCFCF23E0251510F483E0BDCFD1
:10355000512CC0CF6096E2E10C94A31E0E94C21AC7
:103560000C94741B0E946D1B58F00E94661B40F067
:1035700029F45F3F29F00C945D1B51110C94A81B9A
:103580000C94631B0E94851B68F39923B1F35523A8
:1035900091F3951B550BBB27AA2762177307840766
:1035A00038F09F5F5F4F220F331F441FAA1FA9F3FC
:1035B00035D00E2E3AF0E0E832D091505040E695EA
:1035C000001CCAF72BD0FE2F29D0660F771F881F4B
:1035D000BB1F261737074807AB07B0E809F0BB0B3E
:1035E000802DBF01FF2793585F4F3AF09E3F510552
:1035F00078F00C945D1B0C94A81B5F3FE4F3983E9D
:10360000D4F3869577956795B795F7959F5FC9F73A
:10361000880F911D9695879597F90895E1E0660FBB
:10362000771F881FBB1F621773078407BA0720F034
:10363000621B730B840BBA0BEE1F88F7E09508959D
:10364000E89409C097FB3EF490958095709561953C
:103650007F4F8F4F9F4F9923A9F0F92F96E9BB27F2
:103660009395F695879577956795B795F111F8CF6E
:10367000FAF4BB0F11F460FF1BC06F5F7F4F8F4FD9
:103680009F4F16C0882311F096E911C0772321F0CF
:103690009EE8872F762F05C0662371F096E8862F67
:1036A00070E060E02AF09A95660F771F881FDAF7BE
:1036B000880F9695879597F9089597F99F6780E801
:1036C00070E060E008959FEF80EC089500240A9474
:1036D0001616170618060906089500240A941216ED
:1036E0001306140605060895092E0394000C11F420
:1036F000882352F0BB0F40F4BF2B11F460FF04C0CD
:103700006F5F7F4F8F4F9F4F089557FD9058440F25
:10371000551F59F05F3F71F04795880F97FB991F30
:1037200061F09F3F79F087950895121613061406ED
:10373000551FF2CF4695F1DF08C01616170618067A
:10374000991FF1CF86957105610508940895E89455
:10375000BB2766277727CB0197F908950E948D1B19
:10376000A8F19E57B0F1985160F039F1983070F59A
:10377000092E9927660F771F881F991F0A94D1F782
:103780001CC0BB27993F4CF4B111B1E0B62B672F99
:10379000782F8827985FB1F708C086957795679549
:1037A000B79508F4B1609395C1F7BB0F30F411F4ED
:1037B00060FF03C06F5F7F4F8F4F3EF49095809501
:1037C000709561957F4F8F4F9F4F089568940C942B
:1037D000A81B0C94A71B0E94FE1B0C94741B0E9438
:1037E000661B38F00E946D1B20F0952311F00C949D
:1037F0005D1B0C94631B11240C94A81B0E94851B59
:1038000070F3959FC1F3950F50E0551F629FF00133
:10381000729FBB27F00DB11D639FAA27F00DB11D4C
:10382000AA1F649F6627B00DA11D661F829F2227D5
:10383000B00DA11D621F739FB00DA11D621F839F5C
:10384000A00D611D221F749F3327A00D611D231F32
:10385000849F600D211D822F762F6A2F11249F5780
:1038600050409AF0F1F088234AF0EE0FFF1FBB1F83
:10387000661F771F881F91505040A9F79E3F510542
:1038800080F00C945D1B0C94A81B5F3FE4F3983E02
:10389000D4F3869577956795B795F795E7959F5FEC
:1038A000C1F7FE2B880F911D9695879597F908957E
:1038B000FA01EE0FFF1F309621053105A1F16115C8
:1038C000710561F48038BFE39B0749F16894903833
:1038D000810561F08038BFEF9B0741F099234AF5DD
:1038E000FF3FE1053105210519F1E8940894E795BA
:1038F000D901AA2329F4AB2FBE2FF85FD0F310C053
:10390000FF5F70F4A695E0F7F73950F019F0FF3A31
:1039100038F49F779F930DD00F9007FC905808952F
:1039200046F00C94631B60E070E080E89FE308952C
:103930004FE79F775F934F933F932F930E94531DC1
:103940002F913F914F915F910E94EB1B0C94B01C03
:1039500029F416F00C945D1B0C94A71B0C94631BAC
:103960000E948D1BA8F39638A0F707F80F92E894F1
:103970002BE33AEA48EB5FE70E94011C0F920F929B
:103980000F924DB75EB70F920E949B1DECE7F0E0DF
:103990000E94E21C4F915F91EF91FF91E595EE1F20
:1039A000FF1F49F0FE57E0684427EE0F441FFA95C9
:1039B000E1F74195550B0E94151D0F9007FE0C94E1
:1039C000091D0895DF93CF931F930F93FF92EF92FA
:1039D000DF927B018C01689406C0DA2EEF010E9411
:1039E000FE1BFE01E894A5912591359145915591D5
:1039F000A6F3EF010E94E71DFE019701A801DA94EA
:103A000069F7DF90EF90FF900F911F91CF91DF91B9
:103A100008959B01AC0160E070E080E89FE30C94A6
:103A2000AE1A0C945D1B0C943C1E0E948D1BD8F3A7
:103A30009923C9F3940F511DA3F39150504094F072
:103A400059F0882332F0660F771F881F915050403D
:103A5000C1F79E3F51052CF7880F911D96958795CC
:103A600097F908955F3FACF0983E9CF0BB27869590
:103A700077956795B79508F4B1609395C1F7BB0F3B
:103A800058F711F460FFE8CF6F5F7F4F8F4F9F4F64
:103A9000E3CF0C94A81B16F00C943C1E0C94631BF3
:103AA00068940C945D1B0E948D1BA8F39923C1F3AD
:103AB000AEF3DF93CF931F930F93FF92C92FDD27B0
:103AC00088232AF02197660F771F881FDAF720E0F6
:103AD00030E040E85FEB9FE3883920F0803E38F02B
:103AE00021968F770E94D01DE4EAF0E004C00E9486
:103AF000D01DE1EDF0E00E94E21C8B01BE01EC0163
:103B0000FB2E6F5771097595771F880B990B0E94D3
:103B1000221B28E132E741E35FE30E94FE1BAF2D49
:103B20009801AE01FF900F911F91CF91DF910E94FC
:103B3000E71D0C94741BFA01DC01AA0FBB1F9B014B
:103B4000AC01BF5728F4222733274427507820C0E0
:103B5000B75190F4AB2F0024469537952795011C5B
:103B6000A395D2F3002071F0220F331F441FB395A9
:103B7000DAF30ED00C94CF1D61307105A0E88A07EE
:103B8000B94630F49B01AC016627772788279078E7
:103B9000309621F020833183428353830895505817
:103BA000BB27AA270E94E71D0C94741B0E94661B6A
:103BB00038F00E946D1B20F039F49F3F19F426F471
:103BC0000C94631B0EF4E095E7FB0C945D1BE92F4E
:103BD0000E94851B58F3BA1762077307840795077D
:103BE00020F079F4A6F50C94A71B0EF4E0950B2EAB
:103BF000BA2FA02D0B01B90190010C01CA01A0013F
:103C00001124FF27591B99F0593F50F4503E68F199
:103C10001A16F040A22F232F342F4427585FF3CFDA
:103C2000469537952795A795F0405395C9F77EF4AB
:103C30001F16BA0B620B730B840BBAF09150A1F0F4
:103C4000FF0FBB1F661F771F881FC2F70EC0BA0F7A
:103C5000621F731F841F48F4879577956795B79502
:103C6000F7959E3F08F0B0CF9395880F08F09927FD
:103C7000EE0F9795879508959F3F31F0915020F46E
:103C8000879577956795B795880F911D9695879538
:103C900097F90895DB018F939F930E947C1EBF913B
:103CA000AF91A29F800D911DA39F900DB29F900D8B
:103CB00011240895A1E21A2EAA1BBB1BFD010DC001
:103CC000AA1FBB1FEE1FFF1FA217B307E407F507CC
:103CD00020F0A21BB30BE40BF50B661F771F881FA8
:103CE000991F1A9469F760957095809590959B013E
:103CF000AC01BD01CF0108950E94BE1EA59F900D8D
:103D0000B49F900DA49F800D911D112408952F92B2
:103D10003F924F925F926F927F928F929F92AF925B
:103D2000BF92CF92DF92EF92FF920F931F93CF93A8
:103D3000DF93CDB7DEB7CA1BDB0B0FB6F894DEBF3F
:103D40000FBECDBF09942A88398848885F846E8465
:103D50007D848C849B84AA84B984C884DF80EE80AF
:103D6000FD800C811B81AA81B981CE0FD11D0FB6B8
:103D7000F894DEBF0FBECDBFED010895A29FB00144
:103D8000B39FC001A39F700D811D1124911DB29F8F
:103D9000700D811D1124911D08950F931F93CF93D2
:103DA000DF938230910510F482E090E0E0911E03F1
:103DB000F0911F0320E030E0A0E0B0E0309719F16F
:103DC000408151810281138148175907C8F0841737
:103DD000950769F4109731F012960C931297139689
:103DE0001C9327C000931E0310931F0322C02115AC
:103DF000310519F04217530718F49A01BD01EF017C
:103E0000DF01F801DBCF21153105F9F0281B390B53
:103E10002430310580F48A819B816115710521F080
:103E2000FB019383828304C090931F0380931E033E
:103E3000FE01329644C0FE01E20FF31F819391937D
:103E400022503109398328833AC020911C033091D4
:103E50001D03232B41F420911C0130911D0130934F
:103E60001D0320931C0320911A0130911B01211581
:103E7000310541F42DB73EB740911E0150911F010D
:103E8000241B350BE0911C03F0911D03E217F3078F
:103E9000A0F42E1B3F0B2817390778F0AC014E5FBA
:103EA0005F4F2417350748F04E0F5F1F50931D03D7
:103EB00040931C038193919302C0E0E0F0E0CF01B6
:103EC000DF91CF911F910F910895CF93DF930097CA
:103ED00009F481C0FC01329713821282A0911E0363
:103EE000B0911F03109781F420813181820F931FBD
:103EF00020911C0330911D032817390751F5F093C9
:103F00001D03E0931C0367C0ED0120E030E0CE17F5
:103F1000DF0740F44A815B819E0141155105F1F0B4
:103F2000EA01F5CFD383C28340815181840F951F6D
:103F3000C817D90759F488819981840F951F029673
:103F4000918380838A819B819383828321153105AC
:103F500029F4F0931F03E0931E033DC0E901FB83A6
:103F6000EA8349915991C40FD51FEC17FD0761F4FD
:103F700080819181840F951F0296E901998388833E
:103F8000828193819B838A83E0E0F0E012968D9199
:103F90009C911397009719F0FD01DC01F7CF8D91EB
:103FA0009C9111979D012E5F3F4F820F931F20918F
:103FB0001C0330911D032817390769F4309729F441
:103FC00010921F0310921E0302C013821282B0933C
:103FD0001D03A0931C03DF91CF910895283008F0B2
:103FE00027E03327DA01990F311D87FD9160009694
:103FF0006105710539F432602E5F3D9330E32A95F7
:10400000E1F708959F3F30F080387105610509F0B0
:104010003C5F3C5F3D93913008F08068911DDF93D9
:10402000CF931F930F93FF92EF92192F987F96953E
:10403000E92F96959695E90FFF27E05AFE4F9927AD
:104040003327EE24FF24A701E70105900894079485
:1040500028F4360FE71EF81E491F511D660F771F03
:10406000881F991F0694A1F70590079428F4E70E7E
:10407000F81E491F561FC11D770F881F991F661F05
:104080000694A1F70590079428F4F80E491F561FCF
:10409000C71FD11D880F991F661F771F0694A1F7B0
:1040A0000590079420F4490F561FC71FD81F990F7A
:1040B000661F771F881F0694A9F7849110951770C3
:1040C00041F0D695C79557954795F794E7941A957B
:1040D000C1F7E6E0F1E0689415901591359165918E
:1040E000959105907FE27395E118F10A430B560B09
:1040F000C90BD009C0F7E10CF11E431F561FC91FA1
:10410000D01D7EF4703311F48A95E6CFE894015007
:1041100030F0080F0AF40027021708F4202F239527
:10412000022F7A3328F079E37D932A95E9F710C0BE
:104130007D932A9589F606949795679537951795F7
:104140001794E118F10A430B560BC90BD00998F0EC
:1041500023957E9173957A3308F070E37C93201356
:10416000B8F77E9170617D9330F0839571E37D9314
:1041700070E32A95E1F71124EF90FF900F911F91C2
:10418000CF91DF91992787FD90950895FC010590C7
:10419000615070400110D8F7809590958E0F9F1F49
:1041A0000895FC016150704001900110D8F780958E
:1041B00090958E0F9F1F08950F931F93CF93DF93BA
:1041C000FB01238121FD03C08FEF9FEF2CC022FF55
:1041D00016C046815781248135814217530744F424
:1041E000A081B1819D012F5F3F4F318320838C934C
:1041F000268137812F5F3F4F3783268314C08B0181
:10420000EC01FB010084F185E02D0995892BE1F695
:10421000D80116968D919C911797019617969C93AD
:104220008E931697CE01DF91CF911F910F91089534
:10423000A0E0B0E0EEE1F1E20C94971EAE014B5F1E
:104240005F4FFA0161917191AF01809122039091CA
:1042500023030E943117E2E00C94B31E0F931F93C7
:10426000CF93DF93E0912203F0912303238121FF79
:104270001BC08C01D0E0C0E0F80181918F016091FA
:10428000220370912303DB011896ED91FC9119979D
:10429000882331F00995892B79F3DFEFCFEFECCF4D
:1042A0008AE00995892B19F08FEF9FEF02C08D2FBF
:1042B0009C2FDF91CF911F910F910895FA01AA27AA
:1042C000283051F1203181F1E8946F936E7F6E5F59
:1042D0007F4F8F4F9F4FAF4FB1E03ED0B4E03CD007
:1042E000670F781F891F9A1FA11D680F791F8A1FEA
:1042F000911DA11D6A0F711D811D911DA11D20D051
:1043000009F468943F912AE0269F11243019305D0A
:104310003193DEF6CF010895462F4770405D4193FB
:10432000B3E00FD0C9F7F6CF462F4F70405D4A3348
:1043300018F0495D31FD4052419302D0A9F7EACF10
:10434000B4E0A6959795879577956795BA95C9F73F
:1043500000976105710508959B01AC010A2E069432
:104360005795479537952795BA95C9F7620F731FEB
:0C437000841F951FA01D0895F894FFCF36
:10437C00020103030000000200000000420B0000D9
:10438C000000180C041060C08020000026032000E0
:10439C006C6D616F20776861747570004578706C16
:1043AC006F72696E672E2E2E0041766F6964696E8E
:1043BC006721202E2E2000466F6C6C6F77696E671C
:1043CC00206F626A6563742100556E6B6E6F776E39
:1043DC00207374617465210043656E74203D202840
:1043EC002025642C20256420290900773A20256497
:1043FC002C20683A2025640900736967233A20252C
:10440C00640900556E6B6E6F776E20506978790079
:10441C0050697879206F70656E207375636365736E
:10442C007321005374617274696E672E2E2E0046D0
:10443C004154414C3A2050697879206661696C6529
:04444C0064210000E7
:00000001FF
